{
	"contracts/addressdemo.sol": {
		"AddressDemo": {
			"abi": [
				{
					"inputs": [],
					"stateMutability": "nonpayable",
					"type": "constructor"
				},
				{
					"inputs": [],
					"name": "getBalance",
					"outputs": [
						{
							"internalType": "uint256",
							"name": "",
							"type": "uint256"
						},
						{
							"internalType": "uint256",
							"name": "",
							"type": "uint256"
						},
						{
							"internalType": "uint256",
							"name": "",
							"type": "uint256"
						}
					],
					"stateMutability": "view",
					"type": "function"
				},
				{
					"inputs": [],
					"name": "getContracteOwner",
					"outputs": [
						{
							"internalType": "address",
							"name": "",
							"type": "address"
						}
					],
					"stateMutability": "view",
					"type": "function"
				},
				{
					"inputs": [],
					"name": "getSender",
					"outputs": [
						{
							"internalType": "address",
							"name": "",
							"type": "address"
						}
					],
					"stateMutability": "view",
					"type": "function"
				},
				{
					"inputs": [],
					"name": "getThisAddr",
					"outputs": [
						{
							"internalType": "address",
							"name": "",
							"type": "address"
						}
					],
					"stateMutability": "view",
					"type": "function"
				}
			],
			"devdoc": {
				"kind": "dev",
				"methods": {},
				"version": 1
			},
			"evm": {
				"assembly": "    /* \"contracts/addressdemo.sol\":58:859  contract AddressDemo{... */\n  mstore(0x40, 0x80)\n    /* \"contracts/addressdemo.sol\":105:153  constructor(){... */\n  callvalue\n  dup1\n  iszero\n  tag_1\n  jumpi\n  0x00\n  dup1\n  revert\ntag_1:\n  pop\n    /* \"contracts/addressdemo.sol\":136:146  msg.sender */\n  caller\n    /* \"contracts/addressdemo.sol\":128:133  owner */\n  0x00\n  dup1\n    /* \"contracts/addressdemo.sol\":128:146  owner = msg.sender */\n  0x0100\n  exp\n  dup2\n  sload\n  dup2\n  0xffffffffffffffffffffffffffffffffffffffff\n  mul\n  not\n  and\n  swap1\n  dup4\n  0xffffffffffffffffffffffffffffffffffffffff\n  and\n  mul\n  or\n  swap1\n  sstore\n  pop\n    /* \"contracts/addressdemo.sol\":58:859  contract AddressDemo{... */\n  dataSize(sub_0)\n  dup1\n  dataOffset(sub_0)\n  0x00\n  codecopy\n  0x00\n  return\nstop\n\nsub_0: assembly {\n        /* \"contracts/addressdemo.sol\":58:859  contract AddressDemo{... */\n      mstore(0x40, 0x80)\n      callvalue\n      dup1\n      iszero\n      tag_1\n      jumpi\n      0x00\n      dup1\n      revert\n    tag_1:\n      pop\n      jumpi(tag_2, lt(calldatasize, 0x04))\n      shr(0xe0, calldataload(0x00))\n      dup1\n      0x12065fe0\n      eq\n      tag_3\n      jumpi\n      dup1\n      0x5e01eb5a\n      eq\n      tag_4\n      jumpi\n      dup1\n      0x7e88eb48\n      eq\n      tag_5\n      jumpi\n      dup1\n      0xc39911cf\n      eq\n      tag_6\n      jumpi\n    tag_2:\n      0x00\n      dup1\n      revert\n        /* \"contracts/addressdemo.sol\":586:856  function getBalance()public view returns(uint,uint,uint){... */\n    tag_3:\n      tag_7\n      tag_8\n      jump\t// in\n    tag_7:\n      mload(0x40)\n      tag_9\n      swap4\n      swap3\n      swap2\n      swap1\n      tag_10\n      jump\t// in\n    tag_9:\n      mload(0x40)\n      dup1\n      swap2\n      sub\n      swap1\n      return\n        /* \"contracts/addressdemo.sol\":332:415  function getSender() public view returns(address){... */\n    tag_4:\n      tag_11\n      tag_12\n      jump\t// in\n    tag_11:\n      mload(0x40)\n      tag_13\n      swap2\n      swap1\n      tag_14\n      jump\t// in\n    tag_13:\n      mload(0x40)\n      dup1\n      swap2\n      sub\n      swap1\n      return\n        /* \"contracts/addressdemo.sol\":494:580  function getContracteOwner() public view returns(address){... */\n    tag_5:\n      tag_15\n      tag_16\n      jump\t// in\n    tag_15:\n      mload(0x40)\n      tag_17\n      swap2\n      swap1\n      tag_14\n      jump\t// in\n    tag_17:\n      mload(0x40)\n      dup1\n      swap2\n      sub\n      swap1\n      return\n        /* \"contracts/addressdemo.sol\":195:283  function getThisAddr()public view returns (address){... */\n    tag_6:\n      tag_18\n      tag_19\n      jump\t// in\n    tag_18:\n      mload(0x40)\n      tag_20\n      swap2\n      swap1\n      tag_14\n      jump\t// in\n    tag_20:\n      mload(0x40)\n      dup1\n      swap2\n      sub\n      swap1\n      return\n        /* \"contracts/addressdemo.sol\":586:856  function getBalance()public view returns(uint,uint,uint){... */\n    tag_8:\n        /* \"contracts/addressdemo.sol\":627:631  uint */\n      0x00\n        /* \"contracts/addressdemo.sol\":632:636  uint */\n      dup1\n        /* \"contracts/addressdemo.sol\":637:641  uint */\n      0x00\n        /* \"contracts/addressdemo.sol\":652:672  uint contractBalance */\n      dup1\n        /* \"contracts/addressdemo.sol\":675:696  address(this).balance */\n      selfbalance\n        /* \"contracts/addressdemo.sol\":652:696  uint contractBalance = address(this).balance */\n      swap1\n      pop\n        /* \"contracts/addressdemo.sol\":706:724  uint clientBalance */\n      0x00\n        /* \"contracts/addressdemo.sol\":727:737  msg.sender */\n      caller\n        /* \"contracts/addressdemo.sol\":727:745  msg.sender.balance */\n      0xffffffffffffffffffffffffffffffffffffffff\n      and\n      balance\n        /* \"contracts/addressdemo.sol\":706:745  uint clientBalance = msg.sender.balance */\n      swap1\n      pop\n        /* \"contracts/addressdemo.sol\":755:772  uint ownerBalance */\n      0x00\n        /* \"contracts/addressdemo.sol\":775:780  owner */\n      dup1\n      0x00\n      swap1\n      sload\n      swap1\n      0x0100\n      exp\n      swap1\n      div\n      0xffffffffffffffffffffffffffffffffffffffff\n      and\n        /* \"contracts/addressdemo.sol\":775:788  owner.balance */\n      0xffffffffffffffffffffffffffffffffffffffff\n      and\n      balance\n        /* \"contracts/addressdemo.sol\":755:788  uint ownerBalance = owner.balance */\n      swap1\n      pop\n        /* \"contracts/addressdemo.sol\":806:821  contractBalance */\n      dup3\n        /* \"contracts/addressdemo.sol\":822:835  clientBalance */\n      dup3\n        /* \"contracts/addressdemo.sol\":836:848  ownerBalance */\n      dup3\n        /* \"contracts/addressdemo.sol\":798:849  return (contractBalance,clientBalance,ownerBalance) */\n      swap6\n      pop\n      swap6\n      pop\n      swap6\n      pop\n      pop\n      pop\n      pop\n        /* \"contracts/addressdemo.sol\":586:856  function getBalance()public view returns(uint,uint,uint){... */\n      swap1\n      swap2\n      swap3\n      jump\t// out\n        /* \"contracts/addressdemo.sol\":332:415  function getSender() public view returns(address){... */\n    tag_12:\n        /* \"contracts/addressdemo.sol\":373:380  address */\n      0x00\n        /* \"contracts/addressdemo.sol\":398:408  msg.sender */\n      caller\n        /* \"contracts/addressdemo.sol\":391:408  return msg.sender */\n      swap1\n      pop\n        /* \"contracts/addressdemo.sol\":332:415  function getSender() public view returns(address){... */\n      swap1\n      jump\t// out\n        /* \"contracts/addressdemo.sol\":494:580  function getContracteOwner() public view returns(address){... */\n    tag_16:\n        /* \"contracts/addressdemo.sol\":543:550  address */\n      0x00\n        /* \"contracts/addressdemo.sol\":568:573  owner */\n      dup1\n      0x00\n      swap1\n      sload\n      swap1\n      0x0100\n      exp\n      swap1\n      div\n      0xffffffffffffffffffffffffffffffffffffffff\n      and\n        /* \"contracts/addressdemo.sol\":561:573  return owner */\n      swap1\n      pop\n        /* \"contracts/addressdemo.sol\":494:580  function getContracteOwner() public view returns(address){... */\n      swap1\n      jump\t// out\n        /* \"contracts/addressdemo.sol\":195:283  function getThisAddr()public view returns (address){... */\n    tag_19:\n        /* \"contracts/addressdemo.sol\":238:245  address */\n      0x00\n        /* \"contracts/addressdemo.sol\":271:275  this */\n      address\n        /* \"contracts/addressdemo.sol\":256:276  return address(this) */\n      swap1\n      pop\n        /* \"contracts/addressdemo.sol\":195:283  function getThisAddr()public view returns (address){... */\n      swap1\n      jump\t// out\n        /* \"#utility.yul\":7:84   */\n    tag_25:\n        /* \"#utility.yul\":44:51   */\n      0x00\n        /* \"#utility.yul\":73:78   */\n      dup2\n        /* \"#utility.yul\":62:78   */\n      swap1\n      pop\n        /* \"#utility.yul\":7:84   */\n      swap2\n      swap1\n      pop\n      jump\t// out\n        /* \"#utility.yul\":90:208   */\n    tag_26:\n        /* \"#utility.yul\":177:201   */\n      tag_33\n        /* \"#utility.yul\":195:200   */\n      dup2\n        /* \"#utility.yul\":177:201   */\n      tag_25\n      jump\t// in\n    tag_33:\n        /* \"#utility.yul\":172:175   */\n      dup3\n        /* \"#utility.yul\":165:202   */\n      mstore\n        /* \"#utility.yul\":90:208   */\n      pop\n      pop\n      jump\t// out\n        /* \"#utility.yul\":214:656   */\n    tag_10:\n        /* \"#utility.yul\":363:367   */\n      0x00\n        /* \"#utility.yul\":401:403   */\n      0x60\n        /* \"#utility.yul\":390:399   */\n      dup3\n        /* \"#utility.yul\":386:404   */\n      add\n        /* \"#utility.yul\":378:404   */\n      swap1\n      pop\n        /* \"#utility.yul\":414:485   */\n      tag_35\n        /* \"#utility.yul\":482:483   */\n      0x00\n        /* \"#utility.yul\":471:480   */\n      dup4\n        /* \"#utility.yul\":467:484   */\n      add\n        /* \"#utility.yul\":458:464   */\n      dup7\n        /* \"#utility.yul\":414:485   */\n      tag_26\n      jump\t// in\n    tag_35:\n        /* \"#utility.yul\":495:567   */\n      tag_36\n        /* \"#utility.yul\":563:565   */\n      0x20\n        /* \"#utility.yul\":552:561   */\n      dup4\n        /* \"#utility.yul\":548:566   */\n      add\n        /* \"#utility.yul\":539:545   */\n      dup6\n        /* \"#utility.yul\":495:567   */\n      tag_26\n      jump\t// in\n    tag_36:\n        /* \"#utility.yul\":577:649   */\n      tag_37\n        /* \"#utility.yul\":645:647   */\n      0x40\n        /* \"#utility.yul\":634:643   */\n      dup4\n        /* \"#utility.yul\":630:648   */\n      add\n        /* \"#utility.yul\":621:627   */\n      dup5\n        /* \"#utility.yul\":577:649   */\n      tag_26\n      jump\t// in\n    tag_37:\n        /* \"#utility.yul\":214:656   */\n      swap5\n      swap4\n      pop\n      pop\n      pop\n      pop\n      jump\t// out\n        /* \"#utility.yul\":662:788   */\n    tag_27:\n        /* \"#utility.yul\":699:706   */\n      0x00\n        /* \"#utility.yul\":739:781   */\n      0xffffffffffffffffffffffffffffffffffffffff\n        /* \"#utility.yul\":732:737   */\n      dup3\n        /* \"#utility.yul\":728:782   */\n      and\n        /* \"#utility.yul\":717:782   */\n      swap1\n      pop\n        /* \"#utility.yul\":662:788   */\n      swap2\n      swap1\n      pop\n      jump\t// out\n        /* \"#utility.yul\":794:890   */\n    tag_28:\n        /* \"#utility.yul\":831:838   */\n      0x00\n        /* \"#utility.yul\":860:884   */\n      tag_40\n        /* \"#utility.yul\":878:883   */\n      dup3\n        /* \"#utility.yul\":860:884   */\n      tag_27\n      jump\t// in\n    tag_40:\n        /* \"#utility.yul\":849:884   */\n      swap1\n      pop\n        /* \"#utility.yul\":794:890   */\n      swap2\n      swap1\n      pop\n      jump\t// out\n        /* \"#utility.yul\":896:1014   */\n    tag_29:\n        /* \"#utility.yul\":983:1007   */\n      tag_42\n        /* \"#utility.yul\":1001:1006   */\n      dup2\n        /* \"#utility.yul\":983:1007   */\n      tag_28\n      jump\t// in\n    tag_42:\n        /* \"#utility.yul\":978:981   */\n      dup3\n        /* \"#utility.yul\":971:1008   */\n      mstore\n        /* \"#utility.yul\":896:1014   */\n      pop\n      pop\n      jump\t// out\n        /* \"#utility.yul\":1020:1242   */\n    tag_14:\n        /* \"#utility.yul\":1113:1117   */\n      0x00\n        /* \"#utility.yul\":1151:1153   */\n      0x20\n        /* \"#utility.yul\":1140:1149   */\n      dup3\n        /* \"#utility.yul\":1136:1154   */\n      add\n        /* \"#utility.yul\":1128:1154   */\n      swap1\n      pop\n        /* \"#utility.yul\":1164:1235   */\n      tag_44\n        /* \"#utility.yul\":1232:1233   */\n      0x00\n        /* \"#utility.yul\":1221:1230   */\n      dup4\n        /* \"#utility.yul\":1217:1234   */\n      add\n        /* \"#utility.yul\":1208:1214   */\n      dup5\n        /* \"#utility.yul\":1164:1235   */\n      tag_29\n      jump\t// in\n    tag_44:\n        /* \"#utility.yul\":1020:1242   */\n      swap3\n      swap2\n      pop\n      pop\n      jump\t// out\n\n    auxdata: 0xa264697066735822122023574956404ff2483ffc1cff5a416a7f0bb8126b8f8399ae34500d089ce01b2364736f6c63430008090033\n}\n",
				"bytecode": {
					"linkReferences": {},
					"object": "608060405234801561001057600080fd5b50336000806101000a81548173ffffffffffffffffffffffffffffffffffffffff021916908373ffffffffffffffffffffffffffffffffffffffff160217905550610259806100606000396000f3fe608060405234801561001057600080fd5b506004361061004c5760003560e01c806312065fe0146100515780635e01eb5a146100715780637e88eb481461008f578063c39911cf146100ad575b600080fd5b6100596100cb565b60405161006893929190610190565b60405180910390f35b61007961013e565b6040516100869190610208565b60405180910390f35b610097610146565b6040516100a49190610208565b60405180910390f35b6100b561016f565b6040516100c29190610208565b60405180910390f35b60008060008047905060003373ffffffffffffffffffffffffffffffffffffffff1631905060008060009054906101000a900473ffffffffffffffffffffffffffffffffffffffff1673ffffffffffffffffffffffffffffffffffffffff16319050828282955095509550505050909192565b600033905090565b60008060009054906101000a900473ffffffffffffffffffffffffffffffffffffffff16905090565b600030905090565b6000819050919050565b61018a81610177565b82525050565b60006060820190506101a56000830186610181565b6101b26020830185610181565b6101bf6040830184610181565b949350505050565b600073ffffffffffffffffffffffffffffffffffffffff82169050919050565b60006101f2826101c7565b9050919050565b610202816101e7565b82525050565b600060208201905061021d60008301846101f9565b9291505056fea264697066735822122023574956404ff2483ffc1cff5a416a7f0bb8126b8f8399ae34500d089ce01b2364736f6c63430008090033",
					"opcodes": "PUSH1 0x80 PUSH1 0x40 MSTORE CALLVALUE DUP1 ISZERO PUSH2 0x10 JUMPI PUSH1 0x0 DUP1 REVERT JUMPDEST POP CALLER PUSH1 0x0 DUP1 PUSH2 0x100 EXP DUP2 SLOAD DUP2 PUSH20 0xFFFFFFFFFFFFFFFFFFFFFFFFFFFFFFFFFFFFFFFF MUL NOT AND SWAP1 DUP4 PUSH20 0xFFFFFFFFFFFFFFFFFFFFFFFFFFFFFFFFFFFFFFFF AND MUL OR SWAP1 SSTORE POP PUSH2 0x259 DUP1 PUSH2 0x60 PUSH1 0x0 CODECOPY PUSH1 0x0 RETURN INVALID PUSH1 0x80 PUSH1 0x40 MSTORE CALLVALUE DUP1 ISZERO PUSH2 0x10 JUMPI PUSH1 0x0 DUP1 REVERT JUMPDEST POP PUSH1 0x4 CALLDATASIZE LT PUSH2 0x4C JUMPI PUSH1 0x0 CALLDATALOAD PUSH1 0xE0 SHR DUP1 PUSH4 0x12065FE0 EQ PUSH2 0x51 JUMPI DUP1 PUSH4 0x5E01EB5A EQ PUSH2 0x71 JUMPI DUP1 PUSH4 0x7E88EB48 EQ PUSH2 0x8F JUMPI DUP1 PUSH4 0xC39911CF EQ PUSH2 0xAD JUMPI JUMPDEST PUSH1 0x0 DUP1 REVERT JUMPDEST PUSH2 0x59 PUSH2 0xCB JUMP JUMPDEST PUSH1 0x40 MLOAD PUSH2 0x68 SWAP4 SWAP3 SWAP2 SWAP1 PUSH2 0x190 JUMP JUMPDEST PUSH1 0x40 MLOAD DUP1 SWAP2 SUB SWAP1 RETURN JUMPDEST PUSH2 0x79 PUSH2 0x13E JUMP JUMPDEST PUSH1 0x40 MLOAD PUSH2 0x86 SWAP2 SWAP1 PUSH2 0x208 JUMP JUMPDEST PUSH1 0x40 MLOAD DUP1 SWAP2 SUB SWAP1 RETURN JUMPDEST PUSH2 0x97 PUSH2 0x146 JUMP JUMPDEST PUSH1 0x40 MLOAD PUSH2 0xA4 SWAP2 SWAP1 PUSH2 0x208 JUMP JUMPDEST PUSH1 0x40 MLOAD DUP1 SWAP2 SUB SWAP1 RETURN JUMPDEST PUSH2 0xB5 PUSH2 0x16F JUMP JUMPDEST PUSH1 0x40 MLOAD PUSH2 0xC2 SWAP2 SWAP1 PUSH2 0x208 JUMP JUMPDEST PUSH1 0x40 MLOAD DUP1 SWAP2 SUB SWAP1 RETURN JUMPDEST PUSH1 0x0 DUP1 PUSH1 0x0 DUP1 SELFBALANCE SWAP1 POP PUSH1 0x0 CALLER PUSH20 0xFFFFFFFFFFFFFFFFFFFFFFFFFFFFFFFFFFFFFFFF AND BALANCE SWAP1 POP PUSH1 0x0 DUP1 PUSH1 0x0 SWAP1 SLOAD SWAP1 PUSH2 0x100 EXP SWAP1 DIV PUSH20 0xFFFFFFFFFFFFFFFFFFFFFFFFFFFFFFFFFFFFFFFF AND PUSH20 0xFFFFFFFFFFFFFFFFFFFFFFFFFFFFFFFFFFFFFFFF AND BALANCE SWAP1 POP DUP3 DUP3 DUP3 SWAP6 POP SWAP6 POP SWAP6 POP POP POP POP SWAP1 SWAP2 SWAP3 JUMP JUMPDEST PUSH1 0x0 CALLER SWAP1 POP SWAP1 JUMP JUMPDEST PUSH1 0x0 DUP1 PUSH1 0x0 SWAP1 SLOAD SWAP1 PUSH2 0x100 EXP SWAP1 DIV PUSH20 0xFFFFFFFFFFFFFFFFFFFFFFFFFFFFFFFFFFFFFFFF AND SWAP1 POP SWAP1 JUMP JUMPDEST PUSH1 0x0 ADDRESS SWAP1 POP SWAP1 JUMP JUMPDEST PUSH1 0x0 DUP2 SWAP1 POP SWAP2 SWAP1 POP JUMP JUMPDEST PUSH2 0x18A DUP2 PUSH2 0x177 JUMP JUMPDEST DUP3 MSTORE POP POP JUMP JUMPDEST PUSH1 0x0 PUSH1 0x60 DUP3 ADD SWAP1 POP PUSH2 0x1A5 PUSH1 0x0 DUP4 ADD DUP7 PUSH2 0x181 JUMP JUMPDEST PUSH2 0x1B2 PUSH1 0x20 DUP4 ADD DUP6 PUSH2 0x181 JUMP JUMPDEST PUSH2 0x1BF PUSH1 0x40 DUP4 ADD DUP5 PUSH2 0x181 JUMP JUMPDEST SWAP5 SWAP4 POP POP POP POP JUMP JUMPDEST PUSH1 0x0 PUSH20 0xFFFFFFFFFFFFFFFFFFFFFFFFFFFFFFFFFFFFFFFF DUP3 AND SWAP1 POP SWAP2 SWAP1 POP JUMP JUMPDEST PUSH1 0x0 PUSH2 0x1F2 DUP3 PUSH2 0x1C7 JUMP JUMPDEST SWAP1 POP SWAP2 SWAP1 POP JUMP JUMPDEST PUSH2 0x202 DUP2 PUSH2 0x1E7 JUMP JUMPDEST DUP3 MSTORE POP POP JUMP JUMPDEST PUSH1 0x0 PUSH1 0x20 DUP3 ADD SWAP1 POP PUSH2 0x21D PUSH1 0x0 DUP4 ADD DUP5 PUSH2 0x1F9 JUMP JUMPDEST SWAP3 SWAP2 POP POP JUMP INVALID LOG2 PUSH5 0x6970667358 0x22 SLT KECCAK256 0x23 JUMPI 0x49 JUMP BLOCKHASH 0x4F CALLCODE BASEFEE EXTCODEHASH 0xFC SHR SELFDESTRUCT GAS COINBASE PUSH11 0x7F0BB8126B8F8399AE3450 0xD ADDMOD SWAP13 0xE0 SHL 0x23 PUSH5 0x736F6C6343 STOP ADDMOD MULMOD STOP CALLER "
				},
				"gasEstimates": {
					"creation": {
						"codeDepositCost": "120200",
						"executionCost": "24431",
						"totalCost": "144631"
					},
					"external": {
						"getBalance()": "infinite",
						"getContracteOwner()": "2544",
						"getSender()": "385",
						"getThisAddr()": "429"
					}
				},
				"methodIdentifiers": {
					"getBalance()": "12065fe0",
					"getContracteOwner()": "7e88eb48",
					"getSender()": "5e01eb5a",
					"getThisAddr()": "c39911cf"
				}
			},
			"storageLayout": {
				"storage": [
					{
						"astId": 3,
						"contract": "contracts/addressdemo.sol:AddressDemo",
						"label": "owner",
						"offset": 0,
						"slot": "0",
						"type": "t_address"
					}
				],
				"types": {
					"t_address": {
						"encoding": "inplace",
						"label": "address",
						"numberOfBytes": "20"
					}
				}
			},
			"userdoc": {
				"kind": "user",
				"methods": {},
				"version": 1
			}
		}
	}
}