{
	"contracts/globalvar2.sol": {
		"globalvar2": {
			"abi": [
				{
					"inputs": [],
					"name": "block_number",
					"outputs": [
						{
							"internalType": "uint256",
							"name": "",
							"type": "uint256"
						}
					],
					"stateMutability": "view",
					"type": "function"
				},
				{
					"inputs": [],
					"name": "difficulty",
					"outputs": [
						{
							"internalType": "uint256",
							"name": "",
							"type": "uint256"
						}
					],
					"stateMutability": "view",
					"type": "function"
				},
				{
					"inputs": [],
					"name": "gaslimit",
					"outputs": [
						{
							"internalType": "uint256",
							"name": "",
							"type": "uint256"
						}
					],
					"stateMutability": "view",
					"type": "function"
				},
				{
					"inputs": [],
					"name": "this_moment",
					"outputs": [
						{
							"internalType": "uint256",
							"name": "",
							"type": "uint256"
						}
					],
					"stateMutability": "view",
					"type": "function"
				}
			],
			"devdoc": {
				"kind": "dev",
				"methods": {},
				"version": 1
			},
			"evm": {
				"assembly": "    /* \"contracts/globalvar2.sol\":71:277  contract globalvar2{... */\n  mstore(0x40, 0x80)\n    /* \"contracts/globalvar2.sol\":123:138  block.timestamp */\n  timestamp\n    /* \"contracts/globalvar2.sol\":97:138  uint public this_moment = block.timestamp */\n  0x00\n  sstore\n    /* \"contracts/globalvar2.sol\":171:183  block.number */\n  number\n    /* \"contracts/globalvar2.sol\":144:183  uint public block_number = block.number */\n  0x01\n  sstore\n    /* \"contracts/globalvar2.sol\":214:230  block.difficulty */\n  difficulty\n    /* \"contracts/globalvar2.sol\":189:230  uint public difficulty = block.difficulty */\n  0x02\n  sstore\n    /* \"contracts/globalvar2.sol\":259:273  block.gaslimit */\n  gaslimit\n    /* \"contracts/globalvar2.sol\":236:273  uint public gaslimit = block.gaslimit */\n  0x03\n  sstore\n    /* \"contracts/globalvar2.sol\":71:277  contract globalvar2{... */\n  callvalue\n  dup1\n  iszero\n  tag_1\n  jumpi\n  0x00\n  dup1\n  revert\ntag_1:\n  pop\n  dataSize(sub_0)\n  dup1\n  dataOffset(sub_0)\n  0x00\n  codecopy\n  0x00\n  return\nstop\n\nsub_0: assembly {\n        /* \"contracts/globalvar2.sol\":71:277  contract globalvar2{... */\n      mstore(0x40, 0x80)\n      callvalue\n      dup1\n      iszero\n      tag_1\n      jumpi\n      0x00\n      dup1\n      revert\n    tag_1:\n      pop\n      jumpi(tag_2, lt(calldatasize, 0x04))\n      shr(0xe0, calldataload(0x00))\n      dup1\n      0x19cae462\n      eq\n      tag_3\n      jumpi\n      dup1\n      0x25a58b56\n      eq\n      tag_4\n      jumpi\n      dup1\n      0x2a722839\n      eq\n      tag_5\n      jumpi\n      dup1\n      0xa0200b58\n      eq\n      tag_6\n      jumpi\n    tag_2:\n      0x00\n      dup1\n      revert\n        /* \"contracts/globalvar2.sol\":189:230  uint public difficulty = block.difficulty */\n    tag_3:\n      tag_7\n      tag_8\n      jump\t// in\n    tag_7:\n      mload(0x40)\n      dup1\n      dup3\n      dup2\n      mstore\n      0x20\n      add\n      swap2\n      pop\n      pop\n      mload(0x40)\n      dup1\n      swap2\n      sub\n      swap1\n      return\n        /* \"contracts/globalvar2.sol\":144:183  uint public block_number = block.number */\n    tag_4:\n      tag_9\n      tag_10\n      jump\t// in\n    tag_9:\n      mload(0x40)\n      dup1\n      dup3\n      dup2\n      mstore\n      0x20\n      add\n      swap2\n      pop\n      pop\n      mload(0x40)\n      dup1\n      swap2\n      sub\n      swap1\n      return\n        /* \"contracts/globalvar2.sol\":236:273  uint public gaslimit = block.gaslimit */\n    tag_5:\n      tag_11\n      tag_12\n      jump\t// in\n    tag_11:\n      mload(0x40)\n      dup1\n      dup3\n      dup2\n      mstore\n      0x20\n      add\n      swap2\n      pop\n      pop\n      mload(0x40)\n      dup1\n      swap2\n      sub\n      swap1\n      return\n        /* \"contracts/globalvar2.sol\":97:138  uint public this_moment = block.timestamp */\n    tag_6:\n      tag_13\n      tag_14\n      jump\t// in\n    tag_13:\n      mload(0x40)\n      dup1\n      dup3\n      dup2\n      mstore\n      0x20\n      add\n      swap2\n      pop\n      pop\n      mload(0x40)\n      dup1\n      swap2\n      sub\n      swap1\n      return\n        /* \"contracts/globalvar2.sol\":189:230  uint public difficulty = block.difficulty */\n    tag_8:\n      sload(0x02)\n      dup2\n      jump\t// out\n        /* \"contracts/globalvar2.sol\":144:183  uint public block_number = block.number */\n    tag_10:\n      sload(0x01)\n      dup2\n      jump\t// out\n        /* \"contracts/globalvar2.sol\":236:273  uint public gaslimit = block.gaslimit */\n    tag_12:\n      sload(0x03)\n      dup2\n      jump\t// out\n        /* \"contracts/globalvar2.sol\":97:138  uint public this_moment = block.timestamp */\n    tag_14:\n      sload(0x00)\n      dup2\n      jump\t// out\n\n    auxdata: 0xa26469706673582212206a6b87c0657539201f44cdfc62ec5cad792887b7ff547c6aeb1df305be1ee1db64736f6c63430007060033\n}\n",
				"bytecode": {
					"linkReferences": {},
					"object": "60806040524260005543600155446002554560035534801561002057600080fd5b50610109806100306000396000f3fe6080604052348015600f57600080fd5b506004361060465760003560e01c806319cae46214604b57806325a58b561460675780632a722839146083578063a0200b5814609f575b600080fd5b605160bb565b6040518082815260200191505060405180910390f35b606d60c1565b6040518082815260200191505060405180910390f35b608960c7565b6040518082815260200191505060405180910390f35b60a560cd565b6040518082815260200191505060405180910390f35b60025481565b60015481565b60035481565b6000548156fea26469706673582212206a6b87c0657539201f44cdfc62ec5cad792887b7ff547c6aeb1df305be1ee1db64736f6c63430007060033",
					"opcodes": "PUSH1 0x80 PUSH1 0x40 MSTORE TIMESTAMP PUSH1 0x0 SSTORE NUMBER PUSH1 0x1 SSTORE DIFFICULTY PUSH1 0x2 SSTORE GASLIMIT PUSH1 0x3 SSTORE CALLVALUE DUP1 ISZERO PUSH2 0x20 JUMPI PUSH1 0x0 DUP1 REVERT JUMPDEST POP PUSH2 0x109 DUP1 PUSH2 0x30 PUSH1 0x0 CODECOPY PUSH1 0x0 RETURN INVALID PUSH1 0x80 PUSH1 0x40 MSTORE CALLVALUE DUP1 ISZERO PUSH1 0xF JUMPI PUSH1 0x0 DUP1 REVERT JUMPDEST POP PUSH1 0x4 CALLDATASIZE LT PUSH1 0x46 JUMPI PUSH1 0x0 CALLDATALOAD PUSH1 0xE0 SHR DUP1 PUSH4 0x19CAE462 EQ PUSH1 0x4B JUMPI DUP1 PUSH4 0x25A58B56 EQ PUSH1 0x67 JUMPI DUP1 PUSH4 0x2A722839 EQ PUSH1 0x83 JUMPI DUP1 PUSH4 0xA0200B58 EQ PUSH1 0x9F JUMPI JUMPDEST PUSH1 0x0 DUP1 REVERT JUMPDEST PUSH1 0x51 PUSH1 0xBB JUMP JUMPDEST PUSH1 0x40 MLOAD DUP1 DUP3 DUP2 MSTORE PUSH1 0x20 ADD SWAP2 POP POP PUSH1 0x40 MLOAD DUP1 SWAP2 SUB SWAP1 RETURN JUMPDEST PUSH1 0x6D PUSH1 0xC1 JUMP JUMPDEST PUSH1 0x40 MLOAD DUP1 DUP3 DUP2 MSTORE PUSH1 0x20 ADD SWAP2 POP POP PUSH1 0x40 MLOAD DUP1 SWAP2 SUB SWAP1 RETURN JUMPDEST PUSH1 0x89 PUSH1 0xC7 JUMP JUMPDEST PUSH1 0x40 MLOAD DUP1 DUP3 DUP2 MSTORE PUSH1 0x20 ADD SWAP2 POP POP PUSH1 0x40 MLOAD DUP1 SWAP2 SUB SWAP1 RETURN JUMPDEST PUSH1 0xA5 PUSH1 0xCD JUMP JUMPDEST PUSH1 0x40 MLOAD DUP1 DUP3 DUP2 MSTORE PUSH1 0x20 ADD SWAP2 POP POP PUSH1 0x40 MLOAD DUP1 SWAP2 SUB SWAP1 RETURN JUMPDEST PUSH1 0x2 SLOAD DUP2 JUMP JUMPDEST PUSH1 0x1 SLOAD DUP2 JUMP JUMPDEST PUSH1 0x3 SLOAD DUP2 JUMP JUMPDEST PUSH1 0x0 SLOAD DUP2 JUMP INVALID LOG2 PUSH5 0x6970667358 0x22 SLT KECCAK256 PUSH11 0x6B87C0657539201F44CDFC PUSH3 0xEC5CAD PUSH26 0x2887B7FF547C6AEB1DF305BE1EE1DB64736F6C63430007060033 "
				},
				"gasEstimates": {
					"creation": {
						"codeDepositCost": "53000",
						"executionCost": "80125",
						"totalCost": "133125"
					},
					"external": {
						"block_number()": "1005",
						"difficulty()": "983",
						"gaslimit()": "1027",
						"this_moment()": "1049"
					}
				},
				"methodIdentifiers": {
					"block_number()": "25a58b56",
					"difficulty()": "19cae462",
					"gaslimit()": "2a722839",
					"this_moment()": "a0200b58"
				}
			},
			"storageLayout": {
				"storage": [
					{
						"astId": 5,
						"contract": "contracts/globalvar2.sol:globalvar2",
						"label": "this_moment",
						"offset": 0,
						"slot": "0",
						"type": "t_uint256"
					},
					{
						"astId": 9,
						"contract": "contracts/globalvar2.sol:globalvar2",
						"label": "block_number",
						"offset": 0,
						"slot": "1",
						"type": "t_uint256"
					},
					{
						"astId": 13,
						"contract": "contracts/globalvar2.sol:globalvar2",
						"label": "difficulty",
						"offset": 0,
						"slot": "2",
						"type": "t_uint256"
					},
					{
						"astId": 17,
						"contract": "contracts/globalvar2.sol:globalvar2",
						"label": "gaslimit",
						"offset": 0,
						"slot": "3",
						"type": "t_uint256"
					}
				],
				"types": {
					"t_uint256": {
						"encoding": "inplace",
						"label": "uint256",
						"numberOfBytes": "32"
					}
				}
			},
			"userdoc": {
				"kind": "user",
				"methods": {},
				"version": 1
			}
		}
	}
}