{
	"contracts/ERC20Interface.sol": {
		"Crytos": {
			"abi": [
				{
					"inputs": [],
					"stateMutability": "nonpayable",
					"type": "constructor"
				},
				{
					"anonymous": false,
					"inputs": [
						{
							"indexed": true,
							"internalType": "address",
							"name": "tokenOwner",
							"type": "address"
						},
						{
							"indexed": true,
							"internalType": "address",
							"name": "spender",
							"type": "address"
						},
						{
							"indexed": false,
							"internalType": "uint256",
							"name": "tokens",
							"type": "uint256"
						}
					],
					"name": "Approval",
					"type": "event"
				},
				{
					"anonymous": false,
					"inputs": [
						{
							"indexed": true,
							"internalType": "address",
							"name": "from",
							"type": "address"
						},
						{
							"indexed": true,
							"internalType": "address",
							"name": "to",
							"type": "address"
						},
						{
							"indexed": false,
							"internalType": "uint256",
							"name": "tokens",
							"type": "uint256"
						}
					],
					"name": "Transfer",
					"type": "event"
				},
				{
					"inputs": [
						{
							"internalType": "address",
							"name": "tokenOwner",
							"type": "address"
						},
						{
							"internalType": "address",
							"name": "spender",
							"type": "address"
						}
					],
					"name": "allowance",
					"outputs": [
						{
							"internalType": "uint256",
							"name": "",
							"type": "uint256"
						}
					],
					"stateMutability": "view",
					"type": "function"
				},
				{
					"inputs": [
						{
							"internalType": "address",
							"name": "spender",
							"type": "address"
						},
						{
							"internalType": "uint256",
							"name": "tokens",
							"type": "uint256"
						}
					],
					"name": "approve",
					"outputs": [
						{
							"internalType": "bool",
							"name": "success",
							"type": "bool"
						}
					],
					"stateMutability": "nonpayable",
					"type": "function"
				},
				{
					"inputs": [
						{
							"internalType": "address",
							"name": "tokenOwner",
							"type": "address"
						}
					],
					"name": "balanceOf",
					"outputs": [
						{
							"internalType": "uint256",
							"name": "balance",
							"type": "uint256"
						}
					],
					"stateMutability": "view",
					"type": "function"
				},
				{
					"inputs": [
						{
							"internalType": "address",
							"name": "",
							"type": "address"
						}
					],
					"name": "balances",
					"outputs": [
						{
							"internalType": "uint256",
							"name": "",
							"type": "uint256"
						}
					],
					"stateMutability": "view",
					"type": "function"
				},
				{
					"inputs": [],
					"name": "decimals",
					"outputs": [
						{
							"internalType": "uint256",
							"name": "",
							"type": "uint256"
						}
					],
					"stateMutability": "view",
					"type": "function"
				},
				{
					"inputs": [],
					"name": "founder",
					"outputs": [
						{
							"internalType": "address",
							"name": "",
							"type": "address"
						}
					],
					"stateMutability": "view",
					"type": "function"
				},
				{
					"inputs": [],
					"name": "name",
					"outputs": [
						{
							"internalType": "string",
							"name": "",
							"type": "string"
						}
					],
					"stateMutability": "view",
					"type": "function"
				},
				{
					"inputs": [],
					"name": "symbol",
					"outputs": [
						{
							"internalType": "string",
							"name": "",
							"type": "string"
						}
					],
					"stateMutability": "view",
					"type": "function"
				},
				{
					"inputs": [],
					"name": "totalSupply",
					"outputs": [
						{
							"internalType": "uint256",
							"name": "",
							"type": "uint256"
						}
					],
					"stateMutability": "view",
					"type": "function"
				},
				{
					"inputs": [
						{
							"internalType": "address",
							"name": "to",
							"type": "address"
						},
						{
							"internalType": "uint256",
							"name": "tokens",
							"type": "uint256"
						}
					],
					"name": "transfer",
					"outputs": [
						{
							"internalType": "bool",
							"name": "success",
							"type": "bool"
						}
					],
					"stateMutability": "nonpayable",
					"type": "function"
				},
				{
					"inputs": [
						{
							"internalType": "address",
							"name": "from",
							"type": "address"
						},
						{
							"internalType": "address",
							"name": "to",
							"type": "address"
						},
						{
							"internalType": "uint256",
							"name": "tokens",
							"type": "uint256"
						}
					],
					"name": "transferFrom",
					"outputs": [
						{
							"internalType": "bool",
							"name": "success",
							"type": "bool"
						}
					],
					"stateMutability": "nonpayable",
					"type": "function"
				}
			],
			"devdoc": {
				"kind": "dev",
				"methods": {},
				"version": 1
			},
			"evm": {
				"assembly": "    /* \"contracts/ERC20Interface.sol\":918:3133  contract Crytos is ERC20Interface{... */\n  mstore(0x40, 0x80)\n    /* \"contracts/ERC20Interface.sol\":958:985  string public name = \"khan\" */\n  mload(0x40)\n  dup1\n  0x40\n  add\n  0x40\n  mstore\n  dup1\n  0x04\n  dup2\n  mstore\n  0x20\n  add\n  0x6b68616e00000000000000000000000000000000000000000000000000000000\n  dup2\n  mstore\n  pop\n  0x00\n  swap1\n  dup1\n  mload\n  swap1\n  0x20\n  add\n  swap1\n  tag_1\n  swap3\n  swap2\n  swap1\n  tag_2\n  jump\t// in\ntag_1:\n  pop\n    /* \"contracts/ERC20Interface.sol\":991:1020  string public symbol = \"CRPT\" */\n  mload(0x40)\n  dup1\n  0x40\n  add\n  0x40\n  mstore\n  dup1\n  0x04\n  dup2\n  mstore\n  0x20\n  add\n  0x4352505400000000000000000000000000000000000000000000000000000000\n  dup2\n  mstore\n  pop\n  0x01\n  swap1\n  dup1\n  mload\n  swap1\n  0x20\n  add\n  swap1\n  tag_3\n  swap3\n  swap2\n  swap1\n  tag_2\n  jump\t// in\ntag_3:\n  pop\n    /* \"contracts/ERC20Interface.sol\":1049:1050  0 */\n  0x00\n    /* \"contracts/ERC20Interface.sol\":1026:1050  uint public decimals = 0 */\n  0x02\n  sstore\n    /* \"contracts/ERC20Interface.sol\":1376:1498  constructor(){... */\n  callvalue\n  dup1\n  iszero\n  tag_4\n  jumpi\n  0x00\n  dup1\n  revert\ntag_4:\n  pop\n    /* \"contracts/ERC20Interface.sol\":1413:1420  1000000 */\n  0x0f4240\n    /* \"contracts/ERC20Interface.sol\":1399:1410  totalSupply */\n  0x03\n    /* \"contracts/ERC20Interface.sol\":1399:1420  totalSupply = 1000000 */\n  dup2\n  swap1\n  sstore\n  pop\n    /* \"contracts/ERC20Interface.sol\":1440:1450  msg.sender */\n  caller\n    /* \"contracts/ERC20Interface.sol\":1430:1437  founder */\n  0x04\n  0x00\n    /* \"contracts/ERC20Interface.sol\":1430:1450  founder = msg.sender */\n  0x0100\n  exp\n  dup2\n  sload\n  dup2\n  0xffffffffffffffffffffffffffffffffffffffff\n  mul\n  not\n  and\n  swap1\n  dup4\n  0xffffffffffffffffffffffffffffffffffffffff\n  and\n  mul\n  or\n  swap1\n  sstore\n  pop\n    /* \"contracts/ERC20Interface.sol\":1480:1491  totalSupply */\n  sload(0x03)\n    /* \"contracts/ERC20Interface.sol\":1460:1468  balances */\n  0x05\n    /* \"contracts/ERC20Interface.sol\":1460:1477  balances[founder] */\n  0x00\n    /* \"contracts/ERC20Interface.sol\":1469:1476  founder */\n  0x04\n  0x00\n  swap1\n  sload\n  swap1\n  0x0100\n  exp\n  swap1\n  div\n  0xffffffffffffffffffffffffffffffffffffffff\n  and\n    /* \"contracts/ERC20Interface.sol\":1460:1477  balances[founder] */\n  0xffffffffffffffffffffffffffffffffffffffff\n  and\n  0xffffffffffffffffffffffffffffffffffffffff\n  and\n  dup2\n  mstore\n  0x20\n  add\n  swap1\n  dup2\n  mstore\n  0x20\n  add\n  0x00\n  keccak256\n    /* \"contracts/ERC20Interface.sol\":1460:1491  balances[founder] = totalSupply */\n  dup2\n  swap1\n  sstore\n  pop\n    /* \"contracts/ERC20Interface.sol\":918:3133  contract Crytos is ERC20Interface{... */\n  jump(tag_7)\ntag_2:\n  dup3\n  dup1\n  sload\n  0x01\n  dup2\n  0x01\n  and\n  iszero\n  0x0100\n  mul\n  sub\n  and\n  0x02\n  swap1\n  div\n  swap1\n  0x00\n  mstore\n  keccak256(0x00, 0x20)\n  swap1\n  0x1f\n  add\n  0x20\n  swap1\n  div\n  dup2\n  add\n  swap3\n  dup3\n  tag_9\n  jumpi\n  0x00\n  dup6\n  sstore\n  jump(tag_8)\ntag_9:\n  dup3\n  0x1f\n  lt\n  tag_10\n  jumpi\n  dup1\n  mload\n  not(0xff)\n  and\n  dup4\n  dup1\n  add\n  or\n  dup6\n  sstore\n  jump(tag_8)\ntag_10:\n  dup3\n  dup1\n  add\n  0x01\n  add\n  dup6\n  sstore\n  dup3\n  iszero\n  tag_8\n  jumpi\n  swap2\n  dup3\n  add\ntag_11:\n  dup3\n  dup2\n  gt\n  iszero\n  tag_12\n  jumpi\n  dup3\n  mload\n  dup3\n  sstore\n  swap2\n  0x20\n  add\n  swap2\n  swap1\n  0x01\n  add\n  swap1\n  jump(tag_11)\ntag_12:\ntag_8:\n  pop\n  swap1\n  pop\n  tag_13\n  swap2\n  swap1\n  tag_14\n  jump\t// in\ntag_13:\n  pop\n  swap1\n  jump\t// out\ntag_14:\ntag_15:\n  dup1\n  dup3\n  gt\n  iszero\n  tag_16\n  jumpi\n  0x00\n  dup2\n  0x00\n  swap1\n  sstore\n  pop\n  0x01\n  add\n  jump(tag_15)\ntag_16:\n  pop\n  swap1\n  jump\t// out\ntag_7:\n  dataSize(sub_0)\n  dup1\n  dataOffset(sub_0)\n  0x00\n  codecopy\n  0x00\n  return\nstop\n\nsub_0: assembly {\n        /* \"contracts/ERC20Interface.sol\":918:3133  contract Crytos is ERC20Interface{... */\n      mstore(0x40, 0x80)\n      callvalue\n      dup1\n      iszero\n      tag_1\n      jumpi\n      0x00\n      dup1\n      revert\n    tag_1:\n      pop\n      jumpi(tag_2, lt(calldatasize, 0x04))\n      shr(0xe0, calldataload(0x00))\n      dup1\n      0x313ce567\n      gt\n      tag_14\n      jumpi\n      dup1\n      0x313ce567\n      eq\n      tag_8\n      jumpi\n      dup1\n      0x4d853ee5\n      eq\n      tag_9\n      jumpi\n      dup1\n      0x70a08231\n      eq\n      tag_10\n      jumpi\n      dup1\n      0x95d89b41\n      eq\n      tag_11\n      jumpi\n      dup1\n      0xa9059cbb\n      eq\n      tag_12\n      jumpi\n      dup1\n      0xdd62ed3e\n      eq\n      tag_13\n      jumpi\n      jump(tag_2)\n    tag_14:\n      dup1\n      0x06fdde03\n      eq\n      tag_3\n      jumpi\n      dup1\n      0x095ea7b3\n      eq\n      tag_4\n      jumpi\n      dup1\n      0x18160ddd\n      eq\n      tag_5\n      jumpi\n      dup1\n      0x23b872dd\n      eq\n      tag_6\n      jumpi\n      dup1\n      0x27e235e3\n      eq\n      tag_7\n      jumpi\n    tag_2:\n      0x00\n      dup1\n      revert\n        /* \"contracts/ERC20Interface.sol\":958:985  string public name = \"khan\" */\n    tag_3:\n      tag_15\n      tag_16\n      jump\t// in\n    tag_15:\n      mload(0x40)\n      dup1\n      dup1\n      0x20\n      add\n      dup3\n      dup2\n      sub\n      dup3\n      mstore\n      dup4\n      dup2\n      dup2\n      mload\n      dup2\n      mstore\n      0x20\n      add\n      swap2\n      pop\n      dup1\n      mload\n      swap1\n      0x20\n      add\n      swap1\n      dup1\n      dup4\n      dup4\n      0x00\n    tag_17:\n      dup4\n      dup2\n      lt\n      iszero\n      tag_19\n      jumpi\n      dup1\n      dup3\n      add\n      mload\n      dup2\n      dup5\n      add\n      mstore\n      0x20\n      dup2\n      add\n      swap1\n      pop\n      jump(tag_17)\n    tag_19:\n      pop\n      pop\n      pop\n      pop\n      swap1\n      pop\n      swap1\n      dup2\n      add\n      swap1\n      0x1f\n      and\n      dup1\n      iszero\n      tag_20\n      jumpi\n      dup1\n      dup3\n      sub\n      dup1\n      mload\n      0x01\n      dup4\n      0x20\n      sub\n      0x0100\n      exp\n      sub\n      not\n      and\n      dup2\n      mstore\n      0x20\n      add\n      swap2\n      pop\n    tag_20:\n      pop\n      swap3\n      pop\n      pop\n      pop\n      mload(0x40)\n      dup1\n      swap2\n      sub\n      swap1\n      return\n        /* \"contracts/ERC20Interface.sol\":2305:2597  function approve(address spender, uint tokens) public override returns (bool success){... */\n    tag_4:\n      tag_21\n      0x04\n      dup1\n      calldatasize\n      sub\n      0x40\n      dup2\n      lt\n      iszero\n      tag_22\n      jumpi\n      0x00\n      dup1\n      revert\n    tag_22:\n      dup2\n      add\n      swap1\n      dup1\n      dup1\n      calldataload\n      0xffffffffffffffffffffffffffffffffffffffff\n      and\n      swap1\n      0x20\n      add\n      swap1\n      swap3\n      swap2\n      swap1\n      dup1\n      calldataload\n      swap1\n      0x20\n      add\n      swap1\n      swap3\n      swap2\n      swap1\n      pop\n      pop\n      pop\n      tag_23\n      jump\t// in\n    tag_21:\n      mload(0x40)\n      dup1\n      dup3\n      iszero\n      iszero\n      dup2\n      mstore\n      0x20\n      add\n      swap2\n      pop\n      pop\n      mload(0x40)\n      dup1\n      swap2\n      sub\n      swap1\n      return\n        /* \"contracts/ERC20Interface.sol\":1056:1088  uint public override totalSupply */\n    tag_5:\n      tag_24\n      tag_25\n      jump\t// in\n    tag_24:\n      mload(0x40)\n      dup1\n      dup3\n      dup2\n      mstore\n      0x20\n      add\n      swap2\n      pop\n      pop\n      mload(0x40)\n      dup1\n      swap2\n      sub\n      swap1\n      return\n        /* \"contracts/ERC20Interface.sol\":2680:3131  function transferFrom(address from, address to, uint tokens) override external returns(bool success){... */\n    tag_6:\n      tag_26\n      0x04\n      dup1\n      calldatasize\n      sub\n      0x60\n      dup2\n      lt\n      iszero\n      tag_27\n      jumpi\n      0x00\n      dup1\n      revert\n    tag_27:\n      dup2\n      add\n      swap1\n      dup1\n      dup1\n      calldataload\n      0xffffffffffffffffffffffffffffffffffffffff\n      and\n      swap1\n      0x20\n      add\n      swap1\n      swap3\n      swap2\n      swap1\n      dup1\n      calldataload\n      0xffffffffffffffffffffffffffffffffffffffff\n      and\n      swap1\n      0x20\n      add\n      swap1\n      swap3\n      swap2\n      swap1\n      dup1\n      calldataload\n      swap1\n      0x20\n      add\n      swap1\n      swap3\n      swap2\n      swap1\n      pop\n      pop\n      pop\n      tag_28\n      jump\t// in\n    tag_26:\n      mload(0x40)\n      dup1\n      dup3\n      iszero\n      iszero\n      dup2\n      mstore\n      0x20\n      add\n      swap2\n      pop\n      pop\n      mload(0x40)\n      dup1\n      swap2\n      sub\n      swap1\n      return\n        /* \"contracts/ERC20Interface.sol\":1123:1163  mapping(address => uint) public balances */\n    tag_7:\n      tag_29\n      0x04\n      dup1\n      calldatasize\n      sub\n      0x20\n      dup2\n      lt\n      iszero\n      tag_30\n      jumpi\n      0x00\n      dup1\n      revert\n    tag_30:\n      dup2\n      add\n      swap1\n      dup1\n      dup1\n      calldataload\n      0xffffffffffffffffffffffffffffffffffffffff\n      and\n      swap1\n      0x20\n      add\n      swap1\n      swap3\n      swap2\n      swap1\n      pop\n      pop\n      pop\n      tag_31\n      jump\t// in\n    tag_29:\n      mload(0x40)\n      dup1\n      dup3\n      dup2\n      mstore\n      0x20\n      add\n      swap2\n      pop\n      pop\n      mload(0x40)\n      dup1\n      swap2\n      sub\n      swap1\n      return\n        /* \"contracts/ERC20Interface.sol\":1026:1050  uint public decimals = 0 */\n    tag_8:\n      tag_32\n      tag_33\n      jump\t// in\n    tag_32:\n      mload(0x40)\n      dup1\n      dup3\n      dup2\n      mstore\n      0x20\n      add\n      swap2\n      pop\n      pop\n      mload(0x40)\n      dup1\n      swap2\n      sub\n      swap1\n      return\n        /* \"contracts/ERC20Interface.sol\":1095:1117  address public founder */\n    tag_9:\n      tag_34\n      tag_35\n      jump\t// in\n    tag_34:\n      mload(0x40)\n      dup1\n      dup3\n      0xffffffffffffffffffffffffffffffffffffffff\n      and\n      dup2\n      mstore\n      0x20\n      add\n      swap2\n      pop\n      pop\n      mload(0x40)\n      dup1\n      swap2\n      sub\n      swap1\n      return\n        /* \"contracts/ERC20Interface.sol\":1504:1629  function balanceOf(address tokenOwner) public view override returns(uint balance){... */\n    tag_10:\n      tag_36\n      0x04\n      dup1\n      calldatasize\n      sub\n      0x20\n      dup2\n      lt\n      iszero\n      tag_37\n      jumpi\n      0x00\n      dup1\n      revert\n    tag_37:\n      dup2\n      add\n      swap1\n      dup1\n      dup1\n      calldataload\n      0xffffffffffffffffffffffffffffffffffffffff\n      and\n      swap1\n      0x20\n      add\n      swap1\n      swap3\n      swap2\n      swap1\n      pop\n      pop\n      pop\n      tag_38\n      jump\t// in\n    tag_36:\n      mload(0x40)\n      dup1\n      dup3\n      dup2\n      mstore\n      0x20\n      add\n      swap2\n      pop\n      pop\n      mload(0x40)\n      dup1\n      swap2\n      sub\n      swap1\n      return\n        /* \"contracts/ERC20Interface.sol\":991:1020  string public symbol = \"CRPT\" */\n    tag_11:\n      tag_39\n      tag_40\n      jump\t// in\n    tag_39:\n      mload(0x40)\n      dup1\n      dup1\n      0x20\n      add\n      dup3\n      dup2\n      sub\n      dup3\n      mstore\n      dup4\n      dup2\n      dup2\n      mload\n      dup2\n      mstore\n      0x20\n      add\n      swap2\n      pop\n      dup1\n      mload\n      swap1\n      0x20\n      add\n      swap1\n      dup1\n      dup4\n      dup4\n      0x00\n    tag_41:\n      dup4\n      dup2\n      lt\n      iszero\n      tag_43\n      jumpi\n      dup1\n      dup3\n      add\n      mload\n      dup2\n      dup5\n      add\n      mstore\n      0x20\n      dup2\n      add\n      swap1\n      pop\n      jump(tag_41)\n    tag_43:\n      pop\n      pop\n      pop\n      pop\n      swap1\n      pop\n      swap1\n      dup2\n      add\n      swap1\n      0x1f\n      and\n      dup1\n      iszero\n      tag_44\n      jumpi\n      dup1\n      dup3\n      sub\n      dup1\n      mload\n      0x01\n      dup4\n      0x20\n      sub\n      0x0100\n      exp\n      sub\n      not\n      and\n      dup2\n      mstore\n      0x20\n      add\n      swap2\n      pop\n    tag_44:\n      pop\n      swap3\n      pop\n      pop\n      pop\n      mload(0x40)\n      dup1\n      swap2\n      sub\n      swap1\n      return\n        /* \"contracts/ERC20Interface.sol\":1708:1984  function transfer(address to, uint tokens) public override returns(bool success){... */\n    tag_12:\n      tag_45\n      0x04\n      dup1\n      calldatasize\n      sub\n      0x40\n      dup2\n      lt\n      iszero\n      tag_46\n      jumpi\n      0x00\n      dup1\n      revert\n    tag_46:\n      dup2\n      add\n      swap1\n      dup1\n      dup1\n      calldataload\n      0xffffffffffffffffffffffffffffffffffffffff\n      and\n      swap1\n      0x20\n      add\n      swap1\n      swap3\n      swap2\n      swap1\n      dup1\n      calldataload\n      swap1\n      0x20\n      add\n      swap1\n      swap3\n      swap2\n      swap1\n      pop\n      pop\n      pop\n      tag_47\n      jump\t// in\n    tag_45:\n      mload(0x40)\n      dup1\n      dup3\n      iszero\n      iszero\n      dup2\n      mstore\n      0x20\n      add\n      swap2\n      pop\n      pop\n      mload(0x40)\n      dup1\n      swap2\n      sub\n      swap1\n      return\n        /* \"contracts/ERC20Interface.sol\":2088:2234  function allowance(address tokenOwner, address spender) view public override returns(uint){... */\n    tag_13:\n      tag_48\n      0x04\n      dup1\n      calldatasize\n      sub\n      0x40\n      dup2\n      lt\n      iszero\n      tag_49\n      jumpi\n      0x00\n      dup1\n      revert\n    tag_49:\n      dup2\n      add\n      swap1\n      dup1\n      dup1\n      calldataload\n      0xffffffffffffffffffffffffffffffffffffffff\n      and\n      swap1\n      0x20\n      add\n      swap1\n      swap3\n      swap2\n      swap1\n      dup1\n      calldataload\n      0xffffffffffffffffffffffffffffffffffffffff\n      and\n      swap1\n      0x20\n      add\n      swap1\n      swap3\n      swap2\n      swap1\n      pop\n      pop\n      pop\n      tag_50\n      jump\t// in\n    tag_48:\n      mload(0x40)\n      dup1\n      dup3\n      dup2\n      mstore\n      0x20\n      add\n      swap2\n      pop\n      pop\n      mload(0x40)\n      dup1\n      swap2\n      sub\n      swap1\n      return\n        /* \"contracts/ERC20Interface.sol\":958:985  string public name = \"khan\" */\n    tag_16:\n      0x00\n      dup1\n      sload\n      0x01\n      dup2\n      0x01\n      and\n      iszero\n      0x0100\n      mul\n      sub\n      and\n      0x02\n      swap1\n      div\n      dup1\n      0x1f\n      add\n      0x20\n      dup1\n      swap2\n      div\n      mul\n      0x20\n      add\n      mload(0x40)\n      swap1\n      dup2\n      add\n      0x40\n      mstore\n      dup1\n      swap3\n      swap2\n      swap1\n      dup2\n      dup2\n      mstore\n      0x20\n      add\n      dup3\n      dup1\n      sload\n      0x01\n      dup2\n      0x01\n      and\n      iszero\n      0x0100\n      mul\n      sub\n      and\n      0x02\n      swap1\n      div\n      dup1\n      iszero\n      tag_51\n      jumpi\n      dup1\n      0x1f\n      lt\n      tag_52\n      jumpi\n      0x0100\n      dup1\n      dup4\n      sload\n      div\n      mul\n      dup4\n      mstore\n      swap2\n      0x20\n      add\n      swap2\n      jump(tag_51)\n    tag_52:\n      dup3\n      add\n      swap2\n      swap1\n      0x00\n      mstore\n      keccak256(0x00, 0x20)\n      swap1\n    tag_53:\n      dup2\n      sload\n      dup2\n      mstore\n      swap1\n      0x01\n      add\n      swap1\n      0x20\n      add\n      dup1\n      dup4\n      gt\n      tag_53\n      jumpi\n      dup3\n      swap1\n      sub\n      0x1f\n      and\n      dup3\n      add\n      swap2\n    tag_51:\n      pop\n      pop\n      pop\n      pop\n      pop\n      dup2\n      jump\t// out\n        /* \"contracts/ERC20Interface.sol\":2305:2597  function approve(address spender, uint tokens) public override returns (bool success){... */\n    tag_23:\n        /* \"contracts/ERC20Interface.sol\":2377:2389  bool success */\n      0x00\n        /* \"contracts/ERC20Interface.sol\":2432:2438  tokens */\n      dup2\n        /* \"contracts/ERC20Interface.sol\":2408:2416  balances */\n      0x05\n        /* \"contracts/ERC20Interface.sol\":2408:2428  balances[msg.sender] */\n      0x00\n        /* \"contracts/ERC20Interface.sol\":2417:2427  msg.sender */\n      caller\n        /* \"contracts/ERC20Interface.sol\":2408:2428  balances[msg.sender] */\n      0xffffffffffffffffffffffffffffffffffffffff\n      and\n      0xffffffffffffffffffffffffffffffffffffffff\n      and\n      dup2\n      mstore\n      0x20\n      add\n      swap1\n      dup2\n      mstore\n      0x20\n      add\n      0x00\n      keccak256\n      sload\n        /* \"contracts/ERC20Interface.sol\":2408:2438  balances[msg.sender] >= tokens */\n      lt\n      iszero\n        /* \"contracts/ERC20Interface.sol\":2400:2439  require(balances[msg.sender] >= tokens) */\n      tag_55\n      jumpi\n      0x00\n      dup1\n      revert\n    tag_55:\n        /* \"contracts/ERC20Interface.sol\":2466:2467  0 */\n      0x00\n        /* \"contracts/ERC20Interface.sol\":2457:2463  tokens */\n      dup3\n        /* \"contracts/ERC20Interface.sol\":2457:2467  tokens > 0 */\n      gt\n        /* \"contracts/ERC20Interface.sol\":2449:2468  require(tokens > 0) */\n      tag_56\n      jumpi\n      0x00\n      dup1\n      revert\n    tag_56:\n        /* \"contracts/ERC20Interface.sol\":2510:2516  tokens */\n      dup2\n        /* \"contracts/ERC20Interface.sol\":2479:2486  allowed */\n      0x06\n        /* \"contracts/ERC20Interface.sol\":2479:2498  allowed[msg.sender] */\n      0x00\n        /* \"contracts/ERC20Interface.sol\":2487:2497  msg.sender */\n      caller\n        /* \"contracts/ERC20Interface.sol\":2479:2498  allowed[msg.sender] */\n      0xffffffffffffffffffffffffffffffffffffffff\n      and\n      0xffffffffffffffffffffffffffffffffffffffff\n      and\n      dup2\n      mstore\n      0x20\n      add\n      swap1\n      dup2\n      mstore\n      0x20\n      add\n      0x00\n      keccak256\n        /* \"contracts/ERC20Interface.sol\":2479:2507  allowed[msg.sender][spender] */\n      0x00\n        /* \"contracts/ERC20Interface.sol\":2499:2506  spender */\n      dup6\n        /* \"contracts/ERC20Interface.sol\":2479:2507  allowed[msg.sender][spender] */\n      0xffffffffffffffffffffffffffffffffffffffff\n      and\n      0xffffffffffffffffffffffffffffffffffffffff\n      and\n      dup2\n      mstore\n      0x20\n      add\n      swap1\n      dup2\n      mstore\n      0x20\n      add\n      0x00\n      keccak256\n        /* \"contracts/ERC20Interface.sol\":2479:2516  allowed[msg.sender][spender] = tokens */\n      dup2\n      swap1\n      sstore\n      pop\n        /* \"contracts/ERC20Interface.sol\":2553:2560  spender */\n      dup3\n        /* \"contracts/ERC20Interface.sol\":2532:2569  Approval(msg.sender, spender, tokens) */\n      0xffffffffffffffffffffffffffffffffffffffff\n      and\n        /* \"contracts/ERC20Interface.sol\":2541:2551  msg.sender */\n      caller\n        /* \"contracts/ERC20Interface.sol\":2532:2569  Approval(msg.sender, spender, tokens) */\n      0xffffffffffffffffffffffffffffffffffffffff\n      and\n      0x8c5be1e5ebec7d5bd14f71427d1e84f3dd0314c0f7b2291e5b200ac8c7c3b925\n        /* \"contracts/ERC20Interface.sol\":2562:2568  tokens */\n      dup5\n        /* \"contracts/ERC20Interface.sol\":2532:2569  Approval(msg.sender, spender, tokens) */\n      mload(0x40)\n      dup1\n      dup3\n      dup2\n      mstore\n      0x20\n      add\n      swap2\n      pop\n      pop\n      mload(0x40)\n      dup1\n      swap2\n      sub\n      swap1\n      log3\n        /* \"contracts/ERC20Interface.sol\":2586:2590  true */\n      0x01\n        /* \"contracts/ERC20Interface.sol\":2579:2590  return true */\n      swap1\n      pop\n        /* \"contracts/ERC20Interface.sol\":2305:2597  function approve(address spender, uint tokens) public override returns (bool success){... */\n      swap3\n      swap2\n      pop\n      pop\n      jump\t// out\n        /* \"contracts/ERC20Interface.sol\":1056:1088  uint public override totalSupply */\n    tag_25:\n      sload(0x03)\n      dup2\n      jump\t// out\n        /* \"contracts/ERC20Interface.sol\":2680:3131  function transferFrom(address from, address to, uint tokens) override external returns(bool success){... */\n    tag_28:\n        /* \"contracts/ERC20Interface.sol\":2767:2779  bool success */\n      0x00\n        /* \"contracts/ERC20Interface.sol\":2838:2844  tokens */\n      dup2\n        /* \"contracts/ERC20Interface.sol\":2809:2816  allowed */\n      0x06\n        /* \"contracts/ERC20Interface.sol\":2809:2822  allowed[from] */\n      0x00\n        /* \"contracts/ERC20Interface.sol\":2817:2821  from */\n      dup7\n        /* \"contracts/ERC20Interface.sol\":2809:2822  allowed[from] */\n      0xffffffffffffffffffffffffffffffffffffffff\n      and\n      0xffffffffffffffffffffffffffffffffffffffff\n      and\n      dup2\n      mstore\n      0x20\n      add\n      swap1\n      dup2\n      mstore\n      0x20\n      add\n      0x00\n      keccak256\n        /* \"contracts/ERC20Interface.sol\":2809:2834  allowed[from][msg.sender] */\n      0x00\n        /* \"contracts/ERC20Interface.sol\":2823:2833  msg.sender */\n      caller\n        /* \"contracts/ERC20Interface.sol\":2809:2834  allowed[from][msg.sender] */\n      0xffffffffffffffffffffffffffffffffffffffff\n      and\n      0xffffffffffffffffffffffffffffffffffffffff\n      and\n      dup2\n      mstore\n      0x20\n      add\n      swap1\n      dup2\n      mstore\n      0x20\n      add\n      0x00\n      keccak256\n      sload\n        /* \"contracts/ERC20Interface.sol\":2809:2844  allowed[from][msg.sender] >= tokens */\n      lt\n      iszero\n        /* \"contracts/ERC20Interface.sol\":2801:2845  require(allowed[from][msg.sender] >= tokens) */\n      tag_58\n      jumpi\n      0x00\n      dup1\n      revert\n    tag_58:\n        /* \"contracts/ERC20Interface.sol\":2892:2898  tokens */\n      dup2\n        /* \"contracts/ERC20Interface.sol\":2874:2882  balances */\n      0x05\n        /* \"contracts/ERC20Interface.sol\":2874:2888  balances[from] */\n      0x00\n        /* \"contracts/ERC20Interface.sol\":2883:2887  from */\n      dup7\n        /* \"contracts/ERC20Interface.sol\":2874:2888  balances[from] */\n      0xffffffffffffffffffffffffffffffffffffffff\n      and\n      0xffffffffffffffffffffffffffffffffffffffff\n      and\n      dup2\n      mstore\n      0x20\n      add\n      swap1\n      dup2\n      mstore\n      0x20\n      add\n      0x00\n      keccak256\n      sload\n        /* \"contracts/ERC20Interface.sol\":2874:2898  balances[from] >= tokens */\n      lt\n      iszero\n        /* \"contracts/ERC20Interface.sol\":2866:2899  require(balances[from] >= tokens) */\n      tag_59\n      jumpi\n      0x00\n      dup1\n      revert\n    tag_59:\n        /* \"contracts/ERC20Interface.sol\":2953:2959  tokens */\n      dup2\n        /* \"contracts/ERC20Interface.sol\":2935:2943  balances */\n      0x05\n        /* \"contracts/ERC20Interface.sol\":2935:2949  balances[from] */\n      0x00\n        /* \"contracts/ERC20Interface.sol\":2944:2948  from */\n      dup7\n        /* \"contracts/ERC20Interface.sol\":2935:2949  balances[from] */\n      0xffffffffffffffffffffffffffffffffffffffff\n      and\n      0xffffffffffffffffffffffffffffffffffffffff\n      and\n      dup2\n      mstore\n      0x20\n      add\n      swap1\n      dup2\n      mstore\n      0x20\n      add\n      0x00\n      keccak256\n      0x00\n        /* \"contracts/ERC20Interface.sol\":2935:2959  balances[from] -= tokens */\n      dup3\n      dup3\n      sload\n      sub\n      swap3\n      pop\n      pop\n      dup2\n      swap1\n      sstore\n      pop\n        /* \"contracts/ERC20Interface.sol\":2985:2991  tokens */\n      dup2\n        /* \"contracts/ERC20Interface.sol\":2969:2977  balances */\n      0x05\n        /* \"contracts/ERC20Interface.sol\":2969:2981  balances[to] */\n      0x00\n        /* \"contracts/ERC20Interface.sol\":2978:2980  to */\n      dup6\n        /* \"contracts/ERC20Interface.sol\":2969:2981  balances[to] */\n      0xffffffffffffffffffffffffffffffffffffffff\n      and\n      0xffffffffffffffffffffffffffffffffffffffff\n      and\n      dup2\n      mstore\n      0x20\n      add\n      swap1\n      dup2\n      mstore\n      0x20\n      add\n      0x00\n      keccak256\n      0x00\n        /* \"contracts/ERC20Interface.sol\":2969:2991  balances[to] += tokens */\n      dup3\n      dup3\n      sload\n      add\n      swap3\n      pop\n      pop\n      dup2\n      swap1\n      sstore\n      pop\n        /* \"contracts/ERC20Interface.sol\":3054:3060  tokens */\n      dup2\n        /* \"contracts/ERC20Interface.sol\":3025:3032  allowed */\n      0x06\n        /* \"contracts/ERC20Interface.sol\":3025:3038  allowed[from] */\n      0x00\n        /* \"contracts/ERC20Interface.sol\":3033:3037  from */\n      dup7\n        /* \"contracts/ERC20Interface.sol\":3025:3038  allowed[from] */\n      0xffffffffffffffffffffffffffffffffffffffff\n      and\n      0xffffffffffffffffffffffffffffffffffffffff\n      and\n      dup2\n      mstore\n      0x20\n      add\n      swap1\n      dup2\n      mstore\n      0x20\n      add\n      0x00\n      keccak256\n        /* \"contracts/ERC20Interface.sol\":3025:3050  allowed[from][msg.sender] */\n      0x00\n        /* \"contracts/ERC20Interface.sol\":3039:3049  msg.sender */\n      caller\n        /* \"contracts/ERC20Interface.sol\":3025:3050  allowed[from][msg.sender] */\n      0xffffffffffffffffffffffffffffffffffffffff\n      and\n      0xffffffffffffffffffffffffffffffffffffffff\n      and\n      dup2\n      mstore\n      0x20\n      add\n      swap1\n      dup2\n      mstore\n      0x20\n      add\n      0x00\n      keccak256\n      0x00\n        /* \"contracts/ERC20Interface.sol\":3025:3060  allowed[from][msg.sender] -= tokens */\n      dup3\n      dup3\n      sload\n      sub\n      swap3\n      pop\n      pop\n      dup2\n      swap1\n      sstore\n      pop\n        /* \"contracts/ERC20Interface.sol\":3092:3094  to */\n      dup3\n        /* \"contracts/ERC20Interface.sol\":3077:3103  Transfer(from, to, tokens) */\n      0xffffffffffffffffffffffffffffffffffffffff\n      and\n        /* \"contracts/ERC20Interface.sol\":3086:3090  from */\n      dup5\n        /* \"contracts/ERC20Interface.sol\":3077:3103  Transfer(from, to, tokens) */\n      0xffffffffffffffffffffffffffffffffffffffff\n      and\n      0xddf252ad1be2c89b69c2b068fc378daa952ba7f163c4a11628f55a4df523b3ef\n        /* \"contracts/ERC20Interface.sol\":3096:3102  tokens */\n      dup5\n        /* \"contracts/ERC20Interface.sol\":3077:3103  Transfer(from, to, tokens) */\n      mload(0x40)\n      dup1\n      dup3\n      dup2\n      mstore\n      0x20\n      add\n      swap2\n      pop\n      pop\n      mload(0x40)\n      dup1\n      swap2\n      sub\n      swap1\n      log3\n        /* \"contracts/ERC20Interface.sol\":3120:3124  true */\n      0x01\n        /* \"contracts/ERC20Interface.sol\":3113:3124  return true */\n      swap1\n      pop\n        /* \"contracts/ERC20Interface.sol\":2680:3131  function transferFrom(address from, address to, uint tokens) override external returns(bool success){... */\n      swap4\n      swap3\n      pop\n      pop\n      pop\n      jump\t// out\n        /* \"contracts/ERC20Interface.sol\":1123:1163  mapping(address => uint) public balances */\n    tag_31:\n      mstore(0x20, 0x05)\n      dup1\n      0x00\n      mstore\n      keccak256(0x00, 0x40)\n      0x00\n      swap2\n      pop\n      swap1\n      pop\n      sload\n      dup2\n      jump\t// out\n        /* \"contracts/ERC20Interface.sol\":1026:1050  uint public decimals = 0 */\n    tag_33:\n      sload(0x02)\n      dup2\n      jump\t// out\n        /* \"contracts/ERC20Interface.sol\":1095:1117  address public founder */\n    tag_35:\n      0x04\n      0x00\n      swap1\n      sload\n      swap1\n      0x0100\n      exp\n      swap1\n      div\n      0xffffffffffffffffffffffffffffffffffffffff\n      and\n      dup2\n      jump\t// out\n        /* \"contracts/ERC20Interface.sol\":1504:1629  function balanceOf(address tokenOwner) public view override returns(uint balance){... */\n    tag_38:\n        /* \"contracts/ERC20Interface.sol\":1572:1584  uint balance */\n      0x00\n        /* \"contracts/ERC20Interface.sol\":1602:1610  balances */\n      0x05\n        /* \"contracts/ERC20Interface.sol\":1602:1622  balances[tokenOwner] */\n      0x00\n        /* \"contracts/ERC20Interface.sol\":1611:1621  tokenOwner */\n      dup4\n        /* \"contracts/ERC20Interface.sol\":1602:1622  balances[tokenOwner] */\n      0xffffffffffffffffffffffffffffffffffffffff\n      and\n      0xffffffffffffffffffffffffffffffffffffffff\n      and\n      dup2\n      mstore\n      0x20\n      add\n      swap1\n      dup2\n      mstore\n      0x20\n      add\n      0x00\n      keccak256\n      sload\n        /* \"contracts/ERC20Interface.sol\":1595:1622  return balances[tokenOwner] */\n      swap1\n      pop\n        /* \"contracts/ERC20Interface.sol\":1504:1629  function balanceOf(address tokenOwner) public view override returns(uint balance){... */\n      swap2\n      swap1\n      pop\n      jump\t// out\n        /* \"contracts/ERC20Interface.sol\":991:1020  string public symbol = \"CRPT\" */\n    tag_40:\n      0x01\n      dup1\n      sload\n      0x01\n      dup2\n      0x01\n      and\n      iszero\n      0x0100\n      mul\n      sub\n      and\n      0x02\n      swap1\n      div\n      dup1\n      0x1f\n      add\n      0x20\n      dup1\n      swap2\n      div\n      mul\n      0x20\n      add\n      mload(0x40)\n      swap1\n      dup2\n      add\n      0x40\n      mstore\n      dup1\n      swap3\n      swap2\n      swap1\n      dup2\n      dup2\n      mstore\n      0x20\n      add\n      dup3\n      dup1\n      sload\n      0x01\n      dup2\n      0x01\n      and\n      iszero\n      0x0100\n      mul\n      sub\n      and\n      0x02\n      swap1\n      div\n      dup1\n      iszero\n      tag_61\n      jumpi\n      dup1\n      0x1f\n      lt\n      tag_62\n      jumpi\n      0x0100\n      dup1\n      dup4\n      sload\n      div\n      mul\n      dup4\n      mstore\n      swap2\n      0x20\n      add\n      swap2\n      jump(tag_61)\n    tag_62:\n      dup3\n      add\n      swap2\n      swap1\n      0x00\n      mstore\n      keccak256(0x00, 0x20)\n      swap1\n    tag_63:\n      dup2\n      sload\n      dup2\n      mstore\n      swap1\n      0x01\n      add\n      swap1\n      0x20\n      add\n      dup1\n      dup4\n      gt\n      tag_63\n      jumpi\n      dup3\n      swap1\n      sub\n      0x1f\n      and\n      dup3\n      add\n      swap2\n    tag_61:\n      pop\n      pop\n      pop\n      pop\n      pop\n      dup2\n      jump\t// out\n        /* \"contracts/ERC20Interface.sol\":1708:1984  function transfer(address to, uint tokens) public override returns(bool success){... */\n    tag_47:\n        /* \"contracts/ERC20Interface.sol\":1775:1787  bool success */\n      0x00\n        /* \"contracts/ERC20Interface.sol\":1830:1836  tokens */\n      dup2\n        /* \"contracts/ERC20Interface.sol\":1806:1814  balances */\n      0x05\n        /* \"contracts/ERC20Interface.sol\":1806:1826  balances[msg.sender] */\n      0x00\n        /* \"contracts/ERC20Interface.sol\":1815:1825  msg.sender */\n      caller\n        /* \"contracts/ERC20Interface.sol\":1806:1826  balances[msg.sender] */\n      0xffffffffffffffffffffffffffffffffffffffff\n      and\n      0xffffffffffffffffffffffffffffffffffffffff\n      and\n      dup2\n      mstore\n      0x20\n      add\n      swap1\n      dup2\n      mstore\n      0x20\n      add\n      0x00\n      keccak256\n      sload\n        /* \"contracts/ERC20Interface.sol\":1806:1836  balances[msg.sender] >= tokens */\n      lt\n      iszero\n        /* \"contracts/ERC20Interface.sol\":1798:1837  require(balances[msg.sender] >= tokens) */\n      tag_65\n      jumpi\n      0x00\n      dup1\n      revert\n    tag_65:\n        /* \"contracts/ERC20Interface.sol\":1864:1870  tokens */\n      dup2\n        /* \"contracts/ERC20Interface.sol\":1848:1856  balances */\n      0x05\n        /* \"contracts/ERC20Interface.sol\":1848:1860  balances[to] */\n      0x00\n        /* \"contracts/ERC20Interface.sol\":1857:1859  to */\n      dup6\n        /* \"contracts/ERC20Interface.sol\":1848:1860  balances[to] */\n      0xffffffffffffffffffffffffffffffffffffffff\n      and\n      0xffffffffffffffffffffffffffffffffffffffff\n      and\n      dup2\n      mstore\n      0x20\n      add\n      swap1\n      dup2\n      mstore\n      0x20\n      add\n      0x00\n      keccak256\n      0x00\n        /* \"contracts/ERC20Interface.sol\":1848:1870  balances[to] += tokens */\n      dup3\n      dup3\n      sload\n      add\n      swap3\n      pop\n      pop\n      dup2\n      swap1\n      sstore\n      pop\n        /* \"contracts/ERC20Interface.sol\":1904:1910  tokens */\n      dup2\n        /* \"contracts/ERC20Interface.sol\":1880:1888  balances */\n      0x05\n        /* \"contracts/ERC20Interface.sol\":1880:1900  balances[msg.sender] */\n      0x00\n        /* \"contracts/ERC20Interface.sol\":1889:1899  msg.sender */\n      caller\n        /* \"contracts/ERC20Interface.sol\":1880:1900  balances[msg.sender] */\n      0xffffffffffffffffffffffffffffffffffffffff\n      and\n      0xffffffffffffffffffffffffffffffffffffffff\n      and\n      dup2\n      mstore\n      0x20\n      add\n      swap1\n      dup2\n      mstore\n      0x20\n      add\n      0x00\n      keccak256\n      0x00\n        /* \"contracts/ERC20Interface.sol\":1880:1910  balances[msg.sender] -= tokens */\n      dup3\n      dup3\n      sload\n      sub\n      swap3\n      pop\n      pop\n      dup2\n      swap1\n      sstore\n      pop\n        /* \"contracts/ERC20Interface.sol\":1945:1947  to */\n      dup3\n        /* \"contracts/ERC20Interface.sol\":1925:1955  Transfer(msg.sender,to,tokens) */\n      0xffffffffffffffffffffffffffffffffffffffff\n      and\n        /* \"contracts/ERC20Interface.sol\":1934:1944  msg.sender */\n      caller\n        /* \"contracts/ERC20Interface.sol\":1925:1955  Transfer(msg.sender,to,tokens) */\n      0xffffffffffffffffffffffffffffffffffffffff\n      and\n      0xddf252ad1be2c89b69c2b068fc378daa952ba7f163c4a11628f55a4df523b3ef\n        /* \"contracts/ERC20Interface.sol\":1948:1954  tokens */\n      dup5\n        /* \"contracts/ERC20Interface.sol\":1925:1955  Transfer(msg.sender,to,tokens) */\n      mload(0x40)\n      dup1\n      dup3\n      dup2\n      mstore\n      0x20\n      add\n      swap2\n      pop\n      pop\n      mload(0x40)\n      dup1\n      swap2\n      sub\n      swap1\n      log3\n        /* \"contracts/ERC20Interface.sol\":1973:1977  true */\n      0x01\n        /* \"contracts/ERC20Interface.sol\":1966:1977  return true */\n      swap1\n      pop\n        /* \"contracts/ERC20Interface.sol\":1708:1984  function transfer(address to, uint tokens) public override returns(bool success){... */\n      swap3\n      swap2\n      pop\n      pop\n      jump\t// out\n        /* \"contracts/ERC20Interface.sol\":2088:2234  function allowance(address tokenOwner, address spender) view public override returns(uint){... */\n    tag_50:\n        /* \"contracts/ERC20Interface.sol\":2173:2177  uint */\n      0x00\n        /* \"contracts/ERC20Interface.sol\":2199:2206  allowed */\n      0x06\n        /* \"contracts/ERC20Interface.sol\":2199:2218  allowed[tokenOwner] */\n      0x00\n        /* \"contracts/ERC20Interface.sol\":2207:2217  tokenOwner */\n      dup5\n        /* \"contracts/ERC20Interface.sol\":2199:2218  allowed[tokenOwner] */\n      0xffffffffffffffffffffffffffffffffffffffff\n      and\n      0xffffffffffffffffffffffffffffffffffffffff\n      and\n      dup2\n      mstore\n      0x20\n      add\n      swap1\n      dup2\n      mstore\n      0x20\n      add\n      0x00\n      keccak256\n        /* \"contracts/ERC20Interface.sol\":2199:2227  allowed[tokenOwner][spender] */\n      0x00\n        /* \"contracts/ERC20Interface.sol\":2219:2226  spender */\n      dup4\n        /* \"contracts/ERC20Interface.sol\":2199:2227  allowed[tokenOwner][spender] */\n      0xffffffffffffffffffffffffffffffffffffffff\n      and\n      0xffffffffffffffffffffffffffffffffffffffff\n      and\n      dup2\n      mstore\n      0x20\n      add\n      swap1\n      dup2\n      mstore\n      0x20\n      add\n      0x00\n      keccak256\n      sload\n        /* \"contracts/ERC20Interface.sol\":2192:2227  return allowed[tokenOwner][spender] */\n      swap1\n      pop\n        /* \"contracts/ERC20Interface.sol\":2088:2234  function allowance(address tokenOwner, address spender) view public override returns(uint){... */\n      swap3\n      swap2\n      pop\n      pop\n      jump\t// out\n\n    auxdata: 0xa2646970667358221220ae64fe5ac15a108513a06a2c880a8fad3eb484b7ad7f72b04dd630162f13f01664736f6c63430007060033\n}\n",
				"bytecode": {
					"linkReferences": {},
					"object": "60806040526040518060400160405280600481526020017f6b68616e000000000000000000000000000000000000000000000000000000008152506000908051906020019061004f929190610166565b506040518060400160405280600481526020017f43525054000000000000000000000000000000000000000000000000000000008152506001908051906020019061009b929190610166565b5060006002553480156100ad57600080fd5b50620f424060038190555033600460006101000a81548173ffffffffffffffffffffffffffffffffffffffff021916908373ffffffffffffffffffffffffffffffffffffffff16021790555060035460056000600460009054906101000a900473ffffffffffffffffffffffffffffffffffffffff1673ffffffffffffffffffffffffffffffffffffffff1673ffffffffffffffffffffffffffffffffffffffff16815260200190815260200160002081905550610211565b828054600181600116156101000203166002900490600052602060002090601f01602090048101928261019c57600085556101e3565b82601f106101b557805160ff19168380011785556101e3565b828001600101855582156101e3579182015b828111156101e25782518255916020019190600101906101c7565b5b5090506101f091906101f4565b5090565b5b8082111561020d5760008160009055506001016101f5565b5090565b610c31806102206000396000f3fe608060405234801561001057600080fd5b50600436106100a95760003560e01c8063313ce56711610071578063313ce5671461028f5780634d853ee5146102ad57806370a08231146102e157806395d89b4114610339578063a9059cbb146103bc578063dd62ed3e14610420576100a9565b806306fdde03146100ae578063095ea7b31461013157806318160ddd1461019557806323b872dd146101b357806327e235e314610237575b600080fd5b6100b6610498565b6040518080602001828103825283818151815260200191508051906020019080838360005b838110156100f65780820151818401526020810190506100db565b50505050905090810190601f1680156101235780820380516001836020036101000a031916815260200191505b509250505060405180910390f35b61017d6004803603604081101561014757600080fd5b81019080803573ffffffffffffffffffffffffffffffffffffffff16906020019092919080359060200190929190505050610536565b60405180821515815260200191505060405180910390f35b61019d610681565b6040518082815260200191505060405180910390f35b61021f600480360360608110156101c957600080fd5b81019080803573ffffffffffffffffffffffffffffffffffffffff169060200190929190803573ffffffffffffffffffffffffffffffffffffffff16906020019092919080359060200190929190505050610687565b60405180821515815260200191505060405180910390f35b6102796004803603602081101561024d57600080fd5b81019080803573ffffffffffffffffffffffffffffffffffffffff1690602001909291905050506108f2565b6040518082815260200191505060405180910390f35b61029761090a565b6040518082815260200191505060405180910390f35b6102b5610910565b604051808273ffffffffffffffffffffffffffffffffffffffff16815260200191505060405180910390f35b610323600480360360208110156102f757600080fd5b81019080803573ffffffffffffffffffffffffffffffffffffffff169060200190929190505050610936565b6040518082815260200191505060405180910390f35b61034161097f565b6040518080602001828103825283818151815260200191508051906020019080838360005b83811015610381578082015181840152602081019050610366565b50505050905090810190601f1680156103ae5780820380516001836020036101000a031916815260200191505b509250505060405180910390f35b610408600480360360408110156103d257600080fd5b81019080803573ffffffffffffffffffffffffffffffffffffffff16906020019092919080359060200190929190505050610a1d565b60405180821515815260200191505060405180910390f35b6104826004803603604081101561043657600080fd5b81019080803573ffffffffffffffffffffffffffffffffffffffff169060200190929190803573ffffffffffffffffffffffffffffffffffffffff169060200190929190505050610b74565b6040518082815260200191505060405180910390f35b60008054600181600116156101000203166002900480601f01602080910402602001604051908101604052809291908181526020018280546001816001161561010002031660029004801561052e5780601f106105035761010080835404028352916020019161052e565b820191906000526020600020905b81548152906001019060200180831161051157829003601f168201915b505050505081565b600081600560003373ffffffffffffffffffffffffffffffffffffffff1673ffffffffffffffffffffffffffffffffffffffff16815260200190815260200160002054101561058457600080fd5b6000821161059157600080fd5b81600660003373ffffffffffffffffffffffffffffffffffffffff1673ffffffffffffffffffffffffffffffffffffffff16815260200190815260200160002060008573ffffffffffffffffffffffffffffffffffffffff1673ffffffffffffffffffffffffffffffffffffffff168152602001908152602001600020819055508273ffffffffffffffffffffffffffffffffffffffff163373ffffffffffffffffffffffffffffffffffffffff167f8c5be1e5ebec7d5bd14f71427d1e84f3dd0314c0f7b2291e5b200ac8c7c3b925846040518082815260200191505060405180910390a36001905092915050565b60035481565b600081600660008673ffffffffffffffffffffffffffffffffffffffff1673ffffffffffffffffffffffffffffffffffffffff16815260200190815260200160002060003373ffffffffffffffffffffffffffffffffffffffff1673ffffffffffffffffffffffffffffffffffffffff16815260200190815260200160002054101561071257600080fd5b81600560008673ffffffffffffffffffffffffffffffffffffffff1673ffffffffffffffffffffffffffffffffffffffff16815260200190815260200160002054101561075e57600080fd5b81600560008673ffffffffffffffffffffffffffffffffffffffff1673ffffffffffffffffffffffffffffffffffffffff1681526020019081526020016000206000828254039250508190555081600560008573ffffffffffffffffffffffffffffffffffffffff1673ffffffffffffffffffffffffffffffffffffffff1681526020019081526020016000206000828254019250508190555081600660008673ffffffffffffffffffffffffffffffffffffffff1673ffffffffffffffffffffffffffffffffffffffff16815260200190815260200160002060003373ffffffffffffffffffffffffffffffffffffffff1673ffffffffffffffffffffffffffffffffffffffff168152602001908152602001600020600082825403925050819055508273ffffffffffffffffffffffffffffffffffffffff168473ffffffffffffffffffffffffffffffffffffffff167fddf252ad1be2c89b69c2b068fc378daa952ba7f163c4a11628f55a4df523b3ef846040518082815260200191505060405180910390a3600190509392505050565b60056020528060005260406000206000915090505481565b60025481565b600460009054906101000a900473ffffffffffffffffffffffffffffffffffffffff1681565b6000600560008373ffffffffffffffffffffffffffffffffffffffff1673ffffffffffffffffffffffffffffffffffffffff168152602001908152602001600020549050919050565b60018054600181600116156101000203166002900480601f016020809104026020016040519081016040528092919081815260200182805460018160011615610100020316600290048015610a155780601f106109ea57610100808354040283529160200191610a15565b820191906000526020600020905b8154815290600101906020018083116109f857829003601f168201915b505050505081565b600081600560003373ffffffffffffffffffffffffffffffffffffffff1673ffffffffffffffffffffffffffffffffffffffff168152602001908152602001600020541015610a6b57600080fd5b81600560008573ffffffffffffffffffffffffffffffffffffffff1673ffffffffffffffffffffffffffffffffffffffff1681526020019081526020016000206000828254019250508190555081600560003373ffffffffffffffffffffffffffffffffffffffff1673ffffffffffffffffffffffffffffffffffffffff168152602001908152602001600020600082825403925050819055508273ffffffffffffffffffffffffffffffffffffffff163373ffffffffffffffffffffffffffffffffffffffff167fddf252ad1be2c89b69c2b068fc378daa952ba7f163c4a11628f55a4df523b3ef846040518082815260200191505060405180910390a36001905092915050565b6000600660008473ffffffffffffffffffffffffffffffffffffffff1673ffffffffffffffffffffffffffffffffffffffff16815260200190815260200160002060008373ffffffffffffffffffffffffffffffffffffffff1673ffffffffffffffffffffffffffffffffffffffff1681526020019081526020016000205490509291505056fea2646970667358221220ae64fe5ac15a108513a06a2c880a8fad3eb484b7ad7f72b04dd630162f13f01664736f6c63430007060033",
					"opcodes": "PUSH1 0x80 PUSH1 0x40 MSTORE PUSH1 0x40 MLOAD DUP1 PUSH1 0x40 ADD PUSH1 0x40 MSTORE DUP1 PUSH1 0x4 DUP2 MSTORE PUSH1 0x20 ADD PUSH32 0x6B68616E00000000000000000000000000000000000000000000000000000000 DUP2 MSTORE POP PUSH1 0x0 SWAP1 DUP1 MLOAD SWAP1 PUSH1 0x20 ADD SWAP1 PUSH2 0x4F SWAP3 SWAP2 SWAP1 PUSH2 0x166 JUMP JUMPDEST POP PUSH1 0x40 MLOAD DUP1 PUSH1 0x40 ADD PUSH1 0x40 MSTORE DUP1 PUSH1 0x4 DUP2 MSTORE PUSH1 0x20 ADD PUSH32 0x4352505400000000000000000000000000000000000000000000000000000000 DUP2 MSTORE POP PUSH1 0x1 SWAP1 DUP1 MLOAD SWAP1 PUSH1 0x20 ADD SWAP1 PUSH2 0x9B SWAP3 SWAP2 SWAP1 PUSH2 0x166 JUMP JUMPDEST POP PUSH1 0x0 PUSH1 0x2 SSTORE CALLVALUE DUP1 ISZERO PUSH2 0xAD JUMPI PUSH1 0x0 DUP1 REVERT JUMPDEST POP PUSH3 0xF4240 PUSH1 0x3 DUP2 SWAP1 SSTORE POP CALLER PUSH1 0x4 PUSH1 0x0 PUSH2 0x100 EXP DUP2 SLOAD DUP2 PUSH20 0xFFFFFFFFFFFFFFFFFFFFFFFFFFFFFFFFFFFFFFFF MUL NOT AND SWAP1 DUP4 PUSH20 0xFFFFFFFFFFFFFFFFFFFFFFFFFFFFFFFFFFFFFFFF AND MUL OR SWAP1 SSTORE POP PUSH1 0x3 SLOAD PUSH1 0x5 PUSH1 0x0 PUSH1 0x4 PUSH1 0x0 SWAP1 SLOAD SWAP1 PUSH2 0x100 EXP SWAP1 DIV PUSH20 0xFFFFFFFFFFFFFFFFFFFFFFFFFFFFFFFFFFFFFFFF AND PUSH20 0xFFFFFFFFFFFFFFFFFFFFFFFFFFFFFFFFFFFFFFFF AND PUSH20 0xFFFFFFFFFFFFFFFFFFFFFFFFFFFFFFFFFFFFFFFF AND DUP2 MSTORE PUSH1 0x20 ADD SWAP1 DUP2 MSTORE PUSH1 0x20 ADD PUSH1 0x0 KECCAK256 DUP2 SWAP1 SSTORE POP PUSH2 0x211 JUMP JUMPDEST DUP3 DUP1 SLOAD PUSH1 0x1 DUP2 PUSH1 0x1 AND ISZERO PUSH2 0x100 MUL SUB AND PUSH1 0x2 SWAP1 DIV SWAP1 PUSH1 0x0 MSTORE PUSH1 0x20 PUSH1 0x0 KECCAK256 SWAP1 PUSH1 0x1F ADD PUSH1 0x20 SWAP1 DIV DUP2 ADD SWAP3 DUP3 PUSH2 0x19C JUMPI PUSH1 0x0 DUP6 SSTORE PUSH2 0x1E3 JUMP JUMPDEST DUP3 PUSH1 0x1F LT PUSH2 0x1B5 JUMPI DUP1 MLOAD PUSH1 0xFF NOT AND DUP4 DUP1 ADD OR DUP6 SSTORE PUSH2 0x1E3 JUMP JUMPDEST DUP3 DUP1 ADD PUSH1 0x1 ADD DUP6 SSTORE DUP3 ISZERO PUSH2 0x1E3 JUMPI SWAP2 DUP3 ADD JUMPDEST DUP3 DUP2 GT ISZERO PUSH2 0x1E2 JUMPI DUP3 MLOAD DUP3 SSTORE SWAP2 PUSH1 0x20 ADD SWAP2 SWAP1 PUSH1 0x1 ADD SWAP1 PUSH2 0x1C7 JUMP JUMPDEST JUMPDEST POP SWAP1 POP PUSH2 0x1F0 SWAP2 SWAP1 PUSH2 0x1F4 JUMP JUMPDEST POP SWAP1 JUMP JUMPDEST JUMPDEST DUP1 DUP3 GT ISZERO PUSH2 0x20D JUMPI PUSH1 0x0 DUP2 PUSH1 0x0 SWAP1 SSTORE POP PUSH1 0x1 ADD PUSH2 0x1F5 JUMP JUMPDEST POP SWAP1 JUMP JUMPDEST PUSH2 0xC31 DUP1 PUSH2 0x220 PUSH1 0x0 CODECOPY PUSH1 0x0 RETURN INVALID PUSH1 0x80 PUSH1 0x40 MSTORE CALLVALUE DUP1 ISZERO PUSH2 0x10 JUMPI PUSH1 0x0 DUP1 REVERT JUMPDEST POP PUSH1 0x4 CALLDATASIZE LT PUSH2 0xA9 JUMPI PUSH1 0x0 CALLDATALOAD PUSH1 0xE0 SHR DUP1 PUSH4 0x313CE567 GT PUSH2 0x71 JUMPI DUP1 PUSH4 0x313CE567 EQ PUSH2 0x28F JUMPI DUP1 PUSH4 0x4D853EE5 EQ PUSH2 0x2AD JUMPI DUP1 PUSH4 0x70A08231 EQ PUSH2 0x2E1 JUMPI DUP1 PUSH4 0x95D89B41 EQ PUSH2 0x339 JUMPI DUP1 PUSH4 0xA9059CBB EQ PUSH2 0x3BC JUMPI DUP1 PUSH4 0xDD62ED3E EQ PUSH2 0x420 JUMPI PUSH2 0xA9 JUMP JUMPDEST DUP1 PUSH4 0x6FDDE03 EQ PUSH2 0xAE JUMPI DUP1 PUSH4 0x95EA7B3 EQ PUSH2 0x131 JUMPI DUP1 PUSH4 0x18160DDD EQ PUSH2 0x195 JUMPI DUP1 PUSH4 0x23B872DD EQ PUSH2 0x1B3 JUMPI DUP1 PUSH4 0x27E235E3 EQ PUSH2 0x237 JUMPI JUMPDEST PUSH1 0x0 DUP1 REVERT JUMPDEST PUSH2 0xB6 PUSH2 0x498 JUMP JUMPDEST PUSH1 0x40 MLOAD DUP1 DUP1 PUSH1 0x20 ADD DUP3 DUP2 SUB DUP3 MSTORE DUP4 DUP2 DUP2 MLOAD DUP2 MSTORE PUSH1 0x20 ADD SWAP2 POP DUP1 MLOAD SWAP1 PUSH1 0x20 ADD SWAP1 DUP1 DUP4 DUP4 PUSH1 0x0 JUMPDEST DUP4 DUP2 LT ISZERO PUSH2 0xF6 JUMPI DUP1 DUP3 ADD MLOAD DUP2 DUP5 ADD MSTORE PUSH1 0x20 DUP2 ADD SWAP1 POP PUSH2 0xDB JUMP JUMPDEST POP POP POP POP SWAP1 POP SWAP1 DUP2 ADD SWAP1 PUSH1 0x1F AND DUP1 ISZERO PUSH2 0x123 JUMPI DUP1 DUP3 SUB DUP1 MLOAD PUSH1 0x1 DUP4 PUSH1 0x20 SUB PUSH2 0x100 EXP SUB NOT AND DUP2 MSTORE PUSH1 0x20 ADD SWAP2 POP JUMPDEST POP SWAP3 POP POP POP PUSH1 0x40 MLOAD DUP1 SWAP2 SUB SWAP1 RETURN JUMPDEST PUSH2 0x17D PUSH1 0x4 DUP1 CALLDATASIZE SUB PUSH1 0x40 DUP2 LT ISZERO PUSH2 0x147 JUMPI PUSH1 0x0 DUP1 REVERT JUMPDEST DUP2 ADD SWAP1 DUP1 DUP1 CALLDATALOAD PUSH20 0xFFFFFFFFFFFFFFFFFFFFFFFFFFFFFFFFFFFFFFFF AND SWAP1 PUSH1 0x20 ADD SWAP1 SWAP3 SWAP2 SWAP1 DUP1 CALLDATALOAD SWAP1 PUSH1 0x20 ADD SWAP1 SWAP3 SWAP2 SWAP1 POP POP POP PUSH2 0x536 JUMP JUMPDEST PUSH1 0x40 MLOAD DUP1 DUP3 ISZERO ISZERO DUP2 MSTORE PUSH1 0x20 ADD SWAP2 POP POP PUSH1 0x40 MLOAD DUP1 SWAP2 SUB SWAP1 RETURN JUMPDEST PUSH2 0x19D PUSH2 0x681 JUMP JUMPDEST PUSH1 0x40 MLOAD DUP1 DUP3 DUP2 MSTORE PUSH1 0x20 ADD SWAP2 POP POP PUSH1 0x40 MLOAD DUP1 SWAP2 SUB SWAP1 RETURN JUMPDEST PUSH2 0x21F PUSH1 0x4 DUP1 CALLDATASIZE SUB PUSH1 0x60 DUP2 LT ISZERO PUSH2 0x1C9 JUMPI PUSH1 0x0 DUP1 REVERT JUMPDEST DUP2 ADD SWAP1 DUP1 DUP1 CALLDATALOAD PUSH20 0xFFFFFFFFFFFFFFFFFFFFFFFFFFFFFFFFFFFFFFFF AND SWAP1 PUSH1 0x20 ADD SWAP1 SWAP3 SWAP2 SWAP1 DUP1 CALLDATALOAD PUSH20 0xFFFFFFFFFFFFFFFFFFFFFFFFFFFFFFFFFFFFFFFF AND SWAP1 PUSH1 0x20 ADD SWAP1 SWAP3 SWAP2 SWAP1 DUP1 CALLDATALOAD SWAP1 PUSH1 0x20 ADD SWAP1 SWAP3 SWAP2 SWAP1 POP POP POP PUSH2 0x687 JUMP JUMPDEST PUSH1 0x40 MLOAD DUP1 DUP3 ISZERO ISZERO DUP2 MSTORE PUSH1 0x20 ADD SWAP2 POP POP PUSH1 0x40 MLOAD DUP1 SWAP2 SUB SWAP1 RETURN JUMPDEST PUSH2 0x279 PUSH1 0x4 DUP1 CALLDATASIZE SUB PUSH1 0x20 DUP2 LT ISZERO PUSH2 0x24D JUMPI PUSH1 0x0 DUP1 REVERT JUMPDEST DUP2 ADD SWAP1 DUP1 DUP1 CALLDATALOAD PUSH20 0xFFFFFFFFFFFFFFFFFFFFFFFFFFFFFFFFFFFFFFFF AND SWAP1 PUSH1 0x20 ADD SWAP1 SWAP3 SWAP2 SWAP1 POP POP POP PUSH2 0x8F2 JUMP JUMPDEST PUSH1 0x40 MLOAD DUP1 DUP3 DUP2 MSTORE PUSH1 0x20 ADD SWAP2 POP POP PUSH1 0x40 MLOAD DUP1 SWAP2 SUB SWAP1 RETURN JUMPDEST PUSH2 0x297 PUSH2 0x90A JUMP JUMPDEST PUSH1 0x40 MLOAD DUP1 DUP3 DUP2 MSTORE PUSH1 0x20 ADD SWAP2 POP POP PUSH1 0x40 MLOAD DUP1 SWAP2 SUB SWAP1 RETURN JUMPDEST PUSH2 0x2B5 PUSH2 0x910 JUMP JUMPDEST PUSH1 0x40 MLOAD DUP1 DUP3 PUSH20 0xFFFFFFFFFFFFFFFFFFFFFFFFFFFFFFFFFFFFFFFF AND DUP2 MSTORE PUSH1 0x20 ADD SWAP2 POP POP PUSH1 0x40 MLOAD DUP1 SWAP2 SUB SWAP1 RETURN JUMPDEST PUSH2 0x323 PUSH1 0x4 DUP1 CALLDATASIZE SUB PUSH1 0x20 DUP2 LT ISZERO PUSH2 0x2F7 JUMPI PUSH1 0x0 DUP1 REVERT JUMPDEST DUP2 ADD SWAP1 DUP1 DUP1 CALLDATALOAD PUSH20 0xFFFFFFFFFFFFFFFFFFFFFFFFFFFFFFFFFFFFFFFF AND SWAP1 PUSH1 0x20 ADD SWAP1 SWAP3 SWAP2 SWAP1 POP POP POP PUSH2 0x936 JUMP JUMPDEST PUSH1 0x40 MLOAD DUP1 DUP3 DUP2 MSTORE PUSH1 0x20 ADD SWAP2 POP POP PUSH1 0x40 MLOAD DUP1 SWAP2 SUB SWAP1 RETURN JUMPDEST PUSH2 0x341 PUSH2 0x97F JUMP JUMPDEST PUSH1 0x40 MLOAD DUP1 DUP1 PUSH1 0x20 ADD DUP3 DUP2 SUB DUP3 MSTORE DUP4 DUP2 DUP2 MLOAD DUP2 MSTORE PUSH1 0x20 ADD SWAP2 POP DUP1 MLOAD SWAP1 PUSH1 0x20 ADD SWAP1 DUP1 DUP4 DUP4 PUSH1 0x0 JUMPDEST DUP4 DUP2 LT ISZERO PUSH2 0x381 JUMPI DUP1 DUP3 ADD MLOAD DUP2 DUP5 ADD MSTORE PUSH1 0x20 DUP2 ADD SWAP1 POP PUSH2 0x366 JUMP JUMPDEST POP POP POP POP SWAP1 POP SWAP1 DUP2 ADD SWAP1 PUSH1 0x1F AND DUP1 ISZERO PUSH2 0x3AE JUMPI DUP1 DUP3 SUB DUP1 MLOAD PUSH1 0x1 DUP4 PUSH1 0x20 SUB PUSH2 0x100 EXP SUB NOT AND DUP2 MSTORE PUSH1 0x20 ADD SWAP2 POP JUMPDEST POP SWAP3 POP POP POP PUSH1 0x40 MLOAD DUP1 SWAP2 SUB SWAP1 RETURN JUMPDEST PUSH2 0x408 PUSH1 0x4 DUP1 CALLDATASIZE SUB PUSH1 0x40 DUP2 LT ISZERO PUSH2 0x3D2 JUMPI PUSH1 0x0 DUP1 REVERT JUMPDEST DUP2 ADD SWAP1 DUP1 DUP1 CALLDATALOAD PUSH20 0xFFFFFFFFFFFFFFFFFFFFFFFFFFFFFFFFFFFFFFFF AND SWAP1 PUSH1 0x20 ADD SWAP1 SWAP3 SWAP2 SWAP1 DUP1 CALLDATALOAD SWAP1 PUSH1 0x20 ADD SWAP1 SWAP3 SWAP2 SWAP1 POP POP POP PUSH2 0xA1D JUMP JUMPDEST PUSH1 0x40 MLOAD DUP1 DUP3 ISZERO ISZERO DUP2 MSTORE PUSH1 0x20 ADD SWAP2 POP POP PUSH1 0x40 MLOAD DUP1 SWAP2 SUB SWAP1 RETURN JUMPDEST PUSH2 0x482 PUSH1 0x4 DUP1 CALLDATASIZE SUB PUSH1 0x40 DUP2 LT ISZERO PUSH2 0x436 JUMPI PUSH1 0x0 DUP1 REVERT JUMPDEST DUP2 ADD SWAP1 DUP1 DUP1 CALLDATALOAD PUSH20 0xFFFFFFFFFFFFFFFFFFFFFFFFFFFFFFFFFFFFFFFF AND SWAP1 PUSH1 0x20 ADD SWAP1 SWAP3 SWAP2 SWAP1 DUP1 CALLDATALOAD PUSH20 0xFFFFFFFFFFFFFFFFFFFFFFFFFFFFFFFFFFFFFFFF AND SWAP1 PUSH1 0x20 ADD SWAP1 SWAP3 SWAP2 SWAP1 POP POP POP PUSH2 0xB74 JUMP JUMPDEST PUSH1 0x40 MLOAD DUP1 DUP3 DUP2 MSTORE PUSH1 0x20 ADD SWAP2 POP POP PUSH1 0x40 MLOAD DUP1 SWAP2 SUB SWAP1 RETURN JUMPDEST PUSH1 0x0 DUP1 SLOAD PUSH1 0x1 DUP2 PUSH1 0x1 AND ISZERO PUSH2 0x100 MUL SUB AND PUSH1 0x2 SWAP1 DIV DUP1 PUSH1 0x1F ADD PUSH1 0x20 DUP1 SWAP2 DIV MUL PUSH1 0x20 ADD PUSH1 0x40 MLOAD SWAP1 DUP2 ADD PUSH1 0x40 MSTORE DUP1 SWAP3 SWAP2 SWAP1 DUP2 DUP2 MSTORE PUSH1 0x20 ADD DUP3 DUP1 SLOAD PUSH1 0x1 DUP2 PUSH1 0x1 AND ISZERO PUSH2 0x100 MUL SUB AND PUSH1 0x2 SWAP1 DIV DUP1 ISZERO PUSH2 0x52E JUMPI DUP1 PUSH1 0x1F LT PUSH2 0x503 JUMPI PUSH2 0x100 DUP1 DUP4 SLOAD DIV MUL DUP4 MSTORE SWAP2 PUSH1 0x20 ADD SWAP2 PUSH2 0x52E JUMP JUMPDEST DUP3 ADD SWAP2 SWAP1 PUSH1 0x0 MSTORE PUSH1 0x20 PUSH1 0x0 KECCAK256 SWAP1 JUMPDEST DUP2 SLOAD DUP2 MSTORE SWAP1 PUSH1 0x1 ADD SWAP1 PUSH1 0x20 ADD DUP1 DUP4 GT PUSH2 0x511 JUMPI DUP3 SWAP1 SUB PUSH1 0x1F AND DUP3 ADD SWAP2 JUMPDEST POP POP POP POP POP DUP2 JUMP JUMPDEST PUSH1 0x0 DUP2 PUSH1 0x5 PUSH1 0x0 CALLER PUSH20 0xFFFFFFFFFFFFFFFFFFFFFFFFFFFFFFFFFFFFFFFF AND PUSH20 0xFFFFFFFFFFFFFFFFFFFFFFFFFFFFFFFFFFFFFFFF AND DUP2 MSTORE PUSH1 0x20 ADD SWAP1 DUP2 MSTORE PUSH1 0x20 ADD PUSH1 0x0 KECCAK256 SLOAD LT ISZERO PUSH2 0x584 JUMPI PUSH1 0x0 DUP1 REVERT JUMPDEST PUSH1 0x0 DUP3 GT PUSH2 0x591 JUMPI PUSH1 0x0 DUP1 REVERT JUMPDEST DUP2 PUSH1 0x6 PUSH1 0x0 CALLER PUSH20 0xFFFFFFFFFFFFFFFFFFFFFFFFFFFFFFFFFFFFFFFF AND PUSH20 0xFFFFFFFFFFFFFFFFFFFFFFFFFFFFFFFFFFFFFFFF AND DUP2 MSTORE PUSH1 0x20 ADD SWAP1 DUP2 MSTORE PUSH1 0x20 ADD PUSH1 0x0 KECCAK256 PUSH1 0x0 DUP6 PUSH20 0xFFFFFFFFFFFFFFFFFFFFFFFFFFFFFFFFFFFFFFFF AND PUSH20 0xFFFFFFFFFFFFFFFFFFFFFFFFFFFFFFFFFFFFFFFF AND DUP2 MSTORE PUSH1 0x20 ADD SWAP1 DUP2 MSTORE PUSH1 0x20 ADD PUSH1 0x0 KECCAK256 DUP2 SWAP1 SSTORE POP DUP3 PUSH20 0xFFFFFFFFFFFFFFFFFFFFFFFFFFFFFFFFFFFFFFFF AND CALLER PUSH20 0xFFFFFFFFFFFFFFFFFFFFFFFFFFFFFFFFFFFFFFFF AND PUSH32 0x8C5BE1E5EBEC7D5BD14F71427D1E84F3DD0314C0F7B2291E5B200AC8C7C3B925 DUP5 PUSH1 0x40 MLOAD DUP1 DUP3 DUP2 MSTORE PUSH1 0x20 ADD SWAP2 POP POP PUSH1 0x40 MLOAD DUP1 SWAP2 SUB SWAP1 LOG3 PUSH1 0x1 SWAP1 POP SWAP3 SWAP2 POP POP JUMP JUMPDEST PUSH1 0x3 SLOAD DUP2 JUMP JUMPDEST PUSH1 0x0 DUP2 PUSH1 0x6 PUSH1 0x0 DUP7 PUSH20 0xFFFFFFFFFFFFFFFFFFFFFFFFFFFFFFFFFFFFFFFF AND PUSH20 0xFFFFFFFFFFFFFFFFFFFFFFFFFFFFFFFFFFFFFFFF AND DUP2 MSTORE PUSH1 0x20 ADD SWAP1 DUP2 MSTORE PUSH1 0x20 ADD PUSH1 0x0 KECCAK256 PUSH1 0x0 CALLER PUSH20 0xFFFFFFFFFFFFFFFFFFFFFFFFFFFFFFFFFFFFFFFF AND PUSH20 0xFFFFFFFFFFFFFFFFFFFFFFFFFFFFFFFFFFFFFFFF AND DUP2 MSTORE PUSH1 0x20 ADD SWAP1 DUP2 MSTORE PUSH1 0x20 ADD PUSH1 0x0 KECCAK256 SLOAD LT ISZERO PUSH2 0x712 JUMPI PUSH1 0x0 DUP1 REVERT JUMPDEST DUP2 PUSH1 0x5 PUSH1 0x0 DUP7 PUSH20 0xFFFFFFFFFFFFFFFFFFFFFFFFFFFFFFFFFFFFFFFF AND PUSH20 0xFFFFFFFFFFFFFFFFFFFFFFFFFFFFFFFFFFFFFFFF AND DUP2 MSTORE PUSH1 0x20 ADD SWAP1 DUP2 MSTORE PUSH1 0x20 ADD PUSH1 0x0 KECCAK256 SLOAD LT ISZERO PUSH2 0x75E JUMPI PUSH1 0x0 DUP1 REVERT JUMPDEST DUP2 PUSH1 0x5 PUSH1 0x0 DUP7 PUSH20 0xFFFFFFFFFFFFFFFFFFFFFFFFFFFFFFFFFFFFFFFF AND PUSH20 0xFFFFFFFFFFFFFFFFFFFFFFFFFFFFFFFFFFFFFFFF AND DUP2 MSTORE PUSH1 0x20 ADD SWAP1 DUP2 MSTORE PUSH1 0x20 ADD PUSH1 0x0 KECCAK256 PUSH1 0x0 DUP3 DUP3 SLOAD SUB SWAP3 POP POP DUP2 SWAP1 SSTORE POP DUP2 PUSH1 0x5 PUSH1 0x0 DUP6 PUSH20 0xFFFFFFFFFFFFFFFFFFFFFFFFFFFFFFFFFFFFFFFF AND PUSH20 0xFFFFFFFFFFFFFFFFFFFFFFFFFFFFFFFFFFFFFFFF AND DUP2 MSTORE PUSH1 0x20 ADD SWAP1 DUP2 MSTORE PUSH1 0x20 ADD PUSH1 0x0 KECCAK256 PUSH1 0x0 DUP3 DUP3 SLOAD ADD SWAP3 POP POP DUP2 SWAP1 SSTORE POP DUP2 PUSH1 0x6 PUSH1 0x0 DUP7 PUSH20 0xFFFFFFFFFFFFFFFFFFFFFFFFFFFFFFFFFFFFFFFF AND PUSH20 0xFFFFFFFFFFFFFFFFFFFFFFFFFFFFFFFFFFFFFFFF AND DUP2 MSTORE PUSH1 0x20 ADD SWAP1 DUP2 MSTORE PUSH1 0x20 ADD PUSH1 0x0 KECCAK256 PUSH1 0x0 CALLER PUSH20 0xFFFFFFFFFFFFFFFFFFFFFFFFFFFFFFFFFFFFFFFF AND PUSH20 0xFFFFFFFFFFFFFFFFFFFFFFFFFFFFFFFFFFFFFFFF AND DUP2 MSTORE PUSH1 0x20 ADD SWAP1 DUP2 MSTORE PUSH1 0x20 ADD PUSH1 0x0 KECCAK256 PUSH1 0x0 DUP3 DUP3 SLOAD SUB SWAP3 POP POP DUP2 SWAP1 SSTORE POP DUP3 PUSH20 0xFFFFFFFFFFFFFFFFFFFFFFFFFFFFFFFFFFFFFFFF AND DUP5 PUSH20 0xFFFFFFFFFFFFFFFFFFFFFFFFFFFFFFFFFFFFFFFF AND PUSH32 0xDDF252AD1BE2C89B69C2B068FC378DAA952BA7F163C4A11628F55A4DF523B3EF DUP5 PUSH1 0x40 MLOAD DUP1 DUP3 DUP2 MSTORE PUSH1 0x20 ADD SWAP2 POP POP PUSH1 0x40 MLOAD DUP1 SWAP2 SUB SWAP1 LOG3 PUSH1 0x1 SWAP1 POP SWAP4 SWAP3 POP POP POP JUMP JUMPDEST PUSH1 0x5 PUSH1 0x20 MSTORE DUP1 PUSH1 0x0 MSTORE PUSH1 0x40 PUSH1 0x0 KECCAK256 PUSH1 0x0 SWAP2 POP SWAP1 POP SLOAD DUP2 JUMP JUMPDEST PUSH1 0x2 SLOAD DUP2 JUMP JUMPDEST PUSH1 0x4 PUSH1 0x0 SWAP1 SLOAD SWAP1 PUSH2 0x100 EXP SWAP1 DIV PUSH20 0xFFFFFFFFFFFFFFFFFFFFFFFFFFFFFFFFFFFFFFFF AND DUP2 JUMP JUMPDEST PUSH1 0x0 PUSH1 0x5 PUSH1 0x0 DUP4 PUSH20 0xFFFFFFFFFFFFFFFFFFFFFFFFFFFFFFFFFFFFFFFF AND PUSH20 0xFFFFFFFFFFFFFFFFFFFFFFFFFFFFFFFFFFFFFFFF AND DUP2 MSTORE PUSH1 0x20 ADD SWAP1 DUP2 MSTORE PUSH1 0x20 ADD PUSH1 0x0 KECCAK256 SLOAD SWAP1 POP SWAP2 SWAP1 POP JUMP JUMPDEST PUSH1 0x1 DUP1 SLOAD PUSH1 0x1 DUP2 PUSH1 0x1 AND ISZERO PUSH2 0x100 MUL SUB AND PUSH1 0x2 SWAP1 DIV DUP1 PUSH1 0x1F ADD PUSH1 0x20 DUP1 SWAP2 DIV MUL PUSH1 0x20 ADD PUSH1 0x40 MLOAD SWAP1 DUP2 ADD PUSH1 0x40 MSTORE DUP1 SWAP3 SWAP2 SWAP1 DUP2 DUP2 MSTORE PUSH1 0x20 ADD DUP3 DUP1 SLOAD PUSH1 0x1 DUP2 PUSH1 0x1 AND ISZERO PUSH2 0x100 MUL SUB AND PUSH1 0x2 SWAP1 DIV DUP1 ISZERO PUSH2 0xA15 JUMPI DUP1 PUSH1 0x1F LT PUSH2 0x9EA JUMPI PUSH2 0x100 DUP1 DUP4 SLOAD DIV MUL DUP4 MSTORE SWAP2 PUSH1 0x20 ADD SWAP2 PUSH2 0xA15 JUMP JUMPDEST DUP3 ADD SWAP2 SWAP1 PUSH1 0x0 MSTORE PUSH1 0x20 PUSH1 0x0 KECCAK256 SWAP1 JUMPDEST DUP2 SLOAD DUP2 MSTORE SWAP1 PUSH1 0x1 ADD SWAP1 PUSH1 0x20 ADD DUP1 DUP4 GT PUSH2 0x9F8 JUMPI DUP3 SWAP1 SUB PUSH1 0x1F AND DUP3 ADD SWAP2 JUMPDEST POP POP POP POP POP DUP2 JUMP JUMPDEST PUSH1 0x0 DUP2 PUSH1 0x5 PUSH1 0x0 CALLER PUSH20 0xFFFFFFFFFFFFFFFFFFFFFFFFFFFFFFFFFFFFFFFF AND PUSH20 0xFFFFFFFFFFFFFFFFFFFFFFFFFFFFFFFFFFFFFFFF AND DUP2 MSTORE PUSH1 0x20 ADD SWAP1 DUP2 MSTORE PUSH1 0x20 ADD PUSH1 0x0 KECCAK256 SLOAD LT ISZERO PUSH2 0xA6B JUMPI PUSH1 0x0 DUP1 REVERT JUMPDEST DUP2 PUSH1 0x5 PUSH1 0x0 DUP6 PUSH20 0xFFFFFFFFFFFFFFFFFFFFFFFFFFFFFFFFFFFFFFFF AND PUSH20 0xFFFFFFFFFFFFFFFFFFFFFFFFFFFFFFFFFFFFFFFF AND DUP2 MSTORE PUSH1 0x20 ADD SWAP1 DUP2 MSTORE PUSH1 0x20 ADD PUSH1 0x0 KECCAK256 PUSH1 0x0 DUP3 DUP3 SLOAD ADD SWAP3 POP POP DUP2 SWAP1 SSTORE POP DUP2 PUSH1 0x5 PUSH1 0x0 CALLER PUSH20 0xFFFFFFFFFFFFFFFFFFFFFFFFFFFFFFFFFFFFFFFF AND PUSH20 0xFFFFFFFFFFFFFFFFFFFFFFFFFFFFFFFFFFFFFFFF AND DUP2 MSTORE PUSH1 0x20 ADD SWAP1 DUP2 MSTORE PUSH1 0x20 ADD PUSH1 0x0 KECCAK256 PUSH1 0x0 DUP3 DUP3 SLOAD SUB SWAP3 POP POP DUP2 SWAP1 SSTORE POP DUP3 PUSH20 0xFFFFFFFFFFFFFFFFFFFFFFFFFFFFFFFFFFFFFFFF AND CALLER PUSH20 0xFFFFFFFFFFFFFFFFFFFFFFFFFFFFFFFFFFFFFFFF AND PUSH32 0xDDF252AD1BE2C89B69C2B068FC378DAA952BA7F163C4A11628F55A4DF523B3EF DUP5 PUSH1 0x40 MLOAD DUP1 DUP3 DUP2 MSTORE PUSH1 0x20 ADD SWAP2 POP POP PUSH1 0x40 MLOAD DUP1 SWAP2 SUB SWAP1 LOG3 PUSH1 0x1 SWAP1 POP SWAP3 SWAP2 POP POP JUMP JUMPDEST PUSH1 0x0 PUSH1 0x6 PUSH1 0x0 DUP5 PUSH20 0xFFFFFFFFFFFFFFFFFFFFFFFFFFFFFFFFFFFFFFFF AND PUSH20 0xFFFFFFFFFFFFFFFFFFFFFFFFFFFFFFFFFFFFFFFF AND DUP2 MSTORE PUSH1 0x20 ADD SWAP1 DUP2 MSTORE PUSH1 0x20 ADD PUSH1 0x0 KECCAK256 PUSH1 0x0 DUP4 PUSH20 0xFFFFFFFFFFFFFFFFFFFFFFFFFFFFFFFFFFFFFFFF AND PUSH20 0xFFFFFFFFFFFFFFFFFFFFFFFFFFFFFFFFFFFFFFFF AND DUP2 MSTORE PUSH1 0x20 ADD SWAP1 DUP2 MSTORE PUSH1 0x20 ADD PUSH1 0x0 KECCAK256 SLOAD SWAP1 POP SWAP3 SWAP2 POP POP JUMP INVALID LOG2 PUSH5 0x6970667358 0x22 SLT KECCAK256 0xAE PUSH5 0xFE5AC15A10 DUP6 SGT LOG0 PUSH11 0x2C880A8FAD3EB484B7AD7F PUSH19 0xB04DD630162F13F01664736F6C634300070600 CALLER "
				},
				"gasEstimates": {
					"creation": {
						"codeDepositCost": "624200",
						"executionCost": "infinite",
						"totalCost": "infinite"
					},
					"external": {
						"allowance(address,address)": "1431",
						"approve(address,uint256)": "23323",
						"balanceOf(address)": "1240",
						"balances(address)": "1258",
						"decimals()": "1005",
						"founder()": "1069",
						"name()": "infinite",
						"symbol()": "infinite",
						"totalSupply()": "1050",
						"transfer(address,uint256)": "45017",
						"transferFrom(address,address,uint256)": "67051"
					}
				},
				"methodIdentifiers": {
					"allowance(address,address)": "dd62ed3e",
					"approve(address,uint256)": "095ea7b3",
					"balanceOf(address)": "70a08231",
					"balances(address)": "27e235e3",
					"decimals()": "313ce567",
					"founder()": "4d853ee5",
					"name()": "06fdde03",
					"symbol()": "95d89b41",
					"totalSupply()": "18160ddd",
					"transfer(address,uint256)": "a9059cbb",
					"transferFrom(address,address,uint256)": "23b872dd"
				}
			},
			"storageLayout": {
				"storage": [
					{
						"astId": 74,
						"contract": "contracts/ERC20Interface.sol:Crytos",
						"label": "name",
						"offset": 0,
						"slot": "0",
						"type": "t_string_storage"
					},
					{
						"astId": 77,
						"contract": "contracts/ERC20Interface.sol:Crytos",
						"label": "symbol",
						"offset": 0,
						"slot": "1",
						"type": "t_string_storage"
					},
					{
						"astId": 80,
						"contract": "contracts/ERC20Interface.sol:Crytos",
						"label": "decimals",
						"offset": 0,
						"slot": "2",
						"type": "t_uint256"
					},
					{
						"astId": 83,
						"contract": "contracts/ERC20Interface.sol:Crytos",
						"label": "totalSupply",
						"offset": 0,
						"slot": "3",
						"type": "t_uint256"
					},
					{
						"astId": 85,
						"contract": "contracts/ERC20Interface.sol:Crytos",
						"label": "founder",
						"offset": 0,
						"slot": "4",
						"type": "t_address"
					},
					{
						"astId": 89,
						"contract": "contracts/ERC20Interface.sol:Crytos",
						"label": "balances",
						"offset": 0,
						"slot": "5",
						"type": "t_mapping(t_address,t_uint256)"
					},
					{
						"astId": 95,
						"contract": "contracts/ERC20Interface.sol:Crytos",
						"label": "allowed",
						"offset": 0,
						"slot": "6",
						"type": "t_mapping(t_address,t_mapping(t_address,t_uint256))"
					}
				],
				"types": {
					"t_address": {
						"encoding": "inplace",
						"label": "address",
						"numberOfBytes": "20"
					},
					"t_mapping(t_address,t_mapping(t_address,t_uint256))": {
						"encoding": "mapping",
						"key": "t_address",
						"label": "mapping(address => mapping(address => uint256))",
						"numberOfBytes": "32",
						"value": "t_mapping(t_address,t_uint256)"
					},
					"t_mapping(t_address,t_uint256)": {
						"encoding": "mapping",
						"key": "t_address",
						"label": "mapping(address => uint256)",
						"numberOfBytes": "32",
						"value": "t_uint256"
					},
					"t_string_storage": {
						"encoding": "bytes",
						"label": "string",
						"numberOfBytes": "32"
					},
					"t_uint256": {
						"encoding": "inplace",
						"label": "uint256",
						"numberOfBytes": "32"
					}
				}
			},
			"userdoc": {
				"kind": "user",
				"methods": {
					"allowance(address,address)": {
						"notice": "查询债权配额（谁调都一样） tokenOwner债务方  spender 债权方"
					},
					"approve(address,uint256)": {
						"notice": "债权人调用，授权债务人转债额度"
					},
					"transfer(address,uint256)": {
						"notice": "代币转账  把自己的代币直接转给收款方"
					},
					"transferFrom(address,address,uint256)": {
						"notice": "债权方调用：把债务方的钱转到指定收款方"
					}
				},
				"version": 1
			}
		}
	}
}