{
	"contracts/transfermoney.sol": {
		"TransferMoney": {
			"abi": [
				{
					"inputs": [
						{
							"internalType": "address payable",
							"name": "_to",
							"type": "address"
						}
					],
					"name": "call",
					"outputs": [],
					"stateMutability": "payable",
					"type": "function"
				},
				{
					"inputs": [
						{
							"internalType": "address payable",
							"name": "_to",
							"type": "address"
						}
					],
					"name": "send",
					"outputs": [],
					"stateMutability": "payable",
					"type": "function"
				},
				{
					"inputs": [
						{
							"internalType": "address payable",
							"name": "_to",
							"type": "address"
						}
					],
					"name": "transfer",
					"outputs": [],
					"stateMutability": "payable",
					"type": "function"
				}
			],
			"devdoc": {
				"kind": "dev",
				"methods": {},
				"version": 1
			},
			"evm": {
				"assembly": "    /* \"contracts/transfermoney.sol\":58:479  contract TransferMoney{... */\n  mstore(0x40, 0x80)\n  callvalue\n  dup1\n  iszero\n  tag_1\n  jumpi\n  0x00\n  dup1\n  revert\ntag_1:\n  pop\n  dataSize(sub_0)\n  dup1\n  dataOffset(sub_0)\n  0x00\n  codecopy\n  0x00\n  return\nstop\n\nsub_0: assembly {\n        /* \"contracts/transfermoney.sol\":58:479  contract TransferMoney{... */\n      mstore(0x40, 0x80)\n      jumpi(tag_1, lt(calldatasize, 0x04))\n      shr(0xe0, calldataload(0x00))\n      dup1\n      0x1a695230\n      eq\n      tag_2\n      jumpi\n      dup1\n      0x3e58c58c\n      eq\n      tag_3\n      jumpi\n      dup1\n      0xf55332ab\n      eq\n      tag_4\n      jumpi\n    tag_1:\n      0x00\n      dup1\n      revert\n        /* \"contracts/transfermoney.sol\":229:322  function transfer(address payable _to) public payable{... */\n    tag_2:\n      tag_5\n      0x04\n      dup1\n      calldatasize\n      sub\n      dup2\n      add\n      swap1\n      tag_6\n      swap2\n      swap1\n      tag_7\n      jump\t// in\n    tag_6:\n      tag_8\n      jump\t// in\n    tag_5:\n      stop\n        /* \"contracts/transfermoney.sol\":88:223  function send(address payable _to)public payable{... */\n    tag_3:\n      tag_9\n      0x04\n      dup1\n      calldatasize\n      sub\n      dup2\n      add\n      swap1\n      tag_10\n      swap2\n      swap1\n      tag_7\n      jump\t// in\n    tag_10:\n      tag_11\n      jump\t// in\n    tag_9:\n      stop\n        /* \"contracts/transfermoney.sol\":328:477  function call(address payable _to) public payable{... */\n    tag_4:\n      tag_12\n      0x04\n      dup1\n      calldatasize\n      sub\n      dup2\n      add\n      swap1\n      tag_13\n      swap2\n      swap1\n      tag_7\n      jump\t// in\n    tag_13:\n      tag_14\n      jump\t// in\n    tag_12:\n      stop\n        /* \"contracts/transfermoney.sol\":229:322  function transfer(address payable _to) public payable{... */\n    tag_8:\n        /* \"contracts/transfermoney.sol\":292:295  _to */\n      dup1\n        /* \"contracts/transfermoney.sol\":292:304  _to.transfer */\n      0xffffffffffffffffffffffffffffffffffffffff\n      and\n        /* \"contracts/transfermoney.sol\":292:315  _to.transfer(msg.value) */\n      0x08fc\n        /* \"contracts/transfermoney.sol\":305:314  msg.value */\n      callvalue\n        /* \"contracts/transfermoney.sol\":292:315  _to.transfer(msg.value) */\n      swap1\n      dup2\n      iszero\n      mul\n      swap1\n      mload(0x40)\n      0x00\n      mload(0x40)\n      dup1\n      dup4\n      sub\n      dup2\n      dup6\n      dup9\n      dup9\n      call\n      swap4\n      pop\n      pop\n      pop\n      pop\n      iszero\n      dup1\n      iszero\n      tag_17\n      jumpi\n      returndatasize\n      0x00\n      dup1\n      returndatacopy\n      revert(0x00, returndatasize)\n    tag_17:\n      pop\n        /* \"contracts/transfermoney.sol\":229:322  function transfer(address payable _to) public payable{... */\n      pop\n      jump\t// out\n        /* \"contracts/transfermoney.sol\":88:223  function send(address payable _to)public payable{... */\n    tag_11:\n        /* \"contracts/transfermoney.sol\":146:157  bool isSucc */\n      0x00\n        /* \"contracts/transfermoney.sol\":160:163  _to */\n      dup2\n        /* \"contracts/transfermoney.sol\":160:168  _to.send */\n      0xffffffffffffffffffffffffffffffffffffffff\n      and\n        /* \"contracts/transfermoney.sol\":160:179  _to.send(msg.value) */\n      0x08fc\n        /* \"contracts/transfermoney.sol\":169:178  msg.value */\n      callvalue\n        /* \"contracts/transfermoney.sol\":160:179  _to.send(msg.value) */\n      swap1\n      dup2\n      iszero\n      mul\n      swap1\n      mload(0x40)\n      0x00\n      mload(0x40)\n      dup1\n      dup4\n      sub\n      dup2\n      dup6\n      dup9\n      dup9\n      call\n      swap4\n      pop\n      pop\n      pop\n      pop\n        /* \"contracts/transfermoney.sol\":146:179  bool isSucc = _to.send(msg.value) */\n      swap1\n      pop\n        /* \"contracts/transfermoney.sol\":197:203  isSucc */\n      dup1\n        /* \"contracts/transfermoney.sol\":189:216  require(isSucc,\"send fail\") */\n      tag_20\n      jumpi\n      mload(0x40)\n      0x08c379a000000000000000000000000000000000000000000000000000000000\n      dup2\n      mstore\n      0x04\n      add\n      tag_21\n      swap1\n      tag_22\n      jump\t// in\n    tag_21:\n      mload(0x40)\n      dup1\n      swap2\n      sub\n      swap1\n      revert\n    tag_20:\n        /* \"contracts/transfermoney.sol\":136:223  {... */\n      pop\n        /* \"contracts/transfermoney.sol\":88:223  function send(address payable _to)public payable{... */\n      pop\n      jump\t// out\n        /* \"contracts/transfermoney.sol\":328:477  function call(address payable _to) public payable{... */\n    tag_14:\n        /* \"contracts/transfermoney.sol\":388:399  bool isSend */\n      0x00\n        /* \"contracts/transfermoney.sol\":404:407  _to */\n      dup2\n        /* \"contracts/transfermoney.sol\":404:412  _to.call */\n      0xffffffffffffffffffffffffffffffffffffffff\n      and\n        /* \"contracts/transfermoney.sol\":419:428  msg.value */\n      callvalue\n        /* \"contracts/transfermoney.sol\":404:433  _to.call{value:msg.value}(\"\") */\n      mload(0x40)\n      tag_24\n      swap1\n      tag_25\n      jump\t// in\n    tag_24:\n      0x00\n      mload(0x40)\n      dup1\n      dup4\n      sub\n      dup2\n      dup6\n      dup8\n      gas\n      call\n      swap3\n      pop\n      pop\n      pop\n      returndatasize\n      dup1\n      0x00\n      dup2\n      eq\n      tag_28\n      jumpi\n      mload(0x40)\n      swap2\n      pop\n      and(add(returndatasize, 0x3f), not(0x1f))\n      dup3\n      add\n      0x40\n      mstore\n      returndatasize\n      dup3\n      mstore\n      returndatasize\n      0x00\n      0x20\n      dup5\n      add\n      returndatacopy\n      jump(tag_27)\n    tag_28:\n      0x60\n      swap2\n      pop\n    tag_27:\n      pop\n        /* \"contracts/transfermoney.sol\":387:433  (bool isSend,) = _to.call{value:msg.value}(\"\") */\n      pop\n      swap1\n      pop\n        /* \"contracts/transfermoney.sol\":451:457  isSend */\n      dup1\n        /* \"contracts/transfermoney.sol\":443:470  require(isSend,\"send fail\") */\n      tag_29\n      jumpi\n      mload(0x40)\n      0x08c379a000000000000000000000000000000000000000000000000000000000\n      dup2\n      mstore\n      0x04\n      add\n      tag_30\n      swap1\n      tag_22\n      jump\t// in\n    tag_30:\n      mload(0x40)\n      dup1\n      swap2\n      sub\n      swap1\n      revert\n    tag_29:\n        /* \"contracts/transfermoney.sol\":377:477  {... */\n      pop\n        /* \"contracts/transfermoney.sol\":328:477  function call(address payable _to) public payable{... */\n      pop\n      jump\t// out\n        /* \"#utility.yul\":88:205   */\n    tag_32:\n        /* \"#utility.yul\":197:198   */\n      0x00\n        /* \"#utility.yul\":194:195   */\n      dup1\n        /* \"#utility.yul\":187:199   */\n      revert\n        /* \"#utility.yul\":334:460   */\n    tag_34:\n        /* \"#utility.yul\":371:378   */\n      0x00\n        /* \"#utility.yul\":411:453   */\n      0xffffffffffffffffffffffffffffffffffffffff\n        /* \"#utility.yul\":404:409   */\n      dup3\n        /* \"#utility.yul\":400:454   */\n      and\n        /* \"#utility.yul\":389:454   */\n      swap1\n      pop\n        /* \"#utility.yul\":334:460   */\n      swap2\n      swap1\n      pop\n      jump\t// out\n        /* \"#utility.yul\":466:570   */\n    tag_35:\n        /* \"#utility.yul\":511:518   */\n      0x00\n        /* \"#utility.yul\":540:564   */\n      tag_50\n        /* \"#utility.yul\":558:563   */\n      dup3\n        /* \"#utility.yul\":540:564   */\n      tag_34\n      jump\t// in\n    tag_50:\n        /* \"#utility.yul\":529:564   */\n      swap1\n      pop\n        /* \"#utility.yul\":466:570   */\n      swap2\n      swap1\n      pop\n      jump\t// out\n        /* \"#utility.yul\":576:714   */\n    tag_36:\n        /* \"#utility.yul\":657:689   */\n      tag_52\n        /* \"#utility.yul\":683:688   */\n      dup2\n        /* \"#utility.yul\":657:689   */\n      tag_35\n      jump\t// in\n    tag_52:\n        /* \"#utility.yul\":650:655   */\n      dup2\n        /* \"#utility.yul\":647:690   */\n      eq\n        /* \"#utility.yul\":637:708   */\n      tag_53\n      jumpi\n        /* \"#utility.yul\":704:705   */\n      0x00\n        /* \"#utility.yul\":701:702   */\n      dup1\n        /* \"#utility.yul\":694:706   */\n      revert\n        /* \"#utility.yul\":637:708   */\n    tag_53:\n        /* \"#utility.yul\":576:714   */\n      pop\n      jump\t// out\n        /* \"#utility.yul\":720:875   */\n    tag_37:\n        /* \"#utility.yul\":774:779   */\n      0x00\n        /* \"#utility.yul\":812:818   */\n      dup2\n        /* \"#utility.yul\":799:819   */\n      calldataload\n        /* \"#utility.yul\":790:819   */\n      swap1\n      pop\n        /* \"#utility.yul\":828:869   */\n      tag_55\n        /* \"#utility.yul\":863:868   */\n      dup2\n        /* \"#utility.yul\":828:869   */\n      tag_36\n      jump\t// in\n    tag_55:\n        /* \"#utility.yul\":720:875   */\n      swap3\n      swap2\n      pop\n      pop\n      jump\t// out\n        /* \"#utility.yul\":881:1226   */\n    tag_7:\n        /* \"#utility.yul\":948:954   */\n      0x00\n        /* \"#utility.yul\":997:999   */\n      0x20\n        /* \"#utility.yul\":985:994   */\n      dup3\n        /* \"#utility.yul\":976:983   */\n      dup5\n        /* \"#utility.yul\":972:995   */\n      sub\n        /* \"#utility.yul\":968:1000   */\n      slt\n        /* \"#utility.yul\":965:1084   */\n      iszero\n      tag_57\n      jumpi\n        /* \"#utility.yul\":1003:1082   */\n      tag_58\n      tag_32\n      jump\t// in\n    tag_58:\n        /* \"#utility.yul\":965:1084   */\n    tag_57:\n        /* \"#utility.yul\":1123:1124   */\n      0x00\n        /* \"#utility.yul\":1148:1209   */\n      tag_59\n        /* \"#utility.yul\":1201:1208   */\n      dup5\n        /* \"#utility.yul\":1192:1198   */\n      dup3\n        /* \"#utility.yul\":1181:1190   */\n      dup6\n        /* \"#utility.yul\":1177:1199   */\n      add\n        /* \"#utility.yul\":1148:1209   */\n      tag_37\n      jump\t// in\n    tag_59:\n        /* \"#utility.yul\":1138:1209   */\n      swap2\n      pop\n        /* \"#utility.yul\":1094:1219   */\n      pop\n        /* \"#utility.yul\":881:1226   */\n      swap3\n      swap2\n      pop\n      pop\n      jump\t// out\n        /* \"#utility.yul\":1232:1401   */\n    tag_38:\n        /* \"#utility.yul\":1316:1327   */\n      0x00\n        /* \"#utility.yul\":1350:1356   */\n      dup3\n        /* \"#utility.yul\":1345:1348   */\n      dup3\n        /* \"#utility.yul\":1338:1357   */\n      mstore\n        /* \"#utility.yul\":1390:1394   */\n      0x20\n        /* \"#utility.yul\":1385:1388   */\n      dup3\n        /* \"#utility.yul\":1381:1395   */\n      add\n        /* \"#utility.yul\":1366:1395   */\n      swap1\n      pop\n        /* \"#utility.yul\":1232:1401   */\n      swap3\n      swap2\n      pop\n      pop\n      jump\t// out\n        /* \"#utility.yul\":1407:1566   */\n    tag_39:\n        /* \"#utility.yul\":1547:1558   */\n      0x73656e64206661696c0000000000000000000000000000000000000000000000\n        /* \"#utility.yul\":1543:1544   */\n      0x00\n        /* \"#utility.yul\":1535:1541   */\n      dup3\n        /* \"#utility.yul\":1531:1545   */\n      add\n        /* \"#utility.yul\":1524:1559   */\n      mstore\n        /* \"#utility.yul\":1407:1566   */\n      pop\n      jump\t// out\n        /* \"#utility.yul\":1572:1937   */\n    tag_40:\n        /* \"#utility.yul\":1714:1717   */\n      0x00\n        /* \"#utility.yul\":1735:1801   */\n      tag_63\n        /* \"#utility.yul\":1799:1800   */\n      0x09\n        /* \"#utility.yul\":1794:1797   */\n      dup4\n        /* \"#utility.yul\":1735:1801   */\n      tag_38\n      jump\t// in\n    tag_63:\n        /* \"#utility.yul\":1728:1801   */\n      swap2\n      pop\n        /* \"#utility.yul\":1810:1903   */\n      tag_64\n        /* \"#utility.yul\":1899:1902   */\n      dup3\n        /* \"#utility.yul\":1810:1903   */\n      tag_39\n      jump\t// in\n    tag_64:\n        /* \"#utility.yul\":1928:1930   */\n      0x20\n        /* \"#utility.yul\":1923:1926   */\n      dup3\n        /* \"#utility.yul\":1919:1931   */\n      add\n        /* \"#utility.yul\":1912:1931   */\n      swap1\n      pop\n        /* \"#utility.yul\":1572:1937   */\n      swap2\n      swap1\n      pop\n      jump\t// out\n        /* \"#utility.yul\":1943:2362   */\n    tag_22:\n        /* \"#utility.yul\":2109:2113   */\n      0x00\n        /* \"#utility.yul\":2147:2149   */\n      0x20\n        /* \"#utility.yul\":2136:2145   */\n      dup3\n        /* \"#utility.yul\":2132:2150   */\n      add\n        /* \"#utility.yul\":2124:2150   */\n      swap1\n      pop\n        /* \"#utility.yul\":2196:2205   */\n      dup2\n        /* \"#utility.yul\":2190:2194   */\n      dup2\n        /* \"#utility.yul\":2186:2206   */\n      sub\n        /* \"#utility.yul\":2182:2183   */\n      0x00\n        /* \"#utility.yul\":2171:2180   */\n      dup4\n        /* \"#utility.yul\":2167:2184   */\n      add\n        /* \"#utility.yul\":2160:2207   */\n      mstore\n        /* \"#utility.yul\":2224:2355   */\n      tag_66\n        /* \"#utility.yul\":2350:2354   */\n      dup2\n        /* \"#utility.yul\":2224:2355   */\n      tag_40\n      jump\t// in\n    tag_66:\n        /* \"#utility.yul\":2216:2355   */\n      swap1\n      pop\n        /* \"#utility.yul\":1943:2362   */\n      swap2\n      swap1\n      pop\n      jump\t// out\n        /* \"#utility.yul\":2368:2515   */\n    tag_41:\n        /* \"#utility.yul\":2469:2480   */\n      0x00\n        /* \"#utility.yul\":2506:2509   */\n      dup2\n        /* \"#utility.yul\":2491:2509   */\n      swap1\n      pop\n        /* \"#utility.yul\":2368:2515   */\n      swap3\n      swap2\n      pop\n      pop\n      jump\t// out\n        /* \"#utility.yul\":2521:2635   */\n    tag_42:\n      pop\n      jump\t// out\n        /* \"#utility.yul\":2641:3039   */\n    tag_43:\n        /* \"#utility.yul\":2800:2803   */\n      0x00\n        /* \"#utility.yul\":2821:2904   */\n      tag_70\n        /* \"#utility.yul\":2902:2903   */\n      0x00\n        /* \"#utility.yul\":2897:2900   */\n      dup4\n        /* \"#utility.yul\":2821:2904   */\n      tag_41\n      jump\t// in\n    tag_70:\n        /* \"#utility.yul\":2814:2904   */\n      swap2\n      pop\n        /* \"#utility.yul\":2913:3006   */\n      tag_71\n        /* \"#utility.yul\":3002:3005   */\n      dup3\n        /* \"#utility.yul\":2913:3006   */\n      tag_42\n      jump\t// in\n    tag_71:\n        /* \"#utility.yul\":3031:3032   */\n      0x00\n        /* \"#utility.yul\":3026:3029   */\n      dup3\n        /* \"#utility.yul\":3022:3033   */\n      add\n        /* \"#utility.yul\":3015:3033   */\n      swap1\n      pop\n        /* \"#utility.yul\":2641:3039   */\n      swap2\n      swap1\n      pop\n      jump\t// out\n        /* \"#utility.yul\":3045:3424   */\n    tag_25:\n        /* \"#utility.yul\":3229:3232   */\n      0x00\n        /* \"#utility.yul\":3251:3398   */\n      tag_73\n        /* \"#utility.yul\":3394:3397   */\n      dup3\n        /* \"#utility.yul\":3251:3398   */\n      tag_43\n      jump\t// in\n    tag_73:\n        /* \"#utility.yul\":3244:3398   */\n      swap2\n      pop\n        /* \"#utility.yul\":3415:3418   */\n      dup2\n        /* \"#utility.yul\":3408:3418   */\n      swap1\n      pop\n        /* \"#utility.yul\":3045:3424   */\n      swap2\n      swap1\n      pop\n      jump\t// out\n\n    auxdata: 0xa2646970667358221220a88e763411bdde3de15fb0efd51472e4dc181eec18a0a65248f47baa52e6bf1d64736f6c63430008110033\n}\n",
				"bytecode": {
					"linkReferences": {},
					"object": "608060405234801561001057600080fd5b5061038d806100206000396000f3fe6080604052600436106100345760003560e01c80631a695230146100395780633e58c58c14610055578063f55332ab14610071575b600080fd5b610053600480360381019061004e9190610267565b61008d565b005b61006f600480360381019061006a9190610267565b6100d7565b005b61008b60048036038101906100869190610267565b610154565b005b8073ffffffffffffffffffffffffffffffffffffffff166108fc349081150290604051600060405180830381858888f193505050501580156100d3573d6000803e3d6000fd5b5050565b60008173ffffffffffffffffffffffffffffffffffffffff166108fc349081150290604051600060405180830381858888f19350505050905080610150576040517f08c379a0000000000000000000000000000000000000000000000000000000008152600401610147906102f1565b60405180910390fd5b5050565b60008173ffffffffffffffffffffffffffffffffffffffff163460405161017a90610342565b60006040518083038185875af1925050503d80600081146101b7576040519150601f19603f3d011682016040523d82523d6000602084013e6101bc565b606091505b5050905080610200576040517f08c379a00000000000000000000000000000000000000000000000000000000081526004016101f7906102f1565b60405180910390fd5b5050565b600080fd5b600073ffffffffffffffffffffffffffffffffffffffff82169050919050565b600061023482610209565b9050919050565b61024481610229565b811461024f57600080fd5b50565b6000813590506102618161023b565b92915050565b60006020828403121561027d5761027c610204565b5b600061028b84828501610252565b91505092915050565b600082825260208201905092915050565b7f73656e64206661696c0000000000000000000000000000000000000000000000600082015250565b60006102db600983610294565b91506102e6826102a5565b602082019050919050565b6000602082019050818103600083015261030a816102ce565b9050919050565b600081905092915050565b50565b600061032c600083610311565b91506103378261031c565b600082019050919050565b600061034d8261031f565b915081905091905056fea2646970667358221220a88e763411bdde3de15fb0efd51472e4dc181eec18a0a65248f47baa52e6bf1d64736f6c63430008110033",
					"opcodes": "PUSH1 0x80 PUSH1 0x40 MSTORE CALLVALUE DUP1 ISZERO PUSH2 0x10 JUMPI PUSH1 0x0 DUP1 REVERT JUMPDEST POP PUSH2 0x38D DUP1 PUSH2 0x20 PUSH1 0x0 CODECOPY PUSH1 0x0 RETURN INVALID PUSH1 0x80 PUSH1 0x40 MSTORE PUSH1 0x4 CALLDATASIZE LT PUSH2 0x34 JUMPI PUSH1 0x0 CALLDATALOAD PUSH1 0xE0 SHR DUP1 PUSH4 0x1A695230 EQ PUSH2 0x39 JUMPI DUP1 PUSH4 0x3E58C58C EQ PUSH2 0x55 JUMPI DUP1 PUSH4 0xF55332AB EQ PUSH2 0x71 JUMPI JUMPDEST PUSH1 0x0 DUP1 REVERT JUMPDEST PUSH2 0x53 PUSH1 0x4 DUP1 CALLDATASIZE SUB DUP2 ADD SWAP1 PUSH2 0x4E SWAP2 SWAP1 PUSH2 0x267 JUMP JUMPDEST PUSH2 0x8D JUMP JUMPDEST STOP JUMPDEST PUSH2 0x6F PUSH1 0x4 DUP1 CALLDATASIZE SUB DUP2 ADD SWAP1 PUSH2 0x6A SWAP2 SWAP1 PUSH2 0x267 JUMP JUMPDEST PUSH2 0xD7 JUMP JUMPDEST STOP JUMPDEST PUSH2 0x8B PUSH1 0x4 DUP1 CALLDATASIZE SUB DUP2 ADD SWAP1 PUSH2 0x86 SWAP2 SWAP1 PUSH2 0x267 JUMP JUMPDEST PUSH2 0x154 JUMP JUMPDEST STOP JUMPDEST DUP1 PUSH20 0xFFFFFFFFFFFFFFFFFFFFFFFFFFFFFFFFFFFFFFFF AND PUSH2 0x8FC CALLVALUE SWAP1 DUP2 ISZERO MUL SWAP1 PUSH1 0x40 MLOAD PUSH1 0x0 PUSH1 0x40 MLOAD DUP1 DUP4 SUB DUP2 DUP6 DUP9 DUP9 CALL SWAP4 POP POP POP POP ISZERO DUP1 ISZERO PUSH2 0xD3 JUMPI RETURNDATASIZE PUSH1 0x0 DUP1 RETURNDATACOPY RETURNDATASIZE PUSH1 0x0 REVERT JUMPDEST POP POP JUMP JUMPDEST PUSH1 0x0 DUP2 PUSH20 0xFFFFFFFFFFFFFFFFFFFFFFFFFFFFFFFFFFFFFFFF AND PUSH2 0x8FC CALLVALUE SWAP1 DUP2 ISZERO MUL SWAP1 PUSH1 0x40 MLOAD PUSH1 0x0 PUSH1 0x40 MLOAD DUP1 DUP4 SUB DUP2 DUP6 DUP9 DUP9 CALL SWAP4 POP POP POP POP SWAP1 POP DUP1 PUSH2 0x150 JUMPI PUSH1 0x40 MLOAD PUSH32 0x8C379A000000000000000000000000000000000000000000000000000000000 DUP2 MSTORE PUSH1 0x4 ADD PUSH2 0x147 SWAP1 PUSH2 0x2F1 JUMP JUMPDEST PUSH1 0x40 MLOAD DUP1 SWAP2 SUB SWAP1 REVERT JUMPDEST POP POP JUMP JUMPDEST PUSH1 0x0 DUP2 PUSH20 0xFFFFFFFFFFFFFFFFFFFFFFFFFFFFFFFFFFFFFFFF AND CALLVALUE PUSH1 0x40 MLOAD PUSH2 0x17A SWAP1 PUSH2 0x342 JUMP JUMPDEST PUSH1 0x0 PUSH1 0x40 MLOAD DUP1 DUP4 SUB DUP2 DUP6 DUP8 GAS CALL SWAP3 POP POP POP RETURNDATASIZE DUP1 PUSH1 0x0 DUP2 EQ PUSH2 0x1B7 JUMPI PUSH1 0x40 MLOAD SWAP2 POP PUSH1 0x1F NOT PUSH1 0x3F RETURNDATASIZE ADD AND DUP3 ADD PUSH1 0x40 MSTORE RETURNDATASIZE DUP3 MSTORE RETURNDATASIZE PUSH1 0x0 PUSH1 0x20 DUP5 ADD RETURNDATACOPY PUSH2 0x1BC JUMP JUMPDEST PUSH1 0x60 SWAP2 POP JUMPDEST POP POP SWAP1 POP DUP1 PUSH2 0x200 JUMPI PUSH1 0x40 MLOAD PUSH32 0x8C379A000000000000000000000000000000000000000000000000000000000 DUP2 MSTORE PUSH1 0x4 ADD PUSH2 0x1F7 SWAP1 PUSH2 0x2F1 JUMP JUMPDEST PUSH1 0x40 MLOAD DUP1 SWAP2 SUB SWAP1 REVERT JUMPDEST POP POP JUMP JUMPDEST PUSH1 0x0 DUP1 REVERT JUMPDEST PUSH1 0x0 PUSH20 0xFFFFFFFFFFFFFFFFFFFFFFFFFFFFFFFFFFFFFFFF DUP3 AND SWAP1 POP SWAP2 SWAP1 POP JUMP JUMPDEST PUSH1 0x0 PUSH2 0x234 DUP3 PUSH2 0x209 JUMP JUMPDEST SWAP1 POP SWAP2 SWAP1 POP JUMP JUMPDEST PUSH2 0x244 DUP2 PUSH2 0x229 JUMP JUMPDEST DUP2 EQ PUSH2 0x24F JUMPI PUSH1 0x0 DUP1 REVERT JUMPDEST POP JUMP JUMPDEST PUSH1 0x0 DUP2 CALLDATALOAD SWAP1 POP PUSH2 0x261 DUP2 PUSH2 0x23B JUMP JUMPDEST SWAP3 SWAP2 POP POP JUMP JUMPDEST PUSH1 0x0 PUSH1 0x20 DUP3 DUP5 SUB SLT ISZERO PUSH2 0x27D JUMPI PUSH2 0x27C PUSH2 0x204 JUMP JUMPDEST JUMPDEST PUSH1 0x0 PUSH2 0x28B DUP5 DUP3 DUP6 ADD PUSH2 0x252 JUMP JUMPDEST SWAP2 POP POP SWAP3 SWAP2 POP POP JUMP JUMPDEST PUSH1 0x0 DUP3 DUP3 MSTORE PUSH1 0x20 DUP3 ADD SWAP1 POP SWAP3 SWAP2 POP POP JUMP JUMPDEST PUSH32 0x73656E64206661696C0000000000000000000000000000000000000000000000 PUSH1 0x0 DUP3 ADD MSTORE POP JUMP JUMPDEST PUSH1 0x0 PUSH2 0x2DB PUSH1 0x9 DUP4 PUSH2 0x294 JUMP JUMPDEST SWAP2 POP PUSH2 0x2E6 DUP3 PUSH2 0x2A5 JUMP JUMPDEST PUSH1 0x20 DUP3 ADD SWAP1 POP SWAP2 SWAP1 POP JUMP JUMPDEST PUSH1 0x0 PUSH1 0x20 DUP3 ADD SWAP1 POP DUP2 DUP2 SUB PUSH1 0x0 DUP4 ADD MSTORE PUSH2 0x30A DUP2 PUSH2 0x2CE JUMP JUMPDEST SWAP1 POP SWAP2 SWAP1 POP JUMP JUMPDEST PUSH1 0x0 DUP2 SWAP1 POP SWAP3 SWAP2 POP POP JUMP JUMPDEST POP JUMP JUMPDEST PUSH1 0x0 PUSH2 0x32C PUSH1 0x0 DUP4 PUSH2 0x311 JUMP JUMPDEST SWAP2 POP PUSH2 0x337 DUP3 PUSH2 0x31C JUMP JUMPDEST PUSH1 0x0 DUP3 ADD SWAP1 POP SWAP2 SWAP1 POP JUMP JUMPDEST PUSH1 0x0 PUSH2 0x34D DUP3 PUSH2 0x31F JUMP JUMPDEST SWAP2 POP DUP2 SWAP1 POP SWAP2 SWAP1 POP JUMP INVALID LOG2 PUSH5 0x6970667358 0x22 SLT KECCAK256 0xA8 DUP15 PUSH23 0x3411BDDE3DE15FB0EFD51472E4DC181EEC18A0A65248F4 PUSH28 0xAA52E6BF1D64736F6C63430008110033000000000000000000000000 "
				},
				"gasEstimates": {
					"creation": {
						"codeDepositCost": "181800",
						"executionCost": "226",
						"totalCost": "182026"
					},
					"external": {
						"call(address)": "infinite",
						"send(address)": "infinite",
						"transfer(address)": "infinite"
					}
				},
				"methodIdentifiers": {
					"call(address)": "f55332ab",
					"send(address)": "3e58c58c",
					"transfer(address)": "1a695230"
				}
			},
			"storageLayout": {
				"storage": [],
				"types": null
			},
			"userdoc": {
				"kind": "user",
				"methods": {},
				"version": 1
			}
		}
	}
}