{
	"contracts/visibility.sol": {
		"visibility": {
			"abi": [
				{
					"inputs": [],
					"name": "f2",
					"outputs": [
						{
							"internalType": "int256",
							"name": "",
							"type": "int256"
						}
					],
					"stateMutability": "view",
					"type": "function"
				},
				{
					"inputs": [],
					"name": "f4",
					"outputs": [
						{
							"internalType": "int256",
							"name": "",
							"type": "int256"
						}
					],
					"stateMutability": "view",
					"type": "function"
				},
				{
					"inputs": [],
					"name": "f5",
					"outputs": [
						{
							"internalType": "int256",
							"name": "",
							"type": "int256"
						}
					],
					"stateMutability": "pure",
					"type": "function"
				},
				{
					"inputs": [],
					"name": "getY",
					"outputs": [
						{
							"internalType": "int256",
							"name": "",
							"type": "int256"
						}
					],
					"stateMutability": "view",
					"type": "function"
				},
				{
					"inputs": [],
					"name": "x",
					"outputs": [
						{
							"internalType": "int256",
							"name": "",
							"type": "int256"
						}
					],
					"stateMutability": "view",
					"type": "function"
				}
			],
			"devdoc": {
				"kind": "dev",
				"methods": {},
				"version": 1
			},
			"evm": {
				"assembly": "    /* \"contracts/visibility.sol\":63:672  contract visibility{... */\n  mstore(0x40, 0x80)\n    /* \"contracts/visibility.sol\":104:106  10 */\n  0x0a\n    /* \"contracts/visibility.sol\":89:106  int public x = 10 */\n  0x00\n  sstore\n    /* \"contracts/visibility.sol\":121:123  20 */\n  0x14\n    /* \"contracts/visibility.sol\":113:123  int y = 20 */\n  0x01\n  sstore\n    /* \"contracts/visibility.sol\":138:140  30 */\n  0x1e\n    /* \"contracts/visibility.sol\":130:140  int z = 30 */\n  0x02\n  sstore\n    /* \"contracts/visibility.sol\":63:672  contract visibility{... */\n  callvalue\n  dup1\n  iszero\n  tag_1\n  jumpi\n  0x00\n  dup1\n  revert\ntag_1:\n  pop\n  dataSize(sub_0)\n  dup1\n  dataOffset(sub_0)\n  0x00\n  codecopy\n  0x00\n  return\nstop\n\nsub_0: assembly {\n        /* \"contracts/visibility.sol\":63:672  contract visibility{... */\n      mstore(0x40, 0x80)\n      callvalue\n      dup1\n      iszero\n      tag_1\n      jumpi\n      0x00\n      dup1\n      revert\n    tag_1:\n      pop\n      jumpi(tag_2, lt(calldatasize, 0x04))\n      shr(0xe0, calldataload(0x00))\n      dup1\n      0x0b7f1665\n      eq\n      tag_3\n      jumpi\n      dup1\n      0x0c55699c\n      eq\n      tag_4\n      jumpi\n      dup1\n      0x3c9d377d\n      eq\n      tag_5\n      jumpi\n      dup1\n      0x9942ec6f\n      eq\n      tag_6\n      jumpi\n      dup1\n      0xc3f90202\n      eq\n      tag_7\n      jumpi\n    tag_2:\n      0x00\n      dup1\n      revert\n        /* \"contracts/visibility.sol\":148:213  function getY() public view returns(int){... */\n    tag_3:\n      tag_8\n      tag_9\n      jump\t// in\n    tag_8:\n      mload(0x40)\n      dup1\n      dup3\n      dup2\n      mstore\n      0x20\n      add\n      swap2\n      pop\n      pop\n      mload(0x40)\n      dup1\n      swap2\n      sub\n      swap1\n      return\n        /* \"contracts/visibility.sol\":89:106  int public x = 10 */\n    tag_4:\n      tag_10\n      tag_11\n      jump\t// in\n    tag_10:\n      mload(0x40)\n      dup1\n      dup3\n      dup2\n      mstore\n      0x20\n      add\n      swap2\n      pop\n      pop\n      mload(0x40)\n      dup1\n      swap2\n      sub\n      swap1\n      return\n        /* \"contracts/visibility.sol\":533:670  function f5() public pure returns(int){... */\n    tag_5:\n      tag_12\n      tag_13\n      jump\t// in\n    tag_12:\n      mload(0x40)\n      dup1\n      dup3\n      dup2\n      mstore\n      0x20\n      add\n      swap2\n      pop\n      pop\n      mload(0x40)\n      dup1\n      swap2\n      sub\n      swap1\n      return\n        /* \"contracts/visibility.sol\":289:385  function f2() public view returns(int){... */\n    tag_6:\n      tag_14\n      tag_15\n      jump\t// in\n    tag_14:\n      mload(0x40)\n      dup1\n      dup3\n      dup2\n      mstore\n      0x20\n      add\n      swap2\n      pop\n      pop\n      mload(0x40)\n      dup1\n      swap2\n      sub\n      swap1\n      return\n        /* \"contracts/visibility.sol\":462:527  function f4() external view returns(int){... */\n    tag_7:\n      tag_16\n      tag_17\n      jump\t// in\n    tag_16:\n      mload(0x40)\n      dup1\n      dup3\n      dup2\n      mstore\n      0x20\n      add\n      swap2\n      pop\n      pop\n      mload(0x40)\n      dup1\n      swap2\n      sub\n      swap1\n      return\n        /* \"contracts/visibility.sol\":148:213  function getY() public view returns(int){... */\n    tag_9:\n        /* \"contracts/visibility.sol\":184:187  int */\n      0x00\n        /* \"contracts/visibility.sol\":205:206  y */\n      sload(0x01)\n        /* \"contracts/visibility.sol\":198:206  return y */\n      swap1\n      pop\n        /* \"contracts/visibility.sol\":148:213  function getY() public view returns(int){... */\n      swap1\n      jump\t// out\n        /* \"contracts/visibility.sol\":89:106  int public x = 10 */\n    tag_11:\n      sload(0x00)\n      dup2\n      jump\t// out\n        /* \"contracts/visibility.sol\":533:670  function f5() public pure returns(int){... */\n    tag_13:\n        /* \"contracts/visibility.sol\":567:570  int */\n      0x00\n        /* \"contracts/visibility.sol\":581:586  int b */\n      dup1\n        /* \"contracts/visibility.sol\":662:663  b */\n      dup1\n        /* \"contracts/visibility.sol\":655:663  return b */\n      swap2\n      pop\n      pop\n        /* \"contracts/visibility.sol\":533:670  function f5() public pure returns(int){... */\n      swap1\n      jump\t// out\n        /* \"contracts/visibility.sol\":289:385  function f2() public view returns(int){... */\n    tag_15:\n        /* \"contracts/visibility.sol\":323:326  int */\n      0x00\n        /* \"contracts/visibility.sol\":337:342  int a */\n      dup1\n        /* \"contracts/visibility.sol\":356:360  f1() */\n      tag_21\n        /* \"contracts/visibility.sol\":356:358  f1 */\n      tag_22\n        /* \"contracts/visibility.sol\":356:360  f1() */\n      jump\t// in\n    tag_21:\n        /* \"contracts/visibility.sol\":352:360  a = f1() */\n      swap1\n      pop\n        /* \"contracts/visibility.sol\":377:378  a */\n      dup1\n        /* \"contracts/visibility.sol\":370:378  return a */\n      swap2\n      pop\n      pop\n        /* \"contracts/visibility.sol\":289:385  function f2() public view returns(int){... */\n      swap1\n      jump\t// out\n        /* \"contracts/visibility.sol\":462:527  function f4() external view returns(int){... */\n    tag_17:\n        /* \"contracts/visibility.sol\":498:501  int */\n      0x00\n        /* \"contracts/visibility.sol\":519:520  x */\n      dup1\n      sload\n        /* \"contracts/visibility.sol\":512:520  return x */\n      swap1\n      pop\n        /* \"contracts/visibility.sol\":462:527  function f4() external view returns(int){... */\n      swap1\n      jump\t// out\n        /* \"contracts/visibility.sol\":219:283  function f1() private view returns(int){... */\n    tag_22:\n        /* \"contracts/visibility.sol\":254:257  int */\n      0x00\n        /* \"contracts/visibility.sol\":275:276  z */\n      sload(0x02)\n        /* \"contracts/visibility.sol\":268:276  return z */\n      swap1\n      pop\n        /* \"contracts/visibility.sol\":219:283  function f1() private view returns(int){... */\n      swap1\n      jump\t// out\n\n    auxdata: 0xa26469706673582212207132301097a6dabf11fd56b5c239cf2df712fd9c875359dde4bc197a55be06fd64736f6c63430007060033\n}\n",
				"bytecode": {
					"linkReferences": {},
					"object": "6080604052600a6000556014600155601e60025534801561001f57600080fd5b506101698061002f6000396000f3fe608060405234801561001057600080fd5b50600436106100575760003560e01c80630b7f16651461005c5780630c55699c1461007a5780633c9d377d146100985780639942ec6f146100b6578063c3f90202146100d4575b600080fd5b6100646100f2565b6040518082815260200191505060405180910390f35b6100826100fc565b6040518082815260200191505060405180910390f35b6100a0610102565b6040518082815260200191505060405180910390f35b6100be61010c565b6040518082815260200191505060405180910390f35b6100dc610120565b6040518082815260200191505060405180910390f35b6000600154905090565b60005481565b6000808091505090565b600080610117610129565b90508091505090565b60008054905090565b600060025490509056fea26469706673582212207132301097a6dabf11fd56b5c239cf2df712fd9c875359dde4bc197a55be06fd64736f6c63430007060033",
					"opcodes": "PUSH1 0x80 PUSH1 0x40 MSTORE PUSH1 0xA PUSH1 0x0 SSTORE PUSH1 0x14 PUSH1 0x1 SSTORE PUSH1 0x1E PUSH1 0x2 SSTORE CALLVALUE DUP1 ISZERO PUSH2 0x1F JUMPI PUSH1 0x0 DUP1 REVERT JUMPDEST POP PUSH2 0x169 DUP1 PUSH2 0x2F PUSH1 0x0 CODECOPY PUSH1 0x0 RETURN INVALID PUSH1 0x80 PUSH1 0x40 MSTORE CALLVALUE DUP1 ISZERO PUSH2 0x10 JUMPI PUSH1 0x0 DUP1 REVERT JUMPDEST POP PUSH1 0x4 CALLDATASIZE LT PUSH2 0x57 JUMPI PUSH1 0x0 CALLDATALOAD PUSH1 0xE0 SHR DUP1 PUSH4 0xB7F1665 EQ PUSH2 0x5C JUMPI DUP1 PUSH4 0xC55699C EQ PUSH2 0x7A JUMPI DUP1 PUSH4 0x3C9D377D EQ PUSH2 0x98 JUMPI DUP1 PUSH4 0x9942EC6F EQ PUSH2 0xB6 JUMPI DUP1 PUSH4 0xC3F90202 EQ PUSH2 0xD4 JUMPI JUMPDEST PUSH1 0x0 DUP1 REVERT JUMPDEST PUSH2 0x64 PUSH2 0xF2 JUMP JUMPDEST PUSH1 0x40 MLOAD DUP1 DUP3 DUP2 MSTORE PUSH1 0x20 ADD SWAP2 POP POP PUSH1 0x40 MLOAD DUP1 SWAP2 SUB SWAP1 RETURN JUMPDEST PUSH2 0x82 PUSH2 0xFC JUMP JUMPDEST PUSH1 0x40 MLOAD DUP1 DUP3 DUP2 MSTORE PUSH1 0x20 ADD SWAP2 POP POP PUSH1 0x40 MLOAD DUP1 SWAP2 SUB SWAP1 RETURN JUMPDEST PUSH2 0xA0 PUSH2 0x102 JUMP JUMPDEST PUSH1 0x40 MLOAD DUP1 DUP3 DUP2 MSTORE PUSH1 0x20 ADD SWAP2 POP POP PUSH1 0x40 MLOAD DUP1 SWAP2 SUB SWAP1 RETURN JUMPDEST PUSH2 0xBE PUSH2 0x10C JUMP JUMPDEST PUSH1 0x40 MLOAD DUP1 DUP3 DUP2 MSTORE PUSH1 0x20 ADD SWAP2 POP POP PUSH1 0x40 MLOAD DUP1 SWAP2 SUB SWAP1 RETURN JUMPDEST PUSH2 0xDC PUSH2 0x120 JUMP JUMPDEST PUSH1 0x40 MLOAD DUP1 DUP3 DUP2 MSTORE PUSH1 0x20 ADD SWAP2 POP POP PUSH1 0x40 MLOAD DUP1 SWAP2 SUB SWAP1 RETURN JUMPDEST PUSH1 0x0 PUSH1 0x1 SLOAD SWAP1 POP SWAP1 JUMP JUMPDEST PUSH1 0x0 SLOAD DUP2 JUMP JUMPDEST PUSH1 0x0 DUP1 DUP1 SWAP2 POP POP SWAP1 JUMP JUMPDEST PUSH1 0x0 DUP1 PUSH2 0x117 PUSH2 0x129 JUMP JUMPDEST SWAP1 POP DUP1 SWAP2 POP POP SWAP1 JUMP JUMPDEST PUSH1 0x0 DUP1 SLOAD SWAP1 POP SWAP1 JUMP JUMPDEST PUSH1 0x0 PUSH1 0x2 SLOAD SWAP1 POP SWAP1 JUMP INVALID LOG2 PUSH5 0x6970667358 0x22 SLT KECCAK256 PUSH18 0x32301097A6DABF11FD56B5C239CF2DF712FD SWAP13 DUP8 MSTORE8 MSIZE 0xDD 0xE4 0xBC NOT PUSH27 0x55BE06FD64736F6C63430007060033000000000000000000000000 "
				},
				"gasEstimates": {
					"creation": {
						"codeDepositCost": "72200",
						"executionCost": "60141",
						"totalCost": "132341"
					},
					"external": {
						"f2()": "1105",
						"f4()": "1079",
						"f5()": "240",
						"getY()": "991",
						"x()": "1005"
					},
					"internal": {
						"f1()": "823",
						"f3()": "infinite"
					}
				},
				"methodIdentifiers": {
					"f2()": "9942ec6f",
					"f4()": "c3f90202",
					"f5()": "3c9d377d",
					"getY()": "0b7f1665",
					"x()": "0c55699c"
				}
			},
			"storageLayout": {
				"storage": [
					{
						"astId": 4,
						"contract": "contracts/visibility.sol:visibility",
						"label": "x",
						"offset": 0,
						"slot": "0",
						"type": "t_int256"
					},
					{
						"astId": 7,
						"contract": "contracts/visibility.sol:visibility",
						"label": "y",
						"offset": 0,
						"slot": "1",
						"type": "t_int256"
					},
					{
						"astId": 10,
						"contract": "contracts/visibility.sol:visibility",
						"label": "z",
						"offset": 0,
						"slot": "2",
						"type": "t_int256"
					}
				],
				"types": {
					"t_int256": {
						"encoding": "inplace",
						"label": "int256",
						"numberOfBytes": "32"
					}
				}
			},
			"userdoc": {
				"kind": "user",
				"methods": {},
				"version": 1
			}
		}
	}
}