{
	"contracts/ERC20Interface.sol": {
		"CrytisICO": {
			"abi": [
				{
					"inputs": [
						{
							"internalType": "address payable",
							"name": "_deposit",
							"type": "address"
						}
					],
					"stateMutability": "nonpayable",
					"type": "constructor"
				},
				{
					"anonymous": false,
					"inputs": [
						{
							"indexed": true,
							"internalType": "address",
							"name": "tokenOwner",
							"type": "address"
						},
						{
							"indexed": true,
							"internalType": "address",
							"name": "spender",
							"type": "address"
						},
						{
							"indexed": false,
							"internalType": "uint256",
							"name": "tokens",
							"type": "uint256"
						}
					],
					"name": "Approval",
					"type": "event"
				},
				{
					"anonymous": false,
					"inputs": [
						{
							"indexed": false,
							"internalType": "address",
							"name": "investor",
							"type": "address"
						},
						{
							"indexed": false,
							"internalType": "uint256",
							"name": "value",
							"type": "uint256"
						},
						{
							"indexed": false,
							"internalType": "uint256",
							"name": "tokens",
							"type": "uint256"
						}
					],
					"name": "Invest",
					"type": "event"
				},
				{
					"anonymous": false,
					"inputs": [
						{
							"indexed": true,
							"internalType": "address",
							"name": "from",
							"type": "address"
						},
						{
							"indexed": true,
							"internalType": "address",
							"name": "to",
							"type": "address"
						},
						{
							"indexed": false,
							"internalType": "uint256",
							"name": "tokens",
							"type": "uint256"
						}
					],
					"name": "Transfer",
					"type": "event"
				},
				{
					"anonymous": false,
					"inputs": [
						{
							"indexed": false,
							"internalType": "address",
							"name": "_owner",
							"type": "address"
						},
						{
							"indexed": false,
							"internalType": "string",
							"name": "detail",
							"type": "string"
						}
					],
					"name": "logDetail",
					"type": "event"
				},
				{
					"inputs": [],
					"name": "admin",
					"outputs": [
						{
							"internalType": "address",
							"name": "",
							"type": "address"
						}
					],
					"stateMutability": "view",
					"type": "function"
				},
				{
					"inputs": [
						{
							"internalType": "address",
							"name": "tokenOwner",
							"type": "address"
						},
						{
							"internalType": "address",
							"name": "spender",
							"type": "address"
						}
					],
					"name": "allowance",
					"outputs": [
						{
							"internalType": "uint256",
							"name": "",
							"type": "uint256"
						}
					],
					"stateMutability": "view",
					"type": "function"
				},
				{
					"inputs": [
						{
							"internalType": "address",
							"name": "spender",
							"type": "address"
						},
						{
							"internalType": "uint256",
							"name": "tokens",
							"type": "uint256"
						}
					],
					"name": "approve",
					"outputs": [
						{
							"internalType": "bool",
							"name": "success",
							"type": "bool"
						}
					],
					"stateMutability": "nonpayable",
					"type": "function"
				},
				{
					"inputs": [
						{
							"internalType": "address",
							"name": "tokenOwner",
							"type": "address"
						}
					],
					"name": "balanceOf",
					"outputs": [
						{
							"internalType": "uint256",
							"name": "balance",
							"type": "uint256"
						}
					],
					"stateMutability": "view",
					"type": "function"
				},
				{
					"inputs": [
						{
							"internalType": "address",
							"name": "",
							"type": "address"
						}
					],
					"name": "balances",
					"outputs": [
						{
							"internalType": "uint256",
							"name": "",
							"type": "uint256"
						}
					],
					"stateMutability": "view",
					"type": "function"
				},
				{
					"inputs": [],
					"name": "burn",
					"outputs": [
						{
							"internalType": "bool",
							"name": "",
							"type": "bool"
						}
					],
					"stateMutability": "nonpayable",
					"type": "function"
				},
				{
					"inputs": [
						{
							"internalType": "address payable",
							"name": "newDeposit",
							"type": "address"
						}
					],
					"name": "changeDeposiAddress",
					"outputs": [],
					"stateMutability": "nonpayable",
					"type": "function"
				},
				{
					"inputs": [],
					"name": "decimals",
					"outputs": [
						{
							"internalType": "uint256",
							"name": "",
							"type": "uint256"
						}
					],
					"stateMutability": "view",
					"type": "function"
				},
				{
					"inputs": [],
					"name": "deposit",
					"outputs": [
						{
							"internalType": "address payable",
							"name": "",
							"type": "address"
						}
					],
					"stateMutability": "view",
					"type": "function"
				},
				{
					"inputs": [],
					"name": "founder",
					"outputs": [
						{
							"internalType": "address",
							"name": "",
							"type": "address"
						}
					],
					"stateMutability": "view",
					"type": "function"
				},
				{
					"inputs": [],
					"name": "getCurrentState",
					"outputs": [
						{
							"internalType": "enum CrytisICO.State",
							"name": "",
							"type": "uint8"
						}
					],
					"stateMutability": "view",
					"type": "function"
				},
				{
					"inputs": [],
					"name": "halt",
					"outputs": [],
					"stateMutability": "nonpayable",
					"type": "function"
				},
				{
					"inputs": [],
					"name": "hardCap",
					"outputs": [
						{
							"internalType": "uint256",
							"name": "",
							"type": "uint256"
						}
					],
					"stateMutability": "view",
					"type": "function"
				},
				{
					"inputs": [],
					"name": "icoState",
					"outputs": [
						{
							"internalType": "enum CrytisICO.State",
							"name": "",
							"type": "uint8"
						}
					],
					"stateMutability": "view",
					"type": "function"
				},
				{
					"inputs": [],
					"name": "invest",
					"outputs": [
						{
							"internalType": "bool",
							"name": "",
							"type": "bool"
						}
					],
					"stateMutability": "payable",
					"type": "function"
				},
				{
					"inputs": [],
					"name": "maxInvestment",
					"outputs": [
						{
							"internalType": "uint256",
							"name": "",
							"type": "uint256"
						}
					],
					"stateMutability": "view",
					"type": "function"
				},
				{
					"inputs": [],
					"name": "minInvestment",
					"outputs": [
						{
							"internalType": "uint256",
							"name": "",
							"type": "uint256"
						}
					],
					"stateMutability": "view",
					"type": "function"
				},
				{
					"inputs": [],
					"name": "name",
					"outputs": [
						{
							"internalType": "string",
							"name": "",
							"type": "string"
						}
					],
					"stateMutability": "view",
					"type": "function"
				},
				{
					"inputs": [],
					"name": "raisedAmount",
					"outputs": [
						{
							"internalType": "uint256",
							"name": "",
							"type": "uint256"
						}
					],
					"stateMutability": "view",
					"type": "function"
				},
				{
					"inputs": [],
					"name": "resume",
					"outputs": [],
					"stateMutability": "nonpayable",
					"type": "function"
				},
				{
					"inputs": [],
					"name": "saleEnd",
					"outputs": [
						{
							"internalType": "uint256",
							"name": "",
							"type": "uint256"
						}
					],
					"stateMutability": "view",
					"type": "function"
				},
				{
					"inputs": [],
					"name": "saleStart",
					"outputs": [
						{
							"internalType": "uint256",
							"name": "",
							"type": "uint256"
						}
					],
					"stateMutability": "view",
					"type": "function"
				},
				{
					"inputs": [],
					"name": "symbol",
					"outputs": [
						{
							"internalType": "string",
							"name": "",
							"type": "string"
						}
					],
					"stateMutability": "view",
					"type": "function"
				},
				{
					"inputs": [],
					"name": "tokenTradeStart",
					"outputs": [
						{
							"internalType": "uint256",
							"name": "",
							"type": "uint256"
						}
					],
					"stateMutability": "view",
					"type": "function"
				},
				{
					"inputs": [],
					"name": "totalSupply",
					"outputs": [
						{
							"internalType": "uint256",
							"name": "",
							"type": "uint256"
						}
					],
					"stateMutability": "view",
					"type": "function"
				},
				{
					"inputs": [
						{
							"internalType": "address",
							"name": "to",
							"type": "address"
						},
						{
							"internalType": "uint256",
							"name": "tokens",
							"type": "uint256"
						}
					],
					"name": "transfer",
					"outputs": [
						{
							"internalType": "bool",
							"name": "success",
							"type": "bool"
						}
					],
					"stateMutability": "nonpayable",
					"type": "function"
				},
				{
					"inputs": [
						{
							"internalType": "address",
							"name": "from",
							"type": "address"
						},
						{
							"internalType": "address",
							"name": "to",
							"type": "address"
						},
						{
							"internalType": "uint256",
							"name": "tokens",
							"type": "uint256"
						}
					],
					"name": "transferFrom",
					"outputs": [
						{
							"internalType": "bool",
							"name": "success",
							"type": "bool"
						}
					],
					"stateMutability": "nonpayable",
					"type": "function"
				},
				{
					"stateMutability": "payable",
					"type": "receive"
				}
			],
			"devdoc": {
				"kind": "dev",
				"methods": {},
				"version": 1
			},
			"evm": {
				"assembly": "    /* \"contracts/ERC20Interface.sol\":3344:6514  contract CrytisICO is Crytos{... */\n  mstore(0x40, 0x80)\n    /* \"contracts/ERC20Interface.sol\":1152:1179  string public name = \"khan\" */\n  mload(0x40)\n  dup1\n  0x40\n  add\n  0x40\n  mstore\n  dup1\n  0x04\n  dup2\n  mstore\n  0x20\n  add\n  0x6b68616e00000000000000000000000000000000000000000000000000000000\n  dup2\n  mstore\n  pop\n  0x00\n  swap1\n  dup2\n  tag_1\n  swap2\n  swap1\n  tag_2\n  jump\t// in\ntag_1:\n  pop\n    /* \"contracts/ERC20Interface.sol\":1185:1214  string public symbol = \"CRPT\" */\n  mload(0x40)\n  dup1\n  0x40\n  add\n  0x40\n  mstore\n  dup1\n  0x04\n  dup2\n  mstore\n  0x20\n  add\n  0x4352505400000000000000000000000000000000000000000000000000000000\n  dup2\n  mstore\n  pop\n  0x01\n  swap1\n  dup2\n  tag_3\n  swap2\n  swap1\n  tag_2\n  jump\t// in\ntag_3:\n  pop\n    /* \"contracts/ERC20Interface.sol\":1243:1244  0 */\n  0x00\n    /* \"contracts/ERC20Interface.sol\":1220:1244  uint public decimals = 0 */\n  0x02\n  sstore\n    /* \"contracts/ERC20Interface.sol\":3459:3470  0.001 ether */\n  0x038d7ea4c68000\n    /* \"contracts/ERC20Interface.sol\":3441:3470  uint tokenPrice = 0.001 ether */\n  0x09\n  sstore\n    /* \"contracts/ERC20Interface.sol\":3498:3507  300 ether */\n  0x1043561a8829300000\n    /* \"contracts/ERC20Interface.sol\":3476:3507  uint public hardCap = 300 ether */\n  0x0a\n  sstore\n    /* \"contracts/ERC20Interface.sol\":3567:3582  block.timestamp */\n  timestamp\n    /* \"contracts/ERC20Interface.sol\":3543:3582  uint public saleStart = block.timestamp */\n  0x0c\n  sstore\n    /* \"contracts/ERC20Interface.sol\":3628:3634  604800 */\n  0x093a80\n    /* \"contracts/ERC20Interface.sol\":3610:3625  block.timestamp */\n  timestamp\n    /* \"contracts/ERC20Interface.sol\":3610:3634  block.timestamp + 604800 */\n  tag_4\n  swap2\n  swap1\n  tag_5\n  jump\t// in\ntag_4:\n    /* \"contracts/ERC20Interface.sol\":3588:3634  uint public saleEnd = block.timestamp + 604800 */\n  0x0d\n  sstore\n    /* \"contracts/ERC20Interface.sol\":3680:3686  604800 */\n  0x093a80\n    /* \"contracts/ERC20Interface.sol\":3670:3677  saleEnd */\n  sload(0x0d)\n    /* \"contracts/ERC20Interface.sol\":3670:3686  saleEnd + 604800 */\n  tag_6\n  swap2\n  swap1\n  tag_5\n  jump\t// in\ntag_6:\n    /* \"contracts/ERC20Interface.sol\":3640:3686  uint public tokenTradeStart = saleEnd + 604800 */\n  0x0e\n  sstore\n    /* \"contracts/ERC20Interface.sol\":3720:3727  5 ether */\n  0x4563918244f40000\n    /* \"contracts/ERC20Interface.sol\":3692:3727  uint public maxInvestment = 5 ether */\n  0x0f\n  sstore\n    /* \"contracts/ERC20Interface.sol\":3761:3770  0.1 ether */\n  0x016345785d8a0000\n    /* \"contracts/ERC20Interface.sol\":3733:3770  uint public minInvestment = 0.1 ether */\n  0x10\n  sstore\n    /* \"contracts/ERC20Interface.sol\":3860:3998  constructor(address payable _deposit){... */\n  callvalue\n  dup1\n  iszero\n  tag_7\n  jumpi\n  0x00\n  dup1\n  revert\ntag_7:\n  pop\n  mload(0x40)\n  sub(codesize, bytecodeSize)\n  dup1\n  bytecodeSize\n  dup4\n  codecopy\n  dup2\n  dup2\n  add\n  0x40\n  mstore\n  dup2\n  add\n  swap1\n  tag_8\n  swap2\n  swap1\n  tag_9\n  jump\t// in\ntag_8:\n    /* \"contracts/ERC20Interface.sol\":1607:1614  1000000 */\n  0x0f4240\n    /* \"contracts/ERC20Interface.sol\":1593:1604  totalSupply */\n  0x03\n    /* \"contracts/ERC20Interface.sol\":1593:1614  totalSupply = 1000000 */\n  dup2\n  swap1\n  sstore\n  pop\n    /* \"contracts/ERC20Interface.sol\":1634:1644  msg.sender */\n  caller\n    /* \"contracts/ERC20Interface.sol\":1624:1631  founder */\n  0x04\n  0x00\n    /* \"contracts/ERC20Interface.sol\":1624:1644  founder = msg.sender */\n  0x0100\n  exp\n  dup2\n  sload\n  dup2\n  0xffffffffffffffffffffffffffffffffffffffff\n  mul\n  not\n  and\n  swap1\n  dup4\n  0xffffffffffffffffffffffffffffffffffffffff\n  and\n  mul\n  or\n  swap1\n  sstore\n  pop\n    /* \"contracts/ERC20Interface.sol\":1674:1685  totalSupply */\n  sload(0x03)\n    /* \"contracts/ERC20Interface.sol\":1654:1662  balances */\n  0x05\n    /* \"contracts/ERC20Interface.sol\":1654:1671  balances[founder] */\n  0x00\n    /* \"contracts/ERC20Interface.sol\":1663:1670  founder */\n  0x04\n  0x00\n  swap1\n  sload\n  swap1\n  0x0100\n  exp\n  swap1\n  div\n  0xffffffffffffffffffffffffffffffffffffffff\n  and\n    /* \"contracts/ERC20Interface.sol\":1654:1671  balances[founder] */\n  0xffffffffffffffffffffffffffffffffffffffff\n  and\n  0xffffffffffffffffffffffffffffffffffffffff\n  and\n  dup2\n  mstore\n  0x20\n  add\n  swap1\n  dup2\n  mstore\n  0x20\n  add\n  0x00\n  keccak256\n    /* \"contracts/ERC20Interface.sol\":1654:1685  balances[founder] = totalSupply */\n  dup2\n  swap1\n  sstore\n  pop\n    /* \"contracts/ERC20Interface.sol\":3917:3925  _deposit */\n  dup1\n    /* \"contracts/ERC20Interface.sol\":3907:3914  deposit */\n  0x08\n  0x00\n    /* \"contracts/ERC20Interface.sol\":3907:3925  deposit = _deposit */\n  0x0100\n  exp\n  dup2\n  sload\n  dup2\n  0xffffffffffffffffffffffffffffffffffffffff\n  mul\n  not\n  and\n  swap1\n  dup4\n  0xffffffffffffffffffffffffffffffffffffffff\n  and\n  mul\n  or\n  swap1\n  sstore\n  pop\n    /* \"contracts/ERC20Interface.sol\":3943:3953  msg.sender */\n  caller\n    /* \"contracts/ERC20Interface.sol\":3935:3940  admin */\n  0x07\n  0x00\n    /* \"contracts/ERC20Interface.sol\":3935:3953  admin = msg.sender */\n  0x0100\n  exp\n  dup2\n  sload\n  dup2\n  0xffffffffffffffffffffffffffffffffffffffff\n  mul\n  not\n  and\n  swap1\n  dup4\n  0xffffffffffffffffffffffffffffffffffffffff\n  and\n  mul\n  or\n  swap1\n  sstore\n  pop\n    /* \"contracts/ERC20Interface.sol\":3974:3991  State.beforeStart */\n  0x00\n    /* \"contracts/ERC20Interface.sol\":3963:3971  icoState */\n  0x11\n  0x00\n    /* \"contracts/ERC20Interface.sol\":3963:3991  icoState = State.beforeStart */\n  0x0100\n  exp\n  dup2\n  sload\n  dup2\n  0xff\n  mul\n  not\n  and\n  swap1\n  dup4\n  0x03\n  dup2\n  gt\n  iszero\n  tag_14\n  jumpi\n  tag_15\n  tag_16\n  jump\t// in\ntag_15:\ntag_14:\n  mul\n  or\n  swap1\n  sstore\n  pop\n    /* \"contracts/ERC20Interface.sol\":3860:3998  constructor(address payable _deposit){... */\n  pop\n    /* \"contracts/ERC20Interface.sol\":3344:6514  contract CrytisICO is Crytos{... */\n  jump(tag_17)\n    /* \"#utility.yul\":7:106   */\ntag_18:\n    /* \"#utility.yul\":59:65   */\n  0x00\n    /* \"#utility.yul\":93:98   */\n  dup2\n    /* \"#utility.yul\":87:99   */\n  mload\n    /* \"#utility.yul\":77:99   */\n  swap1\n  pop\n    /* \"#utility.yul\":7:106   */\n  swap2\n  swap1\n  pop\n  jump\t// out\n    /* \"#utility.yul\":112:292   */\ntag_19:\n    /* \"#utility.yul\":160:237   */\n  0x4e487b7100000000000000000000000000000000000000000000000000000000\n    /* \"#utility.yul\":157:158   */\n  0x00\n    /* \"#utility.yul\":150:238   */\n  mstore\n    /* \"#utility.yul\":257:261   */\n  0x41\n    /* \"#utility.yul\":254:255   */\n  0x04\n    /* \"#utility.yul\":247:262   */\n  mstore\n    /* \"#utility.yul\":281:285   */\n  0x24\n    /* \"#utility.yul\":278:279   */\n  0x00\n    /* \"#utility.yul\":271:286   */\n  revert\n    /* \"#utility.yul\":298:478   */\ntag_20:\n    /* \"#utility.yul\":346:423   */\n  0x4e487b7100000000000000000000000000000000000000000000000000000000\n    /* \"#utility.yul\":343:344   */\n  0x00\n    /* \"#utility.yul\":336:424   */\n  mstore\n    /* \"#utility.yul\":443:447   */\n  0x22\n    /* \"#utility.yul\":440:441   */\n  0x04\n    /* \"#utility.yul\":433:448   */\n  mstore\n    /* \"#utility.yul\":467:471   */\n  0x24\n    /* \"#utility.yul\":464:465   */\n  0x00\n    /* \"#utility.yul\":457:472   */\n  revert\n    /* \"#utility.yul\":484:804   */\ntag_21:\n    /* \"#utility.yul\":528:534   */\n  0x00\n    /* \"#utility.yul\":565:566   */\n  0x02\n    /* \"#utility.yul\":559:563   */\n  dup3\n    /* \"#utility.yul\":555:567   */\n  div\n    /* \"#utility.yul\":545:567   */\n  swap1\n  pop\n    /* \"#utility.yul\":612:613   */\n  0x01\n    /* \"#utility.yul\":606:610   */\n  dup3\n    /* \"#utility.yul\":602:614   */\n  and\n    /* \"#utility.yul\":633:651   */\n  dup1\n    /* \"#utility.yul\":623:704   */\n  tag_51\n  jumpi\n    /* \"#utility.yul\":689:693   */\n  0x7f\n    /* \"#utility.yul\":681:687   */\n  dup3\n    /* \"#utility.yul\":677:694   */\n  and\n    /* \"#utility.yul\":667:694   */\n  swap2\n  pop\n    /* \"#utility.yul\":623:704   */\ntag_51:\n    /* \"#utility.yul\":751:753   */\n  0x20\n    /* \"#utility.yul\":743:749   */\n  dup3\n    /* \"#utility.yul\":740:754   */\n  lt\n    /* \"#utility.yul\":720:738   */\n  dup2\n    /* \"#utility.yul\":717:755   */\n  sub\n    /* \"#utility.yul\":714:798   */\n  tag_52\n  jumpi\n    /* \"#utility.yul\":770:788   */\n  tag_53\n  tag_20\n  jump\t// in\ntag_53:\n    /* \"#utility.yul\":714:798   */\ntag_52:\n    /* \"#utility.yul\":535:804   */\n  pop\n    /* \"#utility.yul\":484:804   */\n  swap2\n  swap1\n  pop\n  jump\t// out\n    /* \"#utility.yul\":810:951   */\ntag_22:\n    /* \"#utility.yul\":859:863   */\n  0x00\n    /* \"#utility.yul\":882:885   */\n  dup2\n    /* \"#utility.yul\":874:885   */\n  swap1\n  pop\n    /* \"#utility.yul\":905:908   */\n  dup2\n    /* \"#utility.yul\":902:903   */\n  0x00\n    /* \"#utility.yul\":895:909   */\n  mstore\n    /* \"#utility.yul\":939:943   */\n  0x20\n    /* \"#utility.yul\":936:937   */\n  0x00\n    /* \"#utility.yul\":926:944   */\n  keccak256\n    /* \"#utility.yul\":918:944   */\n  swap1\n  pop\n    /* \"#utility.yul\":810:951   */\n  swap2\n  swap1\n  pop\n  jump\t// out\n    /* \"#utility.yul\":957:1050   */\ntag_23:\n    /* \"#utility.yul\":994:1000   */\n  0x00\n    /* \"#utility.yul\":1041:1043   */\n  0x20\n    /* \"#utility.yul\":1036:1038   */\n  0x1f\n    /* \"#utility.yul\":1029:1034   */\n  dup4\n    /* \"#utility.yul\":1025:1039   */\n  add\n    /* \"#utility.yul\":1021:1044   */\n  div\n    /* \"#utility.yul\":1011:1044   */\n  swap1\n  pop\n    /* \"#utility.yul\":957:1050   */\n  swap2\n  swap1\n  pop\n  jump\t// out\n    /* \"#utility.yul\":1056:1163   */\ntag_24:\n    /* \"#utility.yul\":1100:1108   */\n  0x00\n    /* \"#utility.yul\":1150:1155   */\n  dup3\n    /* \"#utility.yul\":1144:1148   */\n  dup3\n    /* \"#utility.yul\":1140:1156   */\n  shl\n    /* \"#utility.yul\":1119:1156   */\n  swap1\n  pop\n    /* \"#utility.yul\":1056:1163   */\n  swap3\n  swap2\n  pop\n  pop\n  jump\t// out\n    /* \"#utility.yul\":1169:1562   */\ntag_25:\n    /* \"#utility.yul\":1238:1244   */\n  0x00\n    /* \"#utility.yul\":1288:1289   */\n  0x08\n    /* \"#utility.yul\":1276:1286   */\n  dup4\n    /* \"#utility.yul\":1272:1290   */\n  mul\n    /* \"#utility.yul\":1311:1408   */\n  tag_58\n    /* \"#utility.yul\":1341:1407   */\n  0xffffffffffffffffffffffffffffffffffffffffffffffffffffffffffffffff\n    /* \"#utility.yul\":1330:1339   */\n  dup3\n    /* \"#utility.yul\":1311:1408   */\n  tag_24\n  jump\t// in\ntag_58:\n    /* \"#utility.yul\":1429:1468   */\n  tag_59\n    /* \"#utility.yul\":1459:1467   */\n  dup7\n    /* \"#utility.yul\":1448:1457   */\n  dup4\n    /* \"#utility.yul\":1429:1468   */\n  tag_24\n  jump\t// in\ntag_59:\n    /* \"#utility.yul\":1417:1468   */\n  swap6\n  pop\n    /* \"#utility.yul\":1501:1505   */\n  dup1\n    /* \"#utility.yul\":1497:1506   */\n  not\n    /* \"#utility.yul\":1490:1495   */\n  dup5\n    /* \"#utility.yul\":1486:1507   */\n  and\n    /* \"#utility.yul\":1477:1507   */\n  swap4\n  pop\n    /* \"#utility.yul\":1550:1554   */\n  dup1\n    /* \"#utility.yul\":1540:1548   */\n  dup7\n    /* \"#utility.yul\":1536:1555   */\n  and\n    /* \"#utility.yul\":1529:1534   */\n  dup5\n    /* \"#utility.yul\":1526:1556   */\n  or\n    /* \"#utility.yul\":1516:1556   */\n  swap3\n  pop\n    /* \"#utility.yul\":1245:1562   */\n  pop\n  pop\n    /* \"#utility.yul\":1169:1562   */\n  swap4\n  swap3\n  pop\n  pop\n  pop\n  jump\t// out\n    /* \"#utility.yul\":1568:1645   */\ntag_26:\n    /* \"#utility.yul\":1605:1612   */\n  0x00\n    /* \"#utility.yul\":1634:1639   */\n  dup2\n    /* \"#utility.yul\":1623:1639   */\n  swap1\n  pop\n    /* \"#utility.yul\":1568:1645   */\n  swap2\n  swap1\n  pop\n  jump\t// out\n    /* \"#utility.yul\":1651:1711   */\ntag_27:\n    /* \"#utility.yul\":1679:1682   */\n  0x00\n    /* \"#utility.yul\":1700:1705   */\n  dup2\n    /* \"#utility.yul\":1693:1705   */\n  swap1\n  pop\n    /* \"#utility.yul\":1651:1711   */\n  swap2\n  swap1\n  pop\n  jump\t// out\n    /* \"#utility.yul\":1717:1859   */\ntag_28:\n    /* \"#utility.yul\":1767:1776   */\n  0x00\n    /* \"#utility.yul\":1800:1853   */\n  tag_63\n    /* \"#utility.yul\":1818:1852   */\n  tag_64\n    /* \"#utility.yul\":1827:1851   */\n  tag_65\n    /* \"#utility.yul\":1845:1850   */\n  dup5\n    /* \"#utility.yul\":1827:1851   */\n  tag_26\n  jump\t// in\ntag_65:\n    /* \"#utility.yul\":1818:1852   */\n  tag_27\n  jump\t// in\ntag_64:\n    /* \"#utility.yul\":1800:1853   */\n  tag_26\n  jump\t// in\ntag_63:\n    /* \"#utility.yul\":1787:1853   */\n  swap1\n  pop\n    /* \"#utility.yul\":1717:1859   */\n  swap2\n  swap1\n  pop\n  jump\t// out\n    /* \"#utility.yul\":1865:1940   */\ntag_29:\n    /* \"#utility.yul\":1908:1911   */\n  0x00\n    /* \"#utility.yul\":1929:1934   */\n  dup2\n    /* \"#utility.yul\":1922:1934   */\n  swap1\n  pop\n    /* \"#utility.yul\":1865:1940   */\n  swap2\n  swap1\n  pop\n  jump\t// out\n    /* \"#utility.yul\":1946:2215   */\ntag_30:\n    /* \"#utility.yul\":2056:2095   */\n  tag_68\n    /* \"#utility.yul\":2087:2094   */\n  dup4\n    /* \"#utility.yul\":2056:2095   */\n  tag_28\n  jump\t// in\ntag_68:\n    /* \"#utility.yul\":2117:2208   */\n  tag_69\n    /* \"#utility.yul\":2166:2207   */\n  tag_70\n    /* \"#utility.yul\":2190:2206   */\n  dup3\n    /* \"#utility.yul\":2166:2207   */\n  tag_29\n  jump\t// in\ntag_70:\n    /* \"#utility.yul\":2158:2164   */\n  dup5\n    /* \"#utility.yul\":2151:2155   */\n  dup5\n    /* \"#utility.yul\":2145:2156   */\n  sload\n    /* \"#utility.yul\":2117:2208   */\n  tag_25\n  jump\t// in\ntag_69:\n    /* \"#utility.yul\":2111:2115   */\n  dup3\n    /* \"#utility.yul\":2104:2209   */\n  sstore\n    /* \"#utility.yul\":2022:2215   */\n  pop\n    /* \"#utility.yul\":1946:2215   */\n  pop\n  pop\n  pop\n  jump\t// out\n    /* \"#utility.yul\":2221:2294   */\ntag_31:\n    /* \"#utility.yul\":2266:2269   */\n  0x00\n    /* \"#utility.yul\":2221:2294   */\n  swap1\n  jump\t// out\n    /* \"#utility.yul\":2300:2489   */\ntag_32:\n    /* \"#utility.yul\":2377:2409   */\n  tag_73\n  tag_31\n  jump\t// in\ntag_73:\n    /* \"#utility.yul\":2418:2483   */\n  tag_74\n    /* \"#utility.yul\":2476:2482   */\n  dup2\n    /* \"#utility.yul\":2468:2474   */\n  dup5\n    /* \"#utility.yul\":2462:2466   */\n  dup5\n    /* \"#utility.yul\":2418:2483   */\n  tag_30\n  jump\t// in\ntag_74:\n    /* \"#utility.yul\":2353:2489   */\n  pop\n    /* \"#utility.yul\":2300:2489   */\n  pop\n  pop\n  jump\t// out\n    /* \"#utility.yul\":2495:2681   */\ntag_33:\n    /* \"#utility.yul\":2555:2675   */\ntag_76:\n    /* \"#utility.yul\":2572:2575   */\n  dup2\n    /* \"#utility.yul\":2565:2570   */\n  dup2\n    /* \"#utility.yul\":2562:2576   */\n  lt\n    /* \"#utility.yul\":2555:2675   */\n  iszero\n  tag_78\n  jumpi\n    /* \"#utility.yul\":2626:2665   */\n  tag_79\n    /* \"#utility.yul\":2663:2664   */\n  0x00\n    /* \"#utility.yul\":2656:2661   */\n  dup3\n    /* \"#utility.yul\":2626:2665   */\n  tag_32\n  jump\t// in\ntag_79:\n    /* \"#utility.yul\":2599:2600   */\n  0x01\n    /* \"#utility.yul\":2592:2597   */\n  dup2\n    /* \"#utility.yul\":2588:2601   */\n  add\n    /* \"#utility.yul\":2579:2601   */\n  swap1\n  pop\n    /* \"#utility.yul\":2555:2675   */\n  jump(tag_76)\ntag_78:\n    /* \"#utility.yul\":2495:2681   */\n  pop\n  pop\n  jump\t// out\n    /* \"#utility.yul\":2687:3230   */\ntag_34:\n    /* \"#utility.yul\":2788:2790   */\n  0x1f\n    /* \"#utility.yul\":2783:2786   */\n  dup3\n    /* \"#utility.yul\":2780:2791   */\n  gt\n    /* \"#utility.yul\":2777:3223   */\n  iszero\n  tag_81\n  jumpi\n    /* \"#utility.yul\":2822:2860   */\n  tag_82\n    /* \"#utility.yul\":2854:2859   */\n  dup2\n    /* \"#utility.yul\":2822:2860   */\n  tag_22\n  jump\t// in\ntag_82:\n    /* \"#utility.yul\":2906:2935   */\n  tag_83\n    /* \"#utility.yul\":2924:2934   */\n  dup5\n    /* \"#utility.yul\":2906:2935   */\n  tag_23\n  jump\t// in\ntag_83:\n    /* \"#utility.yul\":2896:2904   */\n  dup2\n    /* \"#utility.yul\":2892:2936   */\n  add\n    /* \"#utility.yul\":3089:3091   */\n  0x20\n    /* \"#utility.yul\":3077:3087   */\n  dup6\n    /* \"#utility.yul\":3074:3092   */\n  lt\n    /* \"#utility.yul\":3071:3120   */\n  iszero\n  tag_84\n  jumpi\n    /* \"#utility.yul\":3110:3118   */\n  dup2\n    /* \"#utility.yul\":3095:3118   */\n  swap1\n  pop\n    /* \"#utility.yul\":3071:3120   */\ntag_84:\n    /* \"#utility.yul\":3133:3213   */\n  tag_85\n    /* \"#utility.yul\":3189:3211   */\n  tag_86\n    /* \"#utility.yul\":3207:3210   */\n  dup6\n    /* \"#utility.yul\":3189:3211   */\n  tag_23\n  jump\t// in\ntag_86:\n    /* \"#utility.yul\":3179:3187   */\n  dup4\n    /* \"#utility.yul\":3175:3212   */\n  add\n    /* \"#utility.yul\":3162:3173   */\n  dup3\n    /* \"#utility.yul\":3133:3213   */\n  tag_33\n  jump\t// in\ntag_85:\n    /* \"#utility.yul\":2792:3223   */\n  pop\n  pop\n    /* \"#utility.yul\":2777:3223   */\ntag_81:\n    /* \"#utility.yul\":2687:3230   */\n  pop\n  pop\n  pop\n  jump\t// out\n    /* \"#utility.yul\":3236:3353   */\ntag_35:\n    /* \"#utility.yul\":3290:3298   */\n  0x00\n    /* \"#utility.yul\":3340:3345   */\n  dup3\n    /* \"#utility.yul\":3334:3338   */\n  dup3\n    /* \"#utility.yul\":3330:3346   */\n  shr\n    /* \"#utility.yul\":3309:3346   */\n  swap1\n  pop\n    /* \"#utility.yul\":3236:3353   */\n  swap3\n  swap2\n  pop\n  pop\n  jump\t// out\n    /* \"#utility.yul\":3359:3528   */\ntag_36:\n    /* \"#utility.yul\":3403:3409   */\n  0x00\n    /* \"#utility.yul\":3436:3487   */\n  tag_89\n    /* \"#utility.yul\":3484:3485   */\n  0x00\n    /* \"#utility.yul\":3480:3486   */\n  not\n    /* \"#utility.yul\":3472:3477   */\n  dup5\n    /* \"#utility.yul\":3469:3470   */\n  0x08\n    /* \"#utility.yul\":3465:3478   */\n  mul\n    /* \"#utility.yul\":3436:3487   */\n  tag_35\n  jump\t// in\ntag_89:\n    /* \"#utility.yul\":3432:3488   */\n  not\n    /* \"#utility.yul\":3517:3521   */\n  dup1\n    /* \"#utility.yul\":3511:3515   */\n  dup4\n    /* \"#utility.yul\":3507:3522   */\n  and\n    /* \"#utility.yul\":3497:3522   */\n  swap2\n  pop\n    /* \"#utility.yul\":3410:3528   */\n  pop\n    /* \"#utility.yul\":3359:3528   */\n  swap3\n  swap2\n  pop\n  pop\n  jump\t// out\n    /* \"#utility.yul\":3533:3828   */\ntag_37:\n    /* \"#utility.yul\":3609:3613   */\n  0x00\n    /* \"#utility.yul\":3755:3784   */\n  tag_91\n    /* \"#utility.yul\":3780:3783   */\n  dup4\n    /* \"#utility.yul\":3774:3778   */\n  dup4\n    /* \"#utility.yul\":3755:3784   */\n  tag_36\n  jump\t// in\ntag_91:\n    /* \"#utility.yul\":3747:3784   */\n  swap2\n  pop\n    /* \"#utility.yul\":3817:3820   */\n  dup3\n    /* \"#utility.yul\":3814:3815   */\n  0x02\n    /* \"#utility.yul\":3810:3821   */\n  mul\n    /* \"#utility.yul\":3804:3808   */\n  dup3\n    /* \"#utility.yul\":3801:3822   */\n  or\n    /* \"#utility.yul\":3793:3822   */\n  swap1\n  pop\n    /* \"#utility.yul\":3533:3828   */\n  swap3\n  swap2\n  pop\n  pop\n  jump\t// out\n    /* \"#utility.yul\":3833:5228   */\ntag_2:\n    /* \"#utility.yul\":3950:3987   */\n  tag_93\n    /* \"#utility.yul\":3983:3986   */\n  dup3\n    /* \"#utility.yul\":3950:3987   */\n  tag_18\n  jump\t// in\ntag_93:\n    /* \"#utility.yul\":4052:4070   */\n  0xffffffffffffffff\n    /* \"#utility.yul\":4044:4050   */\n  dup2\n    /* \"#utility.yul\":4041:4071   */\n  gt\n    /* \"#utility.yul\":4038:4094   */\n  iszero\n  tag_94\n  jumpi\n    /* \"#utility.yul\":4074:4092   */\n  tag_95\n  tag_19\n  jump\t// in\ntag_95:\n    /* \"#utility.yul\":4038:4094   */\ntag_94:\n    /* \"#utility.yul\":4118:4156   */\n  tag_96\n    /* \"#utility.yul\":4150:4154   */\n  dup3\n    /* \"#utility.yul\":4144:4155   */\n  sload\n    /* \"#utility.yul\":4118:4156   */\n  tag_21\n  jump\t// in\ntag_96:\n    /* \"#utility.yul\":4203:4270   */\n  tag_97\n    /* \"#utility.yul\":4263:4269   */\n  dup3\n    /* \"#utility.yul\":4255:4261   */\n  dup3\n    /* \"#utility.yul\":4249:4253   */\n  dup6\n    /* \"#utility.yul\":4203:4270   */\n  tag_34\n  jump\t// in\ntag_97:\n    /* \"#utility.yul\":4297:4298   */\n  0x00\n    /* \"#utility.yul\":4321:4325   */\n  0x20\n    /* \"#utility.yul\":4308:4325   */\n  swap1\n  pop\n    /* \"#utility.yul\":4353:4355   */\n  0x1f\n    /* \"#utility.yul\":4345:4351   */\n  dup4\n    /* \"#utility.yul\":4342:4356   */\n  gt\n    /* \"#utility.yul\":4370:4371   */\n  0x01\n    /* \"#utility.yul\":4365:4983   */\n  dup2\n  eq\n  tag_99\n  jumpi\n    /* \"#utility.yul\":5027:5028   */\n  0x00\n    /* \"#utility.yul\":5044:5050   */\n  dup5\n    /* \"#utility.yul\":5041:5118   */\n  iszero\n  tag_100\n  jumpi\n    /* \"#utility.yul\":5093:5102   */\n  dup3\n    /* \"#utility.yul\":5088:5091   */\n  dup8\n    /* \"#utility.yul\":5084:5103   */\n  add\n    /* \"#utility.yul\":5078:5104   */\n  mload\n    /* \"#utility.yul\":5069:5104   */\n  swap1\n  pop\n    /* \"#utility.yul\":5041:5118   */\ntag_100:\n    /* \"#utility.yul\":5144:5211   */\n  tag_101\n    /* \"#utility.yul\":5204:5210   */\n  dup6\n    /* \"#utility.yul\":5197:5202   */\n  dup3\n    /* \"#utility.yul\":5144:5211   */\n  tag_37\n  jump\t// in\ntag_101:\n    /* \"#utility.yul\":5138:5142   */\n  dup7\n    /* \"#utility.yul\":5131:5212   */\n  sstore\n    /* \"#utility.yul\":5000:5222   */\n  pop\n    /* \"#utility.yul\":4335:5222   */\n  jump(tag_98)\n    /* \"#utility.yul\":4365:4983   */\ntag_99:\n    /* \"#utility.yul\":4417:4421   */\n  0x1f\n    /* \"#utility.yul\":4413:4422   */\n  not\n    /* \"#utility.yul\":4405:4411   */\n  dup5\n    /* \"#utility.yul\":4401:4423   */\n  and\n    /* \"#utility.yul\":4451:4488   */\n  tag_102\n    /* \"#utility.yul\":4483:4487   */\n  dup7\n    /* \"#utility.yul\":4451:4488   */\n  tag_22\n  jump\t// in\ntag_102:\n    /* \"#utility.yul\":4510:4511   */\n  0x00\n    /* \"#utility.yul\":4524:4732   */\ntag_103:\n    /* \"#utility.yul\":4538:4545   */\n  dup3\n    /* \"#utility.yul\":4535:4536   */\n  dup2\n    /* \"#utility.yul\":4532:4546   */\n  lt\n    /* \"#utility.yul\":4524:4732   */\n  iszero\n  tag_105\n  jumpi\n    /* \"#utility.yul\":4617:4626   */\n  dup5\n    /* \"#utility.yul\":4612:4615   */\n  dup10\n    /* \"#utility.yul\":4608:4627   */\n  add\n    /* \"#utility.yul\":4602:4628   */\n  mload\n    /* \"#utility.yul\":4594:4600   */\n  dup3\n    /* \"#utility.yul\":4587:4629   */\n  sstore\n    /* \"#utility.yul\":4668:4669   */\n  0x01\n    /* \"#utility.yul\":4660:4666   */\n  dup3\n    /* \"#utility.yul\":4656:4670   */\n  add\n    /* \"#utility.yul\":4646:4670   */\n  swap2\n  pop\n    /* \"#utility.yul\":4715:4717   */\n  0x20\n    /* \"#utility.yul\":4704:4713   */\n  dup6\n    /* \"#utility.yul\":4700:4718   */\n  add\n    /* \"#utility.yul\":4687:4718   */\n  swap5\n  pop\n    /* \"#utility.yul\":4561:4565   */\n  0x20\n    /* \"#utility.yul\":4558:4559   */\n  dup2\n    /* \"#utility.yul\":4554:4566   */\n  add\n    /* \"#utility.yul\":4549:4566   */\n  swap1\n  pop\n    /* \"#utility.yul\":4524:4732   */\n  jump(tag_103)\ntag_105:\n    /* \"#utility.yul\":4760:4766   */\n  dup7\n    /* \"#utility.yul\":4751:4758   */\n  dup4\n    /* \"#utility.yul\":4748:4767   */\n  lt\n    /* \"#utility.yul\":4745:4924   */\n  iszero\n  tag_106\n  jumpi\n    /* \"#utility.yul\":4818:4827   */\n  dup5\n    /* \"#utility.yul\":4813:4816   */\n  dup10\n    /* \"#utility.yul\":4809:4828   */\n  add\n    /* \"#utility.yul\":4803:4829   */\n  mload\n    /* \"#utility.yul\":4861:4909   */\n  tag_107\n    /* \"#utility.yul\":4903:4907   */\n  0x1f\n    /* \"#utility.yul\":4895:4901   */\n  dup10\n    /* \"#utility.yul\":4891:4908   */\n  and\n    /* \"#utility.yul\":4880:4889   */\n  dup3\n    /* \"#utility.yul\":4861:4909   */\n  tag_36\n  jump\t// in\ntag_107:\n    /* \"#utility.yul\":4853:4859   */\n  dup4\n    /* \"#utility.yul\":4846:4910   */\n  sstore\n    /* \"#utility.yul\":4768:4924   */\n  pop\n    /* \"#utility.yul\":4745:4924   */\ntag_106:\n    /* \"#utility.yul\":4970:4971   */\n  0x01\n    /* \"#utility.yul\":4966:4967   */\n  0x02\n    /* \"#utility.yul\":4958:4964   */\n  dup9\n    /* \"#utility.yul\":4954:4968   */\n  mul\n    /* \"#utility.yul\":4950:4972   */\n  add\n    /* \"#utility.yul\":4944:4948   */\n  dup9\n    /* \"#utility.yul\":4937:4973   */\n  sstore\n    /* \"#utility.yul\":4372:4983   */\n  pop\n  pop\n  pop\n    /* \"#utility.yul\":4335:5222   */\ntag_98:\n  pop\n    /* \"#utility.yul\":3925:5228   */\n  pop\n  pop\n  pop\n    /* \"#utility.yul\":3833:5228   */\n  pop\n  pop\n  jump\t// out\n    /* \"#utility.yul\":5234:5414   */\ntag_38:\n    /* \"#utility.yul\":5282:5359   */\n  0x4e487b7100000000000000000000000000000000000000000000000000000000\n    /* \"#utility.yul\":5279:5280   */\n  0x00\n    /* \"#utility.yul\":5272:5360   */\n  mstore\n    /* \"#utility.yul\":5379:5383   */\n  0x11\n    /* \"#utility.yul\":5376:5377   */\n  0x04\n    /* \"#utility.yul\":5369:5384   */\n  mstore\n    /* \"#utility.yul\":5403:5407   */\n  0x24\n    /* \"#utility.yul\":5400:5401   */\n  0x00\n    /* \"#utility.yul\":5393:5408   */\n  revert\n    /* \"#utility.yul\":5420:5611   */\ntag_5:\n    /* \"#utility.yul\":5460:5463   */\n  0x00\n    /* \"#utility.yul\":5479:5499   */\n  tag_110\n    /* \"#utility.yul\":5497:5498   */\n  dup3\n    /* \"#utility.yul\":5479:5499   */\n  tag_26\n  jump\t// in\ntag_110:\n    /* \"#utility.yul\":5474:5499   */\n  swap2\n  pop\n    /* \"#utility.yul\":5513:5533   */\n  tag_111\n    /* \"#utility.yul\":5531:5532   */\n  dup4\n    /* \"#utility.yul\":5513:5533   */\n  tag_26\n  jump\t// in\ntag_111:\n    /* \"#utility.yul\":5508:5533   */\n  swap3\n  pop\n    /* \"#utility.yul\":5556:5557   */\n  dup3\n    /* \"#utility.yul\":5553:5554   */\n  dup3\n    /* \"#utility.yul\":5549:5558   */\n  add\n    /* \"#utility.yul\":5542:5558   */\n  swap1\n  pop\n    /* \"#utility.yul\":5577:5580   */\n  dup1\n    /* \"#utility.yul\":5574:5575   */\n  dup3\n    /* \"#utility.yul\":5571:5581   */\n  gt\n    /* \"#utility.yul\":5568:5604   */\n  iszero\n  tag_112\n  jumpi\n    /* \"#utility.yul\":5584:5602   */\n  tag_113\n  tag_38\n  jump\t// in\ntag_113:\n    /* \"#utility.yul\":5568:5604   */\ntag_112:\n    /* \"#utility.yul\":5420:5611   */\n  swap3\n  swap2\n  pop\n  pop\n  jump\t// out\n    /* \"#utility.yul\":5698:5815   */\ntag_40:\n    /* \"#utility.yul\":5807:5808   */\n  0x00\n    /* \"#utility.yul\":5804:5805   */\n  dup1\n    /* \"#utility.yul\":5797:5809   */\n  revert\n    /* \"#utility.yul\":5944:6070   */\ntag_42:\n    /* \"#utility.yul\":5981:5988   */\n  0x00\n    /* \"#utility.yul\":6021:6063   */\n  0xffffffffffffffffffffffffffffffffffffffff\n    /* \"#utility.yul\":6014:6019   */\n  dup3\n    /* \"#utility.yul\":6010:6064   */\n  and\n    /* \"#utility.yul\":5999:6064   */\n  swap1\n  pop\n    /* \"#utility.yul\":5944:6070   */\n  swap2\n  swap1\n  pop\n  jump\t// out\n    /* \"#utility.yul\":6076:6180   */\ntag_43:\n    /* \"#utility.yul\":6121:6128   */\n  0x00\n    /* \"#utility.yul\":6150:6174   */\n  tag_119\n    /* \"#utility.yul\":6168:6173   */\n  dup3\n    /* \"#utility.yul\":6150:6174   */\n  tag_42\n  jump\t// in\ntag_119:\n    /* \"#utility.yul\":6139:6174   */\n  swap1\n  pop\n    /* \"#utility.yul\":6076:6180   */\n  swap2\n  swap1\n  pop\n  jump\t// out\n    /* \"#utility.yul\":6186:6324   */\ntag_44:\n    /* \"#utility.yul\":6267:6299   */\n  tag_121\n    /* \"#utility.yul\":6293:6298   */\n  dup2\n    /* \"#utility.yul\":6267:6299   */\n  tag_43\n  jump\t// in\ntag_121:\n    /* \"#utility.yul\":6260:6265   */\n  dup2\n    /* \"#utility.yul\":6257:6300   */\n  eq\n    /* \"#utility.yul\":6247:6318   */\n  tag_122\n  jumpi\n    /* \"#utility.yul\":6314:6315   */\n  0x00\n    /* \"#utility.yul\":6311:6312   */\n  dup1\n    /* \"#utility.yul\":6304:6316   */\n  revert\n    /* \"#utility.yul\":6247:6318   */\ntag_122:\n    /* \"#utility.yul\":6186:6324   */\n  pop\n  jump\t// out\n    /* \"#utility.yul\":6330:6489   */\ntag_45:\n    /* \"#utility.yul\":6395:6400   */\n  0x00\n    /* \"#utility.yul\":6426:6432   */\n  dup2\n    /* \"#utility.yul\":6420:6433   */\n  mload\n    /* \"#utility.yul\":6411:6433   */\n  swap1\n  pop\n    /* \"#utility.yul\":6442:6483   */\n  tag_124\n    /* \"#utility.yul\":6477:6482   */\n  dup2\n    /* \"#utility.yul\":6442:6483   */\n  tag_44\n  jump\t// in\ntag_124:\n    /* \"#utility.yul\":6330:6489   */\n  swap3\n  swap2\n  pop\n  pop\n  jump\t// out\n    /* \"#utility.yul\":6495:6862   */\ntag_9:\n    /* \"#utility.yul\":6573:6579   */\n  0x00\n    /* \"#utility.yul\":6622:6624   */\n  0x20\n    /* \"#utility.yul\":6610:6619   */\n  dup3\n    /* \"#utility.yul\":6601:6608   */\n  dup5\n    /* \"#utility.yul\":6597:6620   */\n  sub\n    /* \"#utility.yul\":6593:6625   */\n  slt\n    /* \"#utility.yul\":6590:6709   */\n  iszero\n  tag_126\n  jumpi\n    /* \"#utility.yul\":6628:6707   */\n  tag_127\n  tag_40\n  jump\t// in\ntag_127:\n    /* \"#utility.yul\":6590:6709   */\ntag_126:\n    /* \"#utility.yul\":6748:6749   */\n  0x00\n    /* \"#utility.yul\":6773:6845   */\n  tag_128\n    /* \"#utility.yul\":6837:6844   */\n  dup5\n    /* \"#utility.yul\":6828:6834   */\n  dup3\n    /* \"#utility.yul\":6817:6826   */\n  dup6\n    /* \"#utility.yul\":6813:6835   */\n  add\n    /* \"#utility.yul\":6773:6845   */\n  tag_45\n  jump\t// in\ntag_128:\n    /* \"#utility.yul\":6763:6845   */\n  swap2\n  pop\n    /* \"#utility.yul\":6719:6855   */\n  pop\n    /* \"#utility.yul\":6495:6862   */\n  swap3\n  swap2\n  pop\n  pop\n  jump\t// out\n    /* \"#utility.yul\":6868:7048   */\ntag_16:\n    /* \"#utility.yul\":6916:6993   */\n  0x4e487b7100000000000000000000000000000000000000000000000000000000\n    /* \"#utility.yul\":6913:6914   */\n  0x00\n    /* \"#utility.yul\":6906:6994   */\n  mstore\n    /* \"#utility.yul\":7013:7017   */\n  0x21\n    /* \"#utility.yul\":7010:7011   */\n  0x04\n    /* \"#utility.yul\":7003:7018   */\n  mstore\n    /* \"#utility.yul\":7037:7041   */\n  0x24\n    /* \"#utility.yul\":7034:7035   */\n  0x00\n    /* \"#utility.yul\":7027:7042   */\n  revert\n    /* \"contracts/ERC20Interface.sol\":3344:6514  contract CrytisICO is Crytos{... */\ntag_17:\n  dataSize(sub_0)\n  dup1\n  dataOffset(sub_0)\n  0x00\n  codecopy\n  0x00\n  return\nstop\n\nsub_0: assembly {\n        /* \"contracts/ERC20Interface.sol\":3344:6514  contract CrytisICO is Crytos{... */\n      mstore(0x40, 0x80)\n      jumpi(tag_1, lt(calldatasize, 0x04))\n      shr(0xe0, calldataload(0x00))\n      dup1\n      0x70a08231\n      gt\n      tag_30\n      jumpi\n      dup1\n      0xc59ee1dc\n      gt\n      tag_31\n      jumpi\n      dup1\n      0xdd62ed3e\n      gt\n      tag_32\n      jumpi\n      dup1\n      0xdd62ed3e\n      eq\n      tag_26\n      jumpi\n      dup1\n      0xe8b5e51f\n      eq\n      tag_27\n      jumpi\n      dup1\n      0xf851a440\n      eq\n      tag_28\n      jumpi\n      dup1\n      0xfb86a404\n      eq\n      tag_29\n      jumpi\n      jump(tag_2)\n    tag_32:\n      dup1\n      0xc59ee1dc\n      eq\n      tag_23\n      jumpi\n      dup1\n      0xcc9ba583\n      eq\n      tag_24\n      jumpi\n      dup1\n      0xd0e30db0\n      eq\n      tag_25\n      jumpi\n      jump(tag_2)\n    tag_31:\n      dup1\n      0x95d89b41\n      gt\n      tag_33\n      jumpi\n      dup1\n      0x95d89b41\n      eq\n      tag_19\n      jumpi\n      dup1\n      0xa9059cbb\n      eq\n      tag_20\n      jumpi\n      dup1\n      0xab0bcc41\n      eq\n      tag_21\n      jumpi\n      dup1\n      0xc10b9358\n      eq\n      tag_22\n      jumpi\n      jump(tag_2)\n    tag_33:\n      dup1\n      0x70a08231\n      eq\n      tag_16\n      jumpi\n      dup1\n      0x88b15754\n      eq\n      tag_17\n      jumpi\n      dup1\n      0x8ac2c680\n      eq\n      tag_18\n      jumpi\n      jump(tag_2)\n    tag_30:\n      dup1\n      0x27e235e3\n      gt\n      tag_34\n      jumpi\n      dup1\n      0x44df8e70\n      gt\n      tag_35\n      jumpi\n      dup1\n      0x44df8e70\n      eq\n      tag_12\n      jumpi\n      dup1\n      0x44f38756\n      eq\n      tag_13\n      jumpi\n      dup1\n      0x4d853ee5\n      eq\n      tag_14\n      jumpi\n      dup1\n      0x5ed7ca5b\n      eq\n      tag_15\n      jumpi\n      jump(tag_2)\n    tag_35:\n      dup1\n      0x27e235e3\n      eq\n      tag_9\n      jumpi\n      dup1\n      0x313ce567\n      eq\n      tag_10\n      jumpi\n      dup1\n      0x378aa701\n      eq\n      tag_11\n      jumpi\n      jump(tag_2)\n    tag_34:\n      dup1\n      0x2e1316\n      eq\n      tag_3\n      jumpi\n      dup1\n      0x046f7da2\n      eq\n      tag_4\n      jumpi\n      dup1\n      0x06fdde03\n      eq\n      tag_5\n      jumpi\n      dup1\n      0x095ea7b3\n      eq\n      tag_6\n      jumpi\n      dup1\n      0x18160ddd\n      eq\n      tag_7\n      jumpi\n      dup1\n      0x23b872dd\n      eq\n      tag_8\n      jumpi\n      jump(tag_2)\n    tag_1:\n      jumpi(tag_2, calldatasize)\n        /* \"contracts/ERC20Interface.sol\":5884:5892  invest() */\n      tag_38\n        /* \"contracts/ERC20Interface.sol\":5884:5890  invest */\n      tag_39\n        /* \"contracts/ERC20Interface.sol\":5884:5892  invest() */\n      jump\t// in\n    tag_38:\n      stop\n        /* \"contracts/ERC20Interface.sol\":3344:6514  contract CrytisICO is Crytos{... */\n    tag_2:\n      0x00\n      dup1\n      revert\n        /* \"contracts/ERC20Interface.sol\":3692:3727  uint public maxInvestment = 5 ether */\n    tag_3:\n      callvalue\n      dup1\n      iszero\n      tag_40\n      jumpi\n      0x00\n      dup1\n      revert\n    tag_40:\n      pop\n      tag_41\n      tag_42\n      jump\t// in\n    tag_41:\n      mload(0x40)\n      tag_43\n      swap2\n      swap1\n      tag_44\n      jump\t// in\n    tag_43:\n      mload(0x40)\n      dup1\n      swap2\n      sub\n      swap1\n      return\n        /* \"contracts/ERC20Interface.sol\":4168:4243  function resume() public onlyAdmin{... */\n    tag_4:\n      callvalue\n      dup1\n      iszero\n      tag_45\n      jumpi\n      0x00\n      dup1\n      revert\n    tag_45:\n      pop\n      tag_46\n      tag_47\n      jump\t// in\n    tag_46:\n      stop\n        /* \"contracts/ERC20Interface.sol\":1152:1179  string public name = \"khan\" */\n    tag_5:\n      callvalue\n      dup1\n      iszero\n      tag_48\n      jumpi\n      0x00\n      dup1\n      revert\n    tag_48:\n      pop\n      tag_49\n      tag_50\n      jump\t// in\n    tag_49:\n      mload(0x40)\n      tag_51\n      swap2\n      swap1\n      tag_52\n      jump\t// in\n    tag_51:\n      mload(0x40)\n      dup1\n      swap2\n      sub\n      swap1\n      return\n        /* \"contracts/ERC20Interface.sol\":2507:2799  function approve(address spender, uint tokens) public override returns (bool success){... */\n    tag_6:\n      callvalue\n      dup1\n      iszero\n      tag_53\n      jumpi\n      0x00\n      dup1\n      revert\n    tag_53:\n      pop\n      tag_54\n      0x04\n      dup1\n      calldatasize\n      sub\n      dup2\n      add\n      swap1\n      tag_55\n      swap2\n      swap1\n      tag_56\n      jump\t// in\n    tag_55:\n      tag_57\n      jump\t// in\n    tag_54:\n      mload(0x40)\n      tag_58\n      swap2\n      swap1\n      tag_59\n      jump\t// in\n    tag_58:\n      mload(0x40)\n      dup1\n      swap2\n      sub\n      swap1\n      return\n        /* \"contracts/ERC20Interface.sol\":1250:1282  uint public override totalSupply */\n    tag_7:\n      callvalue\n      dup1\n      iszero\n      tag_60\n      jumpi\n      0x00\n      dup1\n      revert\n    tag_60:\n      pop\n      tag_61\n      tag_62\n      jump\t// in\n    tag_61:\n      mload(0x40)\n      tag_63\n      swap2\n      swap1\n      tag_44\n      jump\t// in\n    tag_63:\n      mload(0x40)\n      dup1\n      swap2\n      sub\n      swap1\n      return\n        /* \"contracts/ERC20Interface.sol\":6151:6376  function transferFrom(address from, address to, uint tokens) public override returns(bool success){... */\n    tag_8:\n      callvalue\n      dup1\n      iszero\n      tag_64\n      jumpi\n      0x00\n      dup1\n      revert\n    tag_64:\n      pop\n      tag_65\n      0x04\n      dup1\n      calldatasize\n      sub\n      dup2\n      add\n      swap1\n      tag_66\n      swap2\n      swap1\n      tag_67\n      jump\t// in\n    tag_66:\n      tag_68\n      jump\t// in\n    tag_65:\n      mload(0x40)\n      tag_69\n      swap2\n      swap1\n      tag_59\n      jump\t// in\n    tag_69:\n      mload(0x40)\n      dup1\n      swap2\n      sub\n      swap1\n      return\n        /* \"contracts/ERC20Interface.sol\":1317:1357  mapping(address => uint) public balances */\n    tag_9:\n      callvalue\n      dup1\n      iszero\n      tag_70\n      jumpi\n      0x00\n      dup1\n      revert\n    tag_70:\n      pop\n      tag_71\n      0x04\n      dup1\n      calldatasize\n      sub\n      dup2\n      add\n      swap1\n      tag_72\n      swap2\n      swap1\n      tag_73\n      jump\t// in\n    tag_72:\n      tag_74\n      jump\t// in\n    tag_71:\n      mload(0x40)\n      tag_75\n      swap2\n      swap1\n      tag_44\n      jump\t// in\n    tag_75:\n      mload(0x40)\n      dup1\n      swap2\n      sub\n      swap1\n      return\n        /* \"contracts/ERC20Interface.sol\":1220:1244  uint public decimals = 0 */\n    tag_10:\n      callvalue\n      dup1\n      iszero\n      tag_76\n      jumpi\n      0x00\n      dup1\n      revert\n    tag_76:\n      pop\n      tag_77\n      tag_78\n      jump\t// in\n    tag_77:\n      mload(0x40)\n      tag_79\n      swap2\n      swap1\n      tag_44\n      jump\t// in\n    tag_79:\n      mload(0x40)\n      dup1\n      swap2\n      sub\n      swap1\n      return\n        /* \"contracts/ERC20Interface.sol\":4365:4753  function getCurrentState() public view returns(State){... */\n    tag_11:\n      callvalue\n      dup1\n      iszero\n      tag_80\n      jumpi\n      0x00\n      dup1\n      revert\n    tag_80:\n      pop\n      tag_81\n      tag_82\n      jump\t// in\n    tag_81:\n      mload(0x40)\n      tag_83\n      swap2\n      swap1\n      tag_84\n      jump\t// in\n    tag_83:\n      mload(0x40)\n      dup1\n      swap2\n      sub\n      swap1\n      return\n        /* \"contracts/ERC20Interface.sol\":6382:6512  function burn() public returns(bool){... */\n    tag_12:\n      callvalue\n      dup1\n      iszero\n      tag_85\n      jumpi\n      0x00\n      dup1\n      revert\n    tag_85:\n      pop\n      tag_86\n      tag_87\n      jump\t// in\n    tag_86:\n      mload(0x40)\n      tag_88\n      swap2\n      swap1\n      tag_59\n      jump\t// in\n    tag_88:\n      mload(0x40)\n      dup1\n      swap2\n      sub\n      swap1\n      return\n        /* \"contracts/ERC20Interface.sol\":3832:3853  State public icoState */\n    tag_13:\n      callvalue\n      dup1\n      iszero\n      tag_89\n      jumpi\n      0x00\n      dup1\n      revert\n    tag_89:\n      pop\n      tag_90\n      tag_91\n      jump\t// in\n    tag_90:\n      mload(0x40)\n      tag_92\n      swap2\n      swap1\n      tag_84\n      jump\t// in\n    tag_92:\n      mload(0x40)\n      dup1\n      swap2\n      sub\n      swap1\n      return\n        /* \"contracts/ERC20Interface.sol\":1289:1311  address public founder */\n    tag_14:\n      callvalue\n      dup1\n      iszero\n      tag_93\n      jumpi\n      0x00\n      dup1\n      revert\n    tag_93:\n      pop\n      tag_94\n      tag_95\n      jump\t// in\n    tag_94:\n      mload(0x40)\n      tag_96\n      swap2\n      swap1\n      tag_97\n      jump\t// in\n    tag_96:\n      mload(0x40)\n      dup1\n      swap2\n      sub\n      swap1\n      return\n        /* \"contracts/ERC20Interface.sol\":4090:4162  function halt() public onlyAdmin{... */\n    tag_15:\n      callvalue\n      dup1\n      iszero\n      tag_98\n      jumpi\n      0x00\n      dup1\n      revert\n    tag_98:\n      pop\n      tag_99\n      tag_100\n      jump\t// in\n    tag_99:\n      stop\n        /* \"contracts/ERC20Interface.sol\":1698:1823  function balanceOf(address tokenOwner) public view override returns(uint balance){... */\n    tag_16:\n      callvalue\n      dup1\n      iszero\n      tag_101\n      jumpi\n      0x00\n      dup1\n      revert\n    tag_101:\n      pop\n      tag_102\n      0x04\n      dup1\n      calldatasize\n      sub\n      dup2\n      add\n      swap1\n      tag_103\n      swap2\n      swap1\n      tag_73\n      jump\t// in\n    tag_103:\n      tag_104\n      jump\t// in\n    tag_102:\n      mload(0x40)\n      tag_105\n      swap2\n      swap1\n      tag_44\n      jump\t// in\n    tag_105:\n      mload(0x40)\n      dup1\n      swap2\n      sub\n      swap1\n      return\n        /* \"contracts/ERC20Interface.sol\":4249:4359  function changeDeposiAddress(address payable newDeposit) public onlyAdmin{... */\n    tag_17:\n      callvalue\n      dup1\n      iszero\n      tag_106\n      jumpi\n      0x00\n      dup1\n      revert\n    tag_106:\n      pop\n      tag_107\n      0x04\n      dup1\n      calldatasize\n      sub\n      dup2\n      add\n      swap1\n      tag_108\n      swap2\n      swap1\n      tag_109\n      jump\t// in\n    tag_108:\n      tag_110\n      jump\t// in\n    tag_107:\n      stop\n        /* \"contracts/ERC20Interface.sol\":3733:3770  uint public minInvestment = 0.1 ether */\n    tag_18:\n      callvalue\n      dup1\n      iszero\n      tag_111\n      jumpi\n      0x00\n      dup1\n      revert\n    tag_111:\n      pop\n      tag_112\n      tag_113\n      jump\t// in\n    tag_112:\n      mload(0x40)\n      tag_114\n      swap2\n      swap1\n      tag_44\n      jump\t// in\n    tag_114:\n      mload(0x40)\n      dup1\n      swap2\n      sub\n      swap1\n      return\n        /* \"contracts/ERC20Interface.sol\":1185:1214  string public symbol = \"CRPT\" */\n    tag_19:\n      callvalue\n      dup1\n      iszero\n      tag_115\n      jumpi\n      0x00\n      dup1\n      revert\n    tag_115:\n      pop\n      tag_116\n      tag_117\n      jump\t// in\n    tag_116:\n      mload(0x40)\n      tag_118\n      swap2\n      swap1\n      tag_52\n      jump\t// in\n    tag_118:\n      mload(0x40)\n      dup1\n      swap2\n      sub\n      swap1\n      return\n        /* \"contracts/ERC20Interface.sol\":5918:6145  function transfer(address to, uint tokens) public override returns(bool success){... */\n    tag_20:\n      callvalue\n      dup1\n      iszero\n      tag_119\n      jumpi\n      0x00\n      dup1\n      revert\n    tag_119:\n      pop\n      tag_120\n      0x04\n      dup1\n      calldatasize\n      sub\n      dup2\n      add\n      swap1\n      tag_121\n      swap2\n      swap1\n      tag_56\n      jump\t// in\n    tag_121:\n      tag_122\n      jump\t// in\n    tag_120:\n      mload(0x40)\n      tag_123\n      swap2\n      swap1\n      tag_59\n      jump\t// in\n    tag_123:\n      mload(0x40)\n      dup1\n      swap2\n      sub\n      swap1\n      return\n        /* \"contracts/ERC20Interface.sol\":3543:3582  uint public saleStart = block.timestamp */\n    tag_21:\n      callvalue\n      dup1\n      iszero\n      tag_124\n      jumpi\n      0x00\n      dup1\n      revert\n    tag_124:\n      pop\n      tag_125\n      tag_126\n      jump\t// in\n    tag_125:\n      mload(0x40)\n      tag_127\n      swap2\n      swap1\n      tag_44\n      jump\t// in\n    tag_127:\n      mload(0x40)\n      dup1\n      swap2\n      sub\n      swap1\n      return\n        /* \"contracts/ERC20Interface.sol\":3588:3634  uint public saleEnd = block.timestamp + 604800 */\n    tag_22:\n      callvalue\n      dup1\n      iszero\n      tag_128\n      jumpi\n      0x00\n      dup1\n      revert\n    tag_128:\n      pop\n      tag_129\n      tag_130\n      jump\t// in\n    tag_129:\n      mload(0x40)\n      tag_131\n      swap2\n      swap1\n      tag_44\n      jump\t// in\n    tag_131:\n      mload(0x40)\n      dup1\n      swap2\n      sub\n      swap1\n      return\n        /* \"contracts/ERC20Interface.sol\":3513:3537  uint public raisedAmount */\n    tag_23:\n      callvalue\n      dup1\n      iszero\n      tag_132\n      jumpi\n      0x00\n      dup1\n      revert\n    tag_132:\n      pop\n      tag_133\n      tag_134\n      jump\t// in\n    tag_133:\n      mload(0x40)\n      tag_135\n      swap2\n      swap1\n      tag_44\n      jump\t// in\n    tag_135:\n      mload(0x40)\n      dup1\n      swap2\n      sub\n      swap1\n      return\n        /* \"contracts/ERC20Interface.sol\":3640:3686  uint public tokenTradeStart = saleEnd + 604800 */\n    tag_24:\n      callvalue\n      dup1\n      iszero\n      tag_136\n      jumpi\n      0x00\n      dup1\n      revert\n    tag_136:\n      pop\n      tag_137\n      tag_138\n      jump\t// in\n    tag_137:\n      mload(0x40)\n      tag_139\n      swap2\n      swap1\n      tag_44\n      jump\t// in\n    tag_139:\n      mload(0x40)\n      dup1\n      swap2\n      sub\n      swap1\n      return\n        /* \"contracts/ERC20Interface.sol\":3405:3435  address payable public deposit */\n    tag_25:\n      callvalue\n      dup1\n      iszero\n      tag_140\n      jumpi\n      0x00\n      dup1\n      revert\n    tag_140:\n      pop\n      tag_141\n      tag_142\n      jump\t// in\n    tag_141:\n      mload(0x40)\n      tag_143\n      swap2\n      swap1\n      tag_144\n      jump\t// in\n    tag_143:\n      mload(0x40)\n      dup1\n      swap2\n      sub\n      swap1\n      return\n        /* \"contracts/ERC20Interface.sol\":2290:2436  function allowance(address tokenOwner, address spender) view public override returns(uint){... */\n    tag_26:\n      callvalue\n      dup1\n      iszero\n      tag_145\n      jumpi\n      0x00\n      dup1\n      revert\n    tag_145:\n      pop\n      tag_146\n      0x04\n      dup1\n      calldatasize\n      sub\n      dup2\n      add\n      swap1\n      tag_147\n      swap2\n      swap1\n      tag_148\n      jump\t// in\n    tag_147:\n      tag_149\n      jump\t// in\n    tag_146:\n      mload(0x40)\n      tag_150\n      swap2\n      swap1\n      tag_44\n      jump\t// in\n    tag_150:\n      mload(0x40)\n      dup1\n      swap2\n      sub\n      swap1\n      return\n        /* \"contracts/ERC20Interface.sol\":5062:5842  function invest() payable public returns(bool){... */\n    tag_27:\n      tag_151\n      tag_39\n      jump\t// in\n    tag_151:\n      mload(0x40)\n      tag_152\n      swap2\n      swap1\n      tag_59\n      jump\t// in\n    tag_152:\n      mload(0x40)\n      dup1\n      swap2\n      sub\n      swap1\n      return\n        /* \"contracts/ERC20Interface.sol\":3379:3399  address public admin */\n    tag_28:\n      callvalue\n      dup1\n      iszero\n      tag_153\n      jumpi\n      0x00\n      dup1\n      revert\n    tag_153:\n      pop\n      tag_154\n      tag_155\n      jump\t// in\n    tag_154:\n      mload(0x40)\n      tag_156\n      swap2\n      swap1\n      tag_97\n      jump\t// in\n    tag_156:\n      mload(0x40)\n      dup1\n      swap2\n      sub\n      swap1\n      return\n        /* \"contracts/ERC20Interface.sol\":3476:3507  uint public hardCap = 300 ether */\n    tag_29:\n      callvalue\n      dup1\n      iszero\n      tag_157\n      jumpi\n      0x00\n      dup1\n      revert\n    tag_157:\n      pop\n      tag_158\n      tag_159\n      jump\t// in\n    tag_158:\n      mload(0x40)\n      tag_160\n      swap2\n      swap1\n      tag_44\n      jump\t// in\n    tag_160:\n      mload(0x40)\n      dup1\n      swap2\n      sub\n      swap1\n      return\n        /* \"contracts/ERC20Interface.sol\":5062:5842  function invest() payable public returns(bool){... */\n    tag_39:\n        /* \"contracts/ERC20Interface.sol\":5103:5107  bool */\n      0x00\n        /* \"contracts/ERC20Interface.sol\":5123:5159  logDetail(msg.sender, \"test log...\") */\n      0x402c0ae4ac814ba9769b30ff99c8b29efe6aae492a01f936eb0418573ff0923e\n        /* \"contracts/ERC20Interface.sol\":5133:5143  msg.sender */\n      caller\n        /* \"contracts/ERC20Interface.sol\":5123:5159  logDetail(msg.sender, \"test log...\") */\n      mload(0x40)\n      tag_162\n      swap2\n      swap1\n      tag_163\n      jump\t// in\n    tag_162:\n      mload(0x40)\n      dup1\n      swap2\n      sub\n      swap1\n      log1\n        /* \"contracts/ERC20Interface.sol\":5181:5198  getCurrentState() */\n      tag_164\n        /* \"contracts/ERC20Interface.sol\":5181:5196  getCurrentState */\n      tag_82\n        /* \"contracts/ERC20Interface.sol\":5181:5198  getCurrentState() */\n      jump\t// in\n    tag_164:\n        /* \"contracts/ERC20Interface.sol\":5170:5178  icoState */\n      0x11\n      0x00\n        /* \"contracts/ERC20Interface.sol\":5170:5198  icoState = getCurrentState() */\n      0x0100\n      exp\n      dup2\n      sload\n      dup2\n      0xff\n      mul\n      not\n      and\n      swap1\n      dup4\n      0x03\n      dup2\n      gt\n      iszero\n      tag_165\n      jumpi\n      tag_166\n      tag_167\n      jump\t// in\n    tag_166:\n    tag_165:\n      mul\n      or\n      swap1\n      sstore\n      pop\n        /* \"contracts/ERC20Interface.sol\":5228:5241  State.running */\n      0x01\n        /* \"contracts/ERC20Interface.sol\":5216:5241  icoState == State.running */\n      0x03\n      dup2\n      gt\n      iszero\n      tag_168\n      jumpi\n      tag_169\n      tag_167\n      jump\t// in\n    tag_169:\n    tag_168:\n        /* \"contracts/ERC20Interface.sol\":5216:5224  icoState */\n      0x11\n      0x00\n      swap1\n      sload\n      swap1\n      0x0100\n      exp\n      swap1\n      div\n      0xff\n      and\n        /* \"contracts/ERC20Interface.sol\":5216:5241  icoState == State.running */\n      0x03\n      dup2\n      gt\n      iszero\n      tag_170\n      jumpi\n      tag_171\n      tag_167\n      jump\t// in\n    tag_171:\n    tag_170:\n      eq\n        /* \"contracts/ERC20Interface.sol\":5208:5258  require(icoState == State.running ,\"must running\") */\n      tag_172\n      jumpi\n      mload(0x40)\n      0x08c379a000000000000000000000000000000000000000000000000000000000\n      dup2\n      mstore\n      0x04\n      add\n      tag_173\n      swap1\n      tag_174\n      jump\t// in\n    tag_173:\n      mload(0x40)\n      dup1\n      swap2\n      sub\n      swap1\n      revert\n    tag_172:\n        /* \"contracts/ERC20Interface.sol\":5290:5303  minInvestment */\n      sload(0x10)\n        /* \"contracts/ERC20Interface.sol\":5277:5286  msg.value */\n      callvalue\n        /* \"contracts/ERC20Interface.sol\":5277:5303  msg.value >= minInvestment */\n      lt\n      iszero\n        /* \"contracts/ERC20Interface.sol\":5277:5333  msg.value >= minInvestment && msg.value <= maxInvestment */\n      dup1\n      iszero\n      tag_175\n      jumpi\n      pop\n        /* \"contracts/ERC20Interface.sol\":5320:5333  maxInvestment */\n      sload(0x0f)\n        /* \"contracts/ERC20Interface.sol\":5307:5316  msg.value */\n      callvalue\n        /* \"contracts/ERC20Interface.sol\":5307:5333  msg.value <= maxInvestment */\n      gt\n      iszero\n        /* \"contracts/ERC20Interface.sol\":5277:5333  msg.value >= minInvestment && msg.value <= maxInvestment */\n    tag_175:\n        /* \"contracts/ERC20Interface.sol\":5269:5361  require(msg.value >= minInvestment && msg.value <= maxInvestment , \"invest value is not ok\") */\n      tag_176\n      jumpi\n      mload(0x40)\n      0x08c379a000000000000000000000000000000000000000000000000000000000\n      dup2\n      mstore\n      0x04\n      add\n      tag_177\n      swap1\n      tag_178\n      jump\t// in\n    tag_177:\n      mload(0x40)\n      dup1\n      swap2\n      sub\n      swap1\n      revert\n    tag_176:\n        /* \"contracts/ERC20Interface.sol\":5387:5396  msg.value */\n      callvalue\n        /* \"contracts/ERC20Interface.sol\":5371:5383  raisedAmount */\n      0x0b\n      0x00\n        /* \"contracts/ERC20Interface.sol\":5371:5396  raisedAmount += msg.value */\n      dup3\n      dup3\n      sload\n      tag_179\n      swap2\n      swap1\n      tag_180\n      jump\t// in\n    tag_179:\n      swap3\n      pop\n      pop\n      dup2\n      swap1\n      sstore\n      pop\n        /* \"contracts/ERC20Interface.sol\":5430:5437  hardCap */\n      sload(0x0a)\n        /* \"contracts/ERC20Interface.sol\":5414:5426  raisedAmount */\n      sload(0x0b)\n        /* \"contracts/ERC20Interface.sol\":5414:5437  raisedAmount <= hardCap */\n      gt\n      iszero\n        /* \"contracts/ERC20Interface.sol\":5406:5464  require(raisedAmount <= hardCap, \"raisedAmount is not ok\") */\n      tag_181\n      jumpi\n      mload(0x40)\n      0x08c379a000000000000000000000000000000000000000000000000000000000\n      dup2\n      mstore\n      0x04\n      add\n      tag_182\n      swap1\n      tag_183\n      jump\t// in\n    tag_182:\n      mload(0x40)\n      dup1\n      swap2\n      sub\n      swap1\n      revert\n    tag_181:\n        /* \"contracts/ERC20Interface.sol\":5475:5486  uint tokens */\n      0x00\n        /* \"contracts/ERC20Interface.sol\":5501:5511  tokenPrice */\n      sload(0x09)\n        /* \"contracts/ERC20Interface.sol\":5489:5498  msg.value */\n      callvalue\n        /* \"contracts/ERC20Interface.sol\":5489:5511  msg.value / tokenPrice */\n      tag_184\n      swap2\n      swap1\n      tag_185\n      jump\t// in\n    tag_184:\n        /* \"contracts/ERC20Interface.sol\":5475:5511  uint tokens = msg.value / tokenPrice */\n      swap1\n      pop\n        /* \"contracts/ERC20Interface.sol\":5522:5539  string memory str */\n      0x00\n        /* \"contracts/ERC20Interface.sol\":5579:5603  Strings.toString(tokens) */\n      tag_186\n        /* \"contracts/ERC20Interface.sol\":5596:5602  tokens */\n      dup3\n        /* \"contracts/ERC20Interface.sol\":5579:5595  Strings.toString */\n      tag_187\n        /* \"contracts/ERC20Interface.sol\":5579:5603  Strings.toString(tokens) */\n      jump\t// in\n    tag_186:\n        /* \"contracts/ERC20Interface.sol\":5549:5604  abi.encodePacked(\"tokens...\", Strings.toString(tokens)) */\n      add(0x20, mload(0x40))\n      tag_188\n      swap2\n      swap1\n      tag_189\n      jump\t// in\n    tag_188:\n      mload(0x40)\n      0x20\n      dup2\n      dup4\n      sub\n      sub\n      dup2\n      mstore\n      swap1\n      0x40\n      mstore\n        /* \"contracts/ERC20Interface.sol\":5522:5605  string memory str = string(abi.encodePacked(\"tokens...\", Strings.toString(tokens))) */\n      swap1\n      pop\n        /* \"contracts/ERC20Interface.sol\":5620:5646  logDetail(msg.sender, str) */\n      0x402c0ae4ac814ba9769b30ff99c8b29efe6aae492a01f936eb0418573ff0923e\n        /* \"contracts/ERC20Interface.sol\":5630:5640  msg.sender */\n      caller\n        /* \"contracts/ERC20Interface.sol\":5642:5645  str */\n      dup3\n        /* \"contracts/ERC20Interface.sol\":5620:5646  logDetail(msg.sender, str) */\n      mload(0x40)\n      tag_190\n      swap3\n      swap2\n      swap1\n      tag_191\n      jump\t// in\n    tag_190:\n      mload(0x40)\n      dup1\n      swap2\n      sub\n      swap1\n      log1\n        /* \"contracts/ERC20Interface.sol\":5681:5687  tokens */\n      dup2\n        /* \"contracts/ERC20Interface.sol\":5657:5665  balances */\n      0x05\n        /* \"contracts/ERC20Interface.sol\":5657:5677  balances[msg.sender] */\n      0x00\n        /* \"contracts/ERC20Interface.sol\":5666:5676  msg.sender */\n      caller\n        /* \"contracts/ERC20Interface.sol\":5657:5677  balances[msg.sender] */\n      0xffffffffffffffffffffffffffffffffffffffff\n      and\n      0xffffffffffffffffffffffffffffffffffffffff\n      and\n      dup2\n      mstore\n      0x20\n      add\n      swap1\n      dup2\n      mstore\n      0x20\n      add\n      0x00\n      keccak256\n      0x00\n        /* \"contracts/ERC20Interface.sol\":5657:5687  balances[msg.sender] += tokens */\n      dup3\n      dup3\n      sload\n      tag_192\n      swap2\n      swap1\n      tag_180\n      jump\t// in\n    tag_192:\n      swap3\n      pop\n      pop\n      dup2\n      swap1\n      sstore\n      pop\n        /* \"contracts/ERC20Interface.sol\":5718:5724  tokens */\n      dup2\n        /* \"contracts/ERC20Interface.sol\":5697:5705  balances */\n      0x05\n        /* \"contracts/ERC20Interface.sol\":5697:5714  balances[founder] */\n      0x00\n        /* \"contracts/ERC20Interface.sol\":5706:5713  founder */\n      0x04\n      0x00\n      swap1\n      sload\n      swap1\n      0x0100\n      exp\n      swap1\n      div\n      0xffffffffffffffffffffffffffffffffffffffff\n      and\n        /* \"contracts/ERC20Interface.sol\":5697:5714  balances[founder] */\n      0xffffffffffffffffffffffffffffffffffffffff\n      and\n      0xffffffffffffffffffffffffffffffffffffffff\n      and\n      dup2\n      mstore\n      0x20\n      add\n      swap1\n      dup2\n      mstore\n      0x20\n      add\n      0x00\n      keccak256\n      0x00\n        /* \"contracts/ERC20Interface.sol\":5697:5724  balances[founder] -= tokens */\n      dup3\n      dup3\n      sload\n      tag_193\n      swap2\n      swap1\n      tag_194\n      jump\t// in\n    tag_193:\n      swap3\n      pop\n      pop\n      dup2\n      swap1\n      sstore\n      pop\n        /* \"contracts/ERC20Interface.sol\":5734:5741  deposit */\n      0x08\n      0x00\n      swap1\n      sload\n      swap1\n      0x0100\n      exp\n      swap1\n      div\n      0xffffffffffffffffffffffffffffffffffffffff\n      and\n        /* \"contracts/ERC20Interface.sol\":5734:5750  deposit.transfer */\n      0xffffffffffffffffffffffffffffffffffffffff\n      and\n        /* \"contracts/ERC20Interface.sol\":5734:5761  deposit.transfer(msg.value) */\n      0x08fc\n        /* \"contracts/ERC20Interface.sol\":5751:5760  msg.value */\n      callvalue\n        /* \"contracts/ERC20Interface.sol\":5734:5761  deposit.transfer(msg.value) */\n      swap1\n      dup2\n      iszero\n      mul\n      swap1\n      mload(0x40)\n      0x00\n      mload(0x40)\n      dup1\n      dup4\n      sub\n      dup2\n      dup6\n      dup9\n      dup9\n      call\n      swap4\n      pop\n      pop\n      pop\n      pop\n      iszero\n      dup1\n      iszero\n      tag_196\n      jumpi\n      returndatasize\n      0x00\n      dup1\n      returndatacopy\n      revert(0x00, returndatasize)\n    tag_196:\n      pop\n        /* \"contracts/ERC20Interface.sol\":5776:5813  Invest(msg.sender, msg.value, tokens) */\n      0x4ae4bd7655e0d350876a23cd90c4227b13db560e34435c6a488150a9c844bf5f\n        /* \"contracts/ERC20Interface.sol\":5783:5793  msg.sender */\n      caller\n        /* \"contracts/ERC20Interface.sol\":5795:5804  msg.value */\n      callvalue\n        /* \"contracts/ERC20Interface.sol\":5806:5812  tokens */\n      dup5\n        /* \"contracts/ERC20Interface.sol\":5776:5813  Invest(msg.sender, msg.value, tokens) */\n      mload(0x40)\n      tag_197\n      swap4\n      swap3\n      swap2\n      swap1\n      tag_198\n      jump\t// in\n    tag_197:\n      mload(0x40)\n      dup1\n      swap2\n      sub\n      swap1\n      log1\n        /* \"contracts/ERC20Interface.sol\":5831:5835  true */\n      0x01\n        /* \"contracts/ERC20Interface.sol\":5824:5835  return true */\n      swap3\n      pop\n      pop\n      pop\n        /* \"contracts/ERC20Interface.sol\":5062:5842  function invest() payable public returns(bool){... */\n      swap1\n      jump\t// out\n        /* \"contracts/ERC20Interface.sol\":3692:3727  uint public maxInvestment = 5 ether */\n    tag_42:\n      sload(0x0f)\n      dup2\n      jump\t// out\n        /* \"contracts/ERC20Interface.sol\":4168:4243  function resume() public onlyAdmin{... */\n    tag_47:\n        /* \"contracts/ERC20Interface.sol\":4060:4065  admin */\n      0x07\n      0x00\n      swap1\n      sload\n      swap1\n      0x0100\n      exp\n      swap1\n      div\n      0xffffffffffffffffffffffffffffffffffffffff\n      and\n        /* \"contracts/ERC20Interface.sol\":4046:4065  msg.sender == admin */\n      0xffffffffffffffffffffffffffffffffffffffff\n      and\n        /* \"contracts/ERC20Interface.sol\":4046:4056  msg.sender */\n      caller\n        /* \"contracts/ERC20Interface.sol\":4046:4065  msg.sender == admin */\n      0xffffffffffffffffffffffffffffffffffffffff\n      and\n      eq\n        /* \"contracts/ERC20Interface.sol\":4038:4066  require(msg.sender == admin) */\n      tag_200\n      jumpi\n      0x00\n      dup1\n      revert\n    tag_200:\n        /* \"contracts/ERC20Interface.sol\":4223:4236  State.running */\n      0x01\n        /* \"contracts/ERC20Interface.sol\":4212:4220  icoState */\n      0x11\n      0x00\n        /* \"contracts/ERC20Interface.sol\":4212:4236  icoState = State.running */\n      0x0100\n      exp\n      dup2\n      sload\n      dup2\n      0xff\n      mul\n      not\n      and\n      swap1\n      dup4\n      0x03\n      dup2\n      gt\n      iszero\n      tag_202\n      jumpi\n      tag_203\n      tag_167\n      jump\t// in\n    tag_203:\n    tag_202:\n      mul\n      or\n      swap1\n      sstore\n      pop\n        /* \"contracts/ERC20Interface.sol\":4168:4243  function resume() public onlyAdmin{... */\n      jump\t// out\n        /* \"contracts/ERC20Interface.sol\":1152:1179  string public name = \"khan\" */\n    tag_50:\n      0x00\n      dup1\n      sload\n      tag_204\n      swap1\n      tag_205\n      jump\t// in\n    tag_204:\n      dup1\n      0x1f\n      add\n      0x20\n      dup1\n      swap2\n      div\n      mul\n      0x20\n      add\n      mload(0x40)\n      swap1\n      dup2\n      add\n      0x40\n      mstore\n      dup1\n      swap3\n      swap2\n      swap1\n      dup2\n      dup2\n      mstore\n      0x20\n      add\n      dup3\n      dup1\n      sload\n      tag_206\n      swap1\n      tag_205\n      jump\t// in\n    tag_206:\n      dup1\n      iszero\n      tag_207\n      jumpi\n      dup1\n      0x1f\n      lt\n      tag_208\n      jumpi\n      0x0100\n      dup1\n      dup4\n      sload\n      div\n      mul\n      dup4\n      mstore\n      swap2\n      0x20\n      add\n      swap2\n      jump(tag_207)\n    tag_208:\n      dup3\n      add\n      swap2\n      swap1\n      0x00\n      mstore\n      keccak256(0x00, 0x20)\n      swap1\n    tag_209:\n      dup2\n      sload\n      dup2\n      mstore\n      swap1\n      0x01\n      add\n      swap1\n      0x20\n      add\n      dup1\n      dup4\n      gt\n      tag_209\n      jumpi\n      dup3\n      swap1\n      sub\n      0x1f\n      and\n      dup3\n      add\n      swap2\n    tag_207:\n      pop\n      pop\n      pop\n      pop\n      pop\n      dup2\n      jump\t// out\n        /* \"contracts/ERC20Interface.sol\":2507:2799  function approve(address spender, uint tokens) public override returns (bool success){... */\n    tag_57:\n        /* \"contracts/ERC20Interface.sol\":2579:2591  bool success */\n      0x00\n        /* \"contracts/ERC20Interface.sol\":2634:2640  tokens */\n      dup2\n        /* \"contracts/ERC20Interface.sol\":2610:2618  balances */\n      0x05\n        /* \"contracts/ERC20Interface.sol\":2610:2630  balances[msg.sender] */\n      0x00\n        /* \"contracts/ERC20Interface.sol\":2619:2629  msg.sender */\n      caller\n        /* \"contracts/ERC20Interface.sol\":2610:2630  balances[msg.sender] */\n      0xffffffffffffffffffffffffffffffffffffffff\n      and\n      0xffffffffffffffffffffffffffffffffffffffff\n      and\n      dup2\n      mstore\n      0x20\n      add\n      swap1\n      dup2\n      mstore\n      0x20\n      add\n      0x00\n      keccak256\n      sload\n        /* \"contracts/ERC20Interface.sol\":2610:2640  balances[msg.sender] >= tokens */\n      lt\n      iszero\n        /* \"contracts/ERC20Interface.sol\":2602:2641  require(balances[msg.sender] >= tokens) */\n      tag_211\n      jumpi\n      0x00\n      dup1\n      revert\n    tag_211:\n        /* \"contracts/ERC20Interface.sol\":2668:2669  0 */\n      0x00\n        /* \"contracts/ERC20Interface.sol\":2659:2665  tokens */\n      dup3\n        /* \"contracts/ERC20Interface.sol\":2659:2669  tokens > 0 */\n      gt\n        /* \"contracts/ERC20Interface.sol\":2651:2670  require(tokens > 0) */\n      tag_212\n      jumpi\n      0x00\n      dup1\n      revert\n    tag_212:\n        /* \"contracts/ERC20Interface.sol\":2712:2718  tokens */\n      dup2\n        /* \"contracts/ERC20Interface.sol\":2681:2688  allowed */\n      0x06\n        /* \"contracts/ERC20Interface.sol\":2681:2700  allowed[msg.sender] */\n      0x00\n        /* \"contracts/ERC20Interface.sol\":2689:2699  msg.sender */\n      caller\n        /* \"contracts/ERC20Interface.sol\":2681:2700  allowed[msg.sender] */\n      0xffffffffffffffffffffffffffffffffffffffff\n      and\n      0xffffffffffffffffffffffffffffffffffffffff\n      and\n      dup2\n      mstore\n      0x20\n      add\n      swap1\n      dup2\n      mstore\n      0x20\n      add\n      0x00\n      keccak256\n        /* \"contracts/ERC20Interface.sol\":2681:2709  allowed[msg.sender][spender] */\n      0x00\n        /* \"contracts/ERC20Interface.sol\":2701:2708  spender */\n      dup6\n        /* \"contracts/ERC20Interface.sol\":2681:2709  allowed[msg.sender][spender] */\n      0xffffffffffffffffffffffffffffffffffffffff\n      and\n      0xffffffffffffffffffffffffffffffffffffffff\n      and\n      dup2\n      mstore\n      0x20\n      add\n      swap1\n      dup2\n      mstore\n      0x20\n      add\n      0x00\n      keccak256\n        /* \"contracts/ERC20Interface.sol\":2681:2718  allowed[msg.sender][spender] = tokens */\n      dup2\n      swap1\n      sstore\n      pop\n        /* \"contracts/ERC20Interface.sol\":2755:2762  spender */\n      dup3\n        /* \"contracts/ERC20Interface.sol\":2734:2771  Approval(msg.sender, spender, tokens) */\n      0xffffffffffffffffffffffffffffffffffffffff\n      and\n        /* \"contracts/ERC20Interface.sol\":2743:2753  msg.sender */\n      caller\n        /* \"contracts/ERC20Interface.sol\":2734:2771  Approval(msg.sender, spender, tokens) */\n      0xffffffffffffffffffffffffffffffffffffffff\n      and\n      0x8c5be1e5ebec7d5bd14f71427d1e84f3dd0314c0f7b2291e5b200ac8c7c3b925\n        /* \"contracts/ERC20Interface.sol\":2764:2770  tokens */\n      dup5\n        /* \"contracts/ERC20Interface.sol\":2734:2771  Approval(msg.sender, spender, tokens) */\n      mload(0x40)\n      tag_213\n      swap2\n      swap1\n      tag_44\n      jump\t// in\n    tag_213:\n      mload(0x40)\n      dup1\n      swap2\n      sub\n      swap1\n      log3\n        /* \"contracts/ERC20Interface.sol\":2788:2792  true */\n      0x01\n        /* \"contracts/ERC20Interface.sol\":2781:2792  return true */\n      swap1\n      pop\n        /* \"contracts/ERC20Interface.sol\":2507:2799  function approve(address spender, uint tokens) public override returns (bool success){... */\n      swap3\n      swap2\n      pop\n      pop\n      jump\t// out\n        /* \"contracts/ERC20Interface.sol\":1250:1282  uint public override totalSupply */\n    tag_62:\n      sload(0x03)\n      dup2\n      jump\t// out\n        /* \"contracts/ERC20Interface.sol\":6151:6376  function transferFrom(address from, address to, uint tokens) public override returns(bool success){... */\n    tag_68:\n        /* \"contracts/ERC20Interface.sol\":6236:6248  bool success */\n      0x00\n        /* \"contracts/ERC20Interface.sol\":6285:6300  tokenTradeStart */\n      sload(0x0e)\n        /* \"contracts/ERC20Interface.sol\":6267:6282  block.timestamp */\n      timestamp\n        /* \"contracts/ERC20Interface.sol\":6267:6300  block.timestamp > tokenTradeStart */\n      gt\n        /* \"contracts/ERC20Interface.sol\":6259:6301  require(block.timestamp > tokenTradeStart) */\n      tag_215\n      jumpi\n      0x00\n      dup1\n      revert\n    tag_215:\n        /* \"contracts/ERC20Interface.sol\":6311:6348  Crytos.transferFrom(from, to, tokens) */\n      tag_216\n        /* \"contracts/ERC20Interface.sol\":6331:6335  from */\n      dup5\n        /* \"contracts/ERC20Interface.sol\":6337:6339  to */\n      dup5\n        /* \"contracts/ERC20Interface.sol\":6341:6347  tokens */\n      dup5\n        /* \"contracts/ERC20Interface.sol\":6311:6330  Crytos.transferFrom */\n      tag_217\n        /* \"contracts/ERC20Interface.sol\":6311:6348  Crytos.transferFrom(from, to, tokens) */\n      jump\t// in\n    tag_216:\n      pop\n        /* \"contracts/ERC20Interface.sol\":6365:6369  true */\n      0x01\n        /* \"contracts/ERC20Interface.sol\":6358:6369  return true */\n      swap1\n      pop\n        /* \"contracts/ERC20Interface.sol\":6151:6376  function transferFrom(address from, address to, uint tokens) public override returns(bool success){... */\n      swap4\n      swap3\n      pop\n      pop\n      pop\n      jump\t// out\n        /* \"contracts/ERC20Interface.sol\":1317:1357  mapping(address => uint) public balances */\n    tag_74:\n      mstore(0x20, 0x05)\n      dup1\n      0x00\n      mstore\n      keccak256(0x00, 0x40)\n      0x00\n      swap2\n      pop\n      swap1\n      pop\n      sload\n      dup2\n      jump\t// out\n        /* \"contracts/ERC20Interface.sol\":1220:1244  uint public decimals = 0 */\n    tag_78:\n      sload(0x02)\n      dup2\n      jump\t// out\n        /* \"contracts/ERC20Interface.sol\":4365:4753  function getCurrentState() public view returns(State){... */\n    tag_82:\n        /* \"contracts/ERC20Interface.sol\":4412:4417  State */\n      0x00\n        /* \"contracts/ERC20Interface.sol\":4443:4455  State.halted */\n      0x03\n        /* \"contracts/ERC20Interface.sol\":4431:4455  icoState == State.halted */\n      dup1\n      dup2\n      gt\n      iszero\n      tag_219\n      jumpi\n      tag_220\n      tag_167\n      jump\t// in\n    tag_220:\n    tag_219:\n        /* \"contracts/ERC20Interface.sol\":4431:4439  icoState */\n      0x11\n      0x00\n      swap1\n      sload\n      swap1\n      0x0100\n      exp\n      swap1\n      div\n      0xff\n      and\n        /* \"contracts/ERC20Interface.sol\":4431:4455  icoState == State.halted */\n      0x03\n      dup2\n      gt\n      iszero\n      tag_221\n      jumpi\n      tag_222\n      tag_167\n      jump\t// in\n    tag_222:\n    tag_221:\n      sub\n        /* \"contracts/ERC20Interface.sol\":4428:4747  if(icoState == State.halted){... */\n      tag_223\n      jumpi\n        /* \"contracts/ERC20Interface.sol\":4477:4489  State.halted */\n      0x03\n        /* \"contracts/ERC20Interface.sol\":4470:4489  return State.halted */\n      swap1\n      pop\n      jump(tag_218)\n        /* \"contracts/ERC20Interface.sol\":4428:4747  if(icoState == State.halted){... */\n    tag_223:\n        /* \"contracts/ERC20Interface.sol\":4526:4535  saleStart */\n      sload(0x0c)\n        /* \"contracts/ERC20Interface.sol\":4508:4523  block.timestamp */\n      timestamp\n        /* \"contracts/ERC20Interface.sol\":4508:4535  block.timestamp < saleStart */\n      lt\n        /* \"contracts/ERC20Interface.sol\":4505:4747  if(block.timestamp < saleStart){... */\n      iszero\n      tag_225\n      jumpi\n        /* \"contracts/ERC20Interface.sol\":4557:4574  State.beforeStart */\n      0x00\n        /* \"contracts/ERC20Interface.sol\":4550:4574  return State.beforeStart */\n      swap1\n      pop\n      jump(tag_218)\n        /* \"contracts/ERC20Interface.sol\":4505:4747  if(block.timestamp < saleStart){... */\n    tag_225:\n        /* \"contracts/ERC20Interface.sol\":4612:4621  saleStart */\n      sload(0x0c)\n        /* \"contracts/ERC20Interface.sol\":4593:4608  block.timestamp */\n      timestamp\n        /* \"contracts/ERC20Interface.sol\":4593:4621  block.timestamp >= saleStart */\n      lt\n      iszero\n        /* \"contracts/ERC20Interface.sol\":4593:4651  block.timestamp >= saleStart && block.timestamp <= saleEnd */\n      dup1\n      iszero\n      tag_227\n      jumpi\n      pop\n        /* \"contracts/ERC20Interface.sol\":4644:4651  saleEnd */\n      sload(0x0d)\n        /* \"contracts/ERC20Interface.sol\":4625:4640  block.timestamp */\n      timestamp\n        /* \"contracts/ERC20Interface.sol\":4625:4651  block.timestamp <= saleEnd */\n      gt\n      iszero\n        /* \"contracts/ERC20Interface.sol\":4593:4651  block.timestamp >= saleStart && block.timestamp <= saleEnd */\n    tag_227:\n        /* \"contracts/ERC20Interface.sol\":4590:4747  if(block.timestamp >= saleStart && block.timestamp <= saleEnd){... */\n      iszero\n      tag_228\n      jumpi\n        /* \"contracts/ERC20Interface.sol\":4673:4686  State.running */\n      0x01\n        /* \"contracts/ERC20Interface.sol\":4666:4686  return State.running */\n      swap1\n      pop\n      jump(tag_218)\n        /* \"contracts/ERC20Interface.sol\":4590:4747  if(block.timestamp >= saleStart && block.timestamp <= saleEnd){... */\n    tag_228:\n        /* \"contracts/ERC20Interface.sol\":4722:4736  State.afterEnd */\n      0x02\n        /* \"contracts/ERC20Interface.sol\":4715:4736  return State.afterEnd */\n      swap1\n      pop\n        /* \"contracts/ERC20Interface.sol\":4365:4753  function getCurrentState() public view returns(State){... */\n    tag_218:\n      swap1\n      jump\t// out\n        /* \"contracts/ERC20Interface.sol\":6382:6512  function burn() public returns(bool){... */\n    tag_87:\n        /* \"contracts/ERC20Interface.sol\":6413:6417  bool */\n      0x00\n        /* \"contracts/ERC20Interface.sol\":6439:6453  State.afterEnd */\n      0x02\n        /* \"contracts/ERC20Interface.sol\":6428:6436  icoState */\n      0x11\n      0x00\n        /* \"contracts/ERC20Interface.sol\":6428:6453  icoState = State.afterEnd */\n      0x0100\n      exp\n      dup2\n      sload\n      dup2\n      0xff\n      mul\n      not\n      and\n      swap1\n      dup4\n      0x03\n      dup2\n      gt\n      iszero\n      tag_231\n      jumpi\n      tag_232\n      tag_167\n      jump\t// in\n    tag_232:\n    tag_231:\n      mul\n      or\n      swap1\n      sstore\n      pop\n        /* \"contracts/ERC20Interface.sol\":6483:6484  0 */\n      0x00\n        /* \"contracts/ERC20Interface.sol\":6463:6471  balances */\n      0x05\n        /* \"contracts/ERC20Interface.sol\":6463:6480  balances[founder] */\n      0x00\n        /* \"contracts/ERC20Interface.sol\":6472:6479  founder */\n      0x04\n      0x00\n      swap1\n      sload\n      swap1\n      0x0100\n      exp\n      swap1\n      div\n      0xffffffffffffffffffffffffffffffffffffffff\n      and\n        /* \"contracts/ERC20Interface.sol\":6463:6480  balances[founder] */\n      0xffffffffffffffffffffffffffffffffffffffff\n      and\n      0xffffffffffffffffffffffffffffffffffffffff\n      and\n      dup2\n      mstore\n      0x20\n      add\n      swap1\n      dup2\n      mstore\n      0x20\n      add\n      0x00\n      keccak256\n        /* \"contracts/ERC20Interface.sol\":6463:6484  balances[founder] = 0 */\n      dup2\n      swap1\n      sstore\n      pop\n        /* \"contracts/ERC20Interface.sol\":6501:6505  true */\n      0x01\n        /* \"contracts/ERC20Interface.sol\":6494:6505  return true */\n      swap1\n      pop\n        /* \"contracts/ERC20Interface.sol\":6382:6512  function burn() public returns(bool){... */\n      swap1\n      jump\t// out\n        /* \"contracts/ERC20Interface.sol\":3832:3853  State public icoState */\n    tag_91:\n      0x11\n      0x00\n      swap1\n      sload\n      swap1\n      0x0100\n      exp\n      swap1\n      div\n      0xff\n      and\n      dup2\n      jump\t// out\n        /* \"contracts/ERC20Interface.sol\":1289:1311  address public founder */\n    tag_95:\n      0x04\n      0x00\n      swap1\n      sload\n      swap1\n      0x0100\n      exp\n      swap1\n      div\n      0xffffffffffffffffffffffffffffffffffffffff\n      and\n      dup2\n      jump\t// out\n        /* \"contracts/ERC20Interface.sol\":4090:4162  function halt() public onlyAdmin{... */\n    tag_100:\n        /* \"contracts/ERC20Interface.sol\":4060:4065  admin */\n      0x07\n      0x00\n      swap1\n      sload\n      swap1\n      0x0100\n      exp\n      swap1\n      div\n      0xffffffffffffffffffffffffffffffffffffffff\n      and\n        /* \"contracts/ERC20Interface.sol\":4046:4065  msg.sender == admin */\n      0xffffffffffffffffffffffffffffffffffffffff\n      and\n        /* \"contracts/ERC20Interface.sol\":4046:4056  msg.sender */\n      caller\n        /* \"contracts/ERC20Interface.sol\":4046:4065  msg.sender == admin */\n      0xffffffffffffffffffffffffffffffffffffffff\n      and\n      eq\n        /* \"contracts/ERC20Interface.sol\":4038:4066  require(msg.sender == admin) */\n      tag_234\n      jumpi\n      0x00\n      dup1\n      revert\n    tag_234:\n        /* \"contracts/ERC20Interface.sol\":4143:4155  State.halted */\n      0x03\n        /* \"contracts/ERC20Interface.sol\":4132:4140  icoState */\n      0x11\n      0x00\n        /* \"contracts/ERC20Interface.sol\":4132:4155  icoState = State.halted */\n      0x0100\n      exp\n      dup2\n      sload\n      dup2\n      0xff\n      mul\n      not\n      and\n      swap1\n      dup4\n      0x03\n      dup2\n      gt\n      iszero\n      tag_236\n      jumpi\n      tag_237\n      tag_167\n      jump\t// in\n    tag_237:\n    tag_236:\n      mul\n      or\n      swap1\n      sstore\n      pop\n        /* \"contracts/ERC20Interface.sol\":4090:4162  function halt() public onlyAdmin{... */\n      jump\t// out\n        /* \"contracts/ERC20Interface.sol\":1698:1823  function balanceOf(address tokenOwner) public view override returns(uint balance){... */\n    tag_104:\n        /* \"contracts/ERC20Interface.sol\":1766:1778  uint balance */\n      0x00\n        /* \"contracts/ERC20Interface.sol\":1796:1804  balances */\n      0x05\n        /* \"contracts/ERC20Interface.sol\":1796:1816  balances[tokenOwner] */\n      0x00\n        /* \"contracts/ERC20Interface.sol\":1805:1815  tokenOwner */\n      dup4\n        /* \"contracts/ERC20Interface.sol\":1796:1816  balances[tokenOwner] */\n      0xffffffffffffffffffffffffffffffffffffffff\n      and\n      0xffffffffffffffffffffffffffffffffffffffff\n      and\n      dup2\n      mstore\n      0x20\n      add\n      swap1\n      dup2\n      mstore\n      0x20\n      add\n      0x00\n      keccak256\n      sload\n        /* \"contracts/ERC20Interface.sol\":1789:1816  return balances[tokenOwner] */\n      swap1\n      pop\n        /* \"contracts/ERC20Interface.sol\":1698:1823  function balanceOf(address tokenOwner) public view override returns(uint balance){... */\n      swap2\n      swap1\n      pop\n      jump\t// out\n        /* \"contracts/ERC20Interface.sol\":4249:4359  function changeDeposiAddress(address payable newDeposit) public onlyAdmin{... */\n    tag_110:\n        /* \"contracts/ERC20Interface.sol\":4060:4065  admin */\n      0x07\n      0x00\n      swap1\n      sload\n      swap1\n      0x0100\n      exp\n      swap1\n      div\n      0xffffffffffffffffffffffffffffffffffffffff\n      and\n        /* \"contracts/ERC20Interface.sol\":4046:4065  msg.sender == admin */\n      0xffffffffffffffffffffffffffffffffffffffff\n      and\n        /* \"contracts/ERC20Interface.sol\":4046:4056  msg.sender */\n      caller\n        /* \"contracts/ERC20Interface.sol\":4046:4065  msg.sender == admin */\n      0xffffffffffffffffffffffffffffffffffffffff\n      and\n      eq\n        /* \"contracts/ERC20Interface.sol\":4038:4066  require(msg.sender == admin) */\n      tag_240\n      jumpi\n      0x00\n      dup1\n      revert\n    tag_240:\n        /* \"contracts/ERC20Interface.sol\":4342:4352  newDeposit */\n      dup1\n        /* \"contracts/ERC20Interface.sol\":4332:4339  deposit */\n      0x08\n      0x00\n        /* \"contracts/ERC20Interface.sol\":4332:4352  deposit = newDeposit */\n      0x0100\n      exp\n      dup2\n      sload\n      dup2\n      0xffffffffffffffffffffffffffffffffffffffff\n      mul\n      not\n      and\n      swap1\n      dup4\n      0xffffffffffffffffffffffffffffffffffffffff\n      and\n      mul\n      or\n      swap1\n      sstore\n      pop\n        /* \"contracts/ERC20Interface.sol\":4249:4359  function changeDeposiAddress(address payable newDeposit) public onlyAdmin{... */\n      pop\n      jump\t// out\n        /* \"contracts/ERC20Interface.sol\":3733:3770  uint public minInvestment = 0.1 ether */\n    tag_113:\n      sload(0x10)\n      dup2\n      jump\t// out\n        /* \"contracts/ERC20Interface.sol\":1185:1214  string public symbol = \"CRPT\" */\n    tag_117:\n      0x01\n      dup1\n      sload\n      tag_242\n      swap1\n      tag_205\n      jump\t// in\n    tag_242:\n      dup1\n      0x1f\n      add\n      0x20\n      dup1\n      swap2\n      div\n      mul\n      0x20\n      add\n      mload(0x40)\n      swap1\n      dup2\n      add\n      0x40\n      mstore\n      dup1\n      swap3\n      swap2\n      swap1\n      dup2\n      dup2\n      mstore\n      0x20\n      add\n      dup3\n      dup1\n      sload\n      tag_243\n      swap1\n      tag_205\n      jump\t// in\n    tag_243:\n      dup1\n      iszero\n      tag_244\n      jumpi\n      dup1\n      0x1f\n      lt\n      tag_245\n      jumpi\n      0x0100\n      dup1\n      dup4\n      sload\n      div\n      mul\n      dup4\n      mstore\n      swap2\n      0x20\n      add\n      swap2\n      jump(tag_244)\n    tag_245:\n      dup3\n      add\n      swap2\n      swap1\n      0x00\n      mstore\n      keccak256(0x00, 0x20)\n      swap1\n    tag_246:\n      dup2\n      sload\n      dup2\n      mstore\n      swap1\n      0x01\n      add\n      swap1\n      0x20\n      add\n      dup1\n      dup4\n      gt\n      tag_246\n      jumpi\n      dup3\n      swap1\n      sub\n      0x1f\n      and\n      dup3\n      add\n      swap2\n    tag_244:\n      pop\n      pop\n      pop\n      pop\n      pop\n      dup2\n      jump\t// out\n        /* \"contracts/ERC20Interface.sol\":5918:6145  function transfer(address to, uint tokens) public override returns(bool success){... */\n    tag_122:\n        /* \"contracts/ERC20Interface.sol\":5985:5997  bool success */\n      0x00\n        /* \"contracts/ERC20Interface.sol\":6034:6049  tokenTradeStart */\n      sload(0x0e)\n        /* \"contracts/ERC20Interface.sol\":6016:6031  block.timestamp */\n      timestamp\n        /* \"contracts/ERC20Interface.sol\":6016:6049  block.timestamp > tokenTradeStart */\n      gt\n        /* \"contracts/ERC20Interface.sol\":6008:6050  require(block.timestamp > tokenTradeStart) */\n      tag_248\n      jumpi\n      0x00\n      dup1\n      revert\n    tag_248:\n        /* \"contracts/ERC20Interface.sol\":6060:6087  Crytos.transfer(to, tokens) */\n      tag_249\n        /* \"contracts/ERC20Interface.sol\":6076:6078  to */\n      dup4\n        /* \"contracts/ERC20Interface.sol\":6080:6086  tokens */\n      dup4\n        /* \"contracts/ERC20Interface.sol\":6060:6075  Crytos.transfer */\n      tag_250\n        /* \"contracts/ERC20Interface.sol\":6060:6087  Crytos.transfer(to, tokens) */\n      jump\t// in\n    tag_249:\n      pop\n        /* \"contracts/ERC20Interface.sol\":6134:6138  true */\n      0x01\n        /* \"contracts/ERC20Interface.sol\":6127:6138  return true */\n      swap1\n      pop\n        /* \"contracts/ERC20Interface.sol\":5918:6145  function transfer(address to, uint tokens) public override returns(bool success){... */\n      swap3\n      swap2\n      pop\n      pop\n      jump\t// out\n        /* \"contracts/ERC20Interface.sol\":3543:3582  uint public saleStart = block.timestamp */\n    tag_126:\n      sload(0x0c)\n      dup2\n      jump\t// out\n        /* \"contracts/ERC20Interface.sol\":3588:3634  uint public saleEnd = block.timestamp + 604800 */\n    tag_130:\n      sload(0x0d)\n      dup2\n      jump\t// out\n        /* \"contracts/ERC20Interface.sol\":3513:3537  uint public raisedAmount */\n    tag_134:\n      sload(0x0b)\n      dup2\n      jump\t// out\n        /* \"contracts/ERC20Interface.sol\":3640:3686  uint public tokenTradeStart = saleEnd + 604800 */\n    tag_138:\n      sload(0x0e)\n      dup2\n      jump\t// out\n        /* \"contracts/ERC20Interface.sol\":3405:3435  address payable public deposit */\n    tag_142:\n      0x08\n      0x00\n      swap1\n      sload\n      swap1\n      0x0100\n      exp\n      swap1\n      div\n      0xffffffffffffffffffffffffffffffffffffffff\n      and\n      dup2\n      jump\t// out\n        /* \"contracts/ERC20Interface.sol\":2290:2436  function allowance(address tokenOwner, address spender) view public override returns(uint){... */\n    tag_149:\n        /* \"contracts/ERC20Interface.sol\":2375:2379  uint */\n      0x00\n        /* \"contracts/ERC20Interface.sol\":2401:2408  allowed */\n      0x06\n        /* \"contracts/ERC20Interface.sol\":2401:2420  allowed[tokenOwner] */\n      0x00\n        /* \"contracts/ERC20Interface.sol\":2409:2419  tokenOwner */\n      dup5\n        /* \"contracts/ERC20Interface.sol\":2401:2420  allowed[tokenOwner] */\n      0xffffffffffffffffffffffffffffffffffffffff\n      and\n      0xffffffffffffffffffffffffffffffffffffffff\n      and\n      dup2\n      mstore\n      0x20\n      add\n      swap1\n      dup2\n      mstore\n      0x20\n      add\n      0x00\n      keccak256\n        /* \"contracts/ERC20Interface.sol\":2401:2429  allowed[tokenOwner][spender] */\n      0x00\n        /* \"contracts/ERC20Interface.sol\":2421:2428  spender */\n      dup4\n        /* \"contracts/ERC20Interface.sol\":2401:2429  allowed[tokenOwner][spender] */\n      0xffffffffffffffffffffffffffffffffffffffff\n      and\n      0xffffffffffffffffffffffffffffffffffffffff\n      and\n      dup2\n      mstore\n      0x20\n      add\n      swap1\n      dup2\n      mstore\n      0x20\n      add\n      0x00\n      keccak256\n      sload\n        /* \"contracts/ERC20Interface.sol\":2394:2429  return allowed[tokenOwner][spender] */\n      swap1\n      pop\n        /* \"contracts/ERC20Interface.sol\":2290:2436  function allowance(address tokenOwner, address spender) view public override returns(uint){... */\n      swap3\n      swap2\n      pop\n      pop\n      jump\t// out\n        /* \"contracts/ERC20Interface.sol\":3379:3399  address public admin */\n    tag_155:\n      0x07\n      0x00\n      swap1\n      sload\n      swap1\n      0x0100\n      exp\n      swap1\n      div\n      0xffffffffffffffffffffffffffffffffffffffff\n      and\n      dup2\n      jump\t// out\n        /* \"contracts/ERC20Interface.sol\":3476:3507  uint public hardCap = 300 ether */\n    tag_159:\n      sload(0x0a)\n      dup2\n      jump\t// out\n        /* \"@openzeppelin/contracts/utils/Strings.sol\":415:1111  function toString(uint256 value) internal pure returns (string memory) {... */\n    tag_187:\n        /* \"@openzeppelin/contracts/utils/Strings.sol\":471:484  string memory */\n      0x60\n        /* \"@openzeppelin/contracts/utils/Strings.sol\":520:534  uint256 length */\n      0x00\n        /* \"@openzeppelin/contracts/utils/Strings.sol\":557:558  1 */\n      0x01\n        /* \"@openzeppelin/contracts/utils/Strings.sol\":537:554  Math.log10(value) */\n      tag_253\n        /* \"@openzeppelin/contracts/utils/Strings.sol\":548:553  value */\n      dup5\n        /* \"@openzeppelin/contracts/utils/Strings.sol\":537:547  Math.log10 */\n      tag_254\n        /* \"@openzeppelin/contracts/utils/Strings.sol\":537:554  Math.log10(value) */\n      jump\t// in\n    tag_253:\n        /* \"@openzeppelin/contracts/utils/Strings.sol\":537:558  Math.log10(value) + 1 */\n      add\n        /* \"@openzeppelin/contracts/utils/Strings.sol\":520:558  uint256 length = Math.log10(value) + 1 */\n      swap1\n      pop\n        /* \"@openzeppelin/contracts/utils/Strings.sol\":572:592  string memory buffer */\n      0x00\n        /* \"@openzeppelin/contracts/utils/Strings.sol\":606:612  length */\n      dup2\n        /* \"@openzeppelin/contracts/utils/Strings.sol\":595:613  new string(length) */\n      0xffffffffffffffff\n      dup2\n      gt\n      iszero\n      tag_255\n      jumpi\n      tag_256\n      tag_257\n      jump\t// in\n    tag_256:\n    tag_255:\n      mload(0x40)\n      swap1\n      dup1\n      dup3\n      mstore\n      dup1\n      0x1f\n      add\n      not(0x1f)\n      and\n      0x20\n      add\n      dup3\n      add\n      0x40\n      mstore\n      dup1\n      iszero\n      tag_258\n      jumpi\n      dup2\n      0x20\n      add\n      0x01\n      dup3\n      mul\n      dup1\n      calldatasize\n      dup4\n      calldatacopy\n      dup1\n      dup3\n      add\n      swap2\n      pop\n      pop\n      swap1\n      pop\n    tag_258:\n      pop\n        /* \"@openzeppelin/contracts/utils/Strings.sol\":572:613  string memory buffer = new string(length) */\n      swap1\n      pop\n        /* \"@openzeppelin/contracts/utils/Strings.sol\":627:638  uint256 ptr */\n      0x00\n        /* \"@openzeppelin/contracts/utils/Strings.sol\":753:759  length */\n      dup3\n        /* \"@openzeppelin/contracts/utils/Strings.sol\":749:751  32 */\n      0x20\n        /* \"@openzeppelin/contracts/utils/Strings.sol\":745:760  add(32, length) */\n      add\n        /* \"@openzeppelin/contracts/utils/Strings.sol\":737:743  buffer */\n      dup3\n        /* \"@openzeppelin/contracts/utils/Strings.sol\":733:761  add(buffer, add(32, length)) */\n      add\n        /* \"@openzeppelin/contracts/utils/Strings.sol\":726:761  ptr := add(buffer, add(32, length)) */\n      swap1\n      pop\n        /* \"@openzeppelin/contracts/utils/Strings.sol\":788:1068  while (true) {... */\n    tag_259:\n        /* \"@openzeppelin/contracts/utils/Strings.sol\":795:799  true */\n      0x01\n        /* \"@openzeppelin/contracts/utils/Strings.sol\":788:1068  while (true) {... */\n      iszero\n      tag_260\n      jumpi\n        /* \"@openzeppelin/contracts/utils/Strings.sol\":819:824  ptr-- */\n      dup1\n      dup1\n      0x01\n      swap1\n      sub\n      swap2\n      pop\n      pop\n        /* \"@openzeppelin/contracts/utils/Strings.sol\":958:966  _SYMBOLS */\n      0x3031323334353637383961626364656600000000000000000000000000000000\n        /* \"@openzeppelin/contracts/utils/Strings.sol\":953:955  10 */\n      0x0a\n        /* \"@openzeppelin/contracts/utils/Strings.sol\":946:951  value */\n      dup7\n        /* \"@openzeppelin/contracts/utils/Strings.sol\":942:956  mod(value, 10) */\n      mod\n        /* \"@openzeppelin/contracts/utils/Strings.sol\":937:967  byte(mod(value, 10), _SYMBOLS) */\n      byte\n        /* \"@openzeppelin/contracts/utils/Strings.sol\":932:935  ptr */\n      dup2\n        /* \"@openzeppelin/contracts/utils/Strings.sol\":924:968  mstore8(ptr, byte(mod(value, 10), _SYMBOLS)) */\n      mstore8\n        /* \"@openzeppelin/contracts/utils/Strings.sol\":1012:1014  10 */\n      0x0a\n        /* \"@openzeppelin/contracts/utils/Strings.sol\":1003:1014  value /= 10 */\n      dup6\n      dup2\n      tag_261\n      jumpi\n      tag_262\n      tag_263\n      jump\t// in\n    tag_262:\n    tag_261:\n      div\n      swap5\n      pop\n        /* \"@openzeppelin/contracts/utils/Strings.sol\":1045:1046  0 */\n      0x00\n        /* \"@openzeppelin/contracts/utils/Strings.sol\":1036:1041  value */\n      dup6\n        /* \"@openzeppelin/contracts/utils/Strings.sol\":1036:1046  value == 0 */\n      sub\n        /* \"@openzeppelin/contracts/utils/Strings.sol\":788:1068  while (true) {... */\n      tag_259\n        /* \"@openzeppelin/contracts/utils/Strings.sol\":1032:1053  if (value == 0) break */\n      jumpi\n        /* \"@openzeppelin/contracts/utils/Strings.sol\":788:1068  while (true) {... */\n    tag_260:\n        /* \"@openzeppelin/contracts/utils/Strings.sol\":1088:1094  buffer */\n      dup2\n        /* \"@openzeppelin/contracts/utils/Strings.sol\":1081:1094  return buffer */\n      swap4\n      pop\n      pop\n      pop\n      pop\n        /* \"@openzeppelin/contracts/utils/Strings.sol\":415:1111  function toString(uint256 value) internal pure returns (string memory) {... */\n      swap2\n      swap1\n      pop\n      jump\t// out\n        /* \"contracts/ERC20Interface.sol\":2882:3338  function transferFrom(address from, address to, uint tokens)public virtual override returns(bool success){... */\n    tag_217:\n        /* \"contracts/ERC20Interface.sol\":2974:2986  bool success */\n      0x00\n        /* \"contracts/ERC20Interface.sol\":3045:3051  tokens */\n      dup2\n        /* \"contracts/ERC20Interface.sol\":3016:3023  allowed */\n      0x06\n        /* \"contracts/ERC20Interface.sol\":3016:3029  allowed[from] */\n      0x00\n        /* \"contracts/ERC20Interface.sol\":3024:3028  from */\n      dup7\n        /* \"contracts/ERC20Interface.sol\":3016:3029  allowed[from] */\n      0xffffffffffffffffffffffffffffffffffffffff\n      and\n      0xffffffffffffffffffffffffffffffffffffffff\n      and\n      dup2\n      mstore\n      0x20\n      add\n      swap1\n      dup2\n      mstore\n      0x20\n      add\n      0x00\n      keccak256\n        /* \"contracts/ERC20Interface.sol\":3016:3041  allowed[from][msg.sender] */\n      0x00\n        /* \"contracts/ERC20Interface.sol\":3030:3040  msg.sender */\n      caller\n        /* \"contracts/ERC20Interface.sol\":3016:3041  allowed[from][msg.sender] */\n      0xffffffffffffffffffffffffffffffffffffffff\n      and\n      0xffffffffffffffffffffffffffffffffffffffff\n      and\n      dup2\n      mstore\n      0x20\n      add\n      swap1\n      dup2\n      mstore\n      0x20\n      add\n      0x00\n      keccak256\n      sload\n        /* \"contracts/ERC20Interface.sol\":3016:3051  allowed[from][msg.sender] >= tokens */\n      lt\n      iszero\n        /* \"contracts/ERC20Interface.sol\":3008:3052  require(allowed[from][msg.sender] >= tokens) */\n      tag_266\n      jumpi\n      0x00\n      dup1\n      revert\n    tag_266:\n        /* \"contracts/ERC20Interface.sol\":3099:3105  tokens */\n      dup2\n        /* \"contracts/ERC20Interface.sol\":3081:3089  balances */\n      0x05\n        /* \"contracts/ERC20Interface.sol\":3081:3095  balances[from] */\n      0x00\n        /* \"contracts/ERC20Interface.sol\":3090:3094  from */\n      dup7\n        /* \"contracts/ERC20Interface.sol\":3081:3095  balances[from] */\n      0xffffffffffffffffffffffffffffffffffffffff\n      and\n      0xffffffffffffffffffffffffffffffffffffffff\n      and\n      dup2\n      mstore\n      0x20\n      add\n      swap1\n      dup2\n      mstore\n      0x20\n      add\n      0x00\n      keccak256\n      sload\n        /* \"contracts/ERC20Interface.sol\":3081:3105  balances[from] >= tokens */\n      lt\n      iszero\n        /* \"contracts/ERC20Interface.sol\":3073:3106  require(balances[from] >= tokens) */\n      tag_267\n      jumpi\n      0x00\n      dup1\n      revert\n    tag_267:\n        /* \"contracts/ERC20Interface.sol\":3160:3166  tokens */\n      dup2\n        /* \"contracts/ERC20Interface.sol\":3142:3150  balances */\n      0x05\n        /* \"contracts/ERC20Interface.sol\":3142:3156  balances[from] */\n      0x00\n        /* \"contracts/ERC20Interface.sol\":3151:3155  from */\n      dup7\n        /* \"contracts/ERC20Interface.sol\":3142:3156  balances[from] */\n      0xffffffffffffffffffffffffffffffffffffffff\n      and\n      0xffffffffffffffffffffffffffffffffffffffff\n      and\n      dup2\n      mstore\n      0x20\n      add\n      swap1\n      dup2\n      mstore\n      0x20\n      add\n      0x00\n      keccak256\n      0x00\n        /* \"contracts/ERC20Interface.sol\":3142:3166  balances[from] -= tokens */\n      dup3\n      dup3\n      sload\n      tag_268\n      swap2\n      swap1\n      tag_194\n      jump\t// in\n    tag_268:\n      swap3\n      pop\n      pop\n      dup2\n      swap1\n      sstore\n      pop\n        /* \"contracts/ERC20Interface.sol\":3192:3198  tokens */\n      dup2\n        /* \"contracts/ERC20Interface.sol\":3176:3184  balances */\n      0x05\n        /* \"contracts/ERC20Interface.sol\":3176:3188  balances[to] */\n      0x00\n        /* \"contracts/ERC20Interface.sol\":3185:3187  to */\n      dup6\n        /* \"contracts/ERC20Interface.sol\":3176:3188  balances[to] */\n      0xffffffffffffffffffffffffffffffffffffffff\n      and\n      0xffffffffffffffffffffffffffffffffffffffff\n      and\n      dup2\n      mstore\n      0x20\n      add\n      swap1\n      dup2\n      mstore\n      0x20\n      add\n      0x00\n      keccak256\n      0x00\n        /* \"contracts/ERC20Interface.sol\":3176:3198  balances[to] += tokens */\n      dup3\n      dup3\n      sload\n      tag_269\n      swap2\n      swap1\n      tag_180\n      jump\t// in\n    tag_269:\n      swap3\n      pop\n      pop\n      dup2\n      swap1\n      sstore\n      pop\n        /* \"contracts/ERC20Interface.sol\":3261:3267  tokens */\n      dup2\n        /* \"contracts/ERC20Interface.sol\":3232:3239  allowed */\n      0x06\n        /* \"contracts/ERC20Interface.sol\":3232:3245  allowed[from] */\n      0x00\n        /* \"contracts/ERC20Interface.sol\":3240:3244  from */\n      dup7\n        /* \"contracts/ERC20Interface.sol\":3232:3245  allowed[from] */\n      0xffffffffffffffffffffffffffffffffffffffff\n      and\n      0xffffffffffffffffffffffffffffffffffffffff\n      and\n      dup2\n      mstore\n      0x20\n      add\n      swap1\n      dup2\n      mstore\n      0x20\n      add\n      0x00\n      keccak256\n        /* \"contracts/ERC20Interface.sol\":3232:3257  allowed[from][msg.sender] */\n      0x00\n        /* \"contracts/ERC20Interface.sol\":3246:3256  msg.sender */\n      caller\n        /* \"contracts/ERC20Interface.sol\":3232:3257  allowed[from][msg.sender] */\n      0xffffffffffffffffffffffffffffffffffffffff\n      and\n      0xffffffffffffffffffffffffffffffffffffffff\n      and\n      dup2\n      mstore\n      0x20\n      add\n      swap1\n      dup2\n      mstore\n      0x20\n      add\n      0x00\n      keccak256\n      0x00\n        /* \"contracts/ERC20Interface.sol\":3232:3267  allowed[from][msg.sender] -= tokens */\n      dup3\n      dup3\n      sload\n      tag_270\n      swap2\n      swap1\n      tag_194\n      jump\t// in\n    tag_270:\n      swap3\n      pop\n      pop\n      dup2\n      swap1\n      sstore\n      pop\n        /* \"contracts/ERC20Interface.sol\":3299:3301  to */\n      dup3\n        /* \"contracts/ERC20Interface.sol\":3284:3310  Transfer(from, to, tokens) */\n      0xffffffffffffffffffffffffffffffffffffffff\n      and\n        /* \"contracts/ERC20Interface.sol\":3293:3297  from */\n      dup5\n        /* \"contracts/ERC20Interface.sol\":3284:3310  Transfer(from, to, tokens) */\n      0xffffffffffffffffffffffffffffffffffffffff\n      and\n      0xddf252ad1be2c89b69c2b068fc378daa952ba7f163c4a11628f55a4df523b3ef\n        /* \"contracts/ERC20Interface.sol\":3303:3309  tokens */\n      dup5\n        /* \"contracts/ERC20Interface.sol\":3284:3310  Transfer(from, to, tokens) */\n      mload(0x40)\n      tag_271\n      swap2\n      swap1\n      tag_44\n      jump\t// in\n    tag_271:\n      mload(0x40)\n      dup1\n      swap2\n      sub\n      swap1\n      log3\n        /* \"contracts/ERC20Interface.sol\":3327:3331  true */\n      0x01\n        /* \"contracts/ERC20Interface.sol\":3320:3331  return true */\n      swap1\n      pop\n        /* \"contracts/ERC20Interface.sol\":2882:3338  function transferFrom(address from, address to, uint tokens)public virtual override returns(bool success){... */\n      swap4\n      swap3\n      pop\n      pop\n      pop\n      jump\t// out\n        /* \"contracts/ERC20Interface.sol\":1902:2186  function transfer(address to, uint tokens) public virtual override returns(bool success){... */\n    tag_250:\n        /* \"contracts/ERC20Interface.sol\":1977:1989  bool success */\n      0x00\n        /* \"contracts/ERC20Interface.sol\":2032:2038  tokens */\n      dup2\n        /* \"contracts/ERC20Interface.sol\":2008:2016  balances */\n      0x05\n        /* \"contracts/ERC20Interface.sol\":2008:2028  balances[msg.sender] */\n      0x00\n        /* \"contracts/ERC20Interface.sol\":2017:2027  msg.sender */\n      caller\n        /* \"contracts/ERC20Interface.sol\":2008:2028  balances[msg.sender] */\n      0xffffffffffffffffffffffffffffffffffffffff\n      and\n      0xffffffffffffffffffffffffffffffffffffffff\n      and\n      dup2\n      mstore\n      0x20\n      add\n      swap1\n      dup2\n      mstore\n      0x20\n      add\n      0x00\n      keccak256\n      sload\n        /* \"contracts/ERC20Interface.sol\":2008:2038  balances[msg.sender] >= tokens */\n      lt\n      iszero\n        /* \"contracts/ERC20Interface.sol\":2000:2039  require(balances[msg.sender] >= tokens) */\n      tag_273\n      jumpi\n      0x00\n      dup1\n      revert\n    tag_273:\n        /* \"contracts/ERC20Interface.sol\":2066:2072  tokens */\n      dup2\n        /* \"contracts/ERC20Interface.sol\":2050:2058  balances */\n      0x05\n        /* \"contracts/ERC20Interface.sol\":2050:2062  balances[to] */\n      0x00\n        /* \"contracts/ERC20Interface.sol\":2059:2061  to */\n      dup6\n        /* \"contracts/ERC20Interface.sol\":2050:2062  balances[to] */\n      0xffffffffffffffffffffffffffffffffffffffff\n      and\n      0xffffffffffffffffffffffffffffffffffffffff\n      and\n      dup2\n      mstore\n      0x20\n      add\n      swap1\n      dup2\n      mstore\n      0x20\n      add\n      0x00\n      keccak256\n      0x00\n        /* \"contracts/ERC20Interface.sol\":2050:2072  balances[to] += tokens */\n      dup3\n      dup3\n      sload\n      tag_274\n      swap2\n      swap1\n      tag_180\n      jump\t// in\n    tag_274:\n      swap3\n      pop\n      pop\n      dup2\n      swap1\n      sstore\n      pop\n        /* \"contracts/ERC20Interface.sol\":2106:2112  tokens */\n      dup2\n        /* \"contracts/ERC20Interface.sol\":2082:2090  balances */\n      0x05\n        /* \"contracts/ERC20Interface.sol\":2082:2102  balances[msg.sender] */\n      0x00\n        /* \"contracts/ERC20Interface.sol\":2091:2101  msg.sender */\n      caller\n        /* \"contracts/ERC20Interface.sol\":2082:2102  balances[msg.sender] */\n      0xffffffffffffffffffffffffffffffffffffffff\n      and\n      0xffffffffffffffffffffffffffffffffffffffff\n      and\n      dup2\n      mstore\n      0x20\n      add\n      swap1\n      dup2\n      mstore\n      0x20\n      add\n      0x00\n      keccak256\n      0x00\n        /* \"contracts/ERC20Interface.sol\":2082:2112  balances[msg.sender] -= tokens */\n      dup3\n      dup3\n      sload\n      tag_275\n      swap2\n      swap1\n      tag_194\n      jump\t// in\n    tag_275:\n      swap3\n      pop\n      pop\n      dup2\n      swap1\n      sstore\n      pop\n        /* \"contracts/ERC20Interface.sol\":2147:2149  to */\n      dup3\n        /* \"contracts/ERC20Interface.sol\":2127:2157  Transfer(msg.sender,to,tokens) */\n      0xffffffffffffffffffffffffffffffffffffffff\n      and\n        /* \"contracts/ERC20Interface.sol\":2136:2146  msg.sender */\n      caller\n        /* \"contracts/ERC20Interface.sol\":2127:2157  Transfer(msg.sender,to,tokens) */\n      0xffffffffffffffffffffffffffffffffffffffff\n      and\n      0xddf252ad1be2c89b69c2b068fc378daa952ba7f163c4a11628f55a4df523b3ef\n        /* \"contracts/ERC20Interface.sol\":2150:2156  tokens */\n      dup5\n        /* \"contracts/ERC20Interface.sol\":2127:2157  Transfer(msg.sender,to,tokens) */\n      mload(0x40)\n      tag_276\n      swap2\n      swap1\n      tag_44\n      jump\t// in\n    tag_276:\n      mload(0x40)\n      dup1\n      swap2\n      sub\n      swap1\n      log3\n        /* \"contracts/ERC20Interface.sol\":2175:2179  true */\n      0x01\n        /* \"contracts/ERC20Interface.sol\":2168:2179  return true */\n      swap1\n      pop\n        /* \"contracts/ERC20Interface.sol\":1902:2186  function transfer(address to, uint tokens) public virtual override returns(bool success){... */\n      swap3\n      swap2\n      pop\n      pop\n      jump\t// out\n        /* \"@openzeppelin/contracts/utils/math/Math.sol\":9889:10779  function log10(uint256 value) internal pure returns (uint256) {... */\n    tag_254:\n        /* \"@openzeppelin/contracts/utils/math/Math.sol\":9942:9949  uint256 */\n      0x00\n        /* \"@openzeppelin/contracts/utils/math/Math.sol\":9961:9975  uint256 result */\n      dup1\n        /* \"@openzeppelin/contracts/utils/math/Math.sol\":9978:9979  0 */\n      0x00\n        /* \"@openzeppelin/contracts/utils/math/Math.sol\":9961:9979  uint256 result = 0 */\n      swap1\n      pop\n        /* \"@openzeppelin/contracts/utils/math/Math.sol\":10026:10032  10**64 */\n      0x184f03e93ff9f4daa797ed6e38ed64bf6a1f010000000000000000\n        /* \"@openzeppelin/contracts/utils/math/Math.sol\":10017:10022  value */\n      dup4\n        /* \"@openzeppelin/contracts/utils/math/Math.sol\":10017:10032  value >= 10**64 */\n      lt\n        /* \"@openzeppelin/contracts/utils/math/Math.sol\":10013:10112  if (value >= 10**64) {... */\n      tag_278\n      jumpi\n        /* \"@openzeppelin/contracts/utils/math/Math.sol\":10061:10067  10**64 */\n      0x184f03e93ff9f4daa797ed6e38ed64bf6a1f010000000000000000\n        /* \"@openzeppelin/contracts/utils/math/Math.sol\":10052:10067  value /= 10**64 */\n      dup4\n      dup2\n      tag_279\n      jumpi\n      tag_280\n      tag_263\n      jump\t// in\n    tag_280:\n    tag_279:\n      div\n      swap3\n      pop\n        /* \"@openzeppelin/contracts/utils/math/Math.sol\":10095:10097  64 */\n      0x40\n        /* \"@openzeppelin/contracts/utils/math/Math.sol\":10085:10097  result += 64 */\n      dup2\n      add\n      swap1\n      pop\n        /* \"@openzeppelin/contracts/utils/math/Math.sol\":10013:10112  if (value >= 10**64) {... */\n    tag_278:\n        /* \"@openzeppelin/contracts/utils/math/Math.sol\":10138:10144  10**32 */\n      0x04ee2d6d415b85acef8100000000\n        /* \"@openzeppelin/contracts/utils/math/Math.sol\":10129:10134  value */\n      dup4\n        /* \"@openzeppelin/contracts/utils/math/Math.sol\":10129:10144  value >= 10**32 */\n      lt\n        /* \"@openzeppelin/contracts/utils/math/Math.sol\":10125:10224  if (value >= 10**32) {... */\n      tag_281\n      jumpi\n        /* \"@openzeppelin/contracts/utils/math/Math.sol\":10173:10179  10**32 */\n      0x04ee2d6d415b85acef8100000000\n        /* \"@openzeppelin/contracts/utils/math/Math.sol\":10164:10179  value /= 10**32 */\n      dup4\n      dup2\n      tag_282\n      jumpi\n      tag_283\n      tag_263\n      jump\t// in\n    tag_283:\n    tag_282:\n      div\n      swap3\n      pop\n        /* \"@openzeppelin/contracts/utils/math/Math.sol\":10207:10209  32 */\n      0x20\n        /* \"@openzeppelin/contracts/utils/math/Math.sol\":10197:10209  result += 32 */\n      dup2\n      add\n      swap1\n      pop\n        /* \"@openzeppelin/contracts/utils/math/Math.sol\":10125:10224  if (value >= 10**32) {... */\n    tag_281:\n        /* \"@openzeppelin/contracts/utils/math/Math.sol\":10250:10256  10**16 */\n      0x2386f26fc10000\n        /* \"@openzeppelin/contracts/utils/math/Math.sol\":10241:10246  value */\n      dup4\n        /* \"@openzeppelin/contracts/utils/math/Math.sol\":10241:10256  value >= 10**16 */\n      lt\n        /* \"@openzeppelin/contracts/utils/math/Math.sol\":10237:10336  if (value >= 10**16) {... */\n      tag_284\n      jumpi\n        /* \"@openzeppelin/contracts/utils/math/Math.sol\":10285:10291  10**16 */\n      0x2386f26fc10000\n        /* \"@openzeppelin/contracts/utils/math/Math.sol\":10276:10291  value /= 10**16 */\n      dup4\n      dup2\n      tag_285\n      jumpi\n      tag_286\n      tag_263\n      jump\t// in\n    tag_286:\n    tag_285:\n      div\n      swap3\n      pop\n        /* \"@openzeppelin/contracts/utils/math/Math.sol\":10319:10321  16 */\n      0x10\n        /* \"@openzeppelin/contracts/utils/math/Math.sol\":10309:10321  result += 16 */\n      dup2\n      add\n      swap1\n      pop\n        /* \"@openzeppelin/contracts/utils/math/Math.sol\":10237:10336  if (value >= 10**16) {... */\n    tag_284:\n        /* \"@openzeppelin/contracts/utils/math/Math.sol\":10362:10367  10**8 */\n      0x05f5e100\n        /* \"@openzeppelin/contracts/utils/math/Math.sol\":10353:10358  value */\n      dup4\n        /* \"@openzeppelin/contracts/utils/math/Math.sol\":10353:10367  value >= 10**8 */\n      lt\n        /* \"@openzeppelin/contracts/utils/math/Math.sol\":10349:10445  if (value >= 10**8) {... */\n      tag_287\n      jumpi\n        /* \"@openzeppelin/contracts/utils/math/Math.sol\":10396:10401  10**8 */\n      0x05f5e100\n        /* \"@openzeppelin/contracts/utils/math/Math.sol\":10387:10401  value /= 10**8 */\n      dup4\n      dup2\n      tag_288\n      jumpi\n      tag_289\n      tag_263\n      jump\t// in\n    tag_289:\n    tag_288:\n      div\n      swap3\n      pop\n        /* \"@openzeppelin/contracts/utils/math/Math.sol\":10429:10430  8 */\n      0x08\n        /* \"@openzeppelin/contracts/utils/math/Math.sol\":10419:10430  result += 8 */\n      dup2\n      add\n      swap1\n      pop\n        /* \"@openzeppelin/contracts/utils/math/Math.sol\":10349:10445  if (value >= 10**8) {... */\n    tag_287:\n        /* \"@openzeppelin/contracts/utils/math/Math.sol\":10471:10476  10**4 */\n      0x2710\n        /* \"@openzeppelin/contracts/utils/math/Math.sol\":10462:10467  value */\n      dup4\n        /* \"@openzeppelin/contracts/utils/math/Math.sol\":10462:10476  value >= 10**4 */\n      lt\n        /* \"@openzeppelin/contracts/utils/math/Math.sol\":10458:10554  if (value >= 10**4) {... */\n      tag_290\n      jumpi\n        /* \"@openzeppelin/contracts/utils/math/Math.sol\":10505:10510  10**4 */\n      0x2710\n        /* \"@openzeppelin/contracts/utils/math/Math.sol\":10496:10510  value /= 10**4 */\n      dup4\n      dup2\n      tag_291\n      jumpi\n      tag_292\n      tag_263\n      jump\t// in\n    tag_292:\n    tag_291:\n      div\n      swap3\n      pop\n        /* \"@openzeppelin/contracts/utils/math/Math.sol\":10538:10539  4 */\n      0x04\n        /* \"@openzeppelin/contracts/utils/math/Math.sol\":10528:10539  result += 4 */\n      dup2\n      add\n      swap1\n      pop\n        /* \"@openzeppelin/contracts/utils/math/Math.sol\":10458:10554  if (value >= 10**4) {... */\n    tag_290:\n        /* \"@openzeppelin/contracts/utils/math/Math.sol\":10580:10585  10**2 */\n      0x64\n        /* \"@openzeppelin/contracts/utils/math/Math.sol\":10571:10576  value */\n      dup4\n        /* \"@openzeppelin/contracts/utils/math/Math.sol\":10571:10585  value >= 10**2 */\n      lt\n        /* \"@openzeppelin/contracts/utils/math/Math.sol\":10567:10663  if (value >= 10**2) {... */\n      tag_293\n      jumpi\n        /* \"@openzeppelin/contracts/utils/math/Math.sol\":10614:10619  10**2 */\n      0x64\n        /* \"@openzeppelin/contracts/utils/math/Math.sol\":10605:10619  value /= 10**2 */\n      dup4\n      dup2\n      tag_294\n      jumpi\n      tag_295\n      tag_263\n      jump\t// in\n    tag_295:\n    tag_294:\n      div\n      swap3\n      pop\n        /* \"@openzeppelin/contracts/utils/math/Math.sol\":10647:10648  2 */\n      0x02\n        /* \"@openzeppelin/contracts/utils/math/Math.sol\":10637:10648  result += 2 */\n      dup2\n      add\n      swap1\n      pop\n        /* \"@openzeppelin/contracts/utils/math/Math.sol\":10567:10663  if (value >= 10**2) {... */\n    tag_293:\n        /* \"@openzeppelin/contracts/utils/math/Math.sol\":10689:10694  10**1 */\n      0x0a\n        /* \"@openzeppelin/contracts/utils/math/Math.sol\":10680:10685  value */\n      dup4\n        /* \"@openzeppelin/contracts/utils/math/Math.sol\":10680:10694  value >= 10**1 */\n      lt\n        /* \"@openzeppelin/contracts/utils/math/Math.sol\":10676:10740  if (value >= 10**1) {... */\n      tag_296\n      jumpi\n        /* \"@openzeppelin/contracts/utils/math/Math.sol\":10724:10725  1 */\n      0x01\n        /* \"@openzeppelin/contracts/utils/math/Math.sol\":10714:10725  result += 1 */\n      dup2\n      add\n      swap1\n      pop\n        /* \"@openzeppelin/contracts/utils/math/Math.sol\":10676:10740  if (value >= 10**1) {... */\n    tag_296:\n        /* \"@openzeppelin/contracts/utils/math/Math.sol\":10766:10772  result */\n      dup1\n        /* \"@openzeppelin/contracts/utils/math/Math.sol\":10759:10772  return result */\n      swap2\n      pop\n      pop\n        /* \"@openzeppelin/contracts/utils/math/Math.sol\":9889:10779  function log10(uint256 value) internal pure returns (uint256) {... */\n      swap2\n      swap1\n      pop\n      jump\t// out\n        /* \"#utility.yul\":7:84   */\n    tag_297:\n        /* \"#utility.yul\":44:51   */\n      0x00\n        /* \"#utility.yul\":73:78   */\n      dup2\n        /* \"#utility.yul\":62:78   */\n      swap1\n      pop\n        /* \"#utility.yul\":7:84   */\n      swap2\n      swap1\n      pop\n      jump\t// out\n        /* \"#utility.yul\":90:208   */\n    tag_298:\n        /* \"#utility.yul\":177:201   */\n      tag_341\n        /* \"#utility.yul\":195:200   */\n      dup2\n        /* \"#utility.yul\":177:201   */\n      tag_297\n      jump\t// in\n    tag_341:\n        /* \"#utility.yul\":172:175   */\n      dup3\n        /* \"#utility.yul\":165:202   */\n      mstore\n        /* \"#utility.yul\":90:208   */\n      pop\n      pop\n      jump\t// out\n        /* \"#utility.yul\":214:436   */\n    tag_44:\n        /* \"#utility.yul\":307:311   */\n      0x00\n        /* \"#utility.yul\":345:347   */\n      0x20\n        /* \"#utility.yul\":334:343   */\n      dup3\n        /* \"#utility.yul\":330:348   */\n      add\n        /* \"#utility.yul\":322:348   */\n      swap1\n      pop\n        /* \"#utility.yul\":358:429   */\n      tag_343\n        /* \"#utility.yul\":426:427   */\n      0x00\n        /* \"#utility.yul\":415:424   */\n      dup4\n        /* \"#utility.yul\":411:428   */\n      add\n        /* \"#utility.yul\":402:408   */\n      dup5\n        /* \"#utility.yul\":358:429   */\n      tag_298\n      jump\t// in\n    tag_343:\n        /* \"#utility.yul\":214:436   */\n      swap3\n      swap2\n      pop\n      pop\n      jump\t// out\n        /* \"#utility.yul\":442:541   */\n    tag_299:\n        /* \"#utility.yul\":494:500   */\n      0x00\n        /* \"#utility.yul\":528:533   */\n      dup2\n        /* \"#utility.yul\":522:534   */\n      mload\n        /* \"#utility.yul\":512:534   */\n      swap1\n      pop\n        /* \"#utility.yul\":442:541   */\n      swap2\n      swap1\n      pop\n      jump\t// out\n        /* \"#utility.yul\":547:716   */\n    tag_300:\n        /* \"#utility.yul\":631:642   */\n      0x00\n        /* \"#utility.yul\":665:671   */\n      dup3\n        /* \"#utility.yul\":660:663   */\n      dup3\n        /* \"#utility.yul\":653:672   */\n      mstore\n        /* \"#utility.yul\":705:709   */\n      0x20\n        /* \"#utility.yul\":700:703   */\n      dup3\n        /* \"#utility.yul\":696:710   */\n      add\n        /* \"#utility.yul\":681:710   */\n      swap1\n      pop\n        /* \"#utility.yul\":547:716   */\n      swap3\n      swap2\n      pop\n      pop\n      jump\t// out\n        /* \"#utility.yul\":722:968   */\n    tag_301:\n        /* \"#utility.yul\":803:804   */\n      0x00\n        /* \"#utility.yul\":813:926   */\n    tag_347:\n        /* \"#utility.yul\":827:833   */\n      dup4\n        /* \"#utility.yul\":824:825   */\n      dup2\n        /* \"#utility.yul\":821:834   */\n      lt\n        /* \"#utility.yul\":813:926   */\n      iszero\n      tag_349\n      jumpi\n        /* \"#utility.yul\":912:913   */\n      dup1\n        /* \"#utility.yul\":907:910   */\n      dup3\n        /* \"#utility.yul\":903:914   */\n      add\n        /* \"#utility.yul\":897:915   */\n      mload\n        /* \"#utility.yul\":893:894   */\n      dup2\n        /* \"#utility.yul\":888:891   */\n      dup5\n        /* \"#utility.yul\":884:895   */\n      add\n        /* \"#utility.yul\":877:916   */\n      mstore\n        /* \"#utility.yul\":849:851   */\n      0x20\n        /* \"#utility.yul\":846:847   */\n      dup2\n        /* \"#utility.yul\":842:852   */\n      add\n        /* \"#utility.yul\":837:852   */\n      swap1\n      pop\n        /* \"#utility.yul\":813:926   */\n      jump(tag_347)\n    tag_349:\n        /* \"#utility.yul\":960:961   */\n      0x00\n        /* \"#utility.yul\":951:957   */\n      dup5\n        /* \"#utility.yul\":946:949   */\n      dup5\n        /* \"#utility.yul\":942:958   */\n      add\n        /* \"#utility.yul\":935:962   */\n      mstore\n        /* \"#utility.yul\":784:968   */\n      pop\n        /* \"#utility.yul\":722:968   */\n      pop\n      pop\n      pop\n      jump\t// out\n        /* \"#utility.yul\":974:1076   */\n    tag_302:\n        /* \"#utility.yul\":1015:1021   */\n      0x00\n        /* \"#utility.yul\":1066:1068   */\n      0x1f\n        /* \"#utility.yul\":1062:1069   */\n      not\n        /* \"#utility.yul\":1057:1059   */\n      0x1f\n        /* \"#utility.yul\":1050:1055   */\n      dup4\n        /* \"#utility.yul\":1046:1060   */\n      add\n        /* \"#utility.yul\":1042:1070   */\n      and\n        /* \"#utility.yul\":1032:1070   */\n      swap1\n      pop\n        /* \"#utility.yul\":974:1076   */\n      swap2\n      swap1\n      pop\n      jump\t// out\n        /* \"#utility.yul\":1082:1459   */\n    tag_303:\n        /* \"#utility.yul\":1170:1173   */\n      0x00\n        /* \"#utility.yul\":1198:1237   */\n      tag_352\n        /* \"#utility.yul\":1231:1236   */\n      dup3\n        /* \"#utility.yul\":1198:1237   */\n      tag_299\n      jump\t// in\n    tag_352:\n        /* \"#utility.yul\":1253:1324   */\n      tag_353\n        /* \"#utility.yul\":1317:1323   */\n      dup2\n        /* \"#utility.yul\":1312:1315   */\n      dup6\n        /* \"#utility.yul\":1253:1324   */\n      tag_300\n      jump\t// in\n    tag_353:\n        /* \"#utility.yul\":1246:1324   */\n      swap4\n      pop\n        /* \"#utility.yul\":1333:1398   */\n      tag_354\n        /* \"#utility.yul\":1391:1397   */\n      dup2\n        /* \"#utility.yul\":1386:1389   */\n      dup6\n        /* \"#utility.yul\":1379:1383   */\n      0x20\n        /* \"#utility.yul\":1372:1377   */\n      dup7\n        /* \"#utility.yul\":1368:1384   */\n      add\n        /* \"#utility.yul\":1333:1398   */\n      tag_301\n      jump\t// in\n    tag_354:\n        /* \"#utility.yul\":1423:1452   */\n      tag_355\n        /* \"#utility.yul\":1445:1451   */\n      dup2\n        /* \"#utility.yul\":1423:1452   */\n      tag_302\n      jump\t// in\n    tag_355:\n        /* \"#utility.yul\":1418:1421   */\n      dup5\n        /* \"#utility.yul\":1414:1453   */\n      add\n        /* \"#utility.yul\":1407:1453   */\n      swap2\n      pop\n        /* \"#utility.yul\":1174:1459   */\n      pop\n        /* \"#utility.yul\":1082:1459   */\n      swap3\n      swap2\n      pop\n      pop\n      jump\t// out\n        /* \"#utility.yul\":1465:1778   */\n    tag_52:\n        /* \"#utility.yul\":1578:1582   */\n      0x00\n        /* \"#utility.yul\":1616:1618   */\n      0x20\n        /* \"#utility.yul\":1605:1614   */\n      dup3\n        /* \"#utility.yul\":1601:1619   */\n      add\n        /* \"#utility.yul\":1593:1619   */\n      swap1\n      pop\n        /* \"#utility.yul\":1665:1674   */\n      dup2\n        /* \"#utility.yul\":1659:1663   */\n      dup2\n        /* \"#utility.yul\":1655:1675   */\n      sub\n        /* \"#utility.yul\":1651:1652   */\n      0x00\n        /* \"#utility.yul\":1640:1649   */\n      dup4\n        /* \"#utility.yul\":1636:1653   */\n      add\n        /* \"#utility.yul\":1629:1676   */\n      mstore\n        /* \"#utility.yul\":1693:1771   */\n      tag_357\n        /* \"#utility.yul\":1766:1770   */\n      dup2\n        /* \"#utility.yul\":1757:1763   */\n      dup5\n        /* \"#utility.yul\":1693:1771   */\n      tag_303\n      jump\t// in\n    tag_357:\n        /* \"#utility.yul\":1685:1771   */\n      swap1\n      pop\n        /* \"#utility.yul\":1465:1778   */\n      swap3\n      swap2\n      pop\n      pop\n      jump\t// out\n        /* \"#utility.yul\":1865:1982   */\n    tag_305:\n        /* \"#utility.yul\":1974:1975   */\n      0x00\n        /* \"#utility.yul\":1971:1972   */\n      dup1\n        /* \"#utility.yul\":1964:1976   */\n      revert\n        /* \"#utility.yul\":2111:2237   */\n    tag_307:\n        /* \"#utility.yul\":2148:2155   */\n      0x00\n        /* \"#utility.yul\":2188:2230   */\n      0xffffffffffffffffffffffffffffffffffffffff\n        /* \"#utility.yul\":2181:2186   */\n      dup3\n        /* \"#utility.yul\":2177:2231   */\n      and\n        /* \"#utility.yul\":2166:2231   */\n      swap1\n      pop\n        /* \"#utility.yul\":2111:2237   */\n      swap2\n      swap1\n      pop\n      jump\t// out\n        /* \"#utility.yul\":2243:2339   */\n    tag_308:\n        /* \"#utility.yul\":2280:2287   */\n      0x00\n        /* \"#utility.yul\":2309:2333   */\n      tag_363\n        /* \"#utility.yul\":2327:2332   */\n      dup3\n        /* \"#utility.yul\":2309:2333   */\n      tag_307\n      jump\t// in\n    tag_363:\n        /* \"#utility.yul\":2298:2333   */\n      swap1\n      pop\n        /* \"#utility.yul\":2243:2339   */\n      swap2\n      swap1\n      pop\n      jump\t// out\n        /* \"#utility.yul\":2345:2467   */\n    tag_309:\n        /* \"#utility.yul\":2418:2442   */\n      tag_365\n        /* \"#utility.yul\":2436:2441   */\n      dup2\n        /* \"#utility.yul\":2418:2442   */\n      tag_308\n      jump\t// in\n    tag_365:\n        /* \"#utility.yul\":2411:2416   */\n      dup2\n        /* \"#utility.yul\":2408:2443   */\n      eq\n        /* \"#utility.yul\":2398:2461   */\n      tag_366\n      jumpi\n        /* \"#utility.yul\":2457:2458   */\n      0x00\n        /* \"#utility.yul\":2454:2455   */\n      dup1\n        /* \"#utility.yul\":2447:2459   */\n      revert\n        /* \"#utility.yul\":2398:2461   */\n    tag_366:\n        /* \"#utility.yul\":2345:2467   */\n      pop\n      jump\t// out\n        /* \"#utility.yul\":2473:2612   */\n    tag_310:\n        /* \"#utility.yul\":2519:2524   */\n      0x00\n        /* \"#utility.yul\":2557:2563   */\n      dup2\n        /* \"#utility.yul\":2544:2564   */\n      calldataload\n        /* \"#utility.yul\":2535:2564   */\n      swap1\n      pop\n        /* \"#utility.yul\":2573:2606   */\n      tag_368\n        /* \"#utility.yul\":2600:2605   */\n      dup2\n        /* \"#utility.yul\":2573:2606   */\n      tag_309\n      jump\t// in\n    tag_368:\n        /* \"#utility.yul\":2473:2612   */\n      swap3\n      swap2\n      pop\n      pop\n      jump\t// out\n        /* \"#utility.yul\":2618:2740   */\n    tag_311:\n        /* \"#utility.yul\":2691:2715   */\n      tag_370\n        /* \"#utility.yul\":2709:2714   */\n      dup2\n        /* \"#utility.yul\":2691:2715   */\n      tag_297\n      jump\t// in\n    tag_370:\n        /* \"#utility.yul\":2684:2689   */\n      dup2\n        /* \"#utility.yul\":2681:2716   */\n      eq\n        /* \"#utility.yul\":2671:2734   */\n      tag_371\n      jumpi\n        /* \"#utility.yul\":2730:2731   */\n      0x00\n        /* \"#utility.yul\":2727:2728   */\n      dup1\n        /* \"#utility.yul\":2720:2732   */\n      revert\n        /* \"#utility.yul\":2671:2734   */\n    tag_371:\n        /* \"#utility.yul\":2618:2740   */\n      pop\n      jump\t// out\n        /* \"#utility.yul\":2746:2885   */\n    tag_312:\n        /* \"#utility.yul\":2792:2797   */\n      0x00\n        /* \"#utility.yul\":2830:2836   */\n      dup2\n        /* \"#utility.yul\":2817:2837   */\n      calldataload\n        /* \"#utility.yul\":2808:2837   */\n      swap1\n      pop\n        /* \"#utility.yul\":2846:2879   */\n      tag_373\n        /* \"#utility.yul\":2873:2878   */\n      dup2\n        /* \"#utility.yul\":2846:2879   */\n      tag_311\n      jump\t// in\n    tag_373:\n        /* \"#utility.yul\":2746:2885   */\n      swap3\n      swap2\n      pop\n      pop\n      jump\t// out\n        /* \"#utility.yul\":2891:3365   */\n    tag_56:\n        /* \"#utility.yul\":2959:2965   */\n      0x00\n        /* \"#utility.yul\":2967:2973   */\n      dup1\n        /* \"#utility.yul\":3016:3018   */\n      0x40\n        /* \"#utility.yul\":3004:3013   */\n      dup4\n        /* \"#utility.yul\":2995:3002   */\n      dup6\n        /* \"#utility.yul\":2991:3014   */\n      sub\n        /* \"#utility.yul\":2987:3019   */\n      slt\n        /* \"#utility.yul\":2984:3103   */\n      iszero\n      tag_375\n      jumpi\n        /* \"#utility.yul\":3022:3101   */\n      tag_376\n      tag_305\n      jump\t// in\n    tag_376:\n        /* \"#utility.yul\":2984:3103   */\n    tag_375:\n        /* \"#utility.yul\":3142:3143   */\n      0x00\n        /* \"#utility.yul\":3167:3220   */\n      tag_377\n        /* \"#utility.yul\":3212:3219   */\n      dup6\n        /* \"#utility.yul\":3203:3209   */\n      dup3\n        /* \"#utility.yul\":3192:3201   */\n      dup7\n        /* \"#utility.yul\":3188:3210   */\n      add\n        /* \"#utility.yul\":3167:3220   */\n      tag_310\n      jump\t// in\n    tag_377:\n        /* \"#utility.yul\":3157:3220   */\n      swap3\n      pop\n        /* \"#utility.yul\":3113:3230   */\n      pop\n        /* \"#utility.yul\":3269:3271   */\n      0x20\n        /* \"#utility.yul\":3295:3348   */\n      tag_378\n        /* \"#utility.yul\":3340:3347   */\n      dup6\n        /* \"#utility.yul\":3331:3337   */\n      dup3\n        /* \"#utility.yul\":3320:3329   */\n      dup7\n        /* \"#utility.yul\":3316:3338   */\n      add\n        /* \"#utility.yul\":3295:3348   */\n      tag_312\n      jump\t// in\n    tag_378:\n        /* \"#utility.yul\":3285:3348   */\n      swap2\n      pop\n        /* \"#utility.yul\":3240:3358   */\n      pop\n        /* \"#utility.yul\":2891:3365   */\n      swap3\n      pop\n      swap3\n      swap1\n      pop\n      jump\t// out\n        /* \"#utility.yul\":3371:3461   */\n    tag_313:\n        /* \"#utility.yul\":3405:3412   */\n      0x00\n        /* \"#utility.yul\":3448:3453   */\n      dup2\n        /* \"#utility.yul\":3441:3454   */\n      iszero\n        /* \"#utility.yul\":3434:3455   */\n      iszero\n        /* \"#utility.yul\":3423:3455   */\n      swap1\n      pop\n        /* \"#utility.yul\":3371:3461   */\n      swap2\n      swap1\n      pop\n      jump\t// out\n        /* \"#utility.yul\":3467:3576   */\n    tag_314:\n        /* \"#utility.yul\":3548:3569   */\n      tag_381\n        /* \"#utility.yul\":3563:3568   */\n      dup2\n        /* \"#utility.yul\":3548:3569   */\n      tag_313\n      jump\t// in\n    tag_381:\n        /* \"#utility.yul\":3543:3546   */\n      dup3\n        /* \"#utility.yul\":3536:3570   */\n      mstore\n        /* \"#utility.yul\":3467:3576   */\n      pop\n      pop\n      jump\t// out\n        /* \"#utility.yul\":3582:3792   */\n    tag_59:\n        /* \"#utility.yul\":3669:3673   */\n      0x00\n        /* \"#utility.yul\":3707:3709   */\n      0x20\n        /* \"#utility.yul\":3696:3705   */\n      dup3\n        /* \"#utility.yul\":3692:3710   */\n      add\n        /* \"#utility.yul\":3684:3710   */\n      swap1\n      pop\n        /* \"#utility.yul\":3720:3785   */\n      tag_383\n        /* \"#utility.yul\":3782:3783   */\n      0x00\n        /* \"#utility.yul\":3771:3780   */\n      dup4\n        /* \"#utility.yul\":3767:3784   */\n      add\n        /* \"#utility.yul\":3758:3764   */\n      dup5\n        /* \"#utility.yul\":3720:3785   */\n      tag_314\n      jump\t// in\n    tag_383:\n        /* \"#utility.yul\":3582:3792   */\n      swap3\n      swap2\n      pop\n      pop\n      jump\t// out\n        /* \"#utility.yul\":3798:4417   */\n    tag_67:\n        /* \"#utility.yul\":3875:3881   */\n      0x00\n        /* \"#utility.yul\":3883:3889   */\n      dup1\n        /* \"#utility.yul\":3891:3897   */\n      0x00\n        /* \"#utility.yul\":3940:3942   */\n      0x60\n        /* \"#utility.yul\":3928:3937   */\n      dup5\n        /* \"#utility.yul\":3919:3926   */\n      dup7\n        /* \"#utility.yul\":3915:3938   */\n      sub\n        /* \"#utility.yul\":3911:3943   */\n      slt\n        /* \"#utility.yul\":3908:4027   */\n      iszero\n      tag_385\n      jumpi\n        /* \"#utility.yul\":3946:4025   */\n      tag_386\n      tag_305\n      jump\t// in\n    tag_386:\n        /* \"#utility.yul\":3908:4027   */\n    tag_385:\n        /* \"#utility.yul\":4066:4067   */\n      0x00\n        /* \"#utility.yul\":4091:4144   */\n      tag_387\n        /* \"#utility.yul\":4136:4143   */\n      dup7\n        /* \"#utility.yul\":4127:4133   */\n      dup3\n        /* \"#utility.yul\":4116:4125   */\n      dup8\n        /* \"#utility.yul\":4112:4134   */\n      add\n        /* \"#utility.yul\":4091:4144   */\n      tag_310\n      jump\t// in\n    tag_387:\n        /* \"#utility.yul\":4081:4144   */\n      swap4\n      pop\n        /* \"#utility.yul\":4037:4154   */\n      pop\n        /* \"#utility.yul\":4193:4195   */\n      0x20\n        /* \"#utility.yul\":4219:4272   */\n      tag_388\n        /* \"#utility.yul\":4264:4271   */\n      dup7\n        /* \"#utility.yul\":4255:4261   */\n      dup3\n        /* \"#utility.yul\":4244:4253   */\n      dup8\n        /* \"#utility.yul\":4240:4262   */\n      add\n        /* \"#utility.yul\":4219:4272   */\n      tag_310\n      jump\t// in\n    tag_388:\n        /* \"#utility.yul\":4209:4272   */\n      swap3\n      pop\n        /* \"#utility.yul\":4164:4282   */\n      pop\n        /* \"#utility.yul\":4321:4323   */\n      0x40\n        /* \"#utility.yul\":4347:4400   */\n      tag_389\n        /* \"#utility.yul\":4392:4399   */\n      dup7\n        /* \"#utility.yul\":4383:4389   */\n      dup3\n        /* \"#utility.yul\":4372:4381   */\n      dup8\n        /* \"#utility.yul\":4368:4390   */\n      add\n        /* \"#utility.yul\":4347:4400   */\n      tag_312\n      jump\t// in\n    tag_389:\n        /* \"#utility.yul\":4337:4400   */\n      swap2\n      pop\n        /* \"#utility.yul\":4292:4410   */\n      pop\n        /* \"#utility.yul\":3798:4417   */\n      swap3\n      pop\n      swap3\n      pop\n      swap3\n      jump\t// out\n        /* \"#utility.yul\":4423:4752   */\n    tag_73:\n        /* \"#utility.yul\":4482:4488   */\n      0x00\n        /* \"#utility.yul\":4531:4533   */\n      0x20\n        /* \"#utility.yul\":4519:4528   */\n      dup3\n        /* \"#utility.yul\":4510:4517   */\n      dup5\n        /* \"#utility.yul\":4506:4529   */\n      sub\n        /* \"#utility.yul\":4502:4534   */\n      slt\n        /* \"#utility.yul\":4499:4618   */\n      iszero\n      tag_391\n      jumpi\n        /* \"#utility.yul\":4537:4616   */\n      tag_392\n      tag_305\n      jump\t// in\n    tag_392:\n        /* \"#utility.yul\":4499:4618   */\n    tag_391:\n        /* \"#utility.yul\":4657:4658   */\n      0x00\n        /* \"#utility.yul\":4682:4735   */\n      tag_393\n        /* \"#utility.yul\":4727:4734   */\n      dup5\n        /* \"#utility.yul\":4718:4724   */\n      dup3\n        /* \"#utility.yul\":4707:4716   */\n      dup6\n        /* \"#utility.yul\":4703:4725   */\n      add\n        /* \"#utility.yul\":4682:4735   */\n      tag_310\n      jump\t// in\n    tag_393:\n        /* \"#utility.yul\":4672:4735   */\n      swap2\n      pop\n        /* \"#utility.yul\":4628:4745   */\n      pop\n        /* \"#utility.yul\":4423:4752   */\n      swap3\n      swap2\n      pop\n      pop\n      jump\t// out\n        /* \"#utility.yul\":4758:4938   */\n    tag_167:\n        /* \"#utility.yul\":4806:4883   */\n      0x4e487b7100000000000000000000000000000000000000000000000000000000\n        /* \"#utility.yul\":4803:4804   */\n      0x00\n        /* \"#utility.yul\":4796:4884   */\n      mstore\n        /* \"#utility.yul\":4903:4907   */\n      0x21\n        /* \"#utility.yul\":4900:4901   */\n      0x04\n        /* \"#utility.yul\":4893:4908   */\n      mstore\n        /* \"#utility.yul\":4927:4931   */\n      0x24\n        /* \"#utility.yul\":4924:4925   */\n      0x00\n        /* \"#utility.yul\":4917:4932   */\n      revert\n        /* \"#utility.yul\":4944:5059   */\n    tag_315:\n        /* \"#utility.yul\":5027:5028   */\n      0x04\n        /* \"#utility.yul\":5020:5025   */\n      dup2\n        /* \"#utility.yul\":5017:5029   */\n      lt\n        /* \"#utility.yul\":5007:5053   */\n      tag_396\n      jumpi\n        /* \"#utility.yul\":5033:5051   */\n      tag_397\n      tag_167\n      jump\t// in\n    tag_397:\n        /* \"#utility.yul\":5007:5053   */\n    tag_396:\n        /* \"#utility.yul\":4944:5059   */\n      pop\n      jump\t// out\n        /* \"#utility.yul\":5065:5196   */\n    tag_316:\n        /* \"#utility.yul\":5112:5119   */\n      0x00\n        /* \"#utility.yul\":5141:5146   */\n      dup2\n        /* \"#utility.yul\":5130:5146   */\n      swap1\n      pop\n        /* \"#utility.yul\":5147:5190   */\n      tag_399\n        /* \"#utility.yul\":5184:5189   */\n      dup3\n        /* \"#utility.yul\":5147:5190   */\n      tag_315\n      jump\t// in\n    tag_399:\n        /* \"#utility.yul\":5065:5196   */\n      swap2\n      swap1\n      pop\n      jump\t// out\n        /* \"#utility.yul\":5202:5333   */\n    tag_317:\n        /* \"#utility.yul\":5260:5269   */\n      0x00\n        /* \"#utility.yul\":5293:5327   */\n      tag_401\n        /* \"#utility.yul\":5321:5326   */\n      dup3\n        /* \"#utility.yul\":5293:5327   */\n      tag_316\n      jump\t// in\n    tag_401:\n        /* \"#utility.yul\":5280:5327   */\n      swap1\n      pop\n        /* \"#utility.yul\":5202:5333   */\n      swap2\n      swap1\n      pop\n      jump\t// out\n        /* \"#utility.yul\":5339:5486   */\n    tag_318:\n        /* \"#utility.yul\":5434:5479   */\n      tag_403\n        /* \"#utility.yul\":5473:5478   */\n      dup2\n        /* \"#utility.yul\":5434:5479   */\n      tag_317\n      jump\t// in\n    tag_403:\n        /* \"#utility.yul\":5429:5432   */\n      dup3\n        /* \"#utility.yul\":5422:5480   */\n      mstore\n        /* \"#utility.yul\":5339:5486   */\n      pop\n      pop\n      jump\t// out\n        /* \"#utility.yul\":5492:5730   */\n    tag_84:\n        /* \"#utility.yul\":5593:5597   */\n      0x00\n        /* \"#utility.yul\":5631:5633   */\n      0x20\n        /* \"#utility.yul\":5620:5629   */\n      dup3\n        /* \"#utility.yul\":5616:5634   */\n      add\n        /* \"#utility.yul\":5608:5634   */\n      swap1\n      pop\n        /* \"#utility.yul\":5644:5723   */\n      tag_405\n        /* \"#utility.yul\":5720:5721   */\n      0x00\n        /* \"#utility.yul\":5709:5718   */\n      dup4\n        /* \"#utility.yul\":5705:5722   */\n      add\n        /* \"#utility.yul\":5696:5702   */\n      dup5\n        /* \"#utility.yul\":5644:5723   */\n      tag_318\n      jump\t// in\n    tag_405:\n        /* \"#utility.yul\":5492:5730   */\n      swap3\n      swap2\n      pop\n      pop\n      jump\t// out\n        /* \"#utility.yul\":5736:5854   */\n    tag_319:\n        /* \"#utility.yul\":5823:5847   */\n      tag_407\n        /* \"#utility.yul\":5841:5846   */\n      dup2\n        /* \"#utility.yul\":5823:5847   */\n      tag_308\n      jump\t// in\n    tag_407:\n        /* \"#utility.yul\":5818:5821   */\n      dup3\n        /* \"#utility.yul\":5811:5848   */\n      mstore\n        /* \"#utility.yul\":5736:5854   */\n      pop\n      pop\n      jump\t// out\n        /* \"#utility.yul\":5860:6082   */\n    tag_97:\n        /* \"#utility.yul\":5953:5957   */\n      0x00\n        /* \"#utility.yul\":5991:5993   */\n      0x20\n        /* \"#utility.yul\":5980:5989   */\n      dup3\n        /* \"#utility.yul\":5976:5994   */\n      add\n        /* \"#utility.yul\":5968:5994   */\n      swap1\n      pop\n        /* \"#utility.yul\":6004:6075   */\n      tag_409\n        /* \"#utility.yul\":6072:6073   */\n      0x00\n        /* \"#utility.yul\":6061:6070   */\n      dup4\n        /* \"#utility.yul\":6057:6074   */\n      add\n        /* \"#utility.yul\":6048:6054   */\n      dup5\n        /* \"#utility.yul\":6004:6075   */\n      tag_319\n      jump\t// in\n    tag_409:\n        /* \"#utility.yul\":5860:6082   */\n      swap3\n      swap2\n      pop\n      pop\n      jump\t// out\n        /* \"#utility.yul\":6088:6192   */\n    tag_320:\n        /* \"#utility.yul\":6133:6140   */\n      0x00\n        /* \"#utility.yul\":6162:6186   */\n      tag_411\n        /* \"#utility.yul\":6180:6185   */\n      dup3\n        /* \"#utility.yul\":6162:6186   */\n      tag_307\n      jump\t// in\n    tag_411:\n        /* \"#utility.yul\":6151:6186   */\n      swap1\n      pop\n        /* \"#utility.yul\":6088:6192   */\n      swap2\n      swap1\n      pop\n      jump\t// out\n        /* \"#utility.yul\":6198:6336   */\n    tag_321:\n        /* \"#utility.yul\":6279:6311   */\n      tag_413\n        /* \"#utility.yul\":6305:6310   */\n      dup2\n        /* \"#utility.yul\":6279:6311   */\n      tag_320\n      jump\t// in\n    tag_413:\n        /* \"#utility.yul\":6272:6277   */\n      dup2\n        /* \"#utility.yul\":6269:6312   */\n      eq\n        /* \"#utility.yul\":6259:6330   */\n      tag_414\n      jumpi\n        /* \"#utility.yul\":6326:6327   */\n      0x00\n        /* \"#utility.yul\":6323:6324   */\n      dup1\n        /* \"#utility.yul\":6316:6328   */\n      revert\n        /* \"#utility.yul\":6259:6330   */\n    tag_414:\n        /* \"#utility.yul\":6198:6336   */\n      pop\n      jump\t// out\n        /* \"#utility.yul\":6342:6497   */\n    tag_322:\n        /* \"#utility.yul\":6396:6401   */\n      0x00\n        /* \"#utility.yul\":6434:6440   */\n      dup2\n        /* \"#utility.yul\":6421:6441   */\n      calldataload\n        /* \"#utility.yul\":6412:6441   */\n      swap1\n      pop\n        /* \"#utility.yul\":6450:6491   */\n      tag_416\n        /* \"#utility.yul\":6485:6490   */\n      dup2\n        /* \"#utility.yul\":6450:6491   */\n      tag_321\n      jump\t// in\n    tag_416:\n        /* \"#utility.yul\":6342:6497   */\n      swap3\n      swap2\n      pop\n      pop\n      jump\t// out\n        /* \"#utility.yul\":6503:6848   */\n    tag_109:\n        /* \"#utility.yul\":6570:6576   */\n      0x00\n        /* \"#utility.yul\":6619:6621   */\n      0x20\n        /* \"#utility.yul\":6607:6616   */\n      dup3\n        /* \"#utility.yul\":6598:6605   */\n      dup5\n        /* \"#utility.yul\":6594:6617   */\n      sub\n        /* \"#utility.yul\":6590:6622   */\n      slt\n        /* \"#utility.yul\":6587:6706   */\n      iszero\n      tag_418\n      jumpi\n        /* \"#utility.yul\":6625:6704   */\n      tag_419\n      tag_305\n      jump\t// in\n    tag_419:\n        /* \"#utility.yul\":6587:6706   */\n    tag_418:\n        /* \"#utility.yul\":6745:6746   */\n      0x00\n        /* \"#utility.yul\":6770:6831   */\n      tag_420\n        /* \"#utility.yul\":6823:6830   */\n      dup5\n        /* \"#utility.yul\":6814:6820   */\n      dup3\n        /* \"#utility.yul\":6803:6812   */\n      dup6\n        /* \"#utility.yul\":6799:6821   */\n      add\n        /* \"#utility.yul\":6770:6831   */\n      tag_322\n      jump\t// in\n    tag_420:\n        /* \"#utility.yul\":6760:6831   */\n      swap2\n      pop\n        /* \"#utility.yul\":6716:6841   */\n      pop\n        /* \"#utility.yul\":6503:6848   */\n      swap3\n      swap2\n      pop\n      pop\n      jump\t// out\n        /* \"#utility.yul\":6854:6996   */\n    tag_323:\n        /* \"#utility.yul\":6957:6989   */\n      tag_422\n        /* \"#utility.yul\":6983:6988   */\n      dup2\n        /* \"#utility.yul\":6957:6989   */\n      tag_320\n      jump\t// in\n    tag_422:\n        /* \"#utility.yul\":6952:6955   */\n      dup3\n        /* \"#utility.yul\":6945:6990   */\n      mstore\n        /* \"#utility.yul\":6854:6996   */\n      pop\n      pop\n      jump\t// out\n        /* \"#utility.yul\":7002:7256   */\n    tag_144:\n        /* \"#utility.yul\":7111:7115   */\n      0x00\n        /* \"#utility.yul\":7149:7151   */\n      0x20\n        /* \"#utility.yul\":7138:7147   */\n      dup3\n        /* \"#utility.yul\":7134:7152   */\n      add\n        /* \"#utility.yul\":7126:7152   */\n      swap1\n      pop\n        /* \"#utility.yul\":7162:7249   */\n      tag_424\n        /* \"#utility.yul\":7246:7247   */\n      0x00\n        /* \"#utility.yul\":7235:7244   */\n      dup4\n        /* \"#utility.yul\":7231:7248   */\n      add\n        /* \"#utility.yul\":7222:7228   */\n      dup5\n        /* \"#utility.yul\":7162:7249   */\n      tag_323\n      jump\t// in\n    tag_424:\n        /* \"#utility.yul\":7002:7256   */\n      swap3\n      swap2\n      pop\n      pop\n      jump\t// out\n        /* \"#utility.yul\":7262:7736   */\n    tag_148:\n        /* \"#utility.yul\":7330:7336   */\n      0x00\n        /* \"#utility.yul\":7338:7344   */\n      dup1\n        /* \"#utility.yul\":7387:7389   */\n      0x40\n        /* \"#utility.yul\":7375:7384   */\n      dup4\n        /* \"#utility.yul\":7366:7373   */\n      dup6\n        /* \"#utility.yul\":7362:7385   */\n      sub\n        /* \"#utility.yul\":7358:7390   */\n      slt\n        /* \"#utility.yul\":7355:7474   */\n      iszero\n      tag_426\n      jumpi\n        /* \"#utility.yul\":7393:7472   */\n      tag_427\n      tag_305\n      jump\t// in\n    tag_427:\n        /* \"#utility.yul\":7355:7474   */\n    tag_426:\n        /* \"#utility.yul\":7513:7514   */\n      0x00\n        /* \"#utility.yul\":7538:7591   */\n      tag_428\n        /* \"#utility.yul\":7583:7590   */\n      dup6\n        /* \"#utility.yul\":7574:7580   */\n      dup3\n        /* \"#utility.yul\":7563:7572   */\n      dup7\n        /* \"#utility.yul\":7559:7581   */\n      add\n        /* \"#utility.yul\":7538:7591   */\n      tag_310\n      jump\t// in\n    tag_428:\n        /* \"#utility.yul\":7528:7591   */\n      swap3\n      pop\n        /* \"#utility.yul\":7484:7601   */\n      pop\n        /* \"#utility.yul\":7640:7642   */\n      0x20\n        /* \"#utility.yul\":7666:7719   */\n      tag_429\n        /* \"#utility.yul\":7711:7718   */\n      dup6\n        /* \"#utility.yul\":7702:7708   */\n      dup3\n        /* \"#utility.yul\":7691:7700   */\n      dup7\n        /* \"#utility.yul\":7687:7709   */\n      add\n        /* \"#utility.yul\":7666:7719   */\n      tag_310\n      jump\t// in\n    tag_429:\n        /* \"#utility.yul\":7656:7719   */\n      swap2\n      pop\n        /* \"#utility.yul\":7611:7729   */\n      pop\n        /* \"#utility.yul\":7262:7736   */\n      swap3\n      pop\n      swap3\n      swap1\n      pop\n      jump\t// out\n        /* \"#utility.yul\":7742:7903   */\n    tag_324:\n        /* \"#utility.yul\":7882:7895   */\n      0x74657374206c6f672e2e2e000000000000000000000000000000000000000000\n        /* \"#utility.yul\":7878:7879   */\n      0x00\n        /* \"#utility.yul\":7870:7876   */\n      dup3\n        /* \"#utility.yul\":7866:7880   */\n      add\n        /* \"#utility.yul\":7859:7896   */\n      mstore\n        /* \"#utility.yul\":7742:7903   */\n      pop\n      jump\t// out\n        /* \"#utility.yul\":7909:8275   */\n    tag_325:\n        /* \"#utility.yul\":8051:8054   */\n      0x00\n        /* \"#utility.yul\":8072:8139   */\n      tag_432\n        /* \"#utility.yul\":8136:8138   */\n      0x0b\n        /* \"#utility.yul\":8131:8134   */\n      dup4\n        /* \"#utility.yul\":8072:8139   */\n      tag_300\n      jump\t// in\n    tag_432:\n        /* \"#utility.yul\":8065:8139   */\n      swap2\n      pop\n        /* \"#utility.yul\":8148:8241   */\n      tag_433\n        /* \"#utility.yul\":8237:8240   */\n      dup3\n        /* \"#utility.yul\":8148:8241   */\n      tag_324\n      jump\t// in\n    tag_433:\n        /* \"#utility.yul\":8266:8268   */\n      0x20\n        /* \"#utility.yul\":8261:8264   */\n      dup3\n        /* \"#utility.yul\":8257:8269   */\n      add\n        /* \"#utility.yul\":8250:8269   */\n      swap1\n      pop\n        /* \"#utility.yul\":7909:8275   */\n      swap2\n      swap1\n      pop\n      jump\t// out\n        /* \"#utility.yul\":8281:8810   */\n    tag_163:\n        /* \"#utility.yul\":8475:8479   */\n      0x00\n        /* \"#utility.yul\":8513:8515   */\n      0x40\n        /* \"#utility.yul\":8502:8511   */\n      dup3\n        /* \"#utility.yul\":8498:8516   */\n      add\n        /* \"#utility.yul\":8490:8516   */\n      swap1\n      pop\n        /* \"#utility.yul\":8526:8597   */\n      tag_435\n        /* \"#utility.yul\":8594:8595   */\n      0x00\n        /* \"#utility.yul\":8583:8592   */\n      dup4\n        /* \"#utility.yul\":8579:8596   */\n      add\n        /* \"#utility.yul\":8570:8576   */\n      dup5\n        /* \"#utility.yul\":8526:8597   */\n      tag_319\n      jump\t// in\n    tag_435:\n        /* \"#utility.yul\":8644:8653   */\n      dup2\n        /* \"#utility.yul\":8638:8642   */\n      dup2\n        /* \"#utility.yul\":8634:8654   */\n      sub\n        /* \"#utility.yul\":8629:8631   */\n      0x20\n        /* \"#utility.yul\":8618:8627   */\n      dup4\n        /* \"#utility.yul\":8614:8632   */\n      add\n        /* \"#utility.yul\":8607:8655   */\n      mstore\n        /* \"#utility.yul\":8672:8803   */\n      tag_436\n        /* \"#utility.yul\":8798:8802   */\n      dup2\n        /* \"#utility.yul\":8672:8803   */\n      tag_325\n      jump\t// in\n    tag_436:\n        /* \"#utility.yul\":8664:8803   */\n      swap1\n      pop\n        /* \"#utility.yul\":8281:8810   */\n      swap3\n      swap2\n      pop\n      pop\n      jump\t// out\n        /* \"#utility.yul\":8816:8978   */\n    tag_326:\n        /* \"#utility.yul\":8956:8970   */\n      0x6d7573742072756e6e696e670000000000000000000000000000000000000000\n        /* \"#utility.yul\":8952:8953   */\n      0x00\n        /* \"#utility.yul\":8944:8950   */\n      dup3\n        /* \"#utility.yul\":8940:8954   */\n      add\n        /* \"#utility.yul\":8933:8971   */\n      mstore\n        /* \"#utility.yul\":8816:8978   */\n      pop\n      jump\t// out\n        /* \"#utility.yul\":8984:9350   */\n    tag_327:\n        /* \"#utility.yul\":9126:9129   */\n      0x00\n        /* \"#utility.yul\":9147:9214   */\n      tag_439\n        /* \"#utility.yul\":9211:9213   */\n      0x0c\n        /* \"#utility.yul\":9206:9209   */\n      dup4\n        /* \"#utility.yul\":9147:9214   */\n      tag_300\n      jump\t// in\n    tag_439:\n        /* \"#utility.yul\":9140:9214   */\n      swap2\n      pop\n        /* \"#utility.yul\":9223:9316   */\n      tag_440\n        /* \"#utility.yul\":9312:9315   */\n      dup3\n        /* \"#utility.yul\":9223:9316   */\n      tag_326\n      jump\t// in\n    tag_440:\n        /* \"#utility.yul\":9341:9343   */\n      0x20\n        /* \"#utility.yul\":9336:9339   */\n      dup3\n        /* \"#utility.yul\":9332:9344   */\n      add\n        /* \"#utility.yul\":9325:9344   */\n      swap1\n      pop\n        /* \"#utility.yul\":8984:9350   */\n      swap2\n      swap1\n      pop\n      jump\t// out\n        /* \"#utility.yul\":9356:9775   */\n    tag_174:\n        /* \"#utility.yul\":9522:9526   */\n      0x00\n        /* \"#utility.yul\":9560:9562   */\n      0x20\n        /* \"#utility.yul\":9549:9558   */\n      dup3\n        /* \"#utility.yul\":9545:9563   */\n      add\n        /* \"#utility.yul\":9537:9563   */\n      swap1\n      pop\n        /* \"#utility.yul\":9609:9618   */\n      dup2\n        /* \"#utility.yul\":9603:9607   */\n      dup2\n        /* \"#utility.yul\":9599:9619   */\n      sub\n        /* \"#utility.yul\":9595:9596   */\n      0x00\n        /* \"#utility.yul\":9584:9593   */\n      dup4\n        /* \"#utility.yul\":9580:9597   */\n      add\n        /* \"#utility.yul\":9573:9620   */\n      mstore\n        /* \"#utility.yul\":9637:9768   */\n      tag_442\n        /* \"#utility.yul\":9763:9767   */\n      dup2\n        /* \"#utility.yul\":9637:9768   */\n      tag_327\n      jump\t// in\n    tag_442:\n        /* \"#utility.yul\":9629:9768   */\n      swap1\n      pop\n        /* \"#utility.yul\":9356:9775   */\n      swap2\n      swap1\n      pop\n      jump\t// out\n        /* \"#utility.yul\":9781:9953   */\n    tag_328:\n        /* \"#utility.yul\":9921:9945   */\n      0x696e766573742076616c7565206973206e6f74206f6b00000000000000000000\n        /* \"#utility.yul\":9917:9918   */\n      0x00\n        /* \"#utility.yul\":9909:9915   */\n      dup3\n        /* \"#utility.yul\":9905:9919   */\n      add\n        /* \"#utility.yul\":9898:9946   */\n      mstore\n        /* \"#utility.yul\":9781:9953   */\n      pop\n      jump\t// out\n        /* \"#utility.yul\":9959:10325   */\n    tag_329:\n        /* \"#utility.yul\":10101:10104   */\n      0x00\n        /* \"#utility.yul\":10122:10189   */\n      tag_445\n        /* \"#utility.yul\":10186:10188   */\n      0x16\n        /* \"#utility.yul\":10181:10184   */\n      dup4\n        /* \"#utility.yul\":10122:10189   */\n      tag_300\n      jump\t// in\n    tag_445:\n        /* \"#utility.yul\":10115:10189   */\n      swap2\n      pop\n        /* \"#utility.yul\":10198:10291   */\n      tag_446\n        /* \"#utility.yul\":10287:10290   */\n      dup3\n        /* \"#utility.yul\":10198:10291   */\n      tag_328\n      jump\t// in\n    tag_446:\n        /* \"#utility.yul\":10316:10318   */\n      0x20\n        /* \"#utility.yul\":10311:10314   */\n      dup3\n        /* \"#utility.yul\":10307:10319   */\n      add\n        /* \"#utility.yul\":10300:10319   */\n      swap1\n      pop\n        /* \"#utility.yul\":9959:10325   */\n      swap2\n      swap1\n      pop\n      jump\t// out\n        /* \"#utility.yul\":10331:10750   */\n    tag_178:\n        /* \"#utility.yul\":10497:10501   */\n      0x00\n        /* \"#utility.yul\":10535:10537   */\n      0x20\n        /* \"#utility.yul\":10524:10533   */\n      dup3\n        /* \"#utility.yul\":10520:10538   */\n      add\n        /* \"#utility.yul\":10512:10538   */\n      swap1\n      pop\n        /* \"#utility.yul\":10584:10593   */\n      dup2\n        /* \"#utility.yul\":10578:10582   */\n      dup2\n        /* \"#utility.yul\":10574:10594   */\n      sub\n        /* \"#utility.yul\":10570:10571   */\n      0x00\n        /* \"#utility.yul\":10559:10568   */\n      dup4\n        /* \"#utility.yul\":10555:10572   */\n      add\n        /* \"#utility.yul\":10548:10595   */\n      mstore\n        /* \"#utility.yul\":10612:10743   */\n      tag_448\n        /* \"#utility.yul\":10738:10742   */\n      dup2\n        /* \"#utility.yul\":10612:10743   */\n      tag_329\n      jump\t// in\n    tag_448:\n        /* \"#utility.yul\":10604:10743   */\n      swap1\n      pop\n        /* \"#utility.yul\":10331:10750   */\n      swap2\n      swap1\n      pop\n      jump\t// out\n        /* \"#utility.yul\":10756:10936   */\n    tag_330:\n        /* \"#utility.yul\":10804:10881   */\n      0x4e487b7100000000000000000000000000000000000000000000000000000000\n        /* \"#utility.yul\":10801:10802   */\n      0x00\n        /* \"#utility.yul\":10794:10882   */\n      mstore\n        /* \"#utility.yul\":10901:10905   */\n      0x11\n        /* \"#utility.yul\":10898:10899   */\n      0x04\n        /* \"#utility.yul\":10891:10906   */\n      mstore\n        /* \"#utility.yul\":10925:10929   */\n      0x24\n        /* \"#utility.yul\":10922:10923   */\n      0x00\n        /* \"#utility.yul\":10915:10930   */\n      revert\n        /* \"#utility.yul\":10942:11133   */\n    tag_180:\n        /* \"#utility.yul\":10982:10985   */\n      0x00\n        /* \"#utility.yul\":11001:11021   */\n      tag_451\n        /* \"#utility.yul\":11019:11020   */\n      dup3\n        /* \"#utility.yul\":11001:11021   */\n      tag_297\n      jump\t// in\n    tag_451:\n        /* \"#utility.yul\":10996:11021   */\n      swap2\n      pop\n        /* \"#utility.yul\":11035:11055   */\n      tag_452\n        /* \"#utility.yul\":11053:11054   */\n      dup4\n        /* \"#utility.yul\":11035:11055   */\n      tag_297\n      jump\t// in\n    tag_452:\n        /* \"#utility.yul\":11030:11055   */\n      swap3\n      pop\n        /* \"#utility.yul\":11078:11079   */\n      dup3\n        /* \"#utility.yul\":11075:11076   */\n      dup3\n        /* \"#utility.yul\":11071:11080   */\n      add\n        /* \"#utility.yul\":11064:11080   */\n      swap1\n      pop\n        /* \"#utility.yul\":11099:11102   */\n      dup1\n        /* \"#utility.yul\":11096:11097   */\n      dup3\n        /* \"#utility.yul\":11093:11103   */\n      gt\n        /* \"#utility.yul\":11090:11126   */\n      iszero\n      tag_453\n      jumpi\n        /* \"#utility.yul\":11106:11124   */\n      tag_454\n      tag_330\n      jump\t// in\n    tag_454:\n        /* \"#utility.yul\":11090:11126   */\n    tag_453:\n        /* \"#utility.yul\":10942:11133   */\n      swap3\n      swap2\n      pop\n      pop\n      jump\t// out\n        /* \"#utility.yul\":11139:11311   */\n    tag_331:\n        /* \"#utility.yul\":11279:11303   */\n      0x726169736564416d6f756e74206973206e6f74206f6b00000000000000000000\n        /* \"#utility.yul\":11275:11276   */\n      0x00\n        /* \"#utility.yul\":11267:11273   */\n      dup3\n        /* \"#utility.yul\":11263:11277   */\n      add\n        /* \"#utility.yul\":11256:11304   */\n      mstore\n        /* \"#utility.yul\":11139:11311   */\n      pop\n      jump\t// out\n        /* \"#utility.yul\":11317:11683   */\n    tag_332:\n        /* \"#utility.yul\":11459:11462   */\n      0x00\n        /* \"#utility.yul\":11480:11547   */\n      tag_457\n        /* \"#utility.yul\":11544:11546   */\n      0x16\n        /* \"#utility.yul\":11539:11542   */\n      dup4\n        /* \"#utility.yul\":11480:11547   */\n      tag_300\n      jump\t// in\n    tag_457:\n        /* \"#utility.yul\":11473:11547   */\n      swap2\n      pop\n        /* \"#utility.yul\":11556:11649   */\n      tag_458\n        /* \"#utility.yul\":11645:11648   */\n      dup3\n        /* \"#utility.yul\":11556:11649   */\n      tag_331\n      jump\t// in\n    tag_458:\n        /* \"#utility.yul\":11674:11676   */\n      0x20\n        /* \"#utility.yul\":11669:11672   */\n      dup3\n        /* \"#utility.yul\":11665:11677   */\n      add\n        /* \"#utility.yul\":11658:11677   */\n      swap1\n      pop\n        /* \"#utility.yul\":11317:11683   */\n      swap2\n      swap1\n      pop\n      jump\t// out\n        /* \"#utility.yul\":11689:12108   */\n    tag_183:\n        /* \"#utility.yul\":11855:11859   */\n      0x00\n        /* \"#utility.yul\":11893:11895   */\n      0x20\n        /* \"#utility.yul\":11882:11891   */\n      dup3\n        /* \"#utility.yul\":11878:11896   */\n      add\n        /* \"#utility.yul\":11870:11896   */\n      swap1\n      pop\n        /* \"#utility.yul\":11942:11951   */\n      dup2\n        /* \"#utility.yul\":11936:11940   */\n      dup2\n        /* \"#utility.yul\":11932:11952   */\n      sub\n        /* \"#utility.yul\":11928:11929   */\n      0x00\n        /* \"#utility.yul\":11917:11926   */\n      dup4\n        /* \"#utility.yul\":11913:11930   */\n      add\n        /* \"#utility.yul\":11906:11953   */\n      mstore\n        /* \"#utility.yul\":11970:12101   */\n      tag_460\n        /* \"#utility.yul\":12096:12100   */\n      dup2\n        /* \"#utility.yul\":11970:12101   */\n      tag_332\n      jump\t// in\n    tag_460:\n        /* \"#utility.yul\":11962:12101   */\n      swap1\n      pop\n        /* \"#utility.yul\":11689:12108   */\n      swap2\n      swap1\n      pop\n      jump\t// out\n        /* \"#utility.yul\":12114:12294   */\n    tag_263:\n        /* \"#utility.yul\":12162:12239   */\n      0x4e487b7100000000000000000000000000000000000000000000000000000000\n        /* \"#utility.yul\":12159:12160   */\n      0x00\n        /* \"#utility.yul\":12152:12240   */\n      mstore\n        /* \"#utility.yul\":12259:12263   */\n      0x12\n        /* \"#utility.yul\":12256:12257   */\n      0x04\n        /* \"#utility.yul\":12249:12264   */\n      mstore\n        /* \"#utility.yul\":12283:12287   */\n      0x24\n        /* \"#utility.yul\":12280:12281   */\n      0x00\n        /* \"#utility.yul\":12273:12288   */\n      revert\n        /* \"#utility.yul\":12300:12485   */\n    tag_185:\n        /* \"#utility.yul\":12340:12341   */\n      0x00\n        /* \"#utility.yul\":12357:12377   */\n      tag_463\n        /* \"#utility.yul\":12375:12376   */\n      dup3\n        /* \"#utility.yul\":12357:12377   */\n      tag_297\n      jump\t// in\n    tag_463:\n        /* \"#utility.yul\":12352:12377   */\n      swap2\n      pop\n        /* \"#utility.yul\":12391:12411   */\n      tag_464\n        /* \"#utility.yul\":12409:12410   */\n      dup4\n        /* \"#utility.yul\":12391:12411   */\n      tag_297\n      jump\t// in\n    tag_464:\n        /* \"#utility.yul\":12386:12411   */\n      swap3\n      pop\n        /* \"#utility.yul\":12430:12431   */\n      dup3\n        /* \"#utility.yul\":12420:12455   */\n      tag_465\n      jumpi\n        /* \"#utility.yul\":12435:12453   */\n      tag_466\n      tag_263\n      jump\t// in\n    tag_466:\n        /* \"#utility.yul\":12420:12455   */\n    tag_465:\n        /* \"#utility.yul\":12477:12478   */\n      dup3\n        /* \"#utility.yul\":12474:12475   */\n      dup3\n        /* \"#utility.yul\":12470:12479   */\n      div\n        /* \"#utility.yul\":12465:12479   */\n      swap1\n      pop\n        /* \"#utility.yul\":12300:12485   */\n      swap3\n      swap2\n      pop\n      pop\n      jump\t// out\n        /* \"#utility.yul\":12491:12639   */\n    tag_333:\n        /* \"#utility.yul\":12593:12604   */\n      0x00\n        /* \"#utility.yul\":12630:12633   */\n      dup2\n        /* \"#utility.yul\":12615:12633   */\n      swap1\n      pop\n        /* \"#utility.yul\":12491:12639   */\n      swap3\n      swap2\n      pop\n      pop\n      jump\t// out\n        /* \"#utility.yul\":12645:12804   */\n    tag_334:\n        /* \"#utility.yul\":12785:12796   */\n      0x746f6b656e732e2e2e0000000000000000000000000000000000000000000000\n        /* \"#utility.yul\":12781:12782   */\n      0x00\n        /* \"#utility.yul\":12773:12779   */\n      dup3\n        /* \"#utility.yul\":12769:12783   */\n      add\n        /* \"#utility.yul\":12762:12797   */\n      mstore\n        /* \"#utility.yul\":12645:12804   */\n      pop\n      jump\t// out\n        /* \"#utility.yul\":12810:13210   */\n    tag_335:\n        /* \"#utility.yul\":12970:12973   */\n      0x00\n        /* \"#utility.yul\":12991:13075   */\n      tag_470\n        /* \"#utility.yul\":13073:13074   */\n      0x09\n        /* \"#utility.yul\":13068:13071   */\n      dup4\n        /* \"#utility.yul\":12991:13075   */\n      tag_333\n      jump\t// in\n    tag_470:\n        /* \"#utility.yul\":12984:13075   */\n      swap2\n      pop\n        /* \"#utility.yul\":13084:13177   */\n      tag_471\n        /* \"#utility.yul\":13173:13176   */\n      dup3\n        /* \"#utility.yul\":13084:13177   */\n      tag_334\n      jump\t// in\n    tag_471:\n        /* \"#utility.yul\":13202:13203   */\n      0x09\n        /* \"#utility.yul\":13197:13200   */\n      dup3\n        /* \"#utility.yul\":13193:13204   */\n      add\n        /* \"#utility.yul\":13186:13204   */\n      swap1\n      pop\n        /* \"#utility.yul\":12810:13210   */\n      swap2\n      swap1\n      pop\n      jump\t// out\n        /* \"#utility.yul\":13216:13606   */\n    tag_336:\n        /* \"#utility.yul\":13322:13325   */\n      0x00\n        /* \"#utility.yul\":13350:13389   */\n      tag_473\n        /* \"#utility.yul\":13383:13388   */\n      dup3\n        /* \"#utility.yul\":13350:13389   */\n      tag_299\n      jump\t// in\n    tag_473:\n        /* \"#utility.yul\":13405:13494   */\n      tag_474\n        /* \"#utility.yul\":13487:13493   */\n      dup2\n        /* \"#utility.yul\":13482:13485   */\n      dup6\n        /* \"#utility.yul\":13405:13494   */\n      tag_333\n      jump\t// in\n    tag_474:\n        /* \"#utility.yul\":13398:13494   */\n      swap4\n      pop\n        /* \"#utility.yul\":13503:13568   */\n      tag_475\n        /* \"#utility.yul\":13561:13567   */\n      dup2\n        /* \"#utility.yul\":13556:13559   */\n      dup6\n        /* \"#utility.yul\":13549:13553   */\n      0x20\n        /* \"#utility.yul\":13542:13547   */\n      dup7\n        /* \"#utility.yul\":13538:13554   */\n      add\n        /* \"#utility.yul\":13503:13568   */\n      tag_301\n      jump\t// in\n    tag_475:\n        /* \"#utility.yul\":13593:13599   */\n      dup1\n        /* \"#utility.yul\":13588:13591   */\n      dup5\n        /* \"#utility.yul\":13584:13600   */\n      add\n        /* \"#utility.yul\":13577:13600   */\n      swap2\n      pop\n        /* \"#utility.yul\":13326:13606   */\n      pop\n        /* \"#utility.yul\":13216:13606   */\n      swap3\n      swap2\n      pop\n      pop\n      jump\t// out\n        /* \"#utility.yul\":13612:14153   */\n    tag_189:\n        /* \"#utility.yul\":13845:13848   */\n      0x00\n        /* \"#utility.yul\":13867:14015   */\n      tag_477\n        /* \"#utility.yul\":14011:14014   */\n      dup3\n        /* \"#utility.yul\":13867:14015   */\n      tag_335\n      jump\t// in\n    tag_477:\n        /* \"#utility.yul\":13860:14015   */\n      swap2\n      pop\n        /* \"#utility.yul\":14032:14127   */\n      tag_478\n        /* \"#utility.yul\":14123:14126   */\n      dup3\n        /* \"#utility.yul\":14114:14120   */\n      dup5\n        /* \"#utility.yul\":14032:14127   */\n      tag_336\n      jump\t// in\n    tag_478:\n        /* \"#utility.yul\":14025:14127   */\n      swap2\n      pop\n        /* \"#utility.yul\":14144:14147   */\n      dup2\n        /* \"#utility.yul\":14137:14147   */\n      swap1\n      pop\n        /* \"#utility.yul\":13612:14153   */\n      swap3\n      swap2\n      pop\n      pop\n      jump\t// out\n        /* \"#utility.yul\":14159:14582   */\n    tag_191:\n        /* \"#utility.yul\":14300:14304   */\n      0x00\n        /* \"#utility.yul\":14338:14340   */\n      0x40\n        /* \"#utility.yul\":14327:14336   */\n      dup3\n        /* \"#utility.yul\":14323:14341   */\n      add\n        /* \"#utility.yul\":14315:14341   */\n      swap1\n      pop\n        /* \"#utility.yul\":14351:14422   */\n      tag_480\n        /* \"#utility.yul\":14419:14420   */\n      0x00\n        /* \"#utility.yul\":14408:14417   */\n      dup4\n        /* \"#utility.yul\":14404:14421   */\n      add\n        /* \"#utility.yul\":14395:14401   */\n      dup6\n        /* \"#utility.yul\":14351:14422   */\n      tag_319\n      jump\t// in\n    tag_480:\n        /* \"#utility.yul\":14469:14478   */\n      dup2\n        /* \"#utility.yul\":14463:14467   */\n      dup2\n        /* \"#utility.yul\":14459:14479   */\n      sub\n        /* \"#utility.yul\":14454:14456   */\n      0x20\n        /* \"#utility.yul\":14443:14452   */\n      dup4\n        /* \"#utility.yul\":14439:14457   */\n      add\n        /* \"#utility.yul\":14432:14480   */\n      mstore\n        /* \"#utility.yul\":14497:14575   */\n      tag_481\n        /* \"#utility.yul\":14570:14574   */\n      dup2\n        /* \"#utility.yul\":14561:14567   */\n      dup5\n        /* \"#utility.yul\":14497:14575   */\n      tag_303\n      jump\t// in\n    tag_481:\n        /* \"#utility.yul\":14489:14575   */\n      swap1\n      pop\n        /* \"#utility.yul\":14159:14582   */\n      swap4\n      swap3\n      pop\n      pop\n      pop\n      jump\t// out\n        /* \"#utility.yul\":14588:14782   */\n    tag_194:\n        /* \"#utility.yul\":14628:14632   */\n      0x00\n        /* \"#utility.yul\":14648:14668   */\n      tag_483\n        /* \"#utility.yul\":14666:14667   */\n      dup3\n        /* \"#utility.yul\":14648:14668   */\n      tag_297\n      jump\t// in\n    tag_483:\n        /* \"#utility.yul\":14643:14668   */\n      swap2\n      pop\n        /* \"#utility.yul\":14682:14702   */\n      tag_484\n        /* \"#utility.yul\":14700:14701   */\n      dup4\n        /* \"#utility.yul\":14682:14702   */\n      tag_297\n      jump\t// in\n    tag_484:\n        /* \"#utility.yul\":14677:14702   */\n      swap3\n      pop\n        /* \"#utility.yul\":14726:14727   */\n      dup3\n        /* \"#utility.yul\":14723:14724   */\n      dup3\n        /* \"#utility.yul\":14719:14728   */\n      sub\n        /* \"#utility.yul\":14711:14728   */\n      swap1\n      pop\n        /* \"#utility.yul\":14750:14751   */\n      dup2\n        /* \"#utility.yul\":14744:14748   */\n      dup2\n        /* \"#utility.yul\":14741:14752   */\n      gt\n        /* \"#utility.yul\":14738:14775   */\n      iszero\n      tag_485\n      jumpi\n        /* \"#utility.yul\":14755:14773   */\n      tag_486\n      tag_330\n      jump\t// in\n    tag_486:\n        /* \"#utility.yul\":14738:14775   */\n    tag_485:\n        /* \"#utility.yul\":14588:14782   */\n      swap3\n      swap2\n      pop\n      pop\n      jump\t// out\n        /* \"#utility.yul\":14788:15230   */\n    tag_198:\n        /* \"#utility.yul\":14937:14941   */\n      0x00\n        /* \"#utility.yul\":14975:14977   */\n      0x60\n        /* \"#utility.yul\":14964:14973   */\n      dup3\n        /* \"#utility.yul\":14960:14978   */\n      add\n        /* \"#utility.yul\":14952:14978   */\n      swap1\n      pop\n        /* \"#utility.yul\":14988:15059   */\n      tag_488\n        /* \"#utility.yul\":15056:15057   */\n      0x00\n        /* \"#utility.yul\":15045:15054   */\n      dup4\n        /* \"#utility.yul\":15041:15058   */\n      add\n        /* \"#utility.yul\":15032:15038   */\n      dup7\n        /* \"#utility.yul\":14988:15059   */\n      tag_319\n      jump\t// in\n    tag_488:\n        /* \"#utility.yul\":15069:15141   */\n      tag_489\n        /* \"#utility.yul\":15137:15139   */\n      0x20\n        /* \"#utility.yul\":15126:15135   */\n      dup4\n        /* \"#utility.yul\":15122:15140   */\n      add\n        /* \"#utility.yul\":15113:15119   */\n      dup6\n        /* \"#utility.yul\":15069:15141   */\n      tag_298\n      jump\t// in\n    tag_489:\n        /* \"#utility.yul\":15151:15223   */\n      tag_490\n        /* \"#utility.yul\":15219:15221   */\n      0x40\n        /* \"#utility.yul\":15208:15217   */\n      dup4\n        /* \"#utility.yul\":15204:15222   */\n      add\n        /* \"#utility.yul\":15195:15201   */\n      dup5\n        /* \"#utility.yul\":15151:15223   */\n      tag_298\n      jump\t// in\n    tag_490:\n        /* \"#utility.yul\":14788:15230   */\n      swap5\n      swap4\n      pop\n      pop\n      pop\n      pop\n      jump\t// out\n        /* \"#utility.yul\":15236:15416   */\n    tag_337:\n        /* \"#utility.yul\":15284:15361   */\n      0x4e487b7100000000000000000000000000000000000000000000000000000000\n        /* \"#utility.yul\":15281:15282   */\n      0x00\n        /* \"#utility.yul\":15274:15362   */\n      mstore\n        /* \"#utility.yul\":15381:15385   */\n      0x22\n        /* \"#utility.yul\":15378:15379   */\n      0x04\n        /* \"#utility.yul\":15371:15386   */\n      mstore\n        /* \"#utility.yul\":15405:15409   */\n      0x24\n        /* \"#utility.yul\":15402:15403   */\n      0x00\n        /* \"#utility.yul\":15395:15410   */\n      revert\n        /* \"#utility.yul\":15422:15742   */\n    tag_205:\n        /* \"#utility.yul\":15466:15472   */\n      0x00\n        /* \"#utility.yul\":15503:15504   */\n      0x02\n        /* \"#utility.yul\":15497:15501   */\n      dup3\n        /* \"#utility.yul\":15493:15505   */\n      div\n        /* \"#utility.yul\":15483:15505   */\n      swap1\n      pop\n        /* \"#utility.yul\":15550:15551   */\n      0x01\n        /* \"#utility.yul\":15544:15548   */\n      dup3\n        /* \"#utility.yul\":15540:15552   */\n      and\n        /* \"#utility.yul\":15571:15589   */\n      dup1\n        /* \"#utility.yul\":15561:15642   */\n      tag_493\n      jumpi\n        /* \"#utility.yul\":15627:15631   */\n      0x7f\n        /* \"#utility.yul\":15619:15625   */\n      dup3\n        /* \"#utility.yul\":15615:15632   */\n      and\n        /* \"#utility.yul\":15605:15632   */\n      swap2\n      pop\n        /* \"#utility.yul\":15561:15642   */\n    tag_493:\n        /* \"#utility.yul\":15689:15691   */\n      0x20\n        /* \"#utility.yul\":15681:15687   */\n      dup3\n        /* \"#utility.yul\":15678:15692   */\n      lt\n        /* \"#utility.yul\":15658:15676   */\n      dup2\n        /* \"#utility.yul\":15655:15693   */\n      sub\n        /* \"#utility.yul\":15652:15736   */\n      tag_494\n      jumpi\n        /* \"#utility.yul\":15708:15726   */\n      tag_495\n      tag_337\n      jump\t// in\n    tag_495:\n        /* \"#utility.yul\":15652:15736   */\n    tag_494:\n        /* \"#utility.yul\":15473:15742   */\n      pop\n        /* \"#utility.yul\":15422:15742   */\n      swap2\n      swap1\n      pop\n      jump\t// out\n        /* \"#utility.yul\":15748:15928   */\n    tag_257:\n        /* \"#utility.yul\":15796:15873   */\n      0x4e487b7100000000000000000000000000000000000000000000000000000000\n        /* \"#utility.yul\":15793:15794   */\n      0x00\n        /* \"#utility.yul\":15786:15874   */\n      mstore\n        /* \"#utility.yul\":15893:15897   */\n      0x41\n        /* \"#utility.yul\":15890:15891   */\n      0x04\n        /* \"#utility.yul\":15883:15898   */\n      mstore\n        /* \"#utility.yul\":15917:15921   */\n      0x24\n        /* \"#utility.yul\":15914:15915   */\n      0x00\n        /* \"#utility.yul\":15907:15922   */\n      revert\n\n    auxdata: 0xa26469706673582212205c08b2ea348a4722c186f398bacfe4cd6124fd0ff9d06e8619d1aec8d0768b9264736f6c63430008110033\n}\n",
				"bytecode": {
					"linkReferences": {},
					"object": "60806040526040518060400160405280600481526020017f6b68616e00000000000000000000000000000000000000000000000000000000815250600090816200004a91906200050c565b506040518060400160405280600481526020017f4352505400000000000000000000000000000000000000000000000000000000815250600190816200009191906200050c565b50600060025566038d7ea4c68000600955681043561a8829300000600a5542600c5562093a8042620000c4919062000622565b600d5562093a80600d54620000da919062000622565b600e55674563918244f40000600f5567016345785d8a00006010553480156200010257600080fd5b50604051620026e4380380620026e48339818101604052810190620001289190620006c7565b620f424060038190555033600460006101000a81548173ffffffffffffffffffffffffffffffffffffffff021916908373ffffffffffffffffffffffffffffffffffffffff16021790555060035460056000600460009054906101000a900473ffffffffffffffffffffffffffffffffffffffff1673ffffffffffffffffffffffffffffffffffffffff1673ffffffffffffffffffffffffffffffffffffffff1681526020019081526020016000208190555080600860006101000a81548173ffffffffffffffffffffffffffffffffffffffff021916908373ffffffffffffffffffffffffffffffffffffffff16021790555033600760006101000a81548173ffffffffffffffffffffffffffffffffffffffff021916908373ffffffffffffffffffffffffffffffffffffffff1602179055506000601160006101000a81548160ff02191690836003811115620002865762000285620006f9565b5b02179055505062000728565b600081519050919050565b7f4e487b7100000000000000000000000000000000000000000000000000000000600052604160045260246000fd5b7f4e487b7100000000000000000000000000000000000000000000000000000000600052602260045260246000fd5b600060028204905060018216806200031457607f821691505b6020821081036200032a5762000329620002cc565b5b50919050565b60008190508160005260206000209050919050565b60006020601f8301049050919050565b600082821b905092915050565b600060088302620003947fffffffffffffffffffffffffffffffffffffffffffffffffffffffffffffffff8262000355565b620003a0868362000355565b95508019841693508086168417925050509392505050565b6000819050919050565b6000819050919050565b6000620003ed620003e7620003e184620003b8565b620003c2565b620003b8565b9050919050565b6000819050919050565b6200040983620003cc565b620004216200041882620003f4565b84845462000362565b825550505050565b600090565b6200043862000429565b62000445818484620003fe565b505050565b5b818110156200046d57620004616000826200042e565b6001810190506200044b565b5050565b601f821115620004bc57620004868162000330565b620004918462000345565b81016020851015620004a1578190505b620004b9620004b08562000345565b8301826200044a565b50505b505050565b600082821c905092915050565b6000620004e160001984600802620004c1565b1980831691505092915050565b6000620004fc8383620004ce565b9150826002028217905092915050565b620005178262000292565b67ffffffffffffffff8111156200053357620005326200029d565b5b6200053f8254620002fb565b6200054c82828562000471565b600060209050601f8311600181146200058457600084156200056f578287015190505b6200057b8582620004ee565b865550620005eb565b601f198416620005948662000330565b60005b82811015620005be5784890151825560018201915060208501945060208101905062000597565b86831015620005de5784890151620005da601f891682620004ce565b8355505b6001600288020188555050505b505050505050565b7f4e487b7100000000000000000000000000000000000000000000000000000000600052601160045260246000fd5b60006200062f82620003b8565b91506200063c83620003b8565b9250828201905080821115620006575762000656620005f3565b5b92915050565b600080fd5b600073ffffffffffffffffffffffffffffffffffffffff82169050919050565b60006200068f8262000662565b9050919050565b620006a18162000682565b8114620006ad57600080fd5b50565b600081519050620006c18162000696565b92915050565b600060208284031215620006e057620006df6200065d565b5b6000620006f084828501620006b0565b91505092915050565b7f4e487b7100000000000000000000000000000000000000000000000000000000600052602160045260246000fd5b611fac80620007386000396000f3fe60806040526004361061019f5760003560e01c806370a08231116100ec578063c59ee1dc1161008a578063dd62ed3e11610064578063dd62ed3e146105c0578063e8b5e51f146105fd578063f851a4401461061b578063fb86a40414610646576101ae565b8063c59ee1dc1461053f578063cc9ba5831461056a578063d0e30db014610595576101ae565b806395d89b41116100c657806395d89b4114610481578063a9059cbb146104ac578063ab0bcc41146104e9578063c10b935814610514576101ae565b806370a08231146103f057806388b157541461042d5780638ac2c68014610456576101ae565b806327e235e31161015957806344df8e701161013357806344df8e701461035857806344f38756146103835780634d853ee5146103ae5780635ed7ca5b146103d9576101ae565b806327e235e3146102c5578063313ce56714610302578063378aa7011461032d576101ae565b80622e1316146101b3578063046f7da2146101de57806306fdde03146101f5578063095ea7b31461022057806318160ddd1461025d57806323b872dd14610288576101ae565b366101ae576101ac610671565b005b600080fd5b3480156101bf57600080fd5b506101c86109f6565b6040516101d5919061173e565b60405180910390f35b3480156101ea57600080fd5b506101f36109fc565b005b34801561020157600080fd5b5061020a610a83565b60405161021791906117e9565b60405180910390f35b34801561022c57600080fd5b506102476004803603810190610242919061189a565b610b11565b60405161025491906118f5565b60405180910390f35b34801561026957600080fd5b50610272610c5c565b60405161027f919061173e565b60405180910390f35b34801561029457600080fd5b506102af60048036038101906102aa9190611910565b610c62565b6040516102bc91906118f5565b60405180910390f35b3480156102d157600080fd5b506102ec60048036038101906102e79190611963565b610c89565b6040516102f9919061173e565b60405180910390f35b34801561030e57600080fd5b50610317610ca1565b604051610324919061173e565b60405180910390f35b34801561033957600080fd5b50610342610ca7565b60405161034f9190611a07565b60405180910390f35b34801561036457600080fd5b5061036d610d29565b60405161037a91906118f5565b60405180910390f35b34801561038f57600080fd5b50610398610dc4565b6040516103a59190611a07565b60405180910390f35b3480156103ba57600080fd5b506103c3610dd7565b6040516103d09190611a31565b60405180910390f35b3480156103e557600080fd5b506103ee610dfd565b005b3480156103fc57600080fd5b5061041760048036038101906104129190611963565b610e84565b604051610424919061173e565b60405180910390f35b34801561043957600080fd5b50610454600480360381019061044f9190611a8a565b610ecd565b005b34801561046257600080fd5b5061046b610f6b565b604051610478919061173e565b60405180910390f35b34801561048d57600080fd5b50610496610f71565b6040516104a391906117e9565b60405180910390f35b3480156104b857600080fd5b506104d360048036038101906104ce919061189a565b610fff565b6040516104e091906118f5565b60405180910390f35b3480156104f557600080fd5b506104fe611024565b60405161050b919061173e565b60405180910390f35b34801561052057600080fd5b5061052961102a565b604051610536919061173e565b60405180910390f35b34801561054b57600080fd5b50610554611030565b604051610561919061173e565b60405180910390f35b34801561057657600080fd5b5061057f611036565b60405161058c919061173e565b60405180910390f35b3480156105a157600080fd5b506105aa61103c565b6040516105b79190611ac6565b60405180910390f35b3480156105cc57600080fd5b506105e760048036038101906105e29190611ae1565b611062565b6040516105f4919061173e565b60405180910390f35b610605610671565b60405161061291906118f5565b60405180910390f35b34801561062757600080fd5b506106306110e9565b60405161063d9190611a31565b60405180910390f35b34801561065257600080fd5b5061065b61110f565b604051610668919061173e565b60405180910390f35b60007f402c0ae4ac814ba9769b30ff99c8b29efe6aae492a01f936eb0418573ff0923e336040516106a29190611b6d565b60405180910390a16106b2610ca7565b601160006101000a81548160ff021916908360038111156106d6576106d5611990565b5b0217905550600160038111156106ef576106ee611990565b5b601160009054906101000a900460ff16600381111561071157610710611990565b5b14610751576040517f08c379a000000000000000000000000000000000000000000000000000000000815260040161074890611be7565b60405180910390fd5b60105434101580156107655750600f543411155b6107a4576040517f08c379a000000000000000000000000000000000000000000000000000000000815260040161079b90611c53565b60405180910390fd5b34600b60008282546107b69190611ca2565b92505081905550600a54600b541115610804576040517f08c379a00000000000000000000000000000000000000000000000000000000081526004016107fb90611d22565b60405180910390fd5b6000600954346108149190611d71565b9050600061082182611115565b6040516020016108319190611e2a565b60405160208183030381529060405290507f402c0ae4ac814ba9769b30ff99c8b29efe6aae492a01f936eb0418573ff0923e3382604051610873929190611e4c565b60405180910390a181600560003373ffffffffffffffffffffffffffffffffffffffff1673ffffffffffffffffffffffffffffffffffffffff16815260200190815260200160002060008282546108ca9190611ca2565b925050819055508160056000600460009054906101000a900473ffffffffffffffffffffffffffffffffffffffff1673ffffffffffffffffffffffffffffffffffffffff1673ffffffffffffffffffffffffffffffffffffffff16815260200190815260200160002060008282546109429190611e7c565b92505081905550600860009054906101000a900473ffffffffffffffffffffffffffffffffffffffff1673ffffffffffffffffffffffffffffffffffffffff166108fc349081150290604051600060405180830381858888f193505050501580156109b1573d6000803e3d6000fd5b507f4ae4bd7655e0d350876a23cd90c4227b13db560e34435c6a488150a9c844bf5f3334846040516109e593929190611eb0565b60405180910390a160019250505090565b600f5481565b600760009054906101000a900473ffffffffffffffffffffffffffffffffffffffff1673ffffffffffffffffffffffffffffffffffffffff163373ffffffffffffffffffffffffffffffffffffffff1614610a5657600080fd5b6001601160006101000a81548160ff02191690836003811115610a7c57610a7b611990565b5b0217905550565b60008054610a9090611f16565b80601f0160208091040260200160405190810160405280929190818152602001828054610abc90611f16565b8015610b095780601f10610ade57610100808354040283529160200191610b09565b820191906000526020600020905b815481529060010190602001808311610aec57829003601f168201915b505050505081565b600081600560003373ffffffffffffffffffffffffffffffffffffffff1673ffffffffffffffffffffffffffffffffffffffff168152602001908152602001600020541015610b5f57600080fd5b60008211610b6c57600080fd5b81600660003373ffffffffffffffffffffffffffffffffffffffff1673ffffffffffffffffffffffffffffffffffffffff16815260200190815260200160002060008573ffffffffffffffffffffffffffffffffffffffff1673ffffffffffffffffffffffffffffffffffffffff168152602001908152602001600020819055508273ffffffffffffffffffffffffffffffffffffffff163373ffffffffffffffffffffffffffffffffffffffff167f8c5be1e5ebec7d5bd14f71427d1e84f3dd0314c0f7b2291e5b200ac8c7c3b92584604051610c4a919061173e565b60405180910390a36001905092915050565b60035481565b6000600e544211610c7257600080fd5b610c7d8484846111e3565b50600190509392505050565b60056020528060005260406000206000915090505481565b60025481565b6000600380811115610cbc57610cbb611990565b5b601160009054906101000a900460ff166003811115610cde57610cdd611990565b5b03610cec5760039050610d26565b600c54421015610cff5760009050610d26565b600c544210158015610d135750600d544211155b15610d215760019050610d26565b600290505b90565b60006002601160006101000a81548160ff02191690836003811115610d5157610d50611990565b5b0217905550600060056000600460009054906101000a900473ffffffffffffffffffffffffffffffffffffffff1673ffffffffffffffffffffffffffffffffffffffff1673ffffffffffffffffffffffffffffffffffffffff168152602001908152602001600020819055506001905090565b601160009054906101000a900460ff1681565b600460009054906101000a900473ffffffffffffffffffffffffffffffffffffffff1681565b600760009054906101000a900473ffffffffffffffffffffffffffffffffffffffff1673ffffffffffffffffffffffffffffffffffffffff163373ffffffffffffffffffffffffffffffffffffffff1614610e5757600080fd5b6003601160006101000a81548160ff02191690836003811115610e7d57610e7c611990565b5b0217905550565b6000600560008373ffffffffffffffffffffffffffffffffffffffff1673ffffffffffffffffffffffffffffffffffffffff168152602001908152602001600020549050919050565b600760009054906101000a900473ffffffffffffffffffffffffffffffffffffffff1673ffffffffffffffffffffffffffffffffffffffff163373ffffffffffffffffffffffffffffffffffffffff1614610f2757600080fd5b80600860006101000a81548173ffffffffffffffffffffffffffffffffffffffff021916908373ffffffffffffffffffffffffffffffffffffffff16021790555050565b60105481565b60018054610f7e90611f16565b80601f0160208091040260200160405190810160405280929190818152602001828054610faa90611f16565b8015610ff75780601f10610fcc57610100808354040283529160200191610ff7565b820191906000526020600020905b815481529060010190602001808311610fda57829003601f168201915b505050505081565b6000600e54421161100f57600080fd5b6110198383611469565b506001905092915050565b600c5481565b600d5481565b600b5481565b600e5481565b600860009054906101000a900473ffffffffffffffffffffffffffffffffffffffff1681565b6000600660008473ffffffffffffffffffffffffffffffffffffffff1673ffffffffffffffffffffffffffffffffffffffff16815260200190815260200160002060008373ffffffffffffffffffffffffffffffffffffffff1673ffffffffffffffffffffffffffffffffffffffff16815260200190815260200160002054905092915050565b600760009054906101000a900473ffffffffffffffffffffffffffffffffffffffff1681565b600a5481565b606060006001611124846115d2565b01905060008167ffffffffffffffff81111561114357611142611f47565b5b6040519080825280601f01601f1916602001820160405280156111755781602001600182028036833780820191505090505b509050600082602001820190505b6001156111d8578080600190039150507f3031323334353637383961626364656600000000000000000000000000000000600a86061a8153600a85816111cc576111cb611d42565b5b04945060008503611183575b819350505050919050565b600081600660008673ffffffffffffffffffffffffffffffffffffffff1673ffffffffffffffffffffffffffffffffffffffff16815260200190815260200160002060003373ffffffffffffffffffffffffffffffffffffffff1673ffffffffffffffffffffffffffffffffffffffff16815260200190815260200160002054101561126e57600080fd5b81600560008673ffffffffffffffffffffffffffffffffffffffff1673ffffffffffffffffffffffffffffffffffffffff1681526020019081526020016000205410156112ba57600080fd5b81600560008673ffffffffffffffffffffffffffffffffffffffff1673ffffffffffffffffffffffffffffffffffffffff16815260200190815260200160002060008282546113099190611e7c565b9250508190555081600560008573ffffffffffffffffffffffffffffffffffffffff1673ffffffffffffffffffffffffffffffffffffffff168152602001908152602001600020600082825461135f9190611ca2565b9250508190555081600660008673ffffffffffffffffffffffffffffffffffffffff1673ffffffffffffffffffffffffffffffffffffffff16815260200190815260200160002060003373ffffffffffffffffffffffffffffffffffffffff1673ffffffffffffffffffffffffffffffffffffffff16815260200190815260200160002060008282546113f29190611e7c565b925050819055508273ffffffffffffffffffffffffffffffffffffffff168473ffffffffffffffffffffffffffffffffffffffff167fddf252ad1be2c89b69c2b068fc378daa952ba7f163c4a11628f55a4df523b3ef84604051611456919061173e565b60405180910390a3600190509392505050565b600081600560003373ffffffffffffffffffffffffffffffffffffffff1673ffffffffffffffffffffffffffffffffffffffff1681526020019081526020016000205410156114b757600080fd5b81600560008573ffffffffffffffffffffffffffffffffffffffff1673ffffffffffffffffffffffffffffffffffffffff16815260200190815260200160002060008282546115069190611ca2565b9250508190555081600560003373ffffffffffffffffffffffffffffffffffffffff1673ffffffffffffffffffffffffffffffffffffffff168152602001908152602001600020600082825461155c9190611e7c565b925050819055508273ffffffffffffffffffffffffffffffffffffffff163373ffffffffffffffffffffffffffffffffffffffff167fddf252ad1be2c89b69c2b068fc378daa952ba7f163c4a11628f55a4df523b3ef846040516115c0919061173e565b60405180910390a36001905092915050565b600080600090507a184f03e93ff9f4daa797ed6e38ed64bf6a1f0100000000000000008310611630577a184f03e93ff9f4daa797ed6e38ed64bf6a1f010000000000000000838161162657611625611d42565b5b0492506040810190505b6d04ee2d6d415b85acef8100000000831061166d576d04ee2d6d415b85acef8100000000838161166357611662611d42565b5b0492506020810190505b662386f26fc10000831061169c57662386f26fc10000838161169257611691611d42565b5b0492506010810190505b6305f5e10083106116c5576305f5e10083816116bb576116ba611d42565b5b0492506008810190505b61271083106116ea5761271083816116e0576116df611d42565b5b0492506004810190505b6064831061170d576064838161170357611702611d42565b5b0492506002810190505b600a831061171c576001810190505b80915050919050565b6000819050919050565b61173881611725565b82525050565b6000602082019050611753600083018461172f565b92915050565b600081519050919050565b600082825260208201905092915050565b60005b83811015611793578082015181840152602081019050611778565b60008484015250505050565b6000601f19601f8301169050919050565b60006117bb82611759565b6117c58185611764565b93506117d5818560208601611775565b6117de8161179f565b840191505092915050565b6000602082019050818103600083015261180381846117b0565b905092915050565b600080fd5b600073ffffffffffffffffffffffffffffffffffffffff82169050919050565b600061183b82611810565b9050919050565b61184b81611830565b811461185657600080fd5b50565b60008135905061186881611842565b92915050565b61187781611725565b811461188257600080fd5b50565b6000813590506118948161186e565b92915050565b600080604083850312156118b1576118b061180b565b5b60006118bf85828601611859565b92505060206118d085828601611885565b9150509250929050565b60008115159050919050565b6118ef816118da565b82525050565b600060208201905061190a60008301846118e6565b92915050565b6000806000606084860312156119295761192861180b565b5b600061193786828701611859565b935050602061194886828701611859565b925050604061195986828701611885565b9150509250925092565b6000602082840312156119795761197861180b565b5b600061198784828501611859565b91505092915050565b7f4e487b7100000000000000000000000000000000000000000000000000000000600052602160045260246000fd5b600481106119d0576119cf611990565b5b50565b60008190506119e1826119bf565b919050565b60006119f1826119d3565b9050919050565b611a01816119e6565b82525050565b6000602082019050611a1c60008301846119f8565b92915050565b611a2b81611830565b82525050565b6000602082019050611a466000830184611a22565b92915050565b6000611a5782611810565b9050919050565b611a6781611a4c565b8114611a7257600080fd5b50565b600081359050611a8481611a5e565b92915050565b600060208284031215611aa057611a9f61180b565b5b6000611aae84828501611a75565b91505092915050565b611ac081611a4c565b82525050565b6000602082019050611adb6000830184611ab7565b92915050565b60008060408385031215611af857611af761180b565b5b6000611b0685828601611859565b9250506020611b1785828601611859565b9150509250929050565b7f74657374206c6f672e2e2e000000000000000000000000000000000000000000600082015250565b6000611b57600b83611764565b9150611b6282611b21565b602082019050919050565b6000604082019050611b826000830184611a22565b8181036020830152611b9381611b4a565b905092915050565b7f6d7573742072756e6e696e670000000000000000000000000000000000000000600082015250565b6000611bd1600c83611764565b9150611bdc82611b9b565b602082019050919050565b60006020820190508181036000830152611c0081611bc4565b9050919050565b7f696e766573742076616c7565206973206e6f74206f6b00000000000000000000600082015250565b6000611c3d601683611764565b9150611c4882611c07565b602082019050919050565b60006020820190508181036000830152611c6c81611c30565b9050919050565b7f4e487b7100000000000000000000000000000000000000000000000000000000600052601160045260246000fd5b6000611cad82611725565b9150611cb883611725565b9250828201905080821115611cd057611ccf611c73565b5b92915050565b7f726169736564416d6f756e74206973206e6f74206f6b00000000000000000000600082015250565b6000611d0c601683611764565b9150611d1782611cd6565b602082019050919050565b60006020820190508181036000830152611d3b81611cff565b9050919050565b7f4e487b7100000000000000000000000000000000000000000000000000000000600052601260045260246000fd5b6000611d7c82611725565b9150611d8783611725565b925082611d9757611d96611d42565b5b828204905092915050565b600081905092915050565b7f746f6b656e732e2e2e0000000000000000000000000000000000000000000000600082015250565b6000611de3600983611da2565b9150611dee82611dad565b600982019050919050565b6000611e0482611759565b611e0e8185611da2565b9350611e1e818560208601611775565b80840191505092915050565b6000611e3582611dd6565b9150611e418284611df9565b915081905092915050565b6000604082019050611e616000830185611a22565b8181036020830152611e7381846117b0565b90509392505050565b6000611e8782611725565b9150611e9283611725565b9250828203905081811115611eaa57611ea9611c73565b5b92915050565b6000606082019050611ec56000830186611a22565b611ed2602083018561172f565b611edf604083018461172f565b949350505050565b7f4e487b7100000000000000000000000000000000000000000000000000000000600052602260045260246000fd5b60006002820490506001821680611f2e57607f821691505b602082108103611f4157611f40611ee7565b5b50919050565b7f4e487b7100000000000000000000000000000000000000000000000000000000600052604160045260246000fdfea26469706673582212205c08b2ea348a4722c186f398bacfe4cd6124fd0ff9d06e8619d1aec8d0768b9264736f6c63430008110033",
					"opcodes": "PUSH1 0x80 PUSH1 0x40 MSTORE PUSH1 0x40 MLOAD DUP1 PUSH1 0x40 ADD PUSH1 0x40 MSTORE DUP1 PUSH1 0x4 DUP2 MSTORE PUSH1 0x20 ADD PUSH32 0x6B68616E00000000000000000000000000000000000000000000000000000000 DUP2 MSTORE POP PUSH1 0x0 SWAP1 DUP2 PUSH3 0x4A SWAP2 SWAP1 PUSH3 0x50C JUMP JUMPDEST POP PUSH1 0x40 MLOAD DUP1 PUSH1 0x40 ADD PUSH1 0x40 MSTORE DUP1 PUSH1 0x4 DUP2 MSTORE PUSH1 0x20 ADD PUSH32 0x4352505400000000000000000000000000000000000000000000000000000000 DUP2 MSTORE POP PUSH1 0x1 SWAP1 DUP2 PUSH3 0x91 SWAP2 SWAP1 PUSH3 0x50C JUMP JUMPDEST POP PUSH1 0x0 PUSH1 0x2 SSTORE PUSH7 0x38D7EA4C68000 PUSH1 0x9 SSTORE PUSH9 0x1043561A8829300000 PUSH1 0xA SSTORE TIMESTAMP PUSH1 0xC SSTORE PUSH3 0x93A80 TIMESTAMP PUSH3 0xC4 SWAP2 SWAP1 PUSH3 0x622 JUMP JUMPDEST PUSH1 0xD SSTORE PUSH3 0x93A80 PUSH1 0xD SLOAD PUSH3 0xDA SWAP2 SWAP1 PUSH3 0x622 JUMP JUMPDEST PUSH1 0xE SSTORE PUSH8 0x4563918244F40000 PUSH1 0xF SSTORE PUSH8 0x16345785D8A0000 PUSH1 0x10 SSTORE CALLVALUE DUP1 ISZERO PUSH3 0x102 JUMPI PUSH1 0x0 DUP1 REVERT JUMPDEST POP PUSH1 0x40 MLOAD PUSH3 0x26E4 CODESIZE SUB DUP1 PUSH3 0x26E4 DUP4 CODECOPY DUP2 DUP2 ADD PUSH1 0x40 MSTORE DUP2 ADD SWAP1 PUSH3 0x128 SWAP2 SWAP1 PUSH3 0x6C7 JUMP JUMPDEST PUSH3 0xF4240 PUSH1 0x3 DUP2 SWAP1 SSTORE POP CALLER PUSH1 0x4 PUSH1 0x0 PUSH2 0x100 EXP DUP2 SLOAD DUP2 PUSH20 0xFFFFFFFFFFFFFFFFFFFFFFFFFFFFFFFFFFFFFFFF MUL NOT AND SWAP1 DUP4 PUSH20 0xFFFFFFFFFFFFFFFFFFFFFFFFFFFFFFFFFFFFFFFF AND MUL OR SWAP1 SSTORE POP PUSH1 0x3 SLOAD PUSH1 0x5 PUSH1 0x0 PUSH1 0x4 PUSH1 0x0 SWAP1 SLOAD SWAP1 PUSH2 0x100 EXP SWAP1 DIV PUSH20 0xFFFFFFFFFFFFFFFFFFFFFFFFFFFFFFFFFFFFFFFF AND PUSH20 0xFFFFFFFFFFFFFFFFFFFFFFFFFFFFFFFFFFFFFFFF AND PUSH20 0xFFFFFFFFFFFFFFFFFFFFFFFFFFFFFFFFFFFFFFFF AND DUP2 MSTORE PUSH1 0x20 ADD SWAP1 DUP2 MSTORE PUSH1 0x20 ADD PUSH1 0x0 KECCAK256 DUP2 SWAP1 SSTORE POP DUP1 PUSH1 0x8 PUSH1 0x0 PUSH2 0x100 EXP DUP2 SLOAD DUP2 PUSH20 0xFFFFFFFFFFFFFFFFFFFFFFFFFFFFFFFFFFFFFFFF MUL NOT AND SWAP1 DUP4 PUSH20 0xFFFFFFFFFFFFFFFFFFFFFFFFFFFFFFFFFFFFFFFF AND MUL OR SWAP1 SSTORE POP CALLER PUSH1 0x7 PUSH1 0x0 PUSH2 0x100 EXP DUP2 SLOAD DUP2 PUSH20 0xFFFFFFFFFFFFFFFFFFFFFFFFFFFFFFFFFFFFFFFF MUL NOT AND SWAP1 DUP4 PUSH20 0xFFFFFFFFFFFFFFFFFFFFFFFFFFFFFFFFFFFFFFFF AND MUL OR SWAP1 SSTORE POP PUSH1 0x0 PUSH1 0x11 PUSH1 0x0 PUSH2 0x100 EXP DUP2 SLOAD DUP2 PUSH1 0xFF MUL NOT AND SWAP1 DUP4 PUSH1 0x3 DUP2 GT ISZERO PUSH3 0x286 JUMPI PUSH3 0x285 PUSH3 0x6F9 JUMP JUMPDEST JUMPDEST MUL OR SWAP1 SSTORE POP POP PUSH3 0x728 JUMP JUMPDEST PUSH1 0x0 DUP2 MLOAD SWAP1 POP SWAP2 SWAP1 POP JUMP JUMPDEST PUSH32 0x4E487B7100000000000000000000000000000000000000000000000000000000 PUSH1 0x0 MSTORE PUSH1 0x41 PUSH1 0x4 MSTORE PUSH1 0x24 PUSH1 0x0 REVERT JUMPDEST PUSH32 0x4E487B7100000000000000000000000000000000000000000000000000000000 PUSH1 0x0 MSTORE PUSH1 0x22 PUSH1 0x4 MSTORE PUSH1 0x24 PUSH1 0x0 REVERT JUMPDEST PUSH1 0x0 PUSH1 0x2 DUP3 DIV SWAP1 POP PUSH1 0x1 DUP3 AND DUP1 PUSH3 0x314 JUMPI PUSH1 0x7F DUP3 AND SWAP2 POP JUMPDEST PUSH1 0x20 DUP3 LT DUP2 SUB PUSH3 0x32A JUMPI PUSH3 0x329 PUSH3 0x2CC JUMP JUMPDEST JUMPDEST POP SWAP2 SWAP1 POP JUMP JUMPDEST PUSH1 0x0 DUP2 SWAP1 POP DUP2 PUSH1 0x0 MSTORE PUSH1 0x20 PUSH1 0x0 KECCAK256 SWAP1 POP SWAP2 SWAP1 POP JUMP JUMPDEST PUSH1 0x0 PUSH1 0x20 PUSH1 0x1F DUP4 ADD DIV SWAP1 POP SWAP2 SWAP1 POP JUMP JUMPDEST PUSH1 0x0 DUP3 DUP3 SHL SWAP1 POP SWAP3 SWAP2 POP POP JUMP JUMPDEST PUSH1 0x0 PUSH1 0x8 DUP4 MUL PUSH3 0x394 PUSH32 0xFFFFFFFFFFFFFFFFFFFFFFFFFFFFFFFFFFFFFFFFFFFFFFFFFFFFFFFFFFFFFFFF DUP3 PUSH3 0x355 JUMP JUMPDEST PUSH3 0x3A0 DUP7 DUP4 PUSH3 0x355 JUMP JUMPDEST SWAP6 POP DUP1 NOT DUP5 AND SWAP4 POP DUP1 DUP7 AND DUP5 OR SWAP3 POP POP POP SWAP4 SWAP3 POP POP POP JUMP JUMPDEST PUSH1 0x0 DUP2 SWAP1 POP SWAP2 SWAP1 POP JUMP JUMPDEST PUSH1 0x0 DUP2 SWAP1 POP SWAP2 SWAP1 POP JUMP JUMPDEST PUSH1 0x0 PUSH3 0x3ED PUSH3 0x3E7 PUSH3 0x3E1 DUP5 PUSH3 0x3B8 JUMP JUMPDEST PUSH3 0x3C2 JUMP JUMPDEST PUSH3 0x3B8 JUMP JUMPDEST SWAP1 POP SWAP2 SWAP1 POP JUMP JUMPDEST PUSH1 0x0 DUP2 SWAP1 POP SWAP2 SWAP1 POP JUMP JUMPDEST PUSH3 0x409 DUP4 PUSH3 0x3CC JUMP JUMPDEST PUSH3 0x421 PUSH3 0x418 DUP3 PUSH3 0x3F4 JUMP JUMPDEST DUP5 DUP5 SLOAD PUSH3 0x362 JUMP JUMPDEST DUP3 SSTORE POP POP POP POP JUMP JUMPDEST PUSH1 0x0 SWAP1 JUMP JUMPDEST PUSH3 0x438 PUSH3 0x429 JUMP JUMPDEST PUSH3 0x445 DUP2 DUP5 DUP5 PUSH3 0x3FE JUMP JUMPDEST POP POP POP JUMP JUMPDEST JUMPDEST DUP2 DUP2 LT ISZERO PUSH3 0x46D JUMPI PUSH3 0x461 PUSH1 0x0 DUP3 PUSH3 0x42E JUMP JUMPDEST PUSH1 0x1 DUP2 ADD SWAP1 POP PUSH3 0x44B JUMP JUMPDEST POP POP JUMP JUMPDEST PUSH1 0x1F DUP3 GT ISZERO PUSH3 0x4BC JUMPI PUSH3 0x486 DUP2 PUSH3 0x330 JUMP JUMPDEST PUSH3 0x491 DUP5 PUSH3 0x345 JUMP JUMPDEST DUP2 ADD PUSH1 0x20 DUP6 LT ISZERO PUSH3 0x4A1 JUMPI DUP2 SWAP1 POP JUMPDEST PUSH3 0x4B9 PUSH3 0x4B0 DUP6 PUSH3 0x345 JUMP JUMPDEST DUP4 ADD DUP3 PUSH3 0x44A JUMP JUMPDEST POP POP JUMPDEST POP POP POP JUMP JUMPDEST PUSH1 0x0 DUP3 DUP3 SHR SWAP1 POP SWAP3 SWAP2 POP POP JUMP JUMPDEST PUSH1 0x0 PUSH3 0x4E1 PUSH1 0x0 NOT DUP5 PUSH1 0x8 MUL PUSH3 0x4C1 JUMP JUMPDEST NOT DUP1 DUP4 AND SWAP2 POP POP SWAP3 SWAP2 POP POP JUMP JUMPDEST PUSH1 0x0 PUSH3 0x4FC DUP4 DUP4 PUSH3 0x4CE JUMP JUMPDEST SWAP2 POP DUP3 PUSH1 0x2 MUL DUP3 OR SWAP1 POP SWAP3 SWAP2 POP POP JUMP JUMPDEST PUSH3 0x517 DUP3 PUSH3 0x292 JUMP JUMPDEST PUSH8 0xFFFFFFFFFFFFFFFF DUP2 GT ISZERO PUSH3 0x533 JUMPI PUSH3 0x532 PUSH3 0x29D JUMP JUMPDEST JUMPDEST PUSH3 0x53F DUP3 SLOAD PUSH3 0x2FB JUMP JUMPDEST PUSH3 0x54C DUP3 DUP3 DUP6 PUSH3 0x471 JUMP JUMPDEST PUSH1 0x0 PUSH1 0x20 SWAP1 POP PUSH1 0x1F DUP4 GT PUSH1 0x1 DUP2 EQ PUSH3 0x584 JUMPI PUSH1 0x0 DUP5 ISZERO PUSH3 0x56F JUMPI DUP3 DUP8 ADD MLOAD SWAP1 POP JUMPDEST PUSH3 0x57B DUP6 DUP3 PUSH3 0x4EE JUMP JUMPDEST DUP7 SSTORE POP PUSH3 0x5EB JUMP JUMPDEST PUSH1 0x1F NOT DUP5 AND PUSH3 0x594 DUP7 PUSH3 0x330 JUMP JUMPDEST PUSH1 0x0 JUMPDEST DUP3 DUP2 LT ISZERO PUSH3 0x5BE JUMPI DUP5 DUP10 ADD MLOAD DUP3 SSTORE PUSH1 0x1 DUP3 ADD SWAP2 POP PUSH1 0x20 DUP6 ADD SWAP5 POP PUSH1 0x20 DUP2 ADD SWAP1 POP PUSH3 0x597 JUMP JUMPDEST DUP7 DUP4 LT ISZERO PUSH3 0x5DE JUMPI DUP5 DUP10 ADD MLOAD PUSH3 0x5DA PUSH1 0x1F DUP10 AND DUP3 PUSH3 0x4CE JUMP JUMPDEST DUP4 SSTORE POP JUMPDEST PUSH1 0x1 PUSH1 0x2 DUP9 MUL ADD DUP9 SSTORE POP POP POP JUMPDEST POP POP POP POP POP POP JUMP JUMPDEST PUSH32 0x4E487B7100000000000000000000000000000000000000000000000000000000 PUSH1 0x0 MSTORE PUSH1 0x11 PUSH1 0x4 MSTORE PUSH1 0x24 PUSH1 0x0 REVERT JUMPDEST PUSH1 0x0 PUSH3 0x62F DUP3 PUSH3 0x3B8 JUMP JUMPDEST SWAP2 POP PUSH3 0x63C DUP4 PUSH3 0x3B8 JUMP JUMPDEST SWAP3 POP DUP3 DUP3 ADD SWAP1 POP DUP1 DUP3 GT ISZERO PUSH3 0x657 JUMPI PUSH3 0x656 PUSH3 0x5F3 JUMP JUMPDEST JUMPDEST SWAP3 SWAP2 POP POP JUMP JUMPDEST PUSH1 0x0 DUP1 REVERT JUMPDEST PUSH1 0x0 PUSH20 0xFFFFFFFFFFFFFFFFFFFFFFFFFFFFFFFFFFFFFFFF DUP3 AND SWAP1 POP SWAP2 SWAP1 POP JUMP JUMPDEST PUSH1 0x0 PUSH3 0x68F DUP3 PUSH3 0x662 JUMP JUMPDEST SWAP1 POP SWAP2 SWAP1 POP JUMP JUMPDEST PUSH3 0x6A1 DUP2 PUSH3 0x682 JUMP JUMPDEST DUP2 EQ PUSH3 0x6AD JUMPI PUSH1 0x0 DUP1 REVERT JUMPDEST POP JUMP JUMPDEST PUSH1 0x0 DUP2 MLOAD SWAP1 POP PUSH3 0x6C1 DUP2 PUSH3 0x696 JUMP JUMPDEST SWAP3 SWAP2 POP POP JUMP JUMPDEST PUSH1 0x0 PUSH1 0x20 DUP3 DUP5 SUB SLT ISZERO PUSH3 0x6E0 JUMPI PUSH3 0x6DF PUSH3 0x65D JUMP JUMPDEST JUMPDEST PUSH1 0x0 PUSH3 0x6F0 DUP5 DUP3 DUP6 ADD PUSH3 0x6B0 JUMP JUMPDEST SWAP2 POP POP SWAP3 SWAP2 POP POP JUMP JUMPDEST PUSH32 0x4E487B7100000000000000000000000000000000000000000000000000000000 PUSH1 0x0 MSTORE PUSH1 0x21 PUSH1 0x4 MSTORE PUSH1 0x24 PUSH1 0x0 REVERT JUMPDEST PUSH2 0x1FAC DUP1 PUSH3 0x738 PUSH1 0x0 CODECOPY PUSH1 0x0 RETURN INVALID PUSH1 0x80 PUSH1 0x40 MSTORE PUSH1 0x4 CALLDATASIZE LT PUSH2 0x19F JUMPI PUSH1 0x0 CALLDATALOAD PUSH1 0xE0 SHR DUP1 PUSH4 0x70A08231 GT PUSH2 0xEC JUMPI DUP1 PUSH4 0xC59EE1DC GT PUSH2 0x8A JUMPI DUP1 PUSH4 0xDD62ED3E GT PUSH2 0x64 JUMPI DUP1 PUSH4 0xDD62ED3E EQ PUSH2 0x5C0 JUMPI DUP1 PUSH4 0xE8B5E51F EQ PUSH2 0x5FD JUMPI DUP1 PUSH4 0xF851A440 EQ PUSH2 0x61B JUMPI DUP1 PUSH4 0xFB86A404 EQ PUSH2 0x646 JUMPI PUSH2 0x1AE JUMP JUMPDEST DUP1 PUSH4 0xC59EE1DC EQ PUSH2 0x53F JUMPI DUP1 PUSH4 0xCC9BA583 EQ PUSH2 0x56A JUMPI DUP1 PUSH4 0xD0E30DB0 EQ PUSH2 0x595 JUMPI PUSH2 0x1AE JUMP JUMPDEST DUP1 PUSH4 0x95D89B41 GT PUSH2 0xC6 JUMPI DUP1 PUSH4 0x95D89B41 EQ PUSH2 0x481 JUMPI DUP1 PUSH4 0xA9059CBB EQ PUSH2 0x4AC JUMPI DUP1 PUSH4 0xAB0BCC41 EQ PUSH2 0x4E9 JUMPI DUP1 PUSH4 0xC10B9358 EQ PUSH2 0x514 JUMPI PUSH2 0x1AE JUMP JUMPDEST DUP1 PUSH4 0x70A08231 EQ PUSH2 0x3F0 JUMPI DUP1 PUSH4 0x88B15754 EQ PUSH2 0x42D JUMPI DUP1 PUSH4 0x8AC2C680 EQ PUSH2 0x456 JUMPI PUSH2 0x1AE JUMP JUMPDEST DUP1 PUSH4 0x27E235E3 GT PUSH2 0x159 JUMPI DUP1 PUSH4 0x44DF8E70 GT PUSH2 0x133 JUMPI DUP1 PUSH4 0x44DF8E70 EQ PUSH2 0x358 JUMPI DUP1 PUSH4 0x44F38756 EQ PUSH2 0x383 JUMPI DUP1 PUSH4 0x4D853EE5 EQ PUSH2 0x3AE JUMPI DUP1 PUSH4 0x5ED7CA5B EQ PUSH2 0x3D9 JUMPI PUSH2 0x1AE JUMP JUMPDEST DUP1 PUSH4 0x27E235E3 EQ PUSH2 0x2C5 JUMPI DUP1 PUSH4 0x313CE567 EQ PUSH2 0x302 JUMPI DUP1 PUSH4 0x378AA701 EQ PUSH2 0x32D JUMPI PUSH2 0x1AE JUMP JUMPDEST DUP1 PUSH3 0x2E1316 EQ PUSH2 0x1B3 JUMPI DUP1 PUSH4 0x46F7DA2 EQ PUSH2 0x1DE JUMPI DUP1 PUSH4 0x6FDDE03 EQ PUSH2 0x1F5 JUMPI DUP1 PUSH4 0x95EA7B3 EQ PUSH2 0x220 JUMPI DUP1 PUSH4 0x18160DDD EQ PUSH2 0x25D JUMPI DUP1 PUSH4 0x23B872DD EQ PUSH2 0x288 JUMPI PUSH2 0x1AE JUMP JUMPDEST CALLDATASIZE PUSH2 0x1AE JUMPI PUSH2 0x1AC PUSH2 0x671 JUMP JUMPDEST STOP JUMPDEST PUSH1 0x0 DUP1 REVERT JUMPDEST CALLVALUE DUP1 ISZERO PUSH2 0x1BF JUMPI PUSH1 0x0 DUP1 REVERT JUMPDEST POP PUSH2 0x1C8 PUSH2 0x9F6 JUMP JUMPDEST PUSH1 0x40 MLOAD PUSH2 0x1D5 SWAP2 SWAP1 PUSH2 0x173E JUMP JUMPDEST PUSH1 0x40 MLOAD DUP1 SWAP2 SUB SWAP1 RETURN JUMPDEST CALLVALUE DUP1 ISZERO PUSH2 0x1EA JUMPI PUSH1 0x0 DUP1 REVERT JUMPDEST POP PUSH2 0x1F3 PUSH2 0x9FC JUMP JUMPDEST STOP JUMPDEST CALLVALUE DUP1 ISZERO PUSH2 0x201 JUMPI PUSH1 0x0 DUP1 REVERT JUMPDEST POP PUSH2 0x20A PUSH2 0xA83 JUMP JUMPDEST PUSH1 0x40 MLOAD PUSH2 0x217 SWAP2 SWAP1 PUSH2 0x17E9 JUMP JUMPDEST PUSH1 0x40 MLOAD DUP1 SWAP2 SUB SWAP1 RETURN JUMPDEST CALLVALUE DUP1 ISZERO PUSH2 0x22C JUMPI PUSH1 0x0 DUP1 REVERT JUMPDEST POP PUSH2 0x247 PUSH1 0x4 DUP1 CALLDATASIZE SUB DUP2 ADD SWAP1 PUSH2 0x242 SWAP2 SWAP1 PUSH2 0x189A JUMP JUMPDEST PUSH2 0xB11 JUMP JUMPDEST PUSH1 0x40 MLOAD PUSH2 0x254 SWAP2 SWAP1 PUSH2 0x18F5 JUMP JUMPDEST PUSH1 0x40 MLOAD DUP1 SWAP2 SUB SWAP1 RETURN JUMPDEST CALLVALUE DUP1 ISZERO PUSH2 0x269 JUMPI PUSH1 0x0 DUP1 REVERT JUMPDEST POP PUSH2 0x272 PUSH2 0xC5C JUMP JUMPDEST PUSH1 0x40 MLOAD PUSH2 0x27F SWAP2 SWAP1 PUSH2 0x173E JUMP JUMPDEST PUSH1 0x40 MLOAD DUP1 SWAP2 SUB SWAP1 RETURN JUMPDEST CALLVALUE DUP1 ISZERO PUSH2 0x294 JUMPI PUSH1 0x0 DUP1 REVERT JUMPDEST POP PUSH2 0x2AF PUSH1 0x4 DUP1 CALLDATASIZE SUB DUP2 ADD SWAP1 PUSH2 0x2AA SWAP2 SWAP1 PUSH2 0x1910 JUMP JUMPDEST PUSH2 0xC62 JUMP JUMPDEST PUSH1 0x40 MLOAD PUSH2 0x2BC SWAP2 SWAP1 PUSH2 0x18F5 JUMP JUMPDEST PUSH1 0x40 MLOAD DUP1 SWAP2 SUB SWAP1 RETURN JUMPDEST CALLVALUE DUP1 ISZERO PUSH2 0x2D1 JUMPI PUSH1 0x0 DUP1 REVERT JUMPDEST POP PUSH2 0x2EC PUSH1 0x4 DUP1 CALLDATASIZE SUB DUP2 ADD SWAP1 PUSH2 0x2E7 SWAP2 SWAP1 PUSH2 0x1963 JUMP JUMPDEST PUSH2 0xC89 JUMP JUMPDEST PUSH1 0x40 MLOAD PUSH2 0x2F9 SWAP2 SWAP1 PUSH2 0x173E JUMP JUMPDEST PUSH1 0x40 MLOAD DUP1 SWAP2 SUB SWAP1 RETURN JUMPDEST CALLVALUE DUP1 ISZERO PUSH2 0x30E JUMPI PUSH1 0x0 DUP1 REVERT JUMPDEST POP PUSH2 0x317 PUSH2 0xCA1 JUMP JUMPDEST PUSH1 0x40 MLOAD PUSH2 0x324 SWAP2 SWAP1 PUSH2 0x173E JUMP JUMPDEST PUSH1 0x40 MLOAD DUP1 SWAP2 SUB SWAP1 RETURN JUMPDEST CALLVALUE DUP1 ISZERO PUSH2 0x339 JUMPI PUSH1 0x0 DUP1 REVERT JUMPDEST POP PUSH2 0x342 PUSH2 0xCA7 JUMP JUMPDEST PUSH1 0x40 MLOAD PUSH2 0x34F SWAP2 SWAP1 PUSH2 0x1A07 JUMP JUMPDEST PUSH1 0x40 MLOAD DUP1 SWAP2 SUB SWAP1 RETURN JUMPDEST CALLVALUE DUP1 ISZERO PUSH2 0x364 JUMPI PUSH1 0x0 DUP1 REVERT JUMPDEST POP PUSH2 0x36D PUSH2 0xD29 JUMP JUMPDEST PUSH1 0x40 MLOAD PUSH2 0x37A SWAP2 SWAP1 PUSH2 0x18F5 JUMP JUMPDEST PUSH1 0x40 MLOAD DUP1 SWAP2 SUB SWAP1 RETURN JUMPDEST CALLVALUE DUP1 ISZERO PUSH2 0x38F JUMPI PUSH1 0x0 DUP1 REVERT JUMPDEST POP PUSH2 0x398 PUSH2 0xDC4 JUMP JUMPDEST PUSH1 0x40 MLOAD PUSH2 0x3A5 SWAP2 SWAP1 PUSH2 0x1A07 JUMP JUMPDEST PUSH1 0x40 MLOAD DUP1 SWAP2 SUB SWAP1 RETURN JUMPDEST CALLVALUE DUP1 ISZERO PUSH2 0x3BA JUMPI PUSH1 0x0 DUP1 REVERT JUMPDEST POP PUSH2 0x3C3 PUSH2 0xDD7 JUMP JUMPDEST PUSH1 0x40 MLOAD PUSH2 0x3D0 SWAP2 SWAP1 PUSH2 0x1A31 JUMP JUMPDEST PUSH1 0x40 MLOAD DUP1 SWAP2 SUB SWAP1 RETURN JUMPDEST CALLVALUE DUP1 ISZERO PUSH2 0x3E5 JUMPI PUSH1 0x0 DUP1 REVERT JUMPDEST POP PUSH2 0x3EE PUSH2 0xDFD JUMP JUMPDEST STOP JUMPDEST CALLVALUE DUP1 ISZERO PUSH2 0x3FC JUMPI PUSH1 0x0 DUP1 REVERT JUMPDEST POP PUSH2 0x417 PUSH1 0x4 DUP1 CALLDATASIZE SUB DUP2 ADD SWAP1 PUSH2 0x412 SWAP2 SWAP1 PUSH2 0x1963 JUMP JUMPDEST PUSH2 0xE84 JUMP JUMPDEST PUSH1 0x40 MLOAD PUSH2 0x424 SWAP2 SWAP1 PUSH2 0x173E JUMP JUMPDEST PUSH1 0x40 MLOAD DUP1 SWAP2 SUB SWAP1 RETURN JUMPDEST CALLVALUE DUP1 ISZERO PUSH2 0x439 JUMPI PUSH1 0x0 DUP1 REVERT JUMPDEST POP PUSH2 0x454 PUSH1 0x4 DUP1 CALLDATASIZE SUB DUP2 ADD SWAP1 PUSH2 0x44F SWAP2 SWAP1 PUSH2 0x1A8A JUMP JUMPDEST PUSH2 0xECD JUMP JUMPDEST STOP JUMPDEST CALLVALUE DUP1 ISZERO PUSH2 0x462 JUMPI PUSH1 0x0 DUP1 REVERT JUMPDEST POP PUSH2 0x46B PUSH2 0xF6B JUMP JUMPDEST PUSH1 0x40 MLOAD PUSH2 0x478 SWAP2 SWAP1 PUSH2 0x173E JUMP JUMPDEST PUSH1 0x40 MLOAD DUP1 SWAP2 SUB SWAP1 RETURN JUMPDEST CALLVALUE DUP1 ISZERO PUSH2 0x48D JUMPI PUSH1 0x0 DUP1 REVERT JUMPDEST POP PUSH2 0x496 PUSH2 0xF71 JUMP JUMPDEST PUSH1 0x40 MLOAD PUSH2 0x4A3 SWAP2 SWAP1 PUSH2 0x17E9 JUMP JUMPDEST PUSH1 0x40 MLOAD DUP1 SWAP2 SUB SWAP1 RETURN JUMPDEST CALLVALUE DUP1 ISZERO PUSH2 0x4B8 JUMPI PUSH1 0x0 DUP1 REVERT JUMPDEST POP PUSH2 0x4D3 PUSH1 0x4 DUP1 CALLDATASIZE SUB DUP2 ADD SWAP1 PUSH2 0x4CE SWAP2 SWAP1 PUSH2 0x189A JUMP JUMPDEST PUSH2 0xFFF JUMP JUMPDEST PUSH1 0x40 MLOAD PUSH2 0x4E0 SWAP2 SWAP1 PUSH2 0x18F5 JUMP JUMPDEST PUSH1 0x40 MLOAD DUP1 SWAP2 SUB SWAP1 RETURN JUMPDEST CALLVALUE DUP1 ISZERO PUSH2 0x4F5 JUMPI PUSH1 0x0 DUP1 REVERT JUMPDEST POP PUSH2 0x4FE PUSH2 0x1024 JUMP JUMPDEST PUSH1 0x40 MLOAD PUSH2 0x50B SWAP2 SWAP1 PUSH2 0x173E JUMP JUMPDEST PUSH1 0x40 MLOAD DUP1 SWAP2 SUB SWAP1 RETURN JUMPDEST CALLVALUE DUP1 ISZERO PUSH2 0x520 JUMPI PUSH1 0x0 DUP1 REVERT JUMPDEST POP PUSH2 0x529 PUSH2 0x102A JUMP JUMPDEST PUSH1 0x40 MLOAD PUSH2 0x536 SWAP2 SWAP1 PUSH2 0x173E JUMP JUMPDEST PUSH1 0x40 MLOAD DUP1 SWAP2 SUB SWAP1 RETURN JUMPDEST CALLVALUE DUP1 ISZERO PUSH2 0x54B JUMPI PUSH1 0x0 DUP1 REVERT JUMPDEST POP PUSH2 0x554 PUSH2 0x1030 JUMP JUMPDEST PUSH1 0x40 MLOAD PUSH2 0x561 SWAP2 SWAP1 PUSH2 0x173E JUMP JUMPDEST PUSH1 0x40 MLOAD DUP1 SWAP2 SUB SWAP1 RETURN JUMPDEST CALLVALUE DUP1 ISZERO PUSH2 0x576 JUMPI PUSH1 0x0 DUP1 REVERT JUMPDEST POP PUSH2 0x57F PUSH2 0x1036 JUMP JUMPDEST PUSH1 0x40 MLOAD PUSH2 0x58C SWAP2 SWAP1 PUSH2 0x173E JUMP JUMPDEST PUSH1 0x40 MLOAD DUP1 SWAP2 SUB SWAP1 RETURN JUMPDEST CALLVALUE DUP1 ISZERO PUSH2 0x5A1 JUMPI PUSH1 0x0 DUP1 REVERT JUMPDEST POP PUSH2 0x5AA PUSH2 0x103C JUMP JUMPDEST PUSH1 0x40 MLOAD PUSH2 0x5B7 SWAP2 SWAP1 PUSH2 0x1AC6 JUMP JUMPDEST PUSH1 0x40 MLOAD DUP1 SWAP2 SUB SWAP1 RETURN JUMPDEST CALLVALUE DUP1 ISZERO PUSH2 0x5CC JUMPI PUSH1 0x0 DUP1 REVERT JUMPDEST POP PUSH2 0x5E7 PUSH1 0x4 DUP1 CALLDATASIZE SUB DUP2 ADD SWAP1 PUSH2 0x5E2 SWAP2 SWAP1 PUSH2 0x1AE1 JUMP JUMPDEST PUSH2 0x1062 JUMP JUMPDEST PUSH1 0x40 MLOAD PUSH2 0x5F4 SWAP2 SWAP1 PUSH2 0x173E JUMP JUMPDEST PUSH1 0x40 MLOAD DUP1 SWAP2 SUB SWAP1 RETURN JUMPDEST PUSH2 0x605 PUSH2 0x671 JUMP JUMPDEST PUSH1 0x40 MLOAD PUSH2 0x612 SWAP2 SWAP1 PUSH2 0x18F5 JUMP JUMPDEST PUSH1 0x40 MLOAD DUP1 SWAP2 SUB SWAP1 RETURN JUMPDEST CALLVALUE DUP1 ISZERO PUSH2 0x627 JUMPI PUSH1 0x0 DUP1 REVERT JUMPDEST POP PUSH2 0x630 PUSH2 0x10E9 JUMP JUMPDEST PUSH1 0x40 MLOAD PUSH2 0x63D SWAP2 SWAP1 PUSH2 0x1A31 JUMP JUMPDEST PUSH1 0x40 MLOAD DUP1 SWAP2 SUB SWAP1 RETURN JUMPDEST CALLVALUE DUP1 ISZERO PUSH2 0x652 JUMPI PUSH1 0x0 DUP1 REVERT JUMPDEST POP PUSH2 0x65B PUSH2 0x110F JUMP JUMPDEST PUSH1 0x40 MLOAD PUSH2 0x668 SWAP2 SWAP1 PUSH2 0x173E JUMP JUMPDEST PUSH1 0x40 MLOAD DUP1 SWAP2 SUB SWAP1 RETURN JUMPDEST PUSH1 0x0 PUSH32 0x402C0AE4AC814BA9769B30FF99C8B29EFE6AAE492A01F936EB0418573FF0923E CALLER PUSH1 0x40 MLOAD PUSH2 0x6A2 SWAP2 SWAP1 PUSH2 0x1B6D JUMP JUMPDEST PUSH1 0x40 MLOAD DUP1 SWAP2 SUB SWAP1 LOG1 PUSH2 0x6B2 PUSH2 0xCA7 JUMP JUMPDEST PUSH1 0x11 PUSH1 0x0 PUSH2 0x100 EXP DUP2 SLOAD DUP2 PUSH1 0xFF MUL NOT AND SWAP1 DUP4 PUSH1 0x3 DUP2 GT ISZERO PUSH2 0x6D6 JUMPI PUSH2 0x6D5 PUSH2 0x1990 JUMP JUMPDEST JUMPDEST MUL OR SWAP1 SSTORE POP PUSH1 0x1 PUSH1 0x3 DUP2 GT ISZERO PUSH2 0x6EF JUMPI PUSH2 0x6EE PUSH2 0x1990 JUMP JUMPDEST JUMPDEST PUSH1 0x11 PUSH1 0x0 SWAP1 SLOAD SWAP1 PUSH2 0x100 EXP SWAP1 DIV PUSH1 0xFF AND PUSH1 0x3 DUP2 GT ISZERO PUSH2 0x711 JUMPI PUSH2 0x710 PUSH2 0x1990 JUMP JUMPDEST JUMPDEST EQ PUSH2 0x751 JUMPI PUSH1 0x40 MLOAD PUSH32 0x8C379A000000000000000000000000000000000000000000000000000000000 DUP2 MSTORE PUSH1 0x4 ADD PUSH2 0x748 SWAP1 PUSH2 0x1BE7 JUMP JUMPDEST PUSH1 0x40 MLOAD DUP1 SWAP2 SUB SWAP1 REVERT JUMPDEST PUSH1 0x10 SLOAD CALLVALUE LT ISZERO DUP1 ISZERO PUSH2 0x765 JUMPI POP PUSH1 0xF SLOAD CALLVALUE GT ISZERO JUMPDEST PUSH2 0x7A4 JUMPI PUSH1 0x40 MLOAD PUSH32 0x8C379A000000000000000000000000000000000000000000000000000000000 DUP2 MSTORE PUSH1 0x4 ADD PUSH2 0x79B SWAP1 PUSH2 0x1C53 JUMP JUMPDEST PUSH1 0x40 MLOAD DUP1 SWAP2 SUB SWAP1 REVERT JUMPDEST CALLVALUE PUSH1 0xB PUSH1 0x0 DUP3 DUP3 SLOAD PUSH2 0x7B6 SWAP2 SWAP1 PUSH2 0x1CA2 JUMP JUMPDEST SWAP3 POP POP DUP2 SWAP1 SSTORE POP PUSH1 0xA SLOAD PUSH1 0xB SLOAD GT ISZERO PUSH2 0x804 JUMPI PUSH1 0x40 MLOAD PUSH32 0x8C379A000000000000000000000000000000000000000000000000000000000 DUP2 MSTORE PUSH1 0x4 ADD PUSH2 0x7FB SWAP1 PUSH2 0x1D22 JUMP JUMPDEST PUSH1 0x40 MLOAD DUP1 SWAP2 SUB SWAP1 REVERT JUMPDEST PUSH1 0x0 PUSH1 0x9 SLOAD CALLVALUE PUSH2 0x814 SWAP2 SWAP1 PUSH2 0x1D71 JUMP JUMPDEST SWAP1 POP PUSH1 0x0 PUSH2 0x821 DUP3 PUSH2 0x1115 JUMP JUMPDEST PUSH1 0x40 MLOAD PUSH1 0x20 ADD PUSH2 0x831 SWAP2 SWAP1 PUSH2 0x1E2A JUMP JUMPDEST PUSH1 0x40 MLOAD PUSH1 0x20 DUP2 DUP4 SUB SUB DUP2 MSTORE SWAP1 PUSH1 0x40 MSTORE SWAP1 POP PUSH32 0x402C0AE4AC814BA9769B30FF99C8B29EFE6AAE492A01F936EB0418573FF0923E CALLER DUP3 PUSH1 0x40 MLOAD PUSH2 0x873 SWAP3 SWAP2 SWAP1 PUSH2 0x1E4C JUMP JUMPDEST PUSH1 0x40 MLOAD DUP1 SWAP2 SUB SWAP1 LOG1 DUP2 PUSH1 0x5 PUSH1 0x0 CALLER PUSH20 0xFFFFFFFFFFFFFFFFFFFFFFFFFFFFFFFFFFFFFFFF AND PUSH20 0xFFFFFFFFFFFFFFFFFFFFFFFFFFFFFFFFFFFFFFFF AND DUP2 MSTORE PUSH1 0x20 ADD SWAP1 DUP2 MSTORE PUSH1 0x20 ADD PUSH1 0x0 KECCAK256 PUSH1 0x0 DUP3 DUP3 SLOAD PUSH2 0x8CA SWAP2 SWAP1 PUSH2 0x1CA2 JUMP JUMPDEST SWAP3 POP POP DUP2 SWAP1 SSTORE POP DUP2 PUSH1 0x5 PUSH1 0x0 PUSH1 0x4 PUSH1 0x0 SWAP1 SLOAD SWAP1 PUSH2 0x100 EXP SWAP1 DIV PUSH20 0xFFFFFFFFFFFFFFFFFFFFFFFFFFFFFFFFFFFFFFFF AND PUSH20 0xFFFFFFFFFFFFFFFFFFFFFFFFFFFFFFFFFFFFFFFF AND PUSH20 0xFFFFFFFFFFFFFFFFFFFFFFFFFFFFFFFFFFFFFFFF AND DUP2 MSTORE PUSH1 0x20 ADD SWAP1 DUP2 MSTORE PUSH1 0x20 ADD PUSH1 0x0 KECCAK256 PUSH1 0x0 DUP3 DUP3 SLOAD PUSH2 0x942 SWAP2 SWAP1 PUSH2 0x1E7C JUMP JUMPDEST SWAP3 POP POP DUP2 SWAP1 SSTORE POP PUSH1 0x8 PUSH1 0x0 SWAP1 SLOAD SWAP1 PUSH2 0x100 EXP SWAP1 DIV PUSH20 0xFFFFFFFFFFFFFFFFFFFFFFFFFFFFFFFFFFFFFFFF AND PUSH20 0xFFFFFFFFFFFFFFFFFFFFFFFFFFFFFFFFFFFFFFFF AND PUSH2 0x8FC CALLVALUE SWAP1 DUP2 ISZERO MUL SWAP1 PUSH1 0x40 MLOAD PUSH1 0x0 PUSH1 0x40 MLOAD DUP1 DUP4 SUB DUP2 DUP6 DUP9 DUP9 CALL SWAP4 POP POP POP POP ISZERO DUP1 ISZERO PUSH2 0x9B1 JUMPI RETURNDATASIZE PUSH1 0x0 DUP1 RETURNDATACOPY RETURNDATASIZE PUSH1 0x0 REVERT JUMPDEST POP PUSH32 0x4AE4BD7655E0D350876A23CD90C4227B13DB560E34435C6A488150A9C844BF5F CALLER CALLVALUE DUP5 PUSH1 0x40 MLOAD PUSH2 0x9E5 SWAP4 SWAP3 SWAP2 SWAP1 PUSH2 0x1EB0 JUMP JUMPDEST PUSH1 0x40 MLOAD DUP1 SWAP2 SUB SWAP1 LOG1 PUSH1 0x1 SWAP3 POP POP POP SWAP1 JUMP JUMPDEST PUSH1 0xF SLOAD DUP2 JUMP JUMPDEST PUSH1 0x7 PUSH1 0x0 SWAP1 SLOAD SWAP1 PUSH2 0x100 EXP SWAP1 DIV PUSH20 0xFFFFFFFFFFFFFFFFFFFFFFFFFFFFFFFFFFFFFFFF AND PUSH20 0xFFFFFFFFFFFFFFFFFFFFFFFFFFFFFFFFFFFFFFFF AND CALLER PUSH20 0xFFFFFFFFFFFFFFFFFFFFFFFFFFFFFFFFFFFFFFFF AND EQ PUSH2 0xA56 JUMPI PUSH1 0x0 DUP1 REVERT JUMPDEST PUSH1 0x1 PUSH1 0x11 PUSH1 0x0 PUSH2 0x100 EXP DUP2 SLOAD DUP2 PUSH1 0xFF MUL NOT AND SWAP1 DUP4 PUSH1 0x3 DUP2 GT ISZERO PUSH2 0xA7C JUMPI PUSH2 0xA7B PUSH2 0x1990 JUMP JUMPDEST JUMPDEST MUL OR SWAP1 SSTORE POP JUMP JUMPDEST PUSH1 0x0 DUP1 SLOAD PUSH2 0xA90 SWAP1 PUSH2 0x1F16 JUMP JUMPDEST DUP1 PUSH1 0x1F ADD PUSH1 0x20 DUP1 SWAP2 DIV MUL PUSH1 0x20 ADD PUSH1 0x40 MLOAD SWAP1 DUP2 ADD PUSH1 0x40 MSTORE DUP1 SWAP3 SWAP2 SWAP1 DUP2 DUP2 MSTORE PUSH1 0x20 ADD DUP3 DUP1 SLOAD PUSH2 0xABC SWAP1 PUSH2 0x1F16 JUMP JUMPDEST DUP1 ISZERO PUSH2 0xB09 JUMPI DUP1 PUSH1 0x1F LT PUSH2 0xADE JUMPI PUSH2 0x100 DUP1 DUP4 SLOAD DIV MUL DUP4 MSTORE SWAP2 PUSH1 0x20 ADD SWAP2 PUSH2 0xB09 JUMP JUMPDEST DUP3 ADD SWAP2 SWAP1 PUSH1 0x0 MSTORE PUSH1 0x20 PUSH1 0x0 KECCAK256 SWAP1 JUMPDEST DUP2 SLOAD DUP2 MSTORE SWAP1 PUSH1 0x1 ADD SWAP1 PUSH1 0x20 ADD DUP1 DUP4 GT PUSH2 0xAEC JUMPI DUP3 SWAP1 SUB PUSH1 0x1F AND DUP3 ADD SWAP2 JUMPDEST POP POP POP POP POP DUP2 JUMP JUMPDEST PUSH1 0x0 DUP2 PUSH1 0x5 PUSH1 0x0 CALLER PUSH20 0xFFFFFFFFFFFFFFFFFFFFFFFFFFFFFFFFFFFFFFFF AND PUSH20 0xFFFFFFFFFFFFFFFFFFFFFFFFFFFFFFFFFFFFFFFF AND DUP2 MSTORE PUSH1 0x20 ADD SWAP1 DUP2 MSTORE PUSH1 0x20 ADD PUSH1 0x0 KECCAK256 SLOAD LT ISZERO PUSH2 0xB5F JUMPI PUSH1 0x0 DUP1 REVERT JUMPDEST PUSH1 0x0 DUP3 GT PUSH2 0xB6C JUMPI PUSH1 0x0 DUP1 REVERT JUMPDEST DUP2 PUSH1 0x6 PUSH1 0x0 CALLER PUSH20 0xFFFFFFFFFFFFFFFFFFFFFFFFFFFFFFFFFFFFFFFF AND PUSH20 0xFFFFFFFFFFFFFFFFFFFFFFFFFFFFFFFFFFFFFFFF AND DUP2 MSTORE PUSH1 0x20 ADD SWAP1 DUP2 MSTORE PUSH1 0x20 ADD PUSH1 0x0 KECCAK256 PUSH1 0x0 DUP6 PUSH20 0xFFFFFFFFFFFFFFFFFFFFFFFFFFFFFFFFFFFFFFFF AND PUSH20 0xFFFFFFFFFFFFFFFFFFFFFFFFFFFFFFFFFFFFFFFF AND DUP2 MSTORE PUSH1 0x20 ADD SWAP1 DUP2 MSTORE PUSH1 0x20 ADD PUSH1 0x0 KECCAK256 DUP2 SWAP1 SSTORE POP DUP3 PUSH20 0xFFFFFFFFFFFFFFFFFFFFFFFFFFFFFFFFFFFFFFFF AND CALLER PUSH20 0xFFFFFFFFFFFFFFFFFFFFFFFFFFFFFFFFFFFFFFFF AND PUSH32 0x8C5BE1E5EBEC7D5BD14F71427D1E84F3DD0314C0F7B2291E5B200AC8C7C3B925 DUP5 PUSH1 0x40 MLOAD PUSH2 0xC4A SWAP2 SWAP1 PUSH2 0x173E JUMP JUMPDEST PUSH1 0x40 MLOAD DUP1 SWAP2 SUB SWAP1 LOG3 PUSH1 0x1 SWAP1 POP SWAP3 SWAP2 POP POP JUMP JUMPDEST PUSH1 0x3 SLOAD DUP2 JUMP JUMPDEST PUSH1 0x0 PUSH1 0xE SLOAD TIMESTAMP GT PUSH2 0xC72 JUMPI PUSH1 0x0 DUP1 REVERT JUMPDEST PUSH2 0xC7D DUP5 DUP5 DUP5 PUSH2 0x11E3 JUMP JUMPDEST POP PUSH1 0x1 SWAP1 POP SWAP4 SWAP3 POP POP POP JUMP JUMPDEST PUSH1 0x5 PUSH1 0x20 MSTORE DUP1 PUSH1 0x0 MSTORE PUSH1 0x40 PUSH1 0x0 KECCAK256 PUSH1 0x0 SWAP2 POP SWAP1 POP SLOAD DUP2 JUMP JUMPDEST PUSH1 0x2 SLOAD DUP2 JUMP JUMPDEST PUSH1 0x0 PUSH1 0x3 DUP1 DUP2 GT ISZERO PUSH2 0xCBC JUMPI PUSH2 0xCBB PUSH2 0x1990 JUMP JUMPDEST JUMPDEST PUSH1 0x11 PUSH1 0x0 SWAP1 SLOAD SWAP1 PUSH2 0x100 EXP SWAP1 DIV PUSH1 0xFF AND PUSH1 0x3 DUP2 GT ISZERO PUSH2 0xCDE JUMPI PUSH2 0xCDD PUSH2 0x1990 JUMP JUMPDEST JUMPDEST SUB PUSH2 0xCEC JUMPI PUSH1 0x3 SWAP1 POP PUSH2 0xD26 JUMP JUMPDEST PUSH1 0xC SLOAD TIMESTAMP LT ISZERO PUSH2 0xCFF JUMPI PUSH1 0x0 SWAP1 POP PUSH2 0xD26 JUMP JUMPDEST PUSH1 0xC SLOAD TIMESTAMP LT ISZERO DUP1 ISZERO PUSH2 0xD13 JUMPI POP PUSH1 0xD SLOAD TIMESTAMP GT ISZERO JUMPDEST ISZERO PUSH2 0xD21 JUMPI PUSH1 0x1 SWAP1 POP PUSH2 0xD26 JUMP JUMPDEST PUSH1 0x2 SWAP1 POP JUMPDEST SWAP1 JUMP JUMPDEST PUSH1 0x0 PUSH1 0x2 PUSH1 0x11 PUSH1 0x0 PUSH2 0x100 EXP DUP2 SLOAD DUP2 PUSH1 0xFF MUL NOT AND SWAP1 DUP4 PUSH1 0x3 DUP2 GT ISZERO PUSH2 0xD51 JUMPI PUSH2 0xD50 PUSH2 0x1990 JUMP JUMPDEST JUMPDEST MUL OR SWAP1 SSTORE POP PUSH1 0x0 PUSH1 0x5 PUSH1 0x0 PUSH1 0x4 PUSH1 0x0 SWAP1 SLOAD SWAP1 PUSH2 0x100 EXP SWAP1 DIV PUSH20 0xFFFFFFFFFFFFFFFFFFFFFFFFFFFFFFFFFFFFFFFF AND PUSH20 0xFFFFFFFFFFFFFFFFFFFFFFFFFFFFFFFFFFFFFFFF AND PUSH20 0xFFFFFFFFFFFFFFFFFFFFFFFFFFFFFFFFFFFFFFFF AND DUP2 MSTORE PUSH1 0x20 ADD SWAP1 DUP2 MSTORE PUSH1 0x20 ADD PUSH1 0x0 KECCAK256 DUP2 SWAP1 SSTORE POP PUSH1 0x1 SWAP1 POP SWAP1 JUMP JUMPDEST PUSH1 0x11 PUSH1 0x0 SWAP1 SLOAD SWAP1 PUSH2 0x100 EXP SWAP1 DIV PUSH1 0xFF AND DUP2 JUMP JUMPDEST PUSH1 0x4 PUSH1 0x0 SWAP1 SLOAD SWAP1 PUSH2 0x100 EXP SWAP1 DIV PUSH20 0xFFFFFFFFFFFFFFFFFFFFFFFFFFFFFFFFFFFFFFFF AND DUP2 JUMP JUMPDEST PUSH1 0x7 PUSH1 0x0 SWAP1 SLOAD SWAP1 PUSH2 0x100 EXP SWAP1 DIV PUSH20 0xFFFFFFFFFFFFFFFFFFFFFFFFFFFFFFFFFFFFFFFF AND PUSH20 0xFFFFFFFFFFFFFFFFFFFFFFFFFFFFFFFFFFFFFFFF AND CALLER PUSH20 0xFFFFFFFFFFFFFFFFFFFFFFFFFFFFFFFFFFFFFFFF AND EQ PUSH2 0xE57 JUMPI PUSH1 0x0 DUP1 REVERT JUMPDEST PUSH1 0x3 PUSH1 0x11 PUSH1 0x0 PUSH2 0x100 EXP DUP2 SLOAD DUP2 PUSH1 0xFF MUL NOT AND SWAP1 DUP4 PUSH1 0x3 DUP2 GT ISZERO PUSH2 0xE7D JUMPI PUSH2 0xE7C PUSH2 0x1990 JUMP JUMPDEST JUMPDEST MUL OR SWAP1 SSTORE POP JUMP JUMPDEST PUSH1 0x0 PUSH1 0x5 PUSH1 0x0 DUP4 PUSH20 0xFFFFFFFFFFFFFFFFFFFFFFFFFFFFFFFFFFFFFFFF AND PUSH20 0xFFFFFFFFFFFFFFFFFFFFFFFFFFFFFFFFFFFFFFFF AND DUP2 MSTORE PUSH1 0x20 ADD SWAP1 DUP2 MSTORE PUSH1 0x20 ADD PUSH1 0x0 KECCAK256 SLOAD SWAP1 POP SWAP2 SWAP1 POP JUMP JUMPDEST PUSH1 0x7 PUSH1 0x0 SWAP1 SLOAD SWAP1 PUSH2 0x100 EXP SWAP1 DIV PUSH20 0xFFFFFFFFFFFFFFFFFFFFFFFFFFFFFFFFFFFFFFFF AND PUSH20 0xFFFFFFFFFFFFFFFFFFFFFFFFFFFFFFFFFFFFFFFF AND CALLER PUSH20 0xFFFFFFFFFFFFFFFFFFFFFFFFFFFFFFFFFFFFFFFF AND EQ PUSH2 0xF27 JUMPI PUSH1 0x0 DUP1 REVERT JUMPDEST DUP1 PUSH1 0x8 PUSH1 0x0 PUSH2 0x100 EXP DUP2 SLOAD DUP2 PUSH20 0xFFFFFFFFFFFFFFFFFFFFFFFFFFFFFFFFFFFFFFFF MUL NOT AND SWAP1 DUP4 PUSH20 0xFFFFFFFFFFFFFFFFFFFFFFFFFFFFFFFFFFFFFFFF AND MUL OR SWAP1 SSTORE POP POP JUMP JUMPDEST PUSH1 0x10 SLOAD DUP2 JUMP JUMPDEST PUSH1 0x1 DUP1 SLOAD PUSH2 0xF7E SWAP1 PUSH2 0x1F16 JUMP JUMPDEST DUP1 PUSH1 0x1F ADD PUSH1 0x20 DUP1 SWAP2 DIV MUL PUSH1 0x20 ADD PUSH1 0x40 MLOAD SWAP1 DUP2 ADD PUSH1 0x40 MSTORE DUP1 SWAP3 SWAP2 SWAP1 DUP2 DUP2 MSTORE PUSH1 0x20 ADD DUP3 DUP1 SLOAD PUSH2 0xFAA SWAP1 PUSH2 0x1F16 JUMP JUMPDEST DUP1 ISZERO PUSH2 0xFF7 JUMPI DUP1 PUSH1 0x1F LT PUSH2 0xFCC JUMPI PUSH2 0x100 DUP1 DUP4 SLOAD DIV MUL DUP4 MSTORE SWAP2 PUSH1 0x20 ADD SWAP2 PUSH2 0xFF7 JUMP JUMPDEST DUP3 ADD SWAP2 SWAP1 PUSH1 0x0 MSTORE PUSH1 0x20 PUSH1 0x0 KECCAK256 SWAP1 JUMPDEST DUP2 SLOAD DUP2 MSTORE SWAP1 PUSH1 0x1 ADD SWAP1 PUSH1 0x20 ADD DUP1 DUP4 GT PUSH2 0xFDA JUMPI DUP3 SWAP1 SUB PUSH1 0x1F AND DUP3 ADD SWAP2 JUMPDEST POP POP POP POP POP DUP2 JUMP JUMPDEST PUSH1 0x0 PUSH1 0xE SLOAD TIMESTAMP GT PUSH2 0x100F JUMPI PUSH1 0x0 DUP1 REVERT JUMPDEST PUSH2 0x1019 DUP4 DUP4 PUSH2 0x1469 JUMP JUMPDEST POP PUSH1 0x1 SWAP1 POP SWAP3 SWAP2 POP POP JUMP JUMPDEST PUSH1 0xC SLOAD DUP2 JUMP JUMPDEST PUSH1 0xD SLOAD DUP2 JUMP JUMPDEST PUSH1 0xB SLOAD DUP2 JUMP JUMPDEST PUSH1 0xE SLOAD DUP2 JUMP JUMPDEST PUSH1 0x8 PUSH1 0x0 SWAP1 SLOAD SWAP1 PUSH2 0x100 EXP SWAP1 DIV PUSH20 0xFFFFFFFFFFFFFFFFFFFFFFFFFFFFFFFFFFFFFFFF AND DUP2 JUMP JUMPDEST PUSH1 0x0 PUSH1 0x6 PUSH1 0x0 DUP5 PUSH20 0xFFFFFFFFFFFFFFFFFFFFFFFFFFFFFFFFFFFFFFFF AND PUSH20 0xFFFFFFFFFFFFFFFFFFFFFFFFFFFFFFFFFFFFFFFF AND DUP2 MSTORE PUSH1 0x20 ADD SWAP1 DUP2 MSTORE PUSH1 0x20 ADD PUSH1 0x0 KECCAK256 PUSH1 0x0 DUP4 PUSH20 0xFFFFFFFFFFFFFFFFFFFFFFFFFFFFFFFFFFFFFFFF AND PUSH20 0xFFFFFFFFFFFFFFFFFFFFFFFFFFFFFFFFFFFFFFFF AND DUP2 MSTORE PUSH1 0x20 ADD SWAP1 DUP2 MSTORE PUSH1 0x20 ADD PUSH1 0x0 KECCAK256 SLOAD SWAP1 POP SWAP3 SWAP2 POP POP JUMP JUMPDEST PUSH1 0x7 PUSH1 0x0 SWAP1 SLOAD SWAP1 PUSH2 0x100 EXP SWAP1 DIV PUSH20 0xFFFFFFFFFFFFFFFFFFFFFFFFFFFFFFFFFFFFFFFF AND DUP2 JUMP JUMPDEST PUSH1 0xA SLOAD DUP2 JUMP JUMPDEST PUSH1 0x60 PUSH1 0x0 PUSH1 0x1 PUSH2 0x1124 DUP5 PUSH2 0x15D2 JUMP JUMPDEST ADD SWAP1 POP PUSH1 0x0 DUP2 PUSH8 0xFFFFFFFFFFFFFFFF DUP2 GT ISZERO PUSH2 0x1143 JUMPI PUSH2 0x1142 PUSH2 0x1F47 JUMP JUMPDEST JUMPDEST PUSH1 0x40 MLOAD SWAP1 DUP1 DUP3 MSTORE DUP1 PUSH1 0x1F ADD PUSH1 0x1F NOT AND PUSH1 0x20 ADD DUP3 ADD PUSH1 0x40 MSTORE DUP1 ISZERO PUSH2 0x1175 JUMPI DUP2 PUSH1 0x20 ADD PUSH1 0x1 DUP3 MUL DUP1 CALLDATASIZE DUP4 CALLDATACOPY DUP1 DUP3 ADD SWAP2 POP POP SWAP1 POP JUMPDEST POP SWAP1 POP PUSH1 0x0 DUP3 PUSH1 0x20 ADD DUP3 ADD SWAP1 POP JUMPDEST PUSH1 0x1 ISZERO PUSH2 0x11D8 JUMPI DUP1 DUP1 PUSH1 0x1 SWAP1 SUB SWAP2 POP POP PUSH32 0x3031323334353637383961626364656600000000000000000000000000000000 PUSH1 0xA DUP7 MOD BYTE DUP2 MSTORE8 PUSH1 0xA DUP6 DUP2 PUSH2 0x11CC JUMPI PUSH2 0x11CB PUSH2 0x1D42 JUMP JUMPDEST JUMPDEST DIV SWAP5 POP PUSH1 0x0 DUP6 SUB PUSH2 0x1183 JUMPI JUMPDEST DUP2 SWAP4 POP POP POP POP SWAP2 SWAP1 POP JUMP JUMPDEST PUSH1 0x0 DUP2 PUSH1 0x6 PUSH1 0x0 DUP7 PUSH20 0xFFFFFFFFFFFFFFFFFFFFFFFFFFFFFFFFFFFFFFFF AND PUSH20 0xFFFFFFFFFFFFFFFFFFFFFFFFFFFFFFFFFFFFFFFF AND DUP2 MSTORE PUSH1 0x20 ADD SWAP1 DUP2 MSTORE PUSH1 0x20 ADD PUSH1 0x0 KECCAK256 PUSH1 0x0 CALLER PUSH20 0xFFFFFFFFFFFFFFFFFFFFFFFFFFFFFFFFFFFFFFFF AND PUSH20 0xFFFFFFFFFFFFFFFFFFFFFFFFFFFFFFFFFFFFFFFF AND DUP2 MSTORE PUSH1 0x20 ADD SWAP1 DUP2 MSTORE PUSH1 0x20 ADD PUSH1 0x0 KECCAK256 SLOAD LT ISZERO PUSH2 0x126E JUMPI PUSH1 0x0 DUP1 REVERT JUMPDEST DUP2 PUSH1 0x5 PUSH1 0x0 DUP7 PUSH20 0xFFFFFFFFFFFFFFFFFFFFFFFFFFFFFFFFFFFFFFFF AND PUSH20 0xFFFFFFFFFFFFFFFFFFFFFFFFFFFFFFFFFFFFFFFF AND DUP2 MSTORE PUSH1 0x20 ADD SWAP1 DUP2 MSTORE PUSH1 0x20 ADD PUSH1 0x0 KECCAK256 SLOAD LT ISZERO PUSH2 0x12BA JUMPI PUSH1 0x0 DUP1 REVERT JUMPDEST DUP2 PUSH1 0x5 PUSH1 0x0 DUP7 PUSH20 0xFFFFFFFFFFFFFFFFFFFFFFFFFFFFFFFFFFFFFFFF AND PUSH20 0xFFFFFFFFFFFFFFFFFFFFFFFFFFFFFFFFFFFFFFFF AND DUP2 MSTORE PUSH1 0x20 ADD SWAP1 DUP2 MSTORE PUSH1 0x20 ADD PUSH1 0x0 KECCAK256 PUSH1 0x0 DUP3 DUP3 SLOAD PUSH2 0x1309 SWAP2 SWAP1 PUSH2 0x1E7C JUMP JUMPDEST SWAP3 POP POP DUP2 SWAP1 SSTORE POP DUP2 PUSH1 0x5 PUSH1 0x0 DUP6 PUSH20 0xFFFFFFFFFFFFFFFFFFFFFFFFFFFFFFFFFFFFFFFF AND PUSH20 0xFFFFFFFFFFFFFFFFFFFFFFFFFFFFFFFFFFFFFFFF AND DUP2 MSTORE PUSH1 0x20 ADD SWAP1 DUP2 MSTORE PUSH1 0x20 ADD PUSH1 0x0 KECCAK256 PUSH1 0x0 DUP3 DUP3 SLOAD PUSH2 0x135F SWAP2 SWAP1 PUSH2 0x1CA2 JUMP JUMPDEST SWAP3 POP POP DUP2 SWAP1 SSTORE POP DUP2 PUSH1 0x6 PUSH1 0x0 DUP7 PUSH20 0xFFFFFFFFFFFFFFFFFFFFFFFFFFFFFFFFFFFFFFFF AND PUSH20 0xFFFFFFFFFFFFFFFFFFFFFFFFFFFFFFFFFFFFFFFF AND DUP2 MSTORE PUSH1 0x20 ADD SWAP1 DUP2 MSTORE PUSH1 0x20 ADD PUSH1 0x0 KECCAK256 PUSH1 0x0 CALLER PUSH20 0xFFFFFFFFFFFFFFFFFFFFFFFFFFFFFFFFFFFFFFFF AND PUSH20 0xFFFFFFFFFFFFFFFFFFFFFFFFFFFFFFFFFFFFFFFF AND DUP2 MSTORE PUSH1 0x20 ADD SWAP1 DUP2 MSTORE PUSH1 0x20 ADD PUSH1 0x0 KECCAK256 PUSH1 0x0 DUP3 DUP3 SLOAD PUSH2 0x13F2 SWAP2 SWAP1 PUSH2 0x1E7C JUMP JUMPDEST SWAP3 POP POP DUP2 SWAP1 SSTORE POP DUP3 PUSH20 0xFFFFFFFFFFFFFFFFFFFFFFFFFFFFFFFFFFFFFFFF AND DUP5 PUSH20 0xFFFFFFFFFFFFFFFFFFFFFFFFFFFFFFFFFFFFFFFF AND PUSH32 0xDDF252AD1BE2C89B69C2B068FC378DAA952BA7F163C4A11628F55A4DF523B3EF DUP5 PUSH1 0x40 MLOAD PUSH2 0x1456 SWAP2 SWAP1 PUSH2 0x173E JUMP JUMPDEST PUSH1 0x40 MLOAD DUP1 SWAP2 SUB SWAP1 LOG3 PUSH1 0x1 SWAP1 POP SWAP4 SWAP3 POP POP POP JUMP JUMPDEST PUSH1 0x0 DUP2 PUSH1 0x5 PUSH1 0x0 CALLER PUSH20 0xFFFFFFFFFFFFFFFFFFFFFFFFFFFFFFFFFFFFFFFF AND PUSH20 0xFFFFFFFFFFFFFFFFFFFFFFFFFFFFFFFFFFFFFFFF AND DUP2 MSTORE PUSH1 0x20 ADD SWAP1 DUP2 MSTORE PUSH1 0x20 ADD PUSH1 0x0 KECCAK256 SLOAD LT ISZERO PUSH2 0x14B7 JUMPI PUSH1 0x0 DUP1 REVERT JUMPDEST DUP2 PUSH1 0x5 PUSH1 0x0 DUP6 PUSH20 0xFFFFFFFFFFFFFFFFFFFFFFFFFFFFFFFFFFFFFFFF AND PUSH20 0xFFFFFFFFFFFFFFFFFFFFFFFFFFFFFFFFFFFFFFFF AND DUP2 MSTORE PUSH1 0x20 ADD SWAP1 DUP2 MSTORE PUSH1 0x20 ADD PUSH1 0x0 KECCAK256 PUSH1 0x0 DUP3 DUP3 SLOAD PUSH2 0x1506 SWAP2 SWAP1 PUSH2 0x1CA2 JUMP JUMPDEST SWAP3 POP POP DUP2 SWAP1 SSTORE POP DUP2 PUSH1 0x5 PUSH1 0x0 CALLER PUSH20 0xFFFFFFFFFFFFFFFFFFFFFFFFFFFFFFFFFFFFFFFF AND PUSH20 0xFFFFFFFFFFFFFFFFFFFFFFFFFFFFFFFFFFFFFFFF AND DUP2 MSTORE PUSH1 0x20 ADD SWAP1 DUP2 MSTORE PUSH1 0x20 ADD PUSH1 0x0 KECCAK256 PUSH1 0x0 DUP3 DUP3 SLOAD PUSH2 0x155C SWAP2 SWAP1 PUSH2 0x1E7C JUMP JUMPDEST SWAP3 POP POP DUP2 SWAP1 SSTORE POP DUP3 PUSH20 0xFFFFFFFFFFFFFFFFFFFFFFFFFFFFFFFFFFFFFFFF AND CALLER PUSH20 0xFFFFFFFFFFFFFFFFFFFFFFFFFFFFFFFFFFFFFFFF AND PUSH32 0xDDF252AD1BE2C89B69C2B068FC378DAA952BA7F163C4A11628F55A4DF523B3EF DUP5 PUSH1 0x40 MLOAD PUSH2 0x15C0 SWAP2 SWAP1 PUSH2 0x173E JUMP JUMPDEST PUSH1 0x40 MLOAD DUP1 SWAP2 SUB SWAP1 LOG3 PUSH1 0x1 SWAP1 POP SWAP3 SWAP2 POP POP JUMP JUMPDEST PUSH1 0x0 DUP1 PUSH1 0x0 SWAP1 POP PUSH27 0x184F03E93FF9F4DAA797ED6E38ED64BF6A1F010000000000000000 DUP4 LT PUSH2 0x1630 JUMPI PUSH27 0x184F03E93FF9F4DAA797ED6E38ED64BF6A1F010000000000000000 DUP4 DUP2 PUSH2 0x1626 JUMPI PUSH2 0x1625 PUSH2 0x1D42 JUMP JUMPDEST JUMPDEST DIV SWAP3 POP PUSH1 0x40 DUP2 ADD SWAP1 POP JUMPDEST PUSH14 0x4EE2D6D415B85ACEF8100000000 DUP4 LT PUSH2 0x166D JUMPI PUSH14 0x4EE2D6D415B85ACEF8100000000 DUP4 DUP2 PUSH2 0x1663 JUMPI PUSH2 0x1662 PUSH2 0x1D42 JUMP JUMPDEST JUMPDEST DIV SWAP3 POP PUSH1 0x20 DUP2 ADD SWAP1 POP JUMPDEST PUSH7 0x2386F26FC10000 DUP4 LT PUSH2 0x169C JUMPI PUSH7 0x2386F26FC10000 DUP4 DUP2 PUSH2 0x1692 JUMPI PUSH2 0x1691 PUSH2 0x1D42 JUMP JUMPDEST JUMPDEST DIV SWAP3 POP PUSH1 0x10 DUP2 ADD SWAP1 POP JUMPDEST PUSH4 0x5F5E100 DUP4 LT PUSH2 0x16C5 JUMPI PUSH4 0x5F5E100 DUP4 DUP2 PUSH2 0x16BB JUMPI PUSH2 0x16BA PUSH2 0x1D42 JUMP JUMPDEST JUMPDEST DIV SWAP3 POP PUSH1 0x8 DUP2 ADD SWAP1 POP JUMPDEST PUSH2 0x2710 DUP4 LT PUSH2 0x16EA JUMPI PUSH2 0x2710 DUP4 DUP2 PUSH2 0x16E0 JUMPI PUSH2 0x16DF PUSH2 0x1D42 JUMP JUMPDEST JUMPDEST DIV SWAP3 POP PUSH1 0x4 DUP2 ADD SWAP1 POP JUMPDEST PUSH1 0x64 DUP4 LT PUSH2 0x170D JUMPI PUSH1 0x64 DUP4 DUP2 PUSH2 0x1703 JUMPI PUSH2 0x1702 PUSH2 0x1D42 JUMP JUMPDEST JUMPDEST DIV SWAP3 POP PUSH1 0x2 DUP2 ADD SWAP1 POP JUMPDEST PUSH1 0xA DUP4 LT PUSH2 0x171C JUMPI PUSH1 0x1 DUP2 ADD SWAP1 POP JUMPDEST DUP1 SWAP2 POP POP SWAP2 SWAP1 POP JUMP JUMPDEST PUSH1 0x0 DUP2 SWAP1 POP SWAP2 SWAP1 POP JUMP JUMPDEST PUSH2 0x1738 DUP2 PUSH2 0x1725 JUMP JUMPDEST DUP3 MSTORE POP POP JUMP JUMPDEST PUSH1 0x0 PUSH1 0x20 DUP3 ADD SWAP1 POP PUSH2 0x1753 PUSH1 0x0 DUP4 ADD DUP5 PUSH2 0x172F JUMP JUMPDEST SWAP3 SWAP2 POP POP JUMP JUMPDEST PUSH1 0x0 DUP2 MLOAD SWAP1 POP SWAP2 SWAP1 POP JUMP JUMPDEST PUSH1 0x0 DUP3 DUP3 MSTORE PUSH1 0x20 DUP3 ADD SWAP1 POP SWAP3 SWAP2 POP POP JUMP JUMPDEST PUSH1 0x0 JUMPDEST DUP4 DUP2 LT ISZERO PUSH2 0x1793 JUMPI DUP1 DUP3 ADD MLOAD DUP2 DUP5 ADD MSTORE PUSH1 0x20 DUP2 ADD SWAP1 POP PUSH2 0x1778 JUMP JUMPDEST PUSH1 0x0 DUP5 DUP5 ADD MSTORE POP POP POP POP JUMP JUMPDEST PUSH1 0x0 PUSH1 0x1F NOT PUSH1 0x1F DUP4 ADD AND SWAP1 POP SWAP2 SWAP1 POP JUMP JUMPDEST PUSH1 0x0 PUSH2 0x17BB DUP3 PUSH2 0x1759 JUMP JUMPDEST PUSH2 0x17C5 DUP2 DUP6 PUSH2 0x1764 JUMP JUMPDEST SWAP4 POP PUSH2 0x17D5 DUP2 DUP6 PUSH1 0x20 DUP7 ADD PUSH2 0x1775 JUMP JUMPDEST PUSH2 0x17DE DUP2 PUSH2 0x179F JUMP JUMPDEST DUP5 ADD SWAP2 POP POP SWAP3 SWAP2 POP POP JUMP JUMPDEST PUSH1 0x0 PUSH1 0x20 DUP3 ADD SWAP1 POP DUP2 DUP2 SUB PUSH1 0x0 DUP4 ADD MSTORE PUSH2 0x1803 DUP2 DUP5 PUSH2 0x17B0 JUMP JUMPDEST SWAP1 POP SWAP3 SWAP2 POP POP JUMP JUMPDEST PUSH1 0x0 DUP1 REVERT JUMPDEST PUSH1 0x0 PUSH20 0xFFFFFFFFFFFFFFFFFFFFFFFFFFFFFFFFFFFFFFFF DUP3 AND SWAP1 POP SWAP2 SWAP1 POP JUMP JUMPDEST PUSH1 0x0 PUSH2 0x183B DUP3 PUSH2 0x1810 JUMP JUMPDEST SWAP1 POP SWAP2 SWAP1 POP JUMP JUMPDEST PUSH2 0x184B DUP2 PUSH2 0x1830 JUMP JUMPDEST DUP2 EQ PUSH2 0x1856 JUMPI PUSH1 0x0 DUP1 REVERT JUMPDEST POP JUMP JUMPDEST PUSH1 0x0 DUP2 CALLDATALOAD SWAP1 POP PUSH2 0x1868 DUP2 PUSH2 0x1842 JUMP JUMPDEST SWAP3 SWAP2 POP POP JUMP JUMPDEST PUSH2 0x1877 DUP2 PUSH2 0x1725 JUMP JUMPDEST DUP2 EQ PUSH2 0x1882 JUMPI PUSH1 0x0 DUP1 REVERT JUMPDEST POP JUMP JUMPDEST PUSH1 0x0 DUP2 CALLDATALOAD SWAP1 POP PUSH2 0x1894 DUP2 PUSH2 0x186E JUMP JUMPDEST SWAP3 SWAP2 POP POP JUMP JUMPDEST PUSH1 0x0 DUP1 PUSH1 0x40 DUP4 DUP6 SUB SLT ISZERO PUSH2 0x18B1 JUMPI PUSH2 0x18B0 PUSH2 0x180B JUMP JUMPDEST JUMPDEST PUSH1 0x0 PUSH2 0x18BF DUP6 DUP3 DUP7 ADD PUSH2 0x1859 JUMP JUMPDEST SWAP3 POP POP PUSH1 0x20 PUSH2 0x18D0 DUP6 DUP3 DUP7 ADD PUSH2 0x1885 JUMP JUMPDEST SWAP2 POP POP SWAP3 POP SWAP3 SWAP1 POP JUMP JUMPDEST PUSH1 0x0 DUP2 ISZERO ISZERO SWAP1 POP SWAP2 SWAP1 POP JUMP JUMPDEST PUSH2 0x18EF DUP2 PUSH2 0x18DA JUMP JUMPDEST DUP3 MSTORE POP POP JUMP JUMPDEST PUSH1 0x0 PUSH1 0x20 DUP3 ADD SWAP1 POP PUSH2 0x190A PUSH1 0x0 DUP4 ADD DUP5 PUSH2 0x18E6 JUMP JUMPDEST SWAP3 SWAP2 POP POP JUMP JUMPDEST PUSH1 0x0 DUP1 PUSH1 0x0 PUSH1 0x60 DUP5 DUP7 SUB SLT ISZERO PUSH2 0x1929 JUMPI PUSH2 0x1928 PUSH2 0x180B JUMP JUMPDEST JUMPDEST PUSH1 0x0 PUSH2 0x1937 DUP7 DUP3 DUP8 ADD PUSH2 0x1859 JUMP JUMPDEST SWAP4 POP POP PUSH1 0x20 PUSH2 0x1948 DUP7 DUP3 DUP8 ADD PUSH2 0x1859 JUMP JUMPDEST SWAP3 POP POP PUSH1 0x40 PUSH2 0x1959 DUP7 DUP3 DUP8 ADD PUSH2 0x1885 JUMP JUMPDEST SWAP2 POP POP SWAP3 POP SWAP3 POP SWAP3 JUMP JUMPDEST PUSH1 0x0 PUSH1 0x20 DUP3 DUP5 SUB SLT ISZERO PUSH2 0x1979 JUMPI PUSH2 0x1978 PUSH2 0x180B JUMP JUMPDEST JUMPDEST PUSH1 0x0 PUSH2 0x1987 DUP5 DUP3 DUP6 ADD PUSH2 0x1859 JUMP JUMPDEST SWAP2 POP POP SWAP3 SWAP2 POP POP JUMP JUMPDEST PUSH32 0x4E487B7100000000000000000000000000000000000000000000000000000000 PUSH1 0x0 MSTORE PUSH1 0x21 PUSH1 0x4 MSTORE PUSH1 0x24 PUSH1 0x0 REVERT JUMPDEST PUSH1 0x4 DUP2 LT PUSH2 0x19D0 JUMPI PUSH2 0x19CF PUSH2 0x1990 JUMP JUMPDEST JUMPDEST POP JUMP JUMPDEST PUSH1 0x0 DUP2 SWAP1 POP PUSH2 0x19E1 DUP3 PUSH2 0x19BF JUMP JUMPDEST SWAP2 SWAP1 POP JUMP JUMPDEST PUSH1 0x0 PUSH2 0x19F1 DUP3 PUSH2 0x19D3 JUMP JUMPDEST SWAP1 POP SWAP2 SWAP1 POP JUMP JUMPDEST PUSH2 0x1A01 DUP2 PUSH2 0x19E6 JUMP JUMPDEST DUP3 MSTORE POP POP JUMP JUMPDEST PUSH1 0x0 PUSH1 0x20 DUP3 ADD SWAP1 POP PUSH2 0x1A1C PUSH1 0x0 DUP4 ADD DUP5 PUSH2 0x19F8 JUMP JUMPDEST SWAP3 SWAP2 POP POP JUMP JUMPDEST PUSH2 0x1A2B DUP2 PUSH2 0x1830 JUMP JUMPDEST DUP3 MSTORE POP POP JUMP JUMPDEST PUSH1 0x0 PUSH1 0x20 DUP3 ADD SWAP1 POP PUSH2 0x1A46 PUSH1 0x0 DUP4 ADD DUP5 PUSH2 0x1A22 JUMP JUMPDEST SWAP3 SWAP2 POP POP JUMP JUMPDEST PUSH1 0x0 PUSH2 0x1A57 DUP3 PUSH2 0x1810 JUMP JUMPDEST SWAP1 POP SWAP2 SWAP1 POP JUMP JUMPDEST PUSH2 0x1A67 DUP2 PUSH2 0x1A4C JUMP JUMPDEST DUP2 EQ PUSH2 0x1A72 JUMPI PUSH1 0x0 DUP1 REVERT JUMPDEST POP JUMP JUMPDEST PUSH1 0x0 DUP2 CALLDATALOAD SWAP1 POP PUSH2 0x1A84 DUP2 PUSH2 0x1A5E JUMP JUMPDEST SWAP3 SWAP2 POP POP JUMP JUMPDEST PUSH1 0x0 PUSH1 0x20 DUP3 DUP5 SUB SLT ISZERO PUSH2 0x1AA0 JUMPI PUSH2 0x1A9F PUSH2 0x180B JUMP JUMPDEST JUMPDEST PUSH1 0x0 PUSH2 0x1AAE DUP5 DUP3 DUP6 ADD PUSH2 0x1A75 JUMP JUMPDEST SWAP2 POP POP SWAP3 SWAP2 POP POP JUMP JUMPDEST PUSH2 0x1AC0 DUP2 PUSH2 0x1A4C JUMP JUMPDEST DUP3 MSTORE POP POP JUMP JUMPDEST PUSH1 0x0 PUSH1 0x20 DUP3 ADD SWAP1 POP PUSH2 0x1ADB PUSH1 0x0 DUP4 ADD DUP5 PUSH2 0x1AB7 JUMP JUMPDEST SWAP3 SWAP2 POP POP JUMP JUMPDEST PUSH1 0x0 DUP1 PUSH1 0x40 DUP4 DUP6 SUB SLT ISZERO PUSH2 0x1AF8 JUMPI PUSH2 0x1AF7 PUSH2 0x180B JUMP JUMPDEST JUMPDEST PUSH1 0x0 PUSH2 0x1B06 DUP6 DUP3 DUP7 ADD PUSH2 0x1859 JUMP JUMPDEST SWAP3 POP POP PUSH1 0x20 PUSH2 0x1B17 DUP6 DUP3 DUP7 ADD PUSH2 0x1859 JUMP JUMPDEST SWAP2 POP POP SWAP3 POP SWAP3 SWAP1 POP JUMP JUMPDEST PUSH32 0x74657374206C6F672E2E2E000000000000000000000000000000000000000000 PUSH1 0x0 DUP3 ADD MSTORE POP JUMP JUMPDEST PUSH1 0x0 PUSH2 0x1B57 PUSH1 0xB DUP4 PUSH2 0x1764 JUMP JUMPDEST SWAP2 POP PUSH2 0x1B62 DUP3 PUSH2 0x1B21 JUMP JUMPDEST PUSH1 0x20 DUP3 ADD SWAP1 POP SWAP2 SWAP1 POP JUMP JUMPDEST PUSH1 0x0 PUSH1 0x40 DUP3 ADD SWAP1 POP PUSH2 0x1B82 PUSH1 0x0 DUP4 ADD DUP5 PUSH2 0x1A22 JUMP JUMPDEST DUP2 DUP2 SUB PUSH1 0x20 DUP4 ADD MSTORE PUSH2 0x1B93 DUP2 PUSH2 0x1B4A JUMP JUMPDEST SWAP1 POP SWAP3 SWAP2 POP POP JUMP JUMPDEST PUSH32 0x6D7573742072756E6E696E670000000000000000000000000000000000000000 PUSH1 0x0 DUP3 ADD MSTORE POP JUMP JUMPDEST PUSH1 0x0 PUSH2 0x1BD1 PUSH1 0xC DUP4 PUSH2 0x1764 JUMP JUMPDEST SWAP2 POP PUSH2 0x1BDC DUP3 PUSH2 0x1B9B JUMP JUMPDEST PUSH1 0x20 DUP3 ADD SWAP1 POP SWAP2 SWAP1 POP JUMP JUMPDEST PUSH1 0x0 PUSH1 0x20 DUP3 ADD SWAP1 POP DUP2 DUP2 SUB PUSH1 0x0 DUP4 ADD MSTORE PUSH2 0x1C00 DUP2 PUSH2 0x1BC4 JUMP JUMPDEST SWAP1 POP SWAP2 SWAP1 POP JUMP JUMPDEST PUSH32 0x696E766573742076616C7565206973206E6F74206F6B00000000000000000000 PUSH1 0x0 DUP3 ADD MSTORE POP JUMP JUMPDEST PUSH1 0x0 PUSH2 0x1C3D PUSH1 0x16 DUP4 PUSH2 0x1764 JUMP JUMPDEST SWAP2 POP PUSH2 0x1C48 DUP3 PUSH2 0x1C07 JUMP JUMPDEST PUSH1 0x20 DUP3 ADD SWAP1 POP SWAP2 SWAP1 POP JUMP JUMPDEST PUSH1 0x0 PUSH1 0x20 DUP3 ADD SWAP1 POP DUP2 DUP2 SUB PUSH1 0x0 DUP4 ADD MSTORE PUSH2 0x1C6C DUP2 PUSH2 0x1C30 JUMP JUMPDEST SWAP1 POP SWAP2 SWAP1 POP JUMP JUMPDEST PUSH32 0x4E487B7100000000000000000000000000000000000000000000000000000000 PUSH1 0x0 MSTORE PUSH1 0x11 PUSH1 0x4 MSTORE PUSH1 0x24 PUSH1 0x0 REVERT JUMPDEST PUSH1 0x0 PUSH2 0x1CAD DUP3 PUSH2 0x1725 JUMP JUMPDEST SWAP2 POP PUSH2 0x1CB8 DUP4 PUSH2 0x1725 JUMP JUMPDEST SWAP3 POP DUP3 DUP3 ADD SWAP1 POP DUP1 DUP3 GT ISZERO PUSH2 0x1CD0 JUMPI PUSH2 0x1CCF PUSH2 0x1C73 JUMP JUMPDEST JUMPDEST SWAP3 SWAP2 POP POP JUMP JUMPDEST PUSH32 0x726169736564416D6F756E74206973206E6F74206F6B00000000000000000000 PUSH1 0x0 DUP3 ADD MSTORE POP JUMP JUMPDEST PUSH1 0x0 PUSH2 0x1D0C PUSH1 0x16 DUP4 PUSH2 0x1764 JUMP JUMPDEST SWAP2 POP PUSH2 0x1D17 DUP3 PUSH2 0x1CD6 JUMP JUMPDEST PUSH1 0x20 DUP3 ADD SWAP1 POP SWAP2 SWAP1 POP JUMP JUMPDEST PUSH1 0x0 PUSH1 0x20 DUP3 ADD SWAP1 POP DUP2 DUP2 SUB PUSH1 0x0 DUP4 ADD MSTORE PUSH2 0x1D3B DUP2 PUSH2 0x1CFF JUMP JUMPDEST SWAP1 POP SWAP2 SWAP1 POP JUMP JUMPDEST PUSH32 0x4E487B7100000000000000000000000000000000000000000000000000000000 PUSH1 0x0 MSTORE PUSH1 0x12 PUSH1 0x4 MSTORE PUSH1 0x24 PUSH1 0x0 REVERT JUMPDEST PUSH1 0x0 PUSH2 0x1D7C DUP3 PUSH2 0x1725 JUMP JUMPDEST SWAP2 POP PUSH2 0x1D87 DUP4 PUSH2 0x1725 JUMP JUMPDEST SWAP3 POP DUP3 PUSH2 0x1D97 JUMPI PUSH2 0x1D96 PUSH2 0x1D42 JUMP JUMPDEST JUMPDEST DUP3 DUP3 DIV SWAP1 POP SWAP3 SWAP2 POP POP JUMP JUMPDEST PUSH1 0x0 DUP2 SWAP1 POP SWAP3 SWAP2 POP POP JUMP JUMPDEST PUSH32 0x746F6B656E732E2E2E0000000000000000000000000000000000000000000000 PUSH1 0x0 DUP3 ADD MSTORE POP JUMP JUMPDEST PUSH1 0x0 PUSH2 0x1DE3 PUSH1 0x9 DUP4 PUSH2 0x1DA2 JUMP JUMPDEST SWAP2 POP PUSH2 0x1DEE DUP3 PUSH2 0x1DAD JUMP JUMPDEST PUSH1 0x9 DUP3 ADD SWAP1 POP SWAP2 SWAP1 POP JUMP JUMPDEST PUSH1 0x0 PUSH2 0x1E04 DUP3 PUSH2 0x1759 JUMP JUMPDEST PUSH2 0x1E0E DUP2 DUP6 PUSH2 0x1DA2 JUMP JUMPDEST SWAP4 POP PUSH2 0x1E1E DUP2 DUP6 PUSH1 0x20 DUP7 ADD PUSH2 0x1775 JUMP JUMPDEST DUP1 DUP5 ADD SWAP2 POP POP SWAP3 SWAP2 POP POP JUMP JUMPDEST PUSH1 0x0 PUSH2 0x1E35 DUP3 PUSH2 0x1DD6 JUMP JUMPDEST SWAP2 POP PUSH2 0x1E41 DUP3 DUP5 PUSH2 0x1DF9 JUMP JUMPDEST SWAP2 POP DUP2 SWAP1 POP SWAP3 SWAP2 POP POP JUMP JUMPDEST PUSH1 0x0 PUSH1 0x40 DUP3 ADD SWAP1 POP PUSH2 0x1E61 PUSH1 0x0 DUP4 ADD DUP6 PUSH2 0x1A22 JUMP JUMPDEST DUP2 DUP2 SUB PUSH1 0x20 DUP4 ADD MSTORE PUSH2 0x1E73 DUP2 DUP5 PUSH2 0x17B0 JUMP JUMPDEST SWAP1 POP SWAP4 SWAP3 POP POP POP JUMP JUMPDEST PUSH1 0x0 PUSH2 0x1E87 DUP3 PUSH2 0x1725 JUMP JUMPDEST SWAP2 POP PUSH2 0x1E92 DUP4 PUSH2 0x1725 JUMP JUMPDEST SWAP3 POP DUP3 DUP3 SUB SWAP1 POP DUP2 DUP2 GT ISZERO PUSH2 0x1EAA JUMPI PUSH2 0x1EA9 PUSH2 0x1C73 JUMP JUMPDEST JUMPDEST SWAP3 SWAP2 POP POP JUMP JUMPDEST PUSH1 0x0 PUSH1 0x60 DUP3 ADD SWAP1 POP PUSH2 0x1EC5 PUSH1 0x0 DUP4 ADD DUP7 PUSH2 0x1A22 JUMP JUMPDEST PUSH2 0x1ED2 PUSH1 0x20 DUP4 ADD DUP6 PUSH2 0x172F JUMP JUMPDEST PUSH2 0x1EDF PUSH1 0x40 DUP4 ADD DUP5 PUSH2 0x172F JUMP JUMPDEST SWAP5 SWAP4 POP POP POP POP JUMP JUMPDEST PUSH32 0x4E487B7100000000000000000000000000000000000000000000000000000000 PUSH1 0x0 MSTORE PUSH1 0x22 PUSH1 0x4 MSTORE PUSH1 0x24 PUSH1 0x0 REVERT JUMPDEST PUSH1 0x0 PUSH1 0x2 DUP3 DIV SWAP1 POP PUSH1 0x1 DUP3 AND DUP1 PUSH2 0x1F2E JUMPI PUSH1 0x7F DUP3 AND SWAP2 POP JUMPDEST PUSH1 0x20 DUP3 LT DUP2 SUB PUSH2 0x1F41 JUMPI PUSH2 0x1F40 PUSH2 0x1EE7 JUMP JUMPDEST JUMPDEST POP SWAP2 SWAP1 POP JUMP JUMPDEST PUSH32 0x4E487B7100000000000000000000000000000000000000000000000000000000 PUSH1 0x0 MSTORE PUSH1 0x41 PUSH1 0x4 MSTORE PUSH1 0x24 PUSH1 0x0 REVERT INVALID LOG2 PUSH5 0x6970667358 0x22 SLT KECCAK256 0x5C ADDMOD 0xB2 0xEA CALLVALUE DUP11 SELFBALANCE 0x22 0xC1 DUP7 RETURN SWAP9 0xBA 0xCF 0xE4 0xCD PUSH2 0x24FD 0xF 0xF9 0xD0 PUSH15 0x8619D1AEC8D0768B9264736F6C6343 STOP ADDMOD GT STOP CALLER "
				},
				"gasEstimates": {
					"creation": {
						"codeDepositCost": "1621600",
						"executionCost": "infinite",
						"totalCost": "infinite"
					},
					"external": {
						"admin()": "2602",
						"allowance(address,address)": "infinite",
						"approve(address,uint256)": "infinite",
						"balanceOf(address)": "2887",
						"balances(address)": "2860",
						"burn()": "31915",
						"changeDeposiAddress(address)": "26960",
						"decimals()": "2497",
						"deposit()": "2603",
						"founder()": "2603",
						"getCurrentState()": "9130",
						"halt()": "26712",
						"hardCap()": "2539",
						"icoState()": "2627",
						"invest()": "infinite",
						"maxInvestment()": "2453",
						"minInvestment()": "2519",
						"name()": "infinite",
						"raisedAmount()": "2474",
						"resume()": "26647",
						"saleEnd()": "2540",
						"saleStart()": "2518",
						"symbol()": "infinite",
						"tokenTradeStart()": "2496",
						"totalSupply()": "2541",
						"transfer(address,uint256)": "infinite",
						"transferFrom(address,address,uint256)": "infinite"
					}
				},
				"methodIdentifiers": {
					"admin()": "f851a440",
					"allowance(address,address)": "dd62ed3e",
					"approve(address,uint256)": "095ea7b3",
					"balanceOf(address)": "70a08231",
					"balances(address)": "27e235e3",
					"burn()": "44df8e70",
					"changeDeposiAddress(address)": "88b15754",
					"decimals()": "313ce567",
					"deposit()": "d0e30db0",
					"founder()": "4d853ee5",
					"getCurrentState()": "378aa701",
					"halt()": "5ed7ca5b",
					"hardCap()": "fb86a404",
					"icoState()": "44f38756",
					"invest()": "e8b5e51f",
					"maxInvestment()": "002e1316",
					"minInvestment()": "8ac2c680",
					"name()": "06fdde03",
					"raisedAmount()": "c59ee1dc",
					"resume()": "046f7da2",
					"saleEnd()": "c10b9358",
					"saleStart()": "ab0bcc41",
					"symbol()": "95d89b41",
					"tokenTradeStart()": "cc9ba583",
					"totalSupply()": "18160ddd",
					"transfer(address,uint256)": "a9059cbb",
					"transferFrom(address,address,uint256)": "23b872dd"
				}
			},
			"storageLayout": {
				"storage": [
					{
						"astId": 1115,
						"contract": "contracts/ERC20Interface.sol:CrytisICO",
						"label": "name",
						"offset": 0,
						"slot": "0",
						"type": "t_string_storage"
					},
					{
						"astId": 1118,
						"contract": "contracts/ERC20Interface.sol:CrytisICO",
						"label": "symbol",
						"offset": 0,
						"slot": "1",
						"type": "t_string_storage"
					},
					{
						"astId": 1121,
						"contract": "contracts/ERC20Interface.sol:CrytisICO",
						"label": "decimals",
						"offset": 0,
						"slot": "2",
						"type": "t_uint256"
					},
					{
						"astId": 1124,
						"contract": "contracts/ERC20Interface.sol:CrytisICO",
						"label": "totalSupply",
						"offset": 0,
						"slot": "3",
						"type": "t_uint256"
					},
					{
						"astId": 1126,
						"contract": "contracts/ERC20Interface.sol:CrytisICO",
						"label": "founder",
						"offset": 0,
						"slot": "4",
						"type": "t_address"
					},
					{
						"astId": 1130,
						"contract": "contracts/ERC20Interface.sol:CrytisICO",
						"label": "balances",
						"offset": 0,
						"slot": "5",
						"type": "t_mapping(t_address,t_uint256)"
					},
					{
						"astId": 1136,
						"contract": "contracts/ERC20Interface.sol:CrytisICO",
						"label": "allowed",
						"offset": 0,
						"slot": "6",
						"type": "t_mapping(t_address,t_mapping(t_address,t_uint256))"
					},
					{
						"astId": 1341,
						"contract": "contracts/ERC20Interface.sol:CrytisICO",
						"label": "admin",
						"offset": 0,
						"slot": "7",
						"type": "t_address"
					},
					{
						"astId": 1343,
						"contract": "contracts/ERC20Interface.sol:CrytisICO",
						"label": "deposit",
						"offset": 0,
						"slot": "8",
						"type": "t_address_payable"
					},
					{
						"astId": 1346,
						"contract": "contracts/ERC20Interface.sol:CrytisICO",
						"label": "tokenPrice",
						"offset": 0,
						"slot": "9",
						"type": "t_uint256"
					},
					{
						"astId": 1349,
						"contract": "contracts/ERC20Interface.sol:CrytisICO",
						"label": "hardCap",
						"offset": 0,
						"slot": "10",
						"type": "t_uint256"
					},
					{
						"astId": 1351,
						"contract": "contracts/ERC20Interface.sol:CrytisICO",
						"label": "raisedAmount",
						"offset": 0,
						"slot": "11",
						"type": "t_uint256"
					},
					{
						"astId": 1355,
						"contract": "contracts/ERC20Interface.sol:CrytisICO",
						"label": "saleStart",
						"offset": 0,
						"slot": "12",
						"type": "t_uint256"
					},
					{
						"astId": 1361,
						"contract": "contracts/ERC20Interface.sol:CrytisICO",
						"label": "saleEnd",
						"offset": 0,
						"slot": "13",
						"type": "t_uint256"
					},
					{
						"astId": 1366,
						"contract": "contracts/ERC20Interface.sol:CrytisICO",
						"label": "tokenTradeStart",
						"offset": 0,
						"slot": "14",
						"type": "t_uint256"
					},
					{
						"astId": 1369,
						"contract": "contracts/ERC20Interface.sol:CrytisICO",
						"label": "maxInvestment",
						"offset": 0,
						"slot": "15",
						"type": "t_uint256"
					},
					{
						"astId": 1372,
						"contract": "contracts/ERC20Interface.sol:CrytisICO",
						"label": "minInvestment",
						"offset": 0,
						"slot": "16",
						"type": "t_uint256"
					},
					{
						"astId": 1380,
						"contract": "contracts/ERC20Interface.sol:CrytisICO",
						"label": "icoState",
						"offset": 0,
						"slot": "17",
						"type": "t_enum(State)1377"
					}
				],
				"types": {
					"t_address": {
						"encoding": "inplace",
						"label": "address",
						"numberOfBytes": "20"
					},
					"t_address_payable": {
						"encoding": "inplace",
						"label": "address payable",
						"numberOfBytes": "20"
					},
					"t_enum(State)1377": {
						"encoding": "inplace",
						"label": "enum CrytisICO.State",
						"numberOfBytes": "1"
					},
					"t_mapping(t_address,t_mapping(t_address,t_uint256))": {
						"encoding": "mapping",
						"key": "t_address",
						"label": "mapping(address => mapping(address => uint256))",
						"numberOfBytes": "32",
						"value": "t_mapping(t_address,t_uint256)"
					},
					"t_mapping(t_address,t_uint256)": {
						"encoding": "mapping",
						"key": "t_address",
						"label": "mapping(address => uint256)",
						"numberOfBytes": "32",
						"value": "t_uint256"
					},
					"t_string_storage": {
						"encoding": "bytes",
						"label": "string",
						"numberOfBytes": "32"
					},
					"t_uint256": {
						"encoding": "inplace",
						"label": "uint256",
						"numberOfBytes": "32"
					}
				}
			},
			"userdoc": {
				"kind": "user",
				"methods": {
					"allowance(address,address)": {
						"notice": "查询债权配额（谁调都一样） tokenOwner债务方  spender 债权方"
					},
					"approve(address,uint256)": {
						"notice": "债权人调用，授权债务人转债额度"
					},
					"invest()": {
						"notice": "投资方调用 更新已收款金额，按照代币价格计算代币数量，更新投资方和发起人的代币余额，将收款转到存款专用账户"
					},
					"transfer(address,uint256)": {
						"notice": "代币转账  把自己的代币直接转给收款方"
					},
					"transferFrom(address,address,uint256)": {
						"notice": "债权方调用：把债务方的钱转到指定收款方"
					}
				},
				"version": 1
			}
		}
	}
}