{
	"contracts/getters_setters.sol": {
		"gettersetter": {
			"abi": [
				{
					"inputs": [
						{
							"internalType": "string",
							"name": "_location",
							"type": "string"
						}
					],
					"stateMutability": "nonpayable",
					"type": "constructor"
				},
				{
					"inputs": [],
					"name": "getPrice",
					"outputs": [
						{
							"internalType": "int256",
							"name": "",
							"type": "int256"
						}
					],
					"stateMutability": "view",
					"type": "function"
				},
				{
					"inputs": [],
					"name": "owner",
					"outputs": [
						{
							"internalType": "address",
							"name": "",
							"type": "address"
						}
					],
					"stateMutability": "view",
					"type": "function"
				},
				{
					"inputs": [],
					"name": "price",
					"outputs": [
						{
							"internalType": "int256",
							"name": "",
							"type": "int256"
						}
					],
					"stateMutability": "view",
					"type": "function"
				},
				{
					"inputs": [
						{
							"internalType": "int256",
							"name": "_price",
							"type": "int256"
						}
					],
					"name": "setPrice",
					"outputs": [],
					"stateMutability": "nonpayable",
					"type": "function"
				}
			],
			"devdoc": {
				"kind": "dev",
				"methods": {},
				"version": 1
			},
			"evm": {
				"assembly": "    /* \"contracts/getters_setters.sol\":70:944  contract gettersetter{... */\n  mstore(0x40, 0xc0)\n    /* \"contracts/getters_setters.sol\":120:146  string location = \"London\" */\n  mload(0x40)\n  dup1\n  0x40\n  add\n  0x40\n  mstore\n  dup1\n  0x06\n  dup2\n  mstore\n  0x20\n  add\n  0x4c6f6e646f6e0000000000000000000000000000000000000000000000000000\n  dup2\n  mstore\n  pop\n  0x01\n  swap1\n  dup1\n  mload\n  swap1\n  0x20\n  add\n  swap1\n  tag_1\n  swap3\n  swap2\n  swap1\n  tag_2\n  jump\t// in\ntag_1:\n  pop\n    /* \"contracts/getters_setters.sol\":244:247  200 */\n  0xc8\n    /* \"contracts/getters_setters.sol\":222:247  int immutable area1 = 200 */\n  0x80\n  swap1\n  dup2\n  mstore\n  pop\n    /* \"contracts/getters_setters.sol\":522:671  constructor(string memory _location){... */\n  callvalue\n  dup1\n  iszero\n  tag_3\n  jumpi\n  0x00\n  dup1\n  revert\ntag_3:\n  pop\n  mload(0x40)\n  sub(codesize, bytecodeSize)\n  dup1\n  bytecodeSize\n  dup4\n  codecopy\n  dup2\n  dup2\n  add\n  0x40\n  mstore\n  dup2\n  add\n  swap1\n  tag_4\n  swap2\n  swap1\n  tag_5\n  jump\t// in\ntag_4:\n    /* \"contracts/getters_setters.sol\":606:615  _location */\n  dup1\n    /* \"contracts/getters_setters.sol\":595:603  location */\n  0x01\n    /* \"contracts/getters_setters.sol\":595:615  location = _location */\n  swap1\n  dup1\n  mload\n  swap1\n  0x20\n  add\n  swap1\n  tag_8\n  swap3\n  swap2\n  swap1\n  tag_2\n  jump\t// in\ntag_8:\n  pop\n    /* \"contracts/getters_setters.sol\":633:643  msg.sender */\n  caller\n    /* \"contracts/getters_setters.sol\":625:630  owner */\n  0x02\n  0x00\n    /* \"contracts/getters_setters.sol\":625:643  owner = msg.sender */\n  0x0100\n  exp\n  dup2\n  sload\n  dup2\n  0xffffffffffffffffffffffffffffffffffffffff\n  mul\n  not\n  and\n  swap1\n  dup4\n  0xffffffffffffffffffffffffffffffffffffffff\n  and\n  mul\n  or\n  swap1\n  sstore\n  pop\n    /* \"contracts/getters_setters.sol\":661:664  300 */\n  0x012c\n    /* \"contracts/getters_setters.sol\":653:664  area2 = 300 */\n  0xa0\n  dup2\n  dup2\n  mstore\n  pop\n  pop\n    /* \"contracts/getters_setters.sol\":522:671  constructor(string memory _location){... */\n  pop\n    /* \"contracts/getters_setters.sol\":70:944  contract gettersetter{... */\n  jump(tag_9)\ntag_2:\n  dup3\n  dup1\n  sload\n  tag_10\n  swap1\n  tag_11\n  jump\t// in\ntag_10:\n  swap1\n  0x00\n  mstore\n  keccak256(0x00, 0x20)\n  swap1\n  0x1f\n  add\n  0x20\n  swap1\n  div\n  dup2\n  add\n  swap3\n  dup3\n  tag_13\n  jumpi\n  0x00\n  dup6\n  sstore\n  jump(tag_12)\ntag_13:\n  dup3\n  0x1f\n  lt\n  tag_14\n  jumpi\n  dup1\n  mload\n  not(0xff)\n  and\n  dup4\n  dup1\n  add\n  or\n  dup6\n  sstore\n  jump(tag_12)\ntag_14:\n  dup3\n  dup1\n  add\n  0x01\n  add\n  dup6\n  sstore\n  dup3\n  iszero\n  tag_12\n  jumpi\n  swap2\n  dup3\n  add\ntag_15:\n  dup3\n  dup2\n  gt\n  iszero\n  tag_16\n  jumpi\n  dup3\n  mload\n  dup3\n  sstore\n  swap2\n  0x20\n  add\n  swap2\n  swap1\n  0x01\n  add\n  swap1\n  jump(tag_15)\ntag_16:\ntag_12:\n  pop\n  swap1\n  pop\n  tag_17\n  swap2\n  swap1\n  tag_18\n  jump\t// in\ntag_17:\n  pop\n  swap1\n  jump\t// out\ntag_18:\ntag_19:\n  dup1\n  dup3\n  gt\n  iszero\n  tag_20\n  jumpi\n  0x00\n  dup2\n  0x00\n  swap1\n  sstore\n  pop\n  0x01\n  add\n  jump(tag_19)\ntag_20:\n  pop\n  swap1\n  jump\t// out\n    /* \"#utility.yul\":7:360   */\ntag_22:\n  0x00\n    /* \"#utility.yul\":121:186   */\n  tag_24\n    /* \"#utility.yul\":136:185   */\n  tag_25\n    /* \"#utility.yul\":178:184   */\n  dup5\n    /* \"#utility.yul\":136:185   */\n  tag_26\n  jump\t// in\ntag_25:\n    /* \"#utility.yul\":121:186   */\n  tag_27\n  jump\t// in\ntag_24:\n    /* \"#utility.yul\":112:186   */\n  swap1\n  pop\n    /* \"#utility.yul\":209:215   */\n  dup3\n    /* \"#utility.yul\":202:207   */\n  dup2\n    /* \"#utility.yul\":195:216   */\n  mstore\n    /* \"#utility.yul\":247:251   */\n  0x20\n    /* \"#utility.yul\":240:245   */\n  dup2\n    /* \"#utility.yul\":236:252   */\n  add\n    /* \"#utility.yul\":285:288   */\n  dup5\n    /* \"#utility.yul\":276:282   */\n  dup5\n    /* \"#utility.yul\":271:274   */\n  dup5\n    /* \"#utility.yul\":267:283   */\n  add\n    /* \"#utility.yul\":264:289   */\n  gt\n    /* \"#utility.yul\":261:263   */\n  iszero\n  tag_28\n  jumpi\n    /* \"#utility.yul\":302:303   */\n  0x00\n    /* \"#utility.yul\":299:300   */\n  dup1\n    /* \"#utility.yul\":292:304   */\n  revert\n    /* \"#utility.yul\":261:263   */\ntag_28:\n    /* \"#utility.yul\":315:354   */\n  tag_29\n    /* \"#utility.yul\":347:353   */\n  dup5\n    /* \"#utility.yul\":342:345   */\n  dup3\n    /* \"#utility.yul\":337:340   */\n  dup6\n    /* \"#utility.yul\":315:354   */\n  tag_30\n  jump\t// in\ntag_29:\n    /* \"#utility.yul\":102:360   */\n  pop\n  swap4\n  swap3\n  pop\n  pop\n  pop\n  jump\t// out\n    /* \"#utility.yul\":380:668   */\ntag_31:\n  0x00\n    /* \"#utility.yul\":496:499   */\n  dup3\n    /* \"#utility.yul\":489:493   */\n  0x1f\n    /* \"#utility.yul\":481:487   */\n  dup4\n    /* \"#utility.yul\":477:494   */\n  add\n    /* \"#utility.yul\":473:500   */\n  slt\n    /* \"#utility.yul\":463:465   */\n  tag_33\n  jumpi\n    /* \"#utility.yul\":514:515   */\n  0x00\n    /* \"#utility.yul\":511:512   */\n  dup1\n    /* \"#utility.yul\":504:516   */\n  revert\n    /* \"#utility.yul\":463:465   */\ntag_33:\n    /* \"#utility.yul\":547:553   */\n  dup2\n    /* \"#utility.yul\":541:554   */\n  mload\n    /* \"#utility.yul\":572:662   */\n  tag_34\n    /* \"#utility.yul\":658:661   */\n  dup5\n    /* \"#utility.yul\":650:656   */\n  dup3\n    /* \"#utility.yul\":643:647   */\n  0x20\n    /* \"#utility.yul\":635:641   */\n  dup7\n    /* \"#utility.yul\":631:648   */\n  add\n    /* \"#utility.yul\":572:662   */\n  tag_22\n  jump\t// in\ntag_34:\n    /* \"#utility.yul\":563:662   */\n  swap2\n  pop\n    /* \"#utility.yul\":453:668   */\n  pop\n  swap3\n  swap2\n  pop\n  pop\n  jump\t// out\n    /* \"#utility.yul\":674:1064   */\ntag_5:\n  0x00\n    /* \"#utility.yul\":803:805   */\n  0x20\n    /* \"#utility.yul\":791:800   */\n  dup3\n    /* \"#utility.yul\":782:789   */\n  dup5\n    /* \"#utility.yul\":778:801   */\n  sub\n    /* \"#utility.yul\":774:806   */\n  slt\n    /* \"#utility.yul\":771:773   */\n  iszero\n  tag_36\n  jumpi\n    /* \"#utility.yul\":819:820   */\n  0x00\n    /* \"#utility.yul\":816:817   */\n  dup1\n    /* \"#utility.yul\":809:821   */\n  revert\n    /* \"#utility.yul\":771:773   */\ntag_36:\n    /* \"#utility.yul\":883:884   */\n  0x00\n    /* \"#utility.yul\":872:881   */\n  dup3\n    /* \"#utility.yul\":868:885   */\n  add\n    /* \"#utility.yul\":862:886   */\n  mload\n    /* \"#utility.yul\":913:931   */\n  0xffffffffffffffff\n    /* \"#utility.yul\":905:911   */\n  dup2\n    /* \"#utility.yul\":902:932   */\n  gt\n    /* \"#utility.yul\":899:901   */\n  iszero\n  tag_37\n  jumpi\n    /* \"#utility.yul\":945:946   */\n  0x00\n    /* \"#utility.yul\":942:943   */\n  dup1\n    /* \"#utility.yul\":935:947   */\n  revert\n    /* \"#utility.yul\":899:901   */\ntag_37:\n    /* \"#utility.yul\":973:1047   */\n  tag_38\n    /* \"#utility.yul\":1039:1046   */\n  dup5\n    /* \"#utility.yul\":1030:1036   */\n  dup3\n    /* \"#utility.yul\":1019:1028   */\n  dup6\n    /* \"#utility.yul\":1015:1037   */\n  add\n    /* \"#utility.yul\":973:1047   */\n  tag_31\n  jump\t// in\ntag_38:\n    /* \"#utility.yul\":963:1047   */\n  swap2\n  pop\n    /* \"#utility.yul\":833:1057   */\n  pop\n    /* \"#utility.yul\":761:1064   */\n  swap3\n  swap2\n  pop\n  pop\n  jump\t// out\n    /* \"#utility.yul\":1070:1353   */\ntag_27:\n  0x00\n    /* \"#utility.yul\":1136:1138   */\n  0x40\n    /* \"#utility.yul\":1130:1139   */\n  mload\n    /* \"#utility.yul\":1120:1139   */\n  swap1\n  pop\n    /* \"#utility.yul\":1178:1182   */\n  dup2\n    /* \"#utility.yul\":1170:1176   */\n  dup2\n    /* \"#utility.yul\":1166:1183   */\n  add\n    /* \"#utility.yul\":1285:1291   */\n  dup2\n    /* \"#utility.yul\":1273:1283   */\n  dup2\n    /* \"#utility.yul\":1270:1292   */\n  lt\n    /* \"#utility.yul\":1249:1267   */\n  0xffffffffffffffff\n    /* \"#utility.yul\":1237:1247   */\n  dup3\n    /* \"#utility.yul\":1234:1268   */\n  gt\n    /* \"#utility.yul\":1231:1293   */\n  or\n    /* \"#utility.yul\":1228:1230   */\n  iszero\n  tag_40\n  jumpi\n    /* \"#utility.yul\":1296:1314   */\n  tag_41\n  tag_42\n  jump\t// in\ntag_41:\n    /* \"#utility.yul\":1228:1230   */\ntag_40:\n    /* \"#utility.yul\":1336:1346   */\n  dup1\n    /* \"#utility.yul\":1332:1334   */\n  0x40\n    /* \"#utility.yul\":1325:1347   */\n  mstore\n    /* \"#utility.yul\":1110:1353   */\n  pop\n  swap2\n  swap1\n  pop\n  jump\t// out\n    /* \"#utility.yul\":1359:1691   */\ntag_26:\n  0x00\n    /* \"#utility.yul\":1511:1529   */\n  0xffffffffffffffff\n    /* \"#utility.yul\":1503:1509   */\n  dup3\n    /* \"#utility.yul\":1500:1530   */\n  gt\n    /* \"#utility.yul\":1497:1499   */\n  iszero\n  tag_44\n  jumpi\n    /* \"#utility.yul\":1533:1551   */\n  tag_45\n  tag_42\n  jump\t// in\ntag_45:\n    /* \"#utility.yul\":1497:1499   */\ntag_44:\n    /* \"#utility.yul\":1618:1622   */\n  0x1f\n    /* \"#utility.yul\":1614:1623   */\n  not\n    /* \"#utility.yul\":1607:1611   */\n  0x1f\n    /* \"#utility.yul\":1599:1605   */\n  dup4\n    /* \"#utility.yul\":1595:1612   */\n  add\n    /* \"#utility.yul\":1591:1624   */\n  and\n    /* \"#utility.yul\":1583:1624   */\n  swap1\n  pop\n    /* \"#utility.yul\":1679:1683   */\n  0x20\n    /* \"#utility.yul\":1673:1677   */\n  dup2\n    /* \"#utility.yul\":1669:1684   */\n  add\n    /* \"#utility.yul\":1661:1684   */\n  swap1\n  pop\n    /* \"#utility.yul\":1426:1691   */\n  swap2\n  swap1\n  pop\n  jump\t// out\n    /* \"#utility.yul\":1697:2004   */\ntag_30:\n    /* \"#utility.yul\":1765:1766   */\n  0x00\n    /* \"#utility.yul\":1775:1888   */\ntag_47:\n    /* \"#utility.yul\":1789:1795   */\n  dup4\n    /* \"#utility.yul\":1786:1787   */\n  dup2\n    /* \"#utility.yul\":1783:1796   */\n  lt\n    /* \"#utility.yul\":1775:1888   */\n  iszero\n  tag_49\n  jumpi\n    /* \"#utility.yul\":1874:1875   */\n  dup1\n    /* \"#utility.yul\":1869:1872   */\n  dup3\n    /* \"#utility.yul\":1865:1876   */\n  add\n    /* \"#utility.yul\":1859:1877   */\n  mload\n    /* \"#utility.yul\":1855:1856   */\n  dup2\n    /* \"#utility.yul\":1850:1853   */\n  dup5\n    /* \"#utility.yul\":1846:1857   */\n  add\n    /* \"#utility.yul\":1839:1878   */\n  mstore\n    /* \"#utility.yul\":1811:1813   */\n  0x20\n    /* \"#utility.yul\":1808:1809   */\n  dup2\n    /* \"#utility.yul\":1804:1814   */\n  add\n    /* \"#utility.yul\":1799:1814   */\n  swap1\n  pop\n    /* \"#utility.yul\":1775:1888   */\n  jump(tag_47)\ntag_49:\n    /* \"#utility.yul\":1906:1912   */\n  dup4\n    /* \"#utility.yul\":1903:1904   */\n  dup2\n    /* \"#utility.yul\":1900:1913   */\n  gt\n    /* \"#utility.yul\":1897:1899   */\n  iszero\n  tag_50\n  jumpi\n    /* \"#utility.yul\":1986:1987   */\n  0x00\n    /* \"#utility.yul\":1977:1983   */\n  dup5\n    /* \"#utility.yul\":1972:1975   */\n  dup5\n    /* \"#utility.yul\":1968:1984   */\n  add\n    /* \"#utility.yul\":1961:1988   */\n  mstore\n    /* \"#utility.yul\":1897:1899   */\ntag_50:\n    /* \"#utility.yul\":1746:2004   */\n  pop\n  pop\n  pop\n  pop\n  jump\t// out\n    /* \"#utility.yul\":2010:2330   */\ntag_11:\n  0x00\n    /* \"#utility.yul\":2091:2092   */\n  0x02\n    /* \"#utility.yul\":2085:2089   */\n  dup3\n    /* \"#utility.yul\":2081:2093   */\n  div\n    /* \"#utility.yul\":2071:2093   */\n  swap1\n  pop\n    /* \"#utility.yul\":2138:2139   */\n  0x01\n    /* \"#utility.yul\":2132:2136   */\n  dup3\n    /* \"#utility.yul\":2128:2140   */\n  and\n    /* \"#utility.yul\":2159:2177   */\n  dup1\n    /* \"#utility.yul\":2149:2151   */\n  tag_52\n  jumpi\n    /* \"#utility.yul\":2215:2219   */\n  0x7f\n    /* \"#utility.yul\":2207:2213   */\n  dup3\n    /* \"#utility.yul\":2203:2220   */\n  and\n    /* \"#utility.yul\":2193:2220   */\n  swap2\n  pop\n    /* \"#utility.yul\":2149:2151   */\ntag_52:\n    /* \"#utility.yul\":2277:2279   */\n  0x20\n    /* \"#utility.yul\":2269:2275   */\n  dup3\n    /* \"#utility.yul\":2266:2280   */\n  lt\n    /* \"#utility.yul\":2246:2264   */\n  dup2\n    /* \"#utility.yul\":2243:2281   */\n  eq\n    /* \"#utility.yul\":2240:2242   */\n  iszero\n  tag_53\n  jumpi\n    /* \"#utility.yul\":2296:2314   */\n  tag_54\n  tag_55\n  jump\t// in\ntag_54:\n    /* \"#utility.yul\":2240:2242   */\ntag_53:\n    /* \"#utility.yul\":2061:2330   */\n  pop\n  swap2\n  swap1\n  pop\n  jump\t// out\n    /* \"#utility.yul\":2336:2516   */\ntag_55:\n    /* \"#utility.yul\":2384:2461   */\n  0x4e487b7100000000000000000000000000000000000000000000000000000000\n    /* \"#utility.yul\":2381:2382   */\n  0x00\n    /* \"#utility.yul\":2374:2462   */\n  mstore\n    /* \"#utility.yul\":2481:2485   */\n  0x22\n    /* \"#utility.yul\":2478:2479   */\n  0x04\n    /* \"#utility.yul\":2471:2486   */\n  mstore\n    /* \"#utility.yul\":2505:2509   */\n  0x24\n    /* \"#utility.yul\":2502:2503   */\n  0x00\n    /* \"#utility.yul\":2495:2510   */\n  revert\n    /* \"#utility.yul\":2522:2702   */\ntag_42:\n    /* \"#utility.yul\":2570:2647   */\n  0x4e487b7100000000000000000000000000000000000000000000000000000000\n    /* \"#utility.yul\":2567:2568   */\n  0x00\n    /* \"#utility.yul\":2560:2648   */\n  mstore\n    /* \"#utility.yul\":2667:2671   */\n  0x41\n    /* \"#utility.yul\":2664:2665   */\n  0x04\n    /* \"#utility.yul\":2657:2672   */\n  mstore\n    /* \"#utility.yul\":2691:2695   */\n  0x24\n    /* \"#utility.yul\":2688:2689   */\n  0x00\n    /* \"#utility.yul\":2681:2696   */\n  revert\n    /* \"contracts/getters_setters.sol\":70:944  contract gettersetter{... */\ntag_9:\n  mload(0x80)\n  mload(0xa0)\n  codecopy(0x00, dataOffset(sub_0), dataSize(sub_0))\n  0x00\n  assignImmutable(\"0x277ab82e5a4641341820a4a2933a62c1de997e42e92548657ae21b3728d580fe\")\n  0x00\n  assignImmutable(\"0x5c4c6aa067b6f8e6cb38e6ab843832a94d1712d661a04d73c517d6a1931a9e5d\")\n  return(0x00, dataSize(sub_0))\nstop\n\nsub_0: assembly {\n        /* \"contracts/getters_setters.sol\":70:944  contract gettersetter{... */\n      mstore(0x40, 0x80)\n      callvalue\n      dup1\n      iszero\n      tag_1\n      jumpi\n      0x00\n      dup1\n      revert\n    tag_1:\n      pop\n      jumpi(tag_2, lt(calldatasize, 0x04))\n      shr(0xe0, calldataload(0x00))\n      dup1\n      0x8da5cb5b\n      eq\n      tag_3\n      jumpi\n      dup1\n      0x98d5fdca\n      eq\n      tag_4\n      jumpi\n      dup1\n      0xa035b1fe\n      eq\n      tag_5\n      jumpi\n      dup1\n      0xf7a30806\n      eq\n      tag_6\n      jumpi\n    tag_2:\n      0x00\n      dup1\n      revert\n        /* \"contracts/getters_setters.sol\":152:172  address public owner */\n    tag_3:\n      tag_7\n      tag_8\n      jump\t// in\n    tag_7:\n      mload(0x40)\n      tag_9\n      swap2\n      swap1\n      tag_10\n      jump\t// in\n    tag_9:\n      mload(0x40)\n      dup1\n      swap2\n      sub\n      swap1\n      return\n        /* \"contracts/getters_setters.sol\":868:942  function getPrice() public view returns (int){... */\n    tag_4:\n      tag_11\n      tag_12\n      jump\t// in\n    tag_11:\n      mload(0x40)\n      tag_13\n      swap2\n      swap1\n      tag_14\n      jump\t// in\n    tag_13:\n      mload(0x40)\n      dup1\n      swap2\n      sub\n      swap1\n      return\n        /* \"contracts/getters_setters.sol\":98:114  int public price */\n    tag_5:\n      tag_15\n      tag_16\n      jump\t// in\n    tag_15:\n      mload(0x40)\n      tag_17\n      swap2\n      swap1\n      tag_14\n      jump\t// in\n    tag_17:\n      mload(0x40)\n      dup1\n      swap2\n      sub\n      swap1\n      return\n        /* \"contracts/getters_setters.sol\":677:745  function setPrice(int _price) public {... */\n    tag_6:\n      tag_18\n      0x04\n      dup1\n      calldatasize\n      sub\n      dup2\n      add\n      swap1\n      tag_19\n      swap2\n      swap1\n      tag_20\n      jump\t// in\n    tag_19:\n      tag_21\n      jump\t// in\n    tag_18:\n      stop\n        /* \"contracts/getters_setters.sol\":152:172  address public owner */\n    tag_8:\n      0x02\n      0x00\n      swap1\n      sload\n      swap1\n      0x0100\n      exp\n      swap1\n      div\n      0xffffffffffffffffffffffffffffffffffffffff\n      and\n      dup2\n      jump\t// out\n        /* \"contracts/getters_setters.sol\":868:942  function getPrice() public view returns (int){... */\n    tag_12:\n        /* \"contracts/getters_setters.sol\":909:912  int */\n      0x00\n        /* \"contracts/getters_setters.sol\":930:935  price */\n      dup1\n      sload\n        /* \"contracts/getters_setters.sol\":923:935  return price */\n      swap1\n      pop\n        /* \"contracts/getters_setters.sol\":868:942  function getPrice() public view returns (int){... */\n      swap1\n      jump\t// out\n        /* \"contracts/getters_setters.sol\":98:114  int public price */\n    tag_16:\n      sload(0x00)\n      dup2\n      jump\t// out\n        /* \"contracts/getters_setters.sol\":677:745  function setPrice(int _price) public {... */\n    tag_21:\n        /* \"contracts/getters_setters.sol\":732:738  _price */\n      dup1\n        /* \"contracts/getters_setters.sol\":724:729  price */\n      0x00\n        /* \"contracts/getters_setters.sol\":724:738  price = _price */\n      dup2\n      swap1\n      sstore\n      pop\n        /* \"contracts/getters_setters.sol\":677:745  function setPrice(int _price) public {... */\n      pop\n      jump\t// out\n        /* \"#utility.yul\":7:144   */\n    tag_25:\n      0x00\n        /* \"#utility.yul\":90:96   */\n      dup2\n        /* \"#utility.yul\":77:97   */\n      calldataload\n        /* \"#utility.yul\":68:97   */\n      swap1\n      pop\n        /* \"#utility.yul\":106:138   */\n      tag_27\n        /* \"#utility.yul\":132:137   */\n      dup2\n        /* \"#utility.yul\":106:138   */\n      tag_28\n      jump\t// in\n    tag_27:\n        /* \"#utility.yul\":58:144   */\n      swap3\n      swap2\n      pop\n      pop\n      jump\t// out\n        /* \"#utility.yul\":150:410   */\n    tag_20:\n      0x00\n        /* \"#utility.yul\":257:259   */\n      0x20\n        /* \"#utility.yul\":245:254   */\n      dup3\n        /* \"#utility.yul\":236:243   */\n      dup5\n        /* \"#utility.yul\":232:255   */\n      sub\n        /* \"#utility.yul\":228:260   */\n      slt\n        /* \"#utility.yul\":225:227   */\n      iszero\n      tag_30\n      jumpi\n        /* \"#utility.yul\":273:274   */\n      0x00\n        /* \"#utility.yul\":270:271   */\n      dup1\n        /* \"#utility.yul\":263:275   */\n      revert\n        /* \"#utility.yul\":225:227   */\n    tag_30:\n        /* \"#utility.yul\":316:317   */\n      0x00\n        /* \"#utility.yul\":341:393   */\n      tag_31\n        /* \"#utility.yul\":385:392   */\n      dup5\n        /* \"#utility.yul\":376:382   */\n      dup3\n        /* \"#utility.yul\":365:374   */\n      dup6\n        /* \"#utility.yul\":361:383   */\n      add\n        /* \"#utility.yul\":341:393   */\n      tag_25\n      jump\t// in\n    tag_31:\n        /* \"#utility.yul\":331:393   */\n      swap2\n      pop\n        /* \"#utility.yul\":287:403   */\n      pop\n        /* \"#utility.yul\":215:410   */\n      swap3\n      swap2\n      pop\n      pop\n      jump\t// out\n        /* \"#utility.yul\":416:534   */\n    tag_32:\n        /* \"#utility.yul\":503:527   */\n      tag_34\n        /* \"#utility.yul\":521:526   */\n      dup2\n        /* \"#utility.yul\":503:527   */\n      tag_35\n      jump\t// in\n    tag_34:\n        /* \"#utility.yul\":498:501   */\n      dup3\n        /* \"#utility.yul\":491:528   */\n      mstore\n        /* \"#utility.yul\":481:534   */\n      pop\n      pop\n      jump\t// out\n        /* \"#utility.yul\":540:655   */\n    tag_36:\n        /* \"#utility.yul\":625:648   */\n      tag_38\n        /* \"#utility.yul\":642:647   */\n      dup2\n        /* \"#utility.yul\":625:648   */\n      tag_39\n      jump\t// in\n    tag_38:\n        /* \"#utility.yul\":620:623   */\n      dup3\n        /* \"#utility.yul\":613:649   */\n      mstore\n        /* \"#utility.yul\":603:655   */\n      pop\n      pop\n      jump\t// out\n        /* \"#utility.yul\":661:883   */\n    tag_10:\n      0x00\n        /* \"#utility.yul\":792:794   */\n      0x20\n        /* \"#utility.yul\":781:790   */\n      dup3\n        /* \"#utility.yul\":777:795   */\n      add\n        /* \"#utility.yul\":769:795   */\n      swap1\n      pop\n        /* \"#utility.yul\":805:876   */\n      tag_41\n        /* \"#utility.yul\":873:874   */\n      0x00\n        /* \"#utility.yul\":862:871   */\n      dup4\n        /* \"#utility.yul\":858:875   */\n      add\n        /* \"#utility.yul\":849:855   */\n      dup5\n        /* \"#utility.yul\":805:876   */\n      tag_32\n      jump\t// in\n    tag_41:\n        /* \"#utility.yul\":759:883   */\n      swap3\n      swap2\n      pop\n      pop\n      jump\t// out\n        /* \"#utility.yul\":889:1107   */\n    tag_14:\n      0x00\n        /* \"#utility.yul\":1018:1020   */\n      0x20\n        /* \"#utility.yul\":1007:1016   */\n      dup3\n        /* \"#utility.yul\":1003:1021   */\n      add\n        /* \"#utility.yul\":995:1021   */\n      swap1\n      pop\n        /* \"#utility.yul\":1031:1100   */\n      tag_43\n        /* \"#utility.yul\":1097:1098   */\n      0x00\n        /* \"#utility.yul\":1086:1095   */\n      dup4\n        /* \"#utility.yul\":1082:1099   */\n      add\n        /* \"#utility.yul\":1073:1079   */\n      dup5\n        /* \"#utility.yul\":1031:1100   */\n      tag_36\n      jump\t// in\n    tag_43:\n        /* \"#utility.yul\":985:1107   */\n      swap3\n      swap2\n      pop\n      pop\n      jump\t// out\n        /* \"#utility.yul\":1113:1209   */\n    tag_35:\n      0x00\n        /* \"#utility.yul\":1179:1203   */\n      tag_45\n        /* \"#utility.yul\":1197:1202   */\n      dup3\n        /* \"#utility.yul\":1179:1203   */\n      tag_46\n      jump\t// in\n    tag_45:\n        /* \"#utility.yul\":1168:1203   */\n      swap1\n      pop\n        /* \"#utility.yul\":1158:1209   */\n      swap2\n      swap1\n      pop\n      jump\t// out\n        /* \"#utility.yul\":1215:1291   */\n    tag_39:\n      0x00\n        /* \"#utility.yul\":1280:1285   */\n      dup2\n        /* \"#utility.yul\":1269:1285   */\n      swap1\n      pop\n        /* \"#utility.yul\":1259:1291   */\n      swap2\n      swap1\n      pop\n      jump\t// out\n        /* \"#utility.yul\":1297:1423   */\n    tag_46:\n      0x00\n        /* \"#utility.yul\":1374:1416   */\n      0xffffffffffffffffffffffffffffffffffffffff\n        /* \"#utility.yul\":1367:1372   */\n      dup3\n        /* \"#utility.yul\":1363:1417   */\n      and\n        /* \"#utility.yul\":1352:1417   */\n      swap1\n      pop\n        /* \"#utility.yul\":1342:1423   */\n      swap2\n      swap1\n      pop\n      jump\t// out\n        /* \"#utility.yul\":1429:1549   */\n    tag_28:\n        /* \"#utility.yul\":1501:1524   */\n      tag_50\n        /* \"#utility.yul\":1518:1523   */\n      dup2\n        /* \"#utility.yul\":1501:1524   */\n      tag_39\n      jump\t// in\n    tag_50:\n        /* \"#utility.yul\":1494:1499   */\n      dup2\n        /* \"#utility.yul\":1491:1525   */\n      eq\n        /* \"#utility.yul\":1481:1483   */\n      tag_51\n      jumpi\n        /* \"#utility.yul\":1539:1540   */\n      0x00\n        /* \"#utility.yul\":1536:1537   */\n      dup1\n        /* \"#utility.yul\":1529:1541   */\n      revert\n        /* \"#utility.yul\":1481:1483   */\n    tag_51:\n        /* \"#utility.yul\":1471:1549   */\n      pop\n      jump\t// out\n\n    auxdata: 0xa2646970667358221220887307f8c4b1ab68bf17013009a623a635e45e05874ea01229e8f84fe2b6199164736f6c63430008000033\n}\n",
				"bytecode": {
					"linkReferences": {},
					"object": "60c06040526040518060400160405280600681526020017f4c6f6e646f6e00000000000000000000000000000000000000000000000000008152506001908051906020019061004f9291906100ee565b5060c860809081525034801561006457600080fd5b5060405161059e38038061059e833981810160405281019061008691906101f9565b806001908051906020019061009c9291906100ee565b5033600260006101000a81548173ffffffffffffffffffffffffffffffffffffffff021916908373ffffffffffffffffffffffffffffffffffffffff16021790555061012c60a081815250505061035e565b8280546100fa906102ce565b90600052602060002090601f01602090048101928261011c5760008555610163565b82601f1061013557805160ff1916838001178555610163565b82800160010185558215610163579182015b82811115610162578251825591602001919060010190610147565b5b5090506101709190610174565b5090565b5b8082111561018d576000816000905550600101610175565b5090565b60006101a461019f8461026b565b61023a565b9050828152602081018484840111156101bc57600080fd5b6101c784828561029b565b509392505050565b600082601f8301126101e057600080fd5b81516101f0848260208601610191565b91505092915050565b60006020828403121561020b57600080fd5b600082015167ffffffffffffffff81111561022557600080fd5b610231848285016101cf565b91505092915050565b6000604051905081810181811067ffffffffffffffff821117156102615761026061032f565b5b8060405250919050565b600067ffffffffffffffff8211156102865761028561032f565b5b601f19601f8301169050602081019050919050565b60005b838110156102b957808201518184015260208101905061029e565b838111156102c8576000848401525b50505050565b600060028204905060018216806102e657607f821691505b602082108114156102fa576102f9610300565b5b50919050565b7f4e487b7100000000000000000000000000000000000000000000000000000000600052602260045260246000fd5b7f4e487b7100000000000000000000000000000000000000000000000000000000600052604160045260246000fd5b60805160a05161022161037d60003960005050600050506102216000f3fe608060405234801561001057600080fd5b506004361061004c5760003560e01c80638da5cb5b1461005157806398d5fdca1461006f578063a035b1fe1461008d578063f7a30806146100ab575b600080fd5b6100596100c7565b6040516100669190610162565b60405180910390f35b6100776100ed565b604051610084919061017d565b60405180910390f35b6100956100f6565b6040516100a2919061017d565b60405180910390f35b6100c560048036038101906100c0919061011b565b6100fc565b005b600260009054906101000a900473ffffffffffffffffffffffffffffffffffffffff1681565b60008054905090565b60005481565b8060008190555050565b600081359050610115816101d4565b92915050565b60006020828403121561012d57600080fd5b600061013b84828501610106565b91505092915050565b61014d81610198565b82525050565b61015c816101aa565b82525050565b60006020820190506101776000830184610144565b92915050565b60006020820190506101926000830184610153565b92915050565b60006101a3826101b4565b9050919050565b6000819050919050565b600073ffffffffffffffffffffffffffffffffffffffff82169050919050565b6101dd816101aa565b81146101e857600080fd5b5056fea2646970667358221220887307f8c4b1ab68bf17013009a623a635e45e05874ea01229e8f84fe2b6199164736f6c63430008000033",
					"opcodes": "PUSH1 0xC0 PUSH1 0x40 MSTORE PUSH1 0x40 MLOAD DUP1 PUSH1 0x40 ADD PUSH1 0x40 MSTORE DUP1 PUSH1 0x6 DUP2 MSTORE PUSH1 0x20 ADD PUSH32 0x4C6F6E646F6E0000000000000000000000000000000000000000000000000000 DUP2 MSTORE POP PUSH1 0x1 SWAP1 DUP1 MLOAD SWAP1 PUSH1 0x20 ADD SWAP1 PUSH2 0x4F SWAP3 SWAP2 SWAP1 PUSH2 0xEE JUMP JUMPDEST POP PUSH1 0xC8 PUSH1 0x80 SWAP1 DUP2 MSTORE POP CALLVALUE DUP1 ISZERO PUSH2 0x64 JUMPI PUSH1 0x0 DUP1 REVERT JUMPDEST POP PUSH1 0x40 MLOAD PUSH2 0x59E CODESIZE SUB DUP1 PUSH2 0x59E DUP4 CODECOPY DUP2 DUP2 ADD PUSH1 0x40 MSTORE DUP2 ADD SWAP1 PUSH2 0x86 SWAP2 SWAP1 PUSH2 0x1F9 JUMP JUMPDEST DUP1 PUSH1 0x1 SWAP1 DUP1 MLOAD SWAP1 PUSH1 0x20 ADD SWAP1 PUSH2 0x9C SWAP3 SWAP2 SWAP1 PUSH2 0xEE JUMP JUMPDEST POP CALLER PUSH1 0x2 PUSH1 0x0 PUSH2 0x100 EXP DUP2 SLOAD DUP2 PUSH20 0xFFFFFFFFFFFFFFFFFFFFFFFFFFFFFFFFFFFFFFFF MUL NOT AND SWAP1 DUP4 PUSH20 0xFFFFFFFFFFFFFFFFFFFFFFFFFFFFFFFFFFFFFFFF AND MUL OR SWAP1 SSTORE POP PUSH2 0x12C PUSH1 0xA0 DUP2 DUP2 MSTORE POP POP POP PUSH2 0x35E JUMP JUMPDEST DUP3 DUP1 SLOAD PUSH2 0xFA SWAP1 PUSH2 0x2CE JUMP JUMPDEST SWAP1 PUSH1 0x0 MSTORE PUSH1 0x20 PUSH1 0x0 KECCAK256 SWAP1 PUSH1 0x1F ADD PUSH1 0x20 SWAP1 DIV DUP2 ADD SWAP3 DUP3 PUSH2 0x11C JUMPI PUSH1 0x0 DUP6 SSTORE PUSH2 0x163 JUMP JUMPDEST DUP3 PUSH1 0x1F LT PUSH2 0x135 JUMPI DUP1 MLOAD PUSH1 0xFF NOT AND DUP4 DUP1 ADD OR DUP6 SSTORE PUSH2 0x163 JUMP JUMPDEST DUP3 DUP1 ADD PUSH1 0x1 ADD DUP6 SSTORE DUP3 ISZERO PUSH2 0x163 JUMPI SWAP2 DUP3 ADD JUMPDEST DUP3 DUP2 GT ISZERO PUSH2 0x162 JUMPI DUP3 MLOAD DUP3 SSTORE SWAP2 PUSH1 0x20 ADD SWAP2 SWAP1 PUSH1 0x1 ADD SWAP1 PUSH2 0x147 JUMP JUMPDEST JUMPDEST POP SWAP1 POP PUSH2 0x170 SWAP2 SWAP1 PUSH2 0x174 JUMP JUMPDEST POP SWAP1 JUMP JUMPDEST JUMPDEST DUP1 DUP3 GT ISZERO PUSH2 0x18D JUMPI PUSH1 0x0 DUP2 PUSH1 0x0 SWAP1 SSTORE POP PUSH1 0x1 ADD PUSH2 0x175 JUMP JUMPDEST POP SWAP1 JUMP JUMPDEST PUSH1 0x0 PUSH2 0x1A4 PUSH2 0x19F DUP5 PUSH2 0x26B JUMP JUMPDEST PUSH2 0x23A JUMP JUMPDEST SWAP1 POP DUP3 DUP2 MSTORE PUSH1 0x20 DUP2 ADD DUP5 DUP5 DUP5 ADD GT ISZERO PUSH2 0x1BC JUMPI PUSH1 0x0 DUP1 REVERT JUMPDEST PUSH2 0x1C7 DUP5 DUP3 DUP6 PUSH2 0x29B JUMP JUMPDEST POP SWAP4 SWAP3 POP POP POP JUMP JUMPDEST PUSH1 0x0 DUP3 PUSH1 0x1F DUP4 ADD SLT PUSH2 0x1E0 JUMPI PUSH1 0x0 DUP1 REVERT JUMPDEST DUP2 MLOAD PUSH2 0x1F0 DUP5 DUP3 PUSH1 0x20 DUP7 ADD PUSH2 0x191 JUMP JUMPDEST SWAP2 POP POP SWAP3 SWAP2 POP POP JUMP JUMPDEST PUSH1 0x0 PUSH1 0x20 DUP3 DUP5 SUB SLT ISZERO PUSH2 0x20B JUMPI PUSH1 0x0 DUP1 REVERT JUMPDEST PUSH1 0x0 DUP3 ADD MLOAD PUSH8 0xFFFFFFFFFFFFFFFF DUP2 GT ISZERO PUSH2 0x225 JUMPI PUSH1 0x0 DUP1 REVERT JUMPDEST PUSH2 0x231 DUP5 DUP3 DUP6 ADD PUSH2 0x1CF JUMP JUMPDEST SWAP2 POP POP SWAP3 SWAP2 POP POP JUMP JUMPDEST PUSH1 0x0 PUSH1 0x40 MLOAD SWAP1 POP DUP2 DUP2 ADD DUP2 DUP2 LT PUSH8 0xFFFFFFFFFFFFFFFF DUP3 GT OR ISZERO PUSH2 0x261 JUMPI PUSH2 0x260 PUSH2 0x32F JUMP JUMPDEST JUMPDEST DUP1 PUSH1 0x40 MSTORE POP SWAP2 SWAP1 POP JUMP JUMPDEST PUSH1 0x0 PUSH8 0xFFFFFFFFFFFFFFFF DUP3 GT ISZERO PUSH2 0x286 JUMPI PUSH2 0x285 PUSH2 0x32F JUMP JUMPDEST JUMPDEST PUSH1 0x1F NOT PUSH1 0x1F DUP4 ADD AND SWAP1 POP PUSH1 0x20 DUP2 ADD SWAP1 POP SWAP2 SWAP1 POP JUMP JUMPDEST PUSH1 0x0 JUMPDEST DUP4 DUP2 LT ISZERO PUSH2 0x2B9 JUMPI DUP1 DUP3 ADD MLOAD DUP2 DUP5 ADD MSTORE PUSH1 0x20 DUP2 ADD SWAP1 POP PUSH2 0x29E JUMP JUMPDEST DUP4 DUP2 GT ISZERO PUSH2 0x2C8 JUMPI PUSH1 0x0 DUP5 DUP5 ADD MSTORE JUMPDEST POP POP POP POP JUMP JUMPDEST PUSH1 0x0 PUSH1 0x2 DUP3 DIV SWAP1 POP PUSH1 0x1 DUP3 AND DUP1 PUSH2 0x2E6 JUMPI PUSH1 0x7F DUP3 AND SWAP2 POP JUMPDEST PUSH1 0x20 DUP3 LT DUP2 EQ ISZERO PUSH2 0x2FA JUMPI PUSH2 0x2F9 PUSH2 0x300 JUMP JUMPDEST JUMPDEST POP SWAP2 SWAP1 POP JUMP JUMPDEST PUSH32 0x4E487B7100000000000000000000000000000000000000000000000000000000 PUSH1 0x0 MSTORE PUSH1 0x22 PUSH1 0x4 MSTORE PUSH1 0x24 PUSH1 0x0 REVERT JUMPDEST PUSH32 0x4E487B7100000000000000000000000000000000000000000000000000000000 PUSH1 0x0 MSTORE PUSH1 0x41 PUSH1 0x4 MSTORE PUSH1 0x24 PUSH1 0x0 REVERT JUMPDEST PUSH1 0x80 MLOAD PUSH1 0xA0 MLOAD PUSH2 0x221 PUSH2 0x37D PUSH1 0x0 CODECOPY PUSH1 0x0 POP POP PUSH1 0x0 POP POP PUSH2 0x221 PUSH1 0x0 RETURN INVALID PUSH1 0x80 PUSH1 0x40 MSTORE CALLVALUE DUP1 ISZERO PUSH2 0x10 JUMPI PUSH1 0x0 DUP1 REVERT JUMPDEST POP PUSH1 0x4 CALLDATASIZE LT PUSH2 0x4C JUMPI PUSH1 0x0 CALLDATALOAD PUSH1 0xE0 SHR DUP1 PUSH4 0x8DA5CB5B EQ PUSH2 0x51 JUMPI DUP1 PUSH4 0x98D5FDCA EQ PUSH2 0x6F JUMPI DUP1 PUSH4 0xA035B1FE EQ PUSH2 0x8D JUMPI DUP1 PUSH4 0xF7A30806 EQ PUSH2 0xAB JUMPI JUMPDEST PUSH1 0x0 DUP1 REVERT JUMPDEST PUSH2 0x59 PUSH2 0xC7 JUMP JUMPDEST PUSH1 0x40 MLOAD PUSH2 0x66 SWAP2 SWAP1 PUSH2 0x162 JUMP JUMPDEST PUSH1 0x40 MLOAD DUP1 SWAP2 SUB SWAP1 RETURN JUMPDEST PUSH2 0x77 PUSH2 0xED JUMP JUMPDEST PUSH1 0x40 MLOAD PUSH2 0x84 SWAP2 SWAP1 PUSH2 0x17D JUMP JUMPDEST PUSH1 0x40 MLOAD DUP1 SWAP2 SUB SWAP1 RETURN JUMPDEST PUSH2 0x95 PUSH2 0xF6 JUMP JUMPDEST PUSH1 0x40 MLOAD PUSH2 0xA2 SWAP2 SWAP1 PUSH2 0x17D JUMP JUMPDEST PUSH1 0x40 MLOAD DUP1 SWAP2 SUB SWAP1 RETURN JUMPDEST PUSH2 0xC5 PUSH1 0x4 DUP1 CALLDATASIZE SUB DUP2 ADD SWAP1 PUSH2 0xC0 SWAP2 SWAP1 PUSH2 0x11B JUMP JUMPDEST PUSH2 0xFC JUMP JUMPDEST STOP JUMPDEST PUSH1 0x2 PUSH1 0x0 SWAP1 SLOAD SWAP1 PUSH2 0x100 EXP SWAP1 DIV PUSH20 0xFFFFFFFFFFFFFFFFFFFFFFFFFFFFFFFFFFFFFFFF AND DUP2 JUMP JUMPDEST PUSH1 0x0 DUP1 SLOAD SWAP1 POP SWAP1 JUMP JUMPDEST PUSH1 0x0 SLOAD DUP2 JUMP JUMPDEST DUP1 PUSH1 0x0 DUP2 SWAP1 SSTORE POP POP JUMP JUMPDEST PUSH1 0x0 DUP2 CALLDATALOAD SWAP1 POP PUSH2 0x115 DUP2 PUSH2 0x1D4 JUMP JUMPDEST SWAP3 SWAP2 POP POP JUMP JUMPDEST PUSH1 0x0 PUSH1 0x20 DUP3 DUP5 SUB SLT ISZERO PUSH2 0x12D JUMPI PUSH1 0x0 DUP1 REVERT JUMPDEST PUSH1 0x0 PUSH2 0x13B DUP5 DUP3 DUP6 ADD PUSH2 0x106 JUMP JUMPDEST SWAP2 POP POP SWAP3 SWAP2 POP POP JUMP JUMPDEST PUSH2 0x14D DUP2 PUSH2 0x198 JUMP JUMPDEST DUP3 MSTORE POP POP JUMP JUMPDEST PUSH2 0x15C DUP2 PUSH2 0x1AA JUMP JUMPDEST DUP3 MSTORE POP POP JUMP JUMPDEST PUSH1 0x0 PUSH1 0x20 DUP3 ADD SWAP1 POP PUSH2 0x177 PUSH1 0x0 DUP4 ADD DUP5 PUSH2 0x144 JUMP JUMPDEST SWAP3 SWAP2 POP POP JUMP JUMPDEST PUSH1 0x0 PUSH1 0x20 DUP3 ADD SWAP1 POP PUSH2 0x192 PUSH1 0x0 DUP4 ADD DUP5 PUSH2 0x153 JUMP JUMPDEST SWAP3 SWAP2 POP POP JUMP JUMPDEST PUSH1 0x0 PUSH2 0x1A3 DUP3 PUSH2 0x1B4 JUMP JUMPDEST SWAP1 POP SWAP2 SWAP1 POP JUMP JUMPDEST PUSH1 0x0 DUP2 SWAP1 POP SWAP2 SWAP1 POP JUMP JUMPDEST PUSH1 0x0 PUSH20 0xFFFFFFFFFFFFFFFFFFFFFFFFFFFFFFFFFFFFFFFF DUP3 AND SWAP1 POP SWAP2 SWAP1 POP JUMP JUMPDEST PUSH2 0x1DD DUP2 PUSH2 0x1AA JUMP JUMPDEST DUP2 EQ PUSH2 0x1E8 JUMPI PUSH1 0x0 DUP1 REVERT JUMPDEST POP JUMP INVALID LOG2 PUSH5 0x6970667358 0x22 SLT KECCAK256 DUP9 PUSH20 0x7F8C4B1AB68BF17013009A623A635E45E05874E LOG0 SLT 0x29 0xE8 0xF8 0x4F 0xE2 0xB6 NOT SWAP2 PUSH5 0x736F6C6343 STOP ADDMOD STOP STOP CALLER "
				},
				"gasEstimates": {
					"creation": {
						"codeDepositCost": "109000",
						"executionCost": "infinite",
						"totalCost": "infinite"
					},
					"external": {
						"getPrice()": "1137",
						"owner()": "1192",
						"price()": "1151",
						"setPrice(int256)": "20464"
					}
				},
				"methodIdentifiers": {
					"getPrice()": "98d5fdca",
					"owner()": "8da5cb5b",
					"price()": "a035b1fe",
					"setPrice(int256)": "f7a30806"
				}
			},
			"storageLayout": {
				"storage": [
					{
						"astId": 3,
						"contract": "contracts/getters_setters.sol:gettersetter",
						"label": "price",
						"offset": 0,
						"slot": "0",
						"type": "t_int256"
					},
					{
						"astId": 6,
						"contract": "contracts/getters_setters.sol:gettersetter",
						"label": "location",
						"offset": 0,
						"slot": "1",
						"type": "t_string_storage"
					},
					{
						"astId": 8,
						"contract": "contracts/getters_setters.sol:gettersetter",
						"label": "owner",
						"offset": 0,
						"slot": "2",
						"type": "t_address"
					}
				],
				"types": {
					"t_address": {
						"encoding": "inplace",
						"label": "address",
						"numberOfBytes": "20"
					},
					"t_int256": {
						"encoding": "inplace",
						"label": "int256",
						"numberOfBytes": "32"
					},
					"t_string_storage": {
						"encoding": "bytes",
						"label": "string",
						"numberOfBytes": "32"
					}
				}
			},
			"userdoc": {
				"kind": "user",
				"methods": {},
				"version": 1
			}
		}
	}
}