{
	"contracts/crowdrefund.sol": {
		"CrowdRefund": {
			"abi": [
				{
					"inputs": [
						{
							"internalType": "uint256",
							"name": "_goal",
							"type": "uint256"
						},
						{
							"internalType": "uint256",
							"name": "_deadline",
							"type": "uint256"
						}
					],
					"stateMutability": "nonpayable",
					"type": "constructor"
				},
				{
					"anonymous": false,
					"inputs": [
						{
							"indexed": false,
							"internalType": "address",
							"name": "_sender",
							"type": "address"
						},
						{
							"indexed": false,
							"internalType": "uint256",
							"name": "_value",
							"type": "uint256"
						}
					],
					"name": "contributeEvent",
					"type": "event"
				},
				{
					"anonymous": false,
					"inputs": [
						{
							"indexed": false,
							"internalType": "string",
							"name": "_description",
							"type": "string"
						},
						{
							"indexed": false,
							"internalType": "address",
							"name": "_recipient",
							"type": "address"
						},
						{
							"indexed": false,
							"internalType": "uint256",
							"name": "_value",
							"type": "uint256"
						}
					],
					"name": "createRequestEvent",
					"type": "event"
				},
				{
					"inputs": [],
					"name": "admin",
					"outputs": [
						{
							"internalType": "address",
							"name": "",
							"type": "address"
						}
					],
					"stateMutability": "view",
					"type": "function"
				},
				{
					"inputs": [],
					"name": "contribute",
					"outputs": [],
					"stateMutability": "payable",
					"type": "function"
				},
				{
					"inputs": [
						{
							"internalType": "address",
							"name": "",
							"type": "address"
						}
					],
					"name": "contributors",
					"outputs": [
						{
							"internalType": "uint256",
							"name": "",
							"type": "uint256"
						}
					],
					"stateMutability": "view",
					"type": "function"
				},
				{
					"inputs": [
						{
							"internalType": "string",
							"name": "_description",
							"type": "string"
						},
						{
							"internalType": "address payable",
							"name": "_recipient",
							"type": "address"
						},
						{
							"internalType": "uint256",
							"name": "_value",
							"type": "uint256"
						}
					],
					"name": "createRequest",
					"outputs": [],
					"stateMutability": "nonpayable",
					"type": "function"
				},
				{
					"inputs": [],
					"name": "endTime",
					"outputs": [
						{
							"internalType": "uint256",
							"name": "",
							"type": "uint256"
						}
					],
					"stateMutability": "view",
					"type": "function"
				},
				{
					"inputs": [],
					"name": "getBalance",
					"outputs": [
						{
							"internalType": "uint256",
							"name": "",
							"type": "uint256"
						}
					],
					"stateMutability": "view",
					"type": "function"
				},
				{
					"inputs": [],
					"name": "goal",
					"outputs": [
						{
							"internalType": "uint256",
							"name": "",
							"type": "uint256"
						}
					],
					"stateMutability": "view",
					"type": "function"
				},
				{
					"inputs": [
						{
							"internalType": "uint256",
							"name": "_requestNo",
							"type": "uint256"
						}
					],
					"name": "makePayment",
					"outputs": [],
					"stateMutability": "nonpayable",
					"type": "function"
				},
				{
					"inputs": [],
					"name": "minContribution",
					"outputs": [
						{
							"internalType": "uint256",
							"name": "",
							"type": "uint256"
						}
					],
					"stateMutability": "view",
					"type": "function"
				},
				{
					"inputs": [],
					"name": "noOfContributors",
					"outputs": [
						{
							"internalType": "uint256",
							"name": "",
							"type": "uint256"
						}
					],
					"stateMutability": "view",
					"type": "function"
				},
				{
					"inputs": [],
					"name": "numRequests",
					"outputs": [
						{
							"internalType": "uint256",
							"name": "",
							"type": "uint256"
						}
					],
					"stateMutability": "view",
					"type": "function"
				},
				{
					"inputs": [],
					"name": "raisedAmount",
					"outputs": [
						{
							"internalType": "uint256",
							"name": "",
							"type": "uint256"
						}
					],
					"stateMutability": "view",
					"type": "function"
				},
				{
					"inputs": [],
					"name": "refund",
					"outputs": [],
					"stateMutability": "payable",
					"type": "function"
				},
				{
					"inputs": [
						{
							"internalType": "uint256",
							"name": "",
							"type": "uint256"
						}
					],
					"name": "requests",
					"outputs": [
						{
							"internalType": "string",
							"name": "description",
							"type": "string"
						},
						{
							"internalType": "address payable",
							"name": "recipient",
							"type": "address"
						},
						{
							"internalType": "uint256",
							"name": "value",
							"type": "uint256"
						},
						{
							"internalType": "bool",
							"name": "completed",
							"type": "bool"
						},
						{
							"internalType": "uint256",
							"name": "noOfVotes",
							"type": "uint256"
						}
					],
					"stateMutability": "view",
					"type": "function"
				},
				{
					"inputs": [],
					"name": "startTime",
					"outputs": [
						{
							"internalType": "uint256",
							"name": "",
							"type": "uint256"
						}
					],
					"stateMutability": "view",
					"type": "function"
				},
				{
					"inputs": [
						{
							"internalType": "uint256",
							"name": "_requestNo",
							"type": "uint256"
						}
					],
					"name": "voteRequest",
					"outputs": [],
					"stateMutability": "nonpayable",
					"type": "function"
				},
				{
					"stateMutability": "payable",
					"type": "receive"
				}
			],
			"devdoc": {
				"kind": "dev",
				"methods": {},
				"version": 1
			},
			"evm": {
				"assembly": "    /* \"contracts/crowdrefund.sol\":157:3374  contract CrowdRefund {... */\n  mstore(0x40, 0x80)\n    /* \"contracts/crowdrefund.sol\":741:958  constructor(uint256 _goal, uint256 _deadline) {... */\n  callvalue\n  dup1\n  iszero\n  tag_1\n  jumpi\n  0x00\n  dup1\n  revert\ntag_1:\n  pop\n  mload(0x40)\n  sub(codesize, bytecodeSize)\n  dup1\n  bytecodeSize\n  dup4\n  codecopy\n  dup2\n  dup2\n  add\n  0x40\n  mstore\n  0x40\n  dup2\n  lt\n  iszero\n  tag_2\n  jumpi\n  0x00\n  dup1\n  revert\ntag_2:\n  dup2\n  add\n  swap1\n  dup1\n  dup1\n  mload\n  swap1\n  0x20\n  add\n  swap1\n  swap3\n  swap2\n  swap1\n  dup1\n  mload\n  swap1\n  0x20\n  add\n  swap1\n  swap3\n  swap2\n  swap1\n  pop\n  pop\n  pop\n    /* \"contracts/crowdrefund.sol\":804:809  _goal */\n  dup2\n    /* \"contracts/crowdrefund.sol\":797:801  goal */\n  0x05\n    /* \"contracts/crowdrefund.sol\":797:809  goal = _goal */\n  dup2\n  swap1\n  sstore\n  pop\n    /* \"contracts/crowdrefund.sol\":831:846  block.timestamp */\n  timestamp\n    /* \"contracts/crowdrefund.sol\":819:828  startTime */\n  0x03\n    /* \"contracts/crowdrefund.sol\":819:846  startTime = block.timestamp */\n  dup2\n  swap1\n  sstore\n  pop\n    /* \"contracts/crowdrefund.sol\":878:887  _deadline */\n  dup1\n    /* \"contracts/crowdrefund.sol\":866:875  startTime */\n  sload(0x03)\n    /* \"contracts/crowdrefund.sol\":866:887  startTime + _deadline */\n  add\n    /* \"contracts/crowdrefund.sol\":856:863  endTime */\n  0x04\n    /* \"contracts/crowdrefund.sol\":856:887  endTime = startTime + _deadline */\n  dup2\n  swap1\n  sstore\n  pop\n    /* \"contracts/crowdrefund.sol\":906:916  msg.sender */\n  caller\n    /* \"contracts/crowdrefund.sol\":898:903  admin */\n  0x07\n  0x00\n    /* \"contracts/crowdrefund.sol\":898:916  admin = msg.sender */\n  0x0100\n  exp\n  dup2\n  sload\n  dup2\n  0xffffffffffffffffffffffffffffffffffffffff\n  mul\n  not\n  and\n  swap1\n  dup4\n  0xffffffffffffffffffffffffffffffffffffffff\n  and\n  mul\n  or\n  swap1\n  sstore\n  pop\n    /* \"contracts/crowdrefund.sol\":944:951  100 wei */\n  0x64\n    /* \"contracts/crowdrefund.sol\":926:941  minContribution */\n  0x02\n    /* \"contracts/crowdrefund.sol\":926:951  minContribution = 100 wei */\n  dup2\n  swap1\n  sstore\n  pop\n    /* \"contracts/crowdrefund.sol\":741:958  constructor(uint256 _goal, uint256 _deadline) {... */\n  pop\n  pop\n    /* \"contracts/crowdrefund.sol\":157:3374  contract CrowdRefund {... */\n  dataSize(sub_0)\n  dup1\n  dataOffset(sub_0)\n  0x00\n  codecopy\n  0x00\n  return\nstop\n\nsub_0: assembly {\n        /* \"contracts/crowdrefund.sol\":157:3374  contract CrowdRefund {... */\n      mstore(0x40, 0x80)\n      jumpi(tag_1, lt(calldatasize, 0x04))\n      shr(0xe0, calldataload(0x00))\n      dup1\n      0x590e1ae3\n      gt\n      tag_19\n      jumpi\n      dup1\n      0xaaffadf3\n      gt\n      tag_20\n      jumpi\n      dup1\n      0xaaffadf3\n      eq\n      tag_15\n      jumpi\n      dup1\n      0xc59ee1dc\n      eq\n      tag_16\n      jumpi\n      dup1\n      0xd7bb99ba\n      eq\n      tag_17\n      jumpi\n      dup1\n      0xf851a440\n      eq\n      tag_18\n      jumpi\n      jump(tag_2)\n    tag_20:\n      dup1\n      0x590e1ae3\n      eq\n      tag_11\n      jumpi\n      dup1\n      0x78e97925\n      eq\n      tag_12\n      jumpi\n      dup1\n      0x81d12c58\n      eq\n      tag_13\n      jumpi\n      dup1\n      0x9fb42b1f\n      eq\n      tag_14\n      jumpi\n      jump(tag_2)\n    tag_19:\n      dup1\n      0x40193883\n      gt\n      tag_21\n      jumpi\n      dup1\n      0x40193883\n      eq\n      tag_7\n      jumpi\n      dup1\n      0x4cb6f4a5\n      eq\n      tag_8\n      jumpi\n      dup1\n      0x4e260f6f\n      eq\n      tag_9\n      jumpi\n      dup1\n      0x5114cb52\n      eq\n      tag_10\n      jumpi\n      jump(tag_2)\n    tag_21:\n      dup1\n      0x12065fe0\n      eq\n      tag_3\n      jumpi\n      dup1\n      0x1b16bb5c\n      eq\n      tag_4\n      jumpi\n      dup1\n      0x1f6d4942\n      eq\n      tag_5\n      jumpi\n      dup1\n      0x3197cbb6\n      eq\n      tag_6\n      jumpi\n      jump(tag_2)\n    tag_1:\n      jumpi(tag_2, calldatasize)\n        /* \"contracts/crowdrefund.sol\":1001:1013  contribute() */\n      tag_24\n        /* \"contracts/crowdrefund.sol\":1001:1011  contribute */\n      tag_25\n        /* \"contracts/crowdrefund.sol\":1001:1013  contribute() */\n      jump\t// in\n    tag_24:\n        /* \"contracts/crowdrefund.sol\":157:3374  contract CrowdRefund {... */\n      stop\n    tag_2:\n      0x00\n      dup1\n      revert\n        /* \"contracts/crowdrefund.sol\":1556:1653  function getBalance() public view returns (uint256) {... */\n    tag_3:\n      callvalue\n      dup1\n      iszero\n      tag_26\n      jumpi\n      0x00\n      dup1\n      revert\n    tag_26:\n      pop\n      tag_27\n      tag_28\n      jump\t// in\n    tag_27:\n      mload(0x40)\n      dup1\n      dup3\n      dup2\n      mstore\n      0x20\n      add\n      swap2\n      pop\n      pop\n      mload(0x40)\n      dup1\n      swap2\n      sub\n      swap1\n      return\n        /* \"contracts/crowdrefund.sol\":2064:2513  function createRequest(string memory _description,address payable _recipient,uint _value) public {... */\n    tag_4:\n      callvalue\n      dup1\n      iszero\n      tag_29\n      jumpi\n      0x00\n      dup1\n      revert\n    tag_29:\n      pop\n      tag_30\n      0x04\n      dup1\n      calldatasize\n      sub\n      0x60\n      dup2\n      lt\n      iszero\n      tag_31\n      jumpi\n      0x00\n      dup1\n      revert\n    tag_31:\n      dup2\n      add\n      swap1\n      dup1\n      dup1\n      calldataload\n      swap1\n      0x20\n      add\n      swap1\n      0x0100000000\n      dup2\n      gt\n      iszero\n      tag_32\n      jumpi\n      0x00\n      dup1\n      revert\n    tag_32:\n      dup3\n      add\n      dup4\n      0x20\n      dup3\n      add\n      gt\n      iszero\n      tag_33\n      jumpi\n      0x00\n      dup1\n      revert\n    tag_33:\n      dup1\n      calldataload\n      swap1\n      0x20\n      add\n      swap2\n      dup5\n      0x01\n      dup4\n      mul\n      dup5\n      add\n      gt\n      0x0100000000\n      dup4\n      gt\n      or\n      iszero\n      tag_34\n      jumpi\n      0x00\n      dup1\n      revert\n    tag_34:\n      swap2\n      swap1\n      dup1\n      dup1\n      0x1f\n      add\n      0x20\n      dup1\n      swap2\n      div\n      mul\n      0x20\n      add\n      mload(0x40)\n      swap1\n      dup2\n      add\n      0x40\n      mstore\n      dup1\n      swap4\n      swap3\n      swap2\n      swap1\n      dup2\n      dup2\n      mstore\n      0x20\n      add\n      dup4\n      dup4\n      dup1\n      dup3\n      dup5\n      calldatacopy\n      0x00\n      dup2\n      dup5\n      add\n      mstore\n      not(0x1f)\n      0x1f\n      dup3\n      add\n      and\n      swap1\n      pop\n      dup1\n      dup4\n      add\n      swap3\n      pop\n      pop\n      pop\n      pop\n      pop\n      pop\n      pop\n      swap2\n      swap3\n      swap2\n      swap3\n      swap1\n      dup1\n      calldataload\n      0xffffffffffffffffffffffffffffffffffffffff\n      and\n      swap1\n      0x20\n      add\n      swap1\n      swap3\n      swap2\n      swap1\n      dup1\n      calldataload\n      swap1\n      0x20\n      add\n      swap1\n      swap3\n      swap2\n      swap1\n      pop\n      pop\n      pop\n      tag_35\n      jump\t// in\n    tag_30:\n      stop\n        /* \"contracts/crowdrefund.sol\":184:231  mapping(address => uint256) public contributors */\n    tag_5:\n      callvalue\n      dup1\n      iszero\n      tag_36\n      jumpi\n      0x00\n      dup1\n      revert\n    tag_36:\n      pop\n      tag_37\n      0x04\n      dup1\n      calldatasize\n      sub\n      0x20\n      dup2\n      lt\n      iszero\n      tag_38\n      jumpi\n      0x00\n      dup1\n      revert\n    tag_38:\n      dup2\n      add\n      swap1\n      dup1\n      dup1\n      calldataload\n      0xffffffffffffffffffffffffffffffffffffffff\n      and\n      swap1\n      0x20\n      add\n      swap1\n      swap3\n      swap2\n      swap1\n      pop\n      pop\n      pop\n      tag_39\n      jump\t// in\n    tag_37:\n      mload(0x40)\n      dup1\n      dup3\n      dup2\n      mstore\n      0x20\n      add\n      swap2\n      pop\n      pop\n      mload(0x40)\n      dup1\n      swap2\n      sub\n      swap1\n      return\n        /* \"contracts/crowdrefund.sol\":341:363  uint256 public endTime */\n    tag_6:\n      callvalue\n      dup1\n      iszero\n      tag_40\n      jumpi\n      0x00\n      dup1\n      revert\n    tag_40:\n      pop\n      tag_41\n      tag_42\n      jump\t// in\n    tag_41:\n      mload(0x40)\n      dup1\n      dup3\n      dup2\n      mstore\n      0x20\n      add\n      swap2\n      pop\n      pop\n      mload(0x40)\n      dup1\n      swap2\n      sub\n      swap1\n      return\n        /* \"contracts/crowdrefund.sol\":370:389  uint256 public goal */\n    tag_7:\n      callvalue\n      dup1\n      iszero\n      tag_43\n      jumpi\n      0x00\n      dup1\n      revert\n    tag_43:\n      pop\n      tag_44\n      tag_45\n      jump\t// in\n    tag_44:\n      mload(0x40)\n      dup1\n      dup3\n      dup2\n      mstore\n      0x20\n      add\n      swap2\n      pop\n      pop\n      mload(0x40)\n      dup1\n      swap2\n      sub\n      swap1\n      return\n        /* \"contracts/crowdrefund.sol\":2564:2862  function voteRequest(uint _requestNo) public{... */\n    tag_8:\n      callvalue\n      dup1\n      iszero\n      tag_46\n      jumpi\n      0x00\n      dup1\n      revert\n    tag_46:\n      pop\n      tag_47\n      0x04\n      dup1\n      calldatasize\n      sub\n      0x20\n      dup2\n      lt\n      iszero\n      tag_48\n      jumpi\n      0x00\n      dup1\n      revert\n    tag_48:\n      dup2\n      add\n      swap1\n      dup1\n      dup1\n      calldataload\n      swap1\n      0x20\n      add\n      swap1\n      swap3\n      swap2\n      swap1\n      pop\n      pop\n      pop\n      tag_49\n      jump\t// in\n    tag_47:\n      stop\n        /* \"contracts/crowdrefund.sol\":237:268  uint256 public noOfContributors */\n    tag_9:\n      callvalue\n      dup1\n      iszero\n      tag_50\n      jumpi\n      0x00\n      dup1\n      revert\n    tag_50:\n      pop\n      tag_51\n      tag_52\n      jump\t// in\n    tag_51:\n      mload(0x40)\n      dup1\n      dup3\n      dup2\n      mstore\n      0x20\n      add\n      swap2\n      pop\n      pop\n      mload(0x40)\n      dup1\n      swap2\n      sub\n      swap1\n      return\n        /* \"contracts/crowdrefund.sol\":2868:3229  function makePayment(uint _requestNo) public {... */\n    tag_10:\n      callvalue\n      dup1\n      iszero\n      tag_53\n      jumpi\n      0x00\n      dup1\n      revert\n    tag_53:\n      pop\n      tag_54\n      0x04\n      dup1\n      calldatasize\n      sub\n      0x20\n      dup2\n      lt\n      iszero\n      tag_55\n      jumpi\n      0x00\n      dup1\n      revert\n    tag_55:\n      dup2\n      add\n      swap1\n      dup1\n      dup1\n      calldataload\n      swap1\n      0x20\n      add\n      swap1\n      swap3\n      swap2\n      swap1\n      pop\n      pop\n      pop\n      tag_56\n      jump\t// in\n    tag_54:\n      stop\n        /* \"contracts/crowdrefund.sol\":1659:2058  function refund() public payable {... */\n    tag_11:\n      tag_57\n      tag_58\n      jump\t// in\n    tag_57:\n      stop\n        /* \"contracts/crowdrefund.sol\":311:335  uint256 public startTime */\n    tag_12:\n      callvalue\n      dup1\n      iszero\n      tag_59\n      jumpi\n      0x00\n      dup1\n      revert\n    tag_59:\n      pop\n      tag_60\n      tag_61\n      jump\t// in\n    tag_60:\n      mload(0x40)\n      dup1\n      dup3\n      dup2\n      mstore\n      0x20\n      add\n      swap2\n      pop\n      pop\n      mload(0x40)\n      dup1\n      swap2\n      sub\n      swap1\n      return\n        /* \"contracts/crowdrefund.sol\":659:702  mapping(uint256 => Request) public requests */\n    tag_13:\n      callvalue\n      dup1\n      iszero\n      tag_62\n      jumpi\n      0x00\n      dup1\n      revert\n    tag_62:\n      pop\n      tag_63\n      0x04\n      dup1\n      calldatasize\n      sub\n      0x20\n      dup2\n      lt\n      iszero\n      tag_64\n      jumpi\n      0x00\n      dup1\n      revert\n    tag_64:\n      dup2\n      add\n      swap1\n      dup1\n      dup1\n      calldataload\n      swap1\n      0x20\n      add\n      swap1\n      swap3\n      swap2\n      swap1\n      pop\n      pop\n      pop\n      tag_65\n      jump\t// in\n    tag_63:\n      mload(0x40)\n      dup1\n      dup1\n      0x20\n      add\n      dup7\n      0xffffffffffffffffffffffffffffffffffffffff\n      and\n      dup2\n      mstore\n      0x20\n      add\n      dup6\n      dup2\n      mstore\n      0x20\n      add\n      dup5\n      iszero\n      iszero\n      dup2\n      mstore\n      0x20\n      add\n      dup4\n      dup2\n      mstore\n      0x20\n      add\n      dup3\n      dup2\n      sub\n      dup3\n      mstore\n      dup8\n      dup2\n      dup2\n      mload\n      dup2\n      mstore\n      0x20\n      add\n      swap2\n      pop\n      dup1\n      mload\n      swap1\n      0x20\n      add\n      swap1\n      dup1\n      dup4\n      dup4\n      0x00\n    tag_66:\n      dup4\n      dup2\n      lt\n      iszero\n      tag_68\n      jumpi\n      dup1\n      dup3\n      add\n      mload\n      dup2\n      dup5\n      add\n      mstore\n      0x20\n      dup2\n      add\n      swap1\n      pop\n      jump(tag_66)\n    tag_68:\n      pop\n      pop\n      pop\n      pop\n      swap1\n      pop\n      swap1\n      dup2\n      add\n      swap1\n      0x1f\n      and\n      dup1\n      iszero\n      tag_69\n      jumpi\n      dup1\n      dup3\n      sub\n      dup1\n      mload\n      0x01\n      dup4\n      0x20\n      sub\n      0x0100\n      exp\n      sub\n      not\n      and\n      dup2\n      mstore\n      0x20\n      add\n      swap2\n      pop\n    tag_69:\n      pop\n      swap7\n      pop\n      pop\n      pop\n      pop\n      pop\n      pop\n      pop\n      mload(0x40)\n      dup1\n      swap2\n      sub\n      swap1\n      return\n        /* \"contracts/crowdrefund.sol\":708:734  uint256 public numRequests */\n    tag_14:\n      callvalue\n      dup1\n      iszero\n      tag_70\n      jumpi\n      0x00\n      dup1\n      revert\n    tag_70:\n      pop\n      tag_71\n      tag_72\n      jump\t// in\n    tag_71:\n      mload(0x40)\n      dup1\n      dup3\n      dup2\n      mstore\n      0x20\n      add\n      swap2\n      pop\n      pop\n      mload(0x40)\n      dup1\n      swap2\n      sub\n      swap1\n      return\n        /* \"contracts/crowdrefund.sol\":274:304  uint256 public minContribution */\n    tag_15:\n      callvalue\n      dup1\n      iszero\n      tag_73\n      jumpi\n      0x00\n      dup1\n      revert\n    tag_73:\n      pop\n      tag_74\n      tag_75\n      jump\t// in\n    tag_74:\n      mload(0x40)\n      dup1\n      dup3\n      dup2\n      mstore\n      0x20\n      add\n      swap2\n      pop\n      pop\n      mload(0x40)\n      dup1\n      swap2\n      sub\n      swap1\n      return\n        /* \"contracts/crowdrefund.sol\":395:422  uint256 public raisedAmount */\n    tag_16:\n      callvalue\n      dup1\n      iszero\n      tag_76\n      jumpi\n      0x00\n      dup1\n      revert\n    tag_76:\n      pop\n      tag_77\n      tag_78\n      jump\t// in\n    tag_77:\n      mload(0x40)\n      dup1\n      dup3\n      dup2\n      mstore\n      0x20\n      add\n      swap2\n      pop\n      pop\n      mload(0x40)\n      dup1\n      swap2\n      sub\n      swap1\n      return\n        /* \"contracts/crowdrefund.sol\":1100:1521  function contribute() public payable {... */\n    tag_17:\n      tag_79\n      tag_25\n      jump\t// in\n    tag_79:\n      stop\n        /* \"contracts/crowdrefund.sol\":429:449  address public admin */\n    tag_18:\n      callvalue\n      dup1\n      iszero\n      tag_80\n      jumpi\n      0x00\n      dup1\n      revert\n    tag_80:\n      pop\n      tag_81\n      tag_82\n      jump\t// in\n    tag_81:\n      mload(0x40)\n      dup1\n      dup3\n      0xffffffffffffffffffffffffffffffffffffffff\n      and\n      dup2\n      mstore\n      0x20\n      add\n      swap2\n      pop\n      pop\n      mload(0x40)\n      dup1\n      swap2\n      sub\n      swap1\n      return\n        /* \"contracts/crowdrefund.sol\":1100:1521  function contribute() public payable {... */\n    tag_25:\n        /* \"contracts/crowdrefund.sol\":1174:1183  startTime */\n      sload(0x03)\n        /* \"contracts/crowdrefund.sol\":1155:1170  block.timestamp */\n      timestamp\n        /* \"contracts/crowdrefund.sol\":1155:1183  block.timestamp >= startTime */\n      lt\n      iszero\n        /* \"contracts/crowdrefund.sol\":1155:1212  block.timestamp >= startTime && block.timestamp < endTime */\n      dup1\n      iszero\n      tag_84\n      jumpi\n      pop\n        /* \"contracts/crowdrefund.sol\":1205:1212  endTime */\n      sload(0x04)\n        /* \"contracts/crowdrefund.sol\":1187:1202  block.timestamp */\n      timestamp\n        /* \"contracts/crowdrefund.sol\":1187:1212  block.timestamp < endTime */\n      lt\n        /* \"contracts/crowdrefund.sol\":1155:1212  block.timestamp >= startTime && block.timestamp < endTime */\n    tag_84:\n        /* \"contracts/crowdrefund.sol\":1147:1213  require(block.timestamp >= startTime && block.timestamp < endTime) */\n      tag_85\n      jumpi\n      0x00\n      dup1\n      revert\n    tag_85:\n        /* \"contracts/crowdrefund.sol\":1244:1259  minContribution */\n      sload(0x02)\n        /* \"contracts/crowdrefund.sol\":1231:1240  msg.value */\n      callvalue\n        /* \"contracts/crowdrefund.sol\":1231:1259  msg.value >= minContribution */\n      lt\n      iszero\n        /* \"contracts/crowdrefund.sol\":1223:1260  require(msg.value >= minContribution) */\n      tag_86\n      jumpi\n      0x00\n      dup1\n      revert\n    tag_86:\n        /* \"contracts/crowdrefund.sol\":1303:1304  0 */\n      0x00\n        /* \"contracts/crowdrefund.sol\":1275:1287  contributors */\n      dup1\n        /* \"contracts/crowdrefund.sol\":1275:1299  contributors[msg.sender] */\n      0x00\n        /* \"contracts/crowdrefund.sol\":1288:1298  msg.sender */\n      caller\n        /* \"contracts/crowdrefund.sol\":1275:1299  contributors[msg.sender] */\n      0xffffffffffffffffffffffffffffffffffffffff\n      and\n      0xffffffffffffffffffffffffffffffffffffffff\n      and\n      dup2\n      mstore\n      0x20\n      add\n      swap1\n      dup2\n      mstore\n      0x20\n      add\n      0x00\n      keccak256\n      sload\n        /* \"contracts/crowdrefund.sol\":1275:1304  contributors[msg.sender] == 0 */\n      eq\n        /* \"contracts/crowdrefund.sol\":1271:1349  if (contributors[msg.sender] == 0) {... */\n      iszero\n      tag_87\n      jumpi\n        /* \"contracts/crowdrefund.sol\":1320:1336  noOfContributors */\n      0x01\n      0x00\n        /* \"contracts/crowdrefund.sol\":1320:1338  noOfContributors++ */\n      dup2\n      sload\n      dup1\n      swap3\n      swap2\n      swap1\n      0x01\n      add\n      swap2\n      swap1\n      pop\n      sstore\n      pop\n        /* \"contracts/crowdrefund.sol\":1271:1349  if (contributors[msg.sender] == 0) {... */\n    tag_87:\n        /* \"contracts/crowdrefund.sol\":1375:1384  msg.value */\n      callvalue\n        /* \"contracts/crowdrefund.sol\":1359:1371  raisedAmount */\n      0x06\n      0x00\n        /* \"contracts/crowdrefund.sol\":1359:1384  raisedAmount += msg.value */\n      dup3\n      dup3\n      sload\n      add\n      swap3\n      pop\n      pop\n      dup2\n      swap1\n      sstore\n      pop\n        /* \"contracts/crowdrefund.sol\":1422:1431  msg.value */\n      callvalue\n        /* \"contracts/crowdrefund.sol\":1394:1406  contributors */\n      0x00\n        /* \"contracts/crowdrefund.sol\":1394:1418  contributors[msg.sender] */\n      dup1\n        /* \"contracts/crowdrefund.sol\":1407:1417  msg.sender */\n      caller\n        /* \"contracts/crowdrefund.sol\":1394:1418  contributors[msg.sender] */\n      0xffffffffffffffffffffffffffffffffffffffff\n      and\n      0xffffffffffffffffffffffffffffffffffffffff\n      and\n      dup2\n      mstore\n      0x20\n      add\n      swap1\n      dup2\n      mstore\n      0x20\n      add\n      0x00\n      keccak256\n      0x00\n        /* \"contracts/crowdrefund.sol\":1394:1431  contributors[msg.sender] += msg.value */\n      dup3\n      dup3\n      sload\n      add\n      swap3\n      pop\n      pop\n      dup2\n      swap1\n      sstore\n      pop\n        /* \"contracts/crowdrefund.sol\":1476:1514  contributeEvent(msg.sender, msg.value) */\n      0x7e41554d2c4bf119ba03643260ffd3fc44d1bd799845194ccae707d2742c7a79\n        /* \"contracts/crowdrefund.sol\":1492:1502  msg.sender */\n      caller\n        /* \"contracts/crowdrefund.sol\":1504:1513  msg.value */\n      callvalue\n        /* \"contracts/crowdrefund.sol\":1476:1514  contributeEvent(msg.sender, msg.value) */\n      mload(0x40)\n      dup1\n      dup4\n      0xffffffffffffffffffffffffffffffffffffffff\n      and\n      dup2\n      mstore\n      0x20\n      add\n      dup3\n      dup2\n      mstore\n      0x20\n      add\n      swap3\n      pop\n      pop\n      pop\n      mload(0x40)\n      dup1\n      swap2\n      sub\n      swap1\n      log1\n        /* \"contracts/crowdrefund.sol\":1100:1521  function contribute() public payable {... */\n      jump\t// out\n        /* \"contracts/crowdrefund.sol\":1556:1653  function getBalance() public view returns (uint256) {... */\n    tag_28:\n        /* \"contracts/crowdrefund.sol\":1599:1606  uint256 */\n      0x00\n        /* \"contracts/crowdrefund.sol\":1625:1646  address(this).balance */\n      selfbalance\n        /* \"contracts/crowdrefund.sol\":1618:1646  return address(this).balance */\n      swap1\n      pop\n        /* \"contracts/crowdrefund.sol\":1556:1653  function getBalance() public view returns (uint256) {... */\n      swap1\n      jump\t// out\n        /* \"contracts/crowdrefund.sol\":2064:2513  function createRequest(string memory _description,address payable _recipient,uint _value) public {... */\n    tag_35:\n        /* \"contracts/crowdrefund.sol\":2171:2197  Request storage newRequest */\n      0x00\n        /* \"contracts/crowdrefund.sol\":2200:2208  requests */\n      0x08\n        /* \"contracts/crowdrefund.sol\":2200:2221  requests[numRequests] */\n      0x00\n        /* \"contracts/crowdrefund.sol\":2209:2220  numRequests */\n      sload(0x09)\n        /* \"contracts/crowdrefund.sol\":2200:2221  requests[numRequests] */\n      dup2\n      mstore\n      0x20\n      add\n      swap1\n      dup2\n      mstore\n      0x20\n      add\n      0x00\n      keccak256\n        /* \"contracts/crowdrefund.sol\":2171:2221  Request storage newRequest = requests[numRequests] */\n      swap1\n      pop\n        /* \"contracts/crowdrefund.sol\":2231:2242  numRequests */\n      0x09\n      0x00\n        /* \"contracts/crowdrefund.sol\":2231:2244  numRequests++ */\n      dup2\n      sload\n      dup1\n      swap3\n      swap2\n      swap1\n      0x01\n      add\n      swap2\n      swap1\n      pop\n      sstore\n      pop\n        /* \"contracts/crowdrefund.sol\":2280:2292  _description */\n      dup4\n        /* \"contracts/crowdrefund.sol\":2255:2265  newRequest */\n      dup2\n        /* \"contracts/crowdrefund.sol\":2255:2277  newRequest.description */\n      0x00\n      add\n        /* \"contracts/crowdrefund.sol\":2255:2292  newRequest.description = _description */\n      swap1\n      dup1\n      mload\n      swap1\n      0x20\n      add\n      swap1\n      tag_90\n      swap3\n      swap2\n      swap1\n      tag_91\n      jump\t// in\n    tag_90:\n      pop\n        /* \"contracts/crowdrefund.sol\":2325:2335  _recipient */\n      dup3\n        /* \"contracts/crowdrefund.sol\":2302:2312  newRequest */\n      dup2\n        /* \"contracts/crowdrefund.sol\":2302:2322  newRequest.recipient */\n      0x01\n      add\n      0x00\n        /* \"contracts/crowdrefund.sol\":2302:2335  newRequest.recipient = _recipient */\n      0x0100\n      exp\n      dup2\n      sload\n      dup2\n      0xffffffffffffffffffffffffffffffffffffffff\n      mul\n      not\n      and\n      swap1\n      dup4\n      0xffffffffffffffffffffffffffffffffffffffff\n      and\n      mul\n      or\n      swap1\n      sstore\n      pop\n        /* \"contracts/crowdrefund.sol\":2364:2370  _value */\n      dup2\n        /* \"contracts/crowdrefund.sol\":2345:2355  newRequest */\n      dup2\n        /* \"contracts/crowdrefund.sol\":2345:2361  newRequest.value */\n      0x02\n      add\n        /* \"contracts/crowdrefund.sol\":2345:2370  newRequest.value = _value */\n      dup2\n      swap1\n      sstore\n      pop\n        /* \"contracts/crowdrefund.sol\":2404:2409  false */\n      0x00\n        /* \"contracts/crowdrefund.sol\":2381:2391  newRequest */\n      dup2\n        /* \"contracts/crowdrefund.sol\":2381:2401  newRequest.completed */\n      0x03\n      add\n      0x00\n        /* \"contracts/crowdrefund.sol\":2381:2409  newRequest.completed = false */\n      0x0100\n      exp\n      dup2\n      sload\n      dup2\n      0xff\n      mul\n      not\n      and\n      swap1\n      dup4\n      iszero\n      iszero\n      mul\n      or\n      swap1\n      sstore\n      pop\n        /* \"contracts/crowdrefund.sol\":2442:2443  0 */\n      0x00\n        /* \"contracts/crowdrefund.sol\":2419:2429  newRequest */\n      dup2\n        /* \"contracts/crowdrefund.sol\":2419:2439  newRequest.noOfVotes */\n      0x04\n      add\n        /* \"contracts/crowdrefund.sol\":2419:2443  newRequest.noOfVotes = 0 */\n      dup2\n      swap1\n      sstore\n      pop\n        /* \"contracts/crowdrefund.sol\":2454:2506  createRequestEvent(_description, _recipient, _value) */\n      0xb61911820b0f2d45a16a949c10c8464cdd8b39ce576e5615556813fe846d2aea\n        /* \"contracts/crowdrefund.sol\":2473:2485  _description */\n      dup5\n        /* \"contracts/crowdrefund.sol\":2487:2497  _recipient */\n      dup5\n        /* \"contracts/crowdrefund.sol\":2499:2505  _value */\n      dup5\n        /* \"contracts/crowdrefund.sol\":2454:2506  createRequestEvent(_description, _recipient, _value) */\n      mload(0x40)\n      dup1\n      dup1\n      0x20\n      add\n      dup5\n      0xffffffffffffffffffffffffffffffffffffffff\n      and\n      dup2\n      mstore\n      0x20\n      add\n      dup4\n      dup2\n      mstore\n      0x20\n      add\n      dup3\n      dup2\n      sub\n      dup3\n      mstore\n      dup6\n      dup2\n      dup2\n      mload\n      dup2\n      mstore\n      0x20\n      add\n      swap2\n      pop\n      dup1\n      mload\n      swap1\n      0x20\n      add\n      swap1\n      dup1\n      dup4\n      dup4\n      0x00\n    tag_92:\n      dup4\n      dup2\n      lt\n      iszero\n      tag_94\n      jumpi\n      dup1\n      dup3\n      add\n      mload\n      dup2\n      dup5\n      add\n      mstore\n      0x20\n      dup2\n      add\n      swap1\n      pop\n      jump(tag_92)\n    tag_94:\n      pop\n      pop\n      pop\n      pop\n      swap1\n      pop\n      swap1\n      dup2\n      add\n      swap1\n      0x1f\n      and\n      dup1\n      iszero\n      tag_95\n      jumpi\n      dup1\n      dup3\n      sub\n      dup1\n      mload\n      0x01\n      dup4\n      0x20\n      sub\n      0x0100\n      exp\n      sub\n      not\n      and\n      dup2\n      mstore\n      0x20\n      add\n      swap2\n      pop\n    tag_95:\n      pop\n      swap5\n      pop\n      pop\n      pop\n      pop\n      pop\n      mload(0x40)\n      dup1\n      swap2\n      sub\n      swap1\n      log1\n        /* \"contracts/crowdrefund.sol\":2064:2513  function createRequest(string memory _description,address payable _recipient,uint _value) public {... */\n      pop\n      pop\n      pop\n      pop\n      jump\t// out\n        /* \"contracts/crowdrefund.sol\":184:231  mapping(address => uint256) public contributors */\n    tag_39:\n      mstore(0x20, 0x00)\n      dup1\n      0x00\n      mstore\n      keccak256(0x00, 0x40)\n      0x00\n      swap2\n      pop\n      swap1\n      pop\n      sload\n      dup2\n      jump\t// out\n        /* \"contracts/crowdrefund.sol\":341:363  uint256 public endTime */\n    tag_42:\n      sload(0x04)\n      dup2\n      jump\t// out\n        /* \"contracts/crowdrefund.sol\":370:389  uint256 public goal */\n    tag_45:\n      sload(0x05)\n      dup2\n      jump\t// out\n        /* \"contracts/crowdrefund.sol\":2564:2862  function voteRequest(uint _requestNo) public{... */\n    tag_49:\n        /* \"contracts/crowdrefund.sol\":2653:2654  0 */\n      0x00\n        /* \"contracts/crowdrefund.sol\":2626:2638  contributors */\n      dup1\n        /* \"contracts/crowdrefund.sol\":2626:2650  contributors[msg.sender] */\n      0x00\n        /* \"contracts/crowdrefund.sol\":2639:2649  msg.sender */\n      caller\n        /* \"contracts/crowdrefund.sol\":2626:2650  contributors[msg.sender] */\n      0xffffffffffffffffffffffffffffffffffffffff\n      and\n      0xffffffffffffffffffffffffffffffffffffffff\n      and\n      dup2\n      mstore\n      0x20\n      add\n      swap1\n      dup2\n      mstore\n      0x20\n      add\n      0x00\n      keccak256\n      sload\n        /* \"contracts/crowdrefund.sol\":2626:2654  contributors[msg.sender] > 0 */\n      gt\n        /* \"contracts/crowdrefund.sol\":2618:2655  require(contributors[msg.sender] > 0) */\n      tag_97\n      jumpi\n      0x00\n      dup1\n      revert\n    tag_97:\n        /* \"contracts/crowdrefund.sol\":2665:2692  Request storage thisRequest */\n      0x00\n        /* \"contracts/crowdrefund.sol\":2695:2703  requests */\n      0x08\n        /* \"contracts/crowdrefund.sol\":2695:2715  requests[_requestNo] */\n      0x00\n        /* \"contracts/crowdrefund.sol\":2704:2714  _requestNo */\n      dup4\n        /* \"contracts/crowdrefund.sol\":2695:2715  requests[_requestNo] */\n      dup2\n      mstore\n      0x20\n      add\n      swap1\n      dup2\n      mstore\n      0x20\n      add\n      0x00\n      keccak256\n        /* \"contracts/crowdrefund.sol\":2665:2715  Request storage thisRequest = requests[_requestNo] */\n      swap1\n      pop\n        /* \"contracts/crowdrefund.sol\":2768:2773  false */\n      0x00\n        /* \"contracts/crowdrefund.sol\":2734:2773  thisRequest.voters[msg.sender] == false */\n      iszero\n      iszero\n        /* \"contracts/crowdrefund.sol\":2734:2745  thisRequest */\n      dup2\n        /* \"contracts/crowdrefund.sol\":2734:2752  thisRequest.voters */\n      0x05\n      add\n        /* \"contracts/crowdrefund.sol\":2734:2764  thisRequest.voters[msg.sender] */\n      0x00\n        /* \"contracts/crowdrefund.sol\":2753:2763  msg.sender */\n      caller\n        /* \"contracts/crowdrefund.sol\":2734:2764  thisRequest.voters[msg.sender] */\n      0xffffffffffffffffffffffffffffffffffffffff\n      and\n      0xffffffffffffffffffffffffffffffffffffffff\n      and\n      dup2\n      mstore\n      0x20\n      add\n      swap1\n      dup2\n      mstore\n      0x20\n      add\n      0x00\n      keccak256\n      0x00\n      swap1\n      sload\n      swap1\n      0x0100\n      exp\n      swap1\n      div\n      0xff\n      and\n        /* \"contracts/crowdrefund.sol\":2734:2773  thisRequest.voters[msg.sender] == false */\n      iszero\n      iszero\n      eq\n        /* \"contracts/crowdrefund.sol\":2726:2774  require(thisRequest.voters[msg.sender] == false) */\n      tag_98\n      jumpi\n      0x00\n      dup1\n      revert\n    tag_98:\n        /* \"contracts/crowdrefund.sol\":2817:2821  true */\n      0x01\n        /* \"contracts/crowdrefund.sol\":2784:2795  thisRequest */\n      dup2\n        /* \"contracts/crowdrefund.sol\":2784:2802  thisRequest.voters */\n      0x05\n      add\n        /* \"contracts/crowdrefund.sol\":2784:2814  thisRequest.voters[msg.sender] */\n      0x00\n        /* \"contracts/crowdrefund.sol\":2803:2813  msg.sender */\n      caller\n        /* \"contracts/crowdrefund.sol\":2784:2814  thisRequest.voters[msg.sender] */\n      0xffffffffffffffffffffffffffffffffffffffff\n      and\n      0xffffffffffffffffffffffffffffffffffffffff\n      and\n      dup2\n      mstore\n      0x20\n      add\n      swap1\n      dup2\n      mstore\n      0x20\n      add\n      0x00\n      keccak256\n      0x00\n        /* \"contracts/crowdrefund.sol\":2784:2821  thisRequest.voters[msg.sender] = true */\n      0x0100\n      exp\n      dup2\n      sload\n      dup2\n      0xff\n      mul\n      not\n      and\n      swap1\n      dup4\n      iszero\n      iszero\n      mul\n      or\n      swap1\n      sstore\n      pop\n        /* \"contracts/crowdrefund.sol\":2831:2842  thisRequest */\n      dup1\n        /* \"contracts/crowdrefund.sol\":2831:2852  thisRequest.noOfVotes */\n      0x04\n      add\n      0x00\n        /* \"contracts/crowdrefund.sol\":2831:2855  thisRequest.noOfVotes ++ */\n      dup2\n      sload\n      dup1\n      swap3\n      swap2\n      swap1\n      0x01\n      add\n      swap2\n      swap1\n      pop\n      sstore\n      pop\n        /* \"contracts/crowdrefund.sol\":2564:2862  function voteRequest(uint _requestNo) public{... */\n      pop\n      pop\n      jump\t// out\n        /* \"contracts/crowdrefund.sol\":237:268  uint256 public noOfContributors */\n    tag_52:\n      sload(0x01)\n      dup2\n      jump\t// out\n        /* \"contracts/crowdrefund.sol\":2868:3229  function makePayment(uint _requestNo) public {... */\n    tag_56:\n        /* \"contracts/crowdrefund.sol\":2940:2950  msg.sender */\n      caller\n        /* \"contracts/crowdrefund.sol\":2931:2950  admin == msg.sender */\n      0xffffffffffffffffffffffffffffffffffffffff\n      and\n        /* \"contracts/crowdrefund.sol\":2931:2936  admin */\n      0x07\n      0x00\n      swap1\n      sload\n      swap1\n      0x0100\n      exp\n      swap1\n      div\n      0xffffffffffffffffffffffffffffffffffffffff\n      and\n        /* \"contracts/crowdrefund.sol\":2931:2950  admin == msg.sender */\n      0xffffffffffffffffffffffffffffffffffffffff\n      and\n      eq\n        /* \"contracts/crowdrefund.sol\":2923:2951  require(admin == msg.sender) */\n      tag_100\n      jumpi\n      0x00\n      dup1\n      revert\n    tag_100:\n        /* \"contracts/crowdrefund.sol\":2961:2988  Request storage thisRequest */\n      0x00\n        /* \"contracts/crowdrefund.sol\":2991:2999  requests */\n      0x08\n        /* \"contracts/crowdrefund.sol\":2991:3011  requests[_requestNo] */\n      0x00\n        /* \"contracts/crowdrefund.sol\":3000:3010  _requestNo */\n      dup4\n        /* \"contracts/crowdrefund.sol\":2991:3011  requests[_requestNo] */\n      dup2\n      mstore\n      0x20\n      add\n      swap1\n      dup2\n      mstore\n      0x20\n      add\n      0x00\n      keccak256\n        /* \"contracts/crowdrefund.sol\":2961:3011  Request storage thisRequest = requests[_requestNo] */\n      swap1\n      pop\n        /* \"contracts/crowdrefund.sol\":3054:3059  false */\n      0x00\n        /* \"contracts/crowdrefund.sol\":3029:3059  thisRequest.completed == false */\n      iszero\n      iszero\n        /* \"contracts/crowdrefund.sol\":3029:3040  thisRequest */\n      dup2\n        /* \"contracts/crowdrefund.sol\":3029:3050  thisRequest.completed */\n      0x03\n      add\n      0x00\n      swap1\n      sload\n      swap1\n      0x0100\n      exp\n      swap1\n      div\n      0xff\n      and\n        /* \"contracts/crowdrefund.sol\":3029:3059  thisRequest.completed == false */\n      iszero\n      iszero\n      eq\n        /* \"contracts/crowdrefund.sol\":3021:3060  require(thisRequest.completed == false) */\n      tag_101\n      jumpi\n      0x00\n      dup1\n      revert\n    tag_101:\n        /* \"contracts/crowdrefund.sol\":3121:3122  2 */\n      0x02\n        /* \"contracts/crowdrefund.sol\":3102:3118  noOfContributors */\n      sload(0x01)\n        /* \"contracts/crowdrefund.sol\":3102:3122  noOfContributors / 2 */\n      dup2\n      tag_102\n      jumpi\n      invalid\n    tag_102:\n      div\n        /* \"contracts/crowdrefund.sol\":3078:3089  thisRequest */\n      dup2\n        /* \"contracts/crowdrefund.sol\":3078:3099  thisRequest.noOfVotes */\n      0x04\n      add\n      sload\n        /* \"contracts/crowdrefund.sol\":3078:3122  thisRequest.noOfVotes > noOfContributors / 2 */\n      gt\n        /* \"contracts/crowdrefund.sol\":3070:3123  require(thisRequest.noOfVotes > noOfContributors / 2) */\n      tag_103\n      jumpi\n      0x00\n      dup1\n      revert\n    tag_103:\n        /* \"contracts/crowdrefund.sol\":3134:3145  thisRequest */\n      dup1\n        /* \"contracts/crowdrefund.sol\":3134:3155  thisRequest.recipient */\n      0x01\n      add\n      0x00\n      swap1\n      sload\n      swap1\n      0x0100\n      exp\n      swap1\n      div\n      0xffffffffffffffffffffffffffffffffffffffff\n      and\n        /* \"contracts/crowdrefund.sol\":3134:3164  thisRequest.recipient.transfer */\n      0xffffffffffffffffffffffffffffffffffffffff\n      and\n        /* \"contracts/crowdrefund.sol\":3134:3183  thisRequest.recipient.transfer(thisRequest.value) */\n      0x08fc\n        /* \"contracts/crowdrefund.sol\":3165:3176  thisRequest */\n      dup3\n        /* \"contracts/crowdrefund.sol\":3165:3182  thisRequest.value */\n      0x02\n      add\n      sload\n        /* \"contracts/crowdrefund.sol\":3134:3183  thisRequest.recipient.transfer(thisRequest.value) */\n      swap1\n      dup2\n      iszero\n      mul\n      swap1\n      mload(0x40)\n      0x00\n      mload(0x40)\n      dup1\n      dup4\n      sub\n      dup2\n      dup6\n      dup9\n      dup9\n      call\n      swap4\n      pop\n      pop\n      pop\n      pop\n      iszero\n      dup1\n      iszero\n      tag_105\n      jumpi\n      returndatasize\n      0x00\n      dup1\n      returndatacopy\n      revert(0x00, returndatasize)\n    tag_105:\n      pop\n        /* \"contracts/crowdrefund.sol\":3217:3221  true */\n      0x01\n        /* \"contracts/crowdrefund.sol\":3193:3204  thisRequest */\n      dup2\n        /* \"contracts/crowdrefund.sol\":3193:3214  thisRequest.completed */\n      0x03\n      add\n      0x00\n        /* \"contracts/crowdrefund.sol\":3193:3221  thisRequest.completed = true */\n      0x0100\n      exp\n      dup2\n      sload\n      dup2\n      0xff\n      mul\n      not\n      and\n      swap1\n      dup4\n      iszero\n      iszero\n      mul\n      or\n      swap1\n      sstore\n      pop\n        /* \"contracts/crowdrefund.sol\":2868:3229  function makePayment(uint _requestNo) public {... */\n      pop\n      pop\n      jump\t// out\n        /* \"contracts/crowdrefund.sol\":1659:2058  function refund() public payable {... */\n    tag_58:\n        /* \"contracts/crowdrefund.sol\":1773:1777  goal */\n      sload(0x05)\n        /* \"contracts/crowdrefund.sol\":1757:1769  raisedAmount */\n      sload(0x06)\n        /* \"contracts/crowdrefund.sol\":1757:1777  raisedAmount <= goal */\n      gt\n      iszero\n        /* \"contracts/crowdrefund.sol\":1749:1778  require(raisedAmount <= goal) */\n      tag_107\n      jumpi\n      0x00\n      dup1\n      revert\n    tag_107:\n        /* \"contracts/crowdrefund.sol\":1823:1824  0 */\n      0x00\n        /* \"contracts/crowdrefund.sol\":1796:1808  contributors */\n      dup1\n        /* \"contracts/crowdrefund.sol\":1796:1820  contributors[msg.sender] */\n      0x00\n        /* \"contracts/crowdrefund.sol\":1809:1819  msg.sender */\n      caller\n        /* \"contracts/crowdrefund.sol\":1796:1820  contributors[msg.sender] */\n      0xffffffffffffffffffffffffffffffffffffffff\n      and\n      0xffffffffffffffffffffffffffffffffffffffff\n      and\n      dup2\n      mstore\n      0x20\n      add\n      swap1\n      dup2\n      mstore\n      0x20\n      add\n      0x00\n      keccak256\n      sload\n        /* \"contracts/crowdrefund.sol\":1796:1824  contributors[msg.sender] > 0 */\n      gt\n        /* \"contracts/crowdrefund.sol\":1788:1838  require(contributors[msg.sender] > 0, \"has money\") */\n      tag_108\n      jumpi\n      mload(0x40)\n      0x08c379a000000000000000000000000000000000000000000000000000000000\n      dup2\n      mstore\n      0x04\n      add\n      dup1\n      dup1\n      0x20\n      add\n      dup3\n      dup2\n      sub\n      dup3\n      mstore\n      0x09\n      dup2\n      mstore\n      0x20\n      add\n      dup1\n      0x686173206d6f6e65790000000000000000000000000000000000000000000000\n      dup2\n      mstore\n      pop\n      0x20\n      add\n      swap2\n      pop\n      pop\n      mload(0x40)\n      dup1\n      swap2\n      sub\n      swap1\n      revert\n    tag_108:\n        /* \"contracts/crowdrefund.sol\":1849:1862  uint256 money */\n      0x00\n        /* \"contracts/crowdrefund.sol\":1865:1877  contributors */\n      dup1\n        /* \"contracts/crowdrefund.sol\":1865:1889  contributors[msg.sender] */\n      0x00\n        /* \"contracts/crowdrefund.sol\":1878:1888  msg.sender */\n      caller\n        /* \"contracts/crowdrefund.sol\":1865:1889  contributors[msg.sender] */\n      0xffffffffffffffffffffffffffffffffffffffff\n      and\n      0xffffffffffffffffffffffffffffffffffffffff\n      and\n      dup2\n      mstore\n      0x20\n      add\n      swap1\n      dup2\n      mstore\n      0x20\n      add\n      0x00\n      keccak256\n      sload\n        /* \"contracts/crowdrefund.sol\":1849:1889  uint256 money = contributors[msg.sender] */\n      swap1\n      pop\n        /* \"contracts/crowdrefund.sol\":1926:1927  0 */\n      0x00\n        /* \"contracts/crowdrefund.sol\":1899:1911  contributors */\n      dup1\n        /* \"contracts/crowdrefund.sol\":1899:1923  contributors[msg.sender] */\n      0x00\n        /* \"contracts/crowdrefund.sol\":1912:1922  msg.sender */\n      caller\n        /* \"contracts/crowdrefund.sol\":1899:1923  contributors[msg.sender] */\n      0xffffffffffffffffffffffffffffffffffffffff\n      and\n      0xffffffffffffffffffffffffffffffffffffffff\n      and\n      dup2\n      mstore\n      0x20\n      add\n      swap1\n      dup2\n      mstore\n      0x20\n      add\n      0x00\n      keccak256\n        /* \"contracts/crowdrefund.sol\":1899:1927  contributors[msg.sender] = 0 */\n      dup2\n      swap1\n      sstore\n      pop\n        /* \"contracts/crowdrefund.sol\":1953:1958  money */\n      dup1\n        /* \"contracts/crowdrefund.sol\":1937:1949  raisedAmount */\n      0x06\n      0x00\n        /* \"contracts/crowdrefund.sol\":1937:1958  raisedAmount -= money */\n      dup3\n      dup3\n      sload\n      sub\n      swap3\n      pop\n      pop\n      dup2\n      swap1\n      sstore\n      pop\n        /* \"contracts/crowdrefund.sol\":1969:1994  address payable recipient */\n      0x00\n        /* \"contracts/crowdrefund.sol\":2005:2015  msg.sender */\n      caller\n        /* \"contracts/crowdrefund.sol\":1969:2016  address payable recipient = payable(msg.sender) */\n      swap1\n      pop\n        /* \"contracts/crowdrefund.sol\":2026:2035  recipient */\n      dup1\n        /* \"contracts/crowdrefund.sol\":2026:2044  recipient.transfer */\n      0xffffffffffffffffffffffffffffffffffffffff\n      and\n        /* \"contracts/crowdrefund.sol\":2026:2051  recipient.transfer(money) */\n      0x08fc\n        /* \"contracts/crowdrefund.sol\":2045:2050  money */\n      dup4\n        /* \"contracts/crowdrefund.sol\":2026:2051  recipient.transfer(money) */\n      swap1\n      dup2\n      iszero\n      mul\n      swap1\n      mload(0x40)\n      0x00\n      mload(0x40)\n      dup1\n      dup4\n      sub\n      dup2\n      dup6\n      dup9\n      dup9\n      call\n      swap4\n      pop\n      pop\n      pop\n      pop\n      iszero\n      dup1\n      iszero\n      tag_110\n      jumpi\n      returndatasize\n      0x00\n      dup1\n      returndatacopy\n      revert(0x00, returndatasize)\n    tag_110:\n      pop\n        /* \"contracts/crowdrefund.sol\":1659:2058  function refund() public payable {... */\n      pop\n      pop\n      jump\t// out\n        /* \"contracts/crowdrefund.sol\":311:335  uint256 public startTime */\n    tag_61:\n      sload(0x03)\n      dup2\n      jump\t// out\n        /* \"contracts/crowdrefund.sol\":659:702  mapping(uint256 => Request) public requests */\n    tag_65:\n      mstore(0x20, 0x08)\n      dup1\n      0x00\n      mstore\n      keccak256(0x00, 0x40)\n      0x00\n      swap2\n      pop\n      swap1\n      pop\n      dup1\n      0x00\n      add\n      dup1\n      sload\n      0x01\n      dup2\n      0x01\n      and\n      iszero\n      0x0100\n      mul\n      sub\n      and\n      0x02\n      swap1\n      div\n      dup1\n      0x1f\n      add\n      0x20\n      dup1\n      swap2\n      div\n      mul\n      0x20\n      add\n      mload(0x40)\n      swap1\n      dup2\n      add\n      0x40\n      mstore\n      dup1\n      swap3\n      swap2\n      swap1\n      dup2\n      dup2\n      mstore\n      0x20\n      add\n      dup3\n      dup1\n      sload\n      0x01\n      dup2\n      0x01\n      and\n      iszero\n      0x0100\n      mul\n      sub\n      and\n      0x02\n      swap1\n      div\n      dup1\n      iszero\n      tag_111\n      jumpi\n      dup1\n      0x1f\n      lt\n      tag_112\n      jumpi\n      0x0100\n      dup1\n      dup4\n      sload\n      div\n      mul\n      dup4\n      mstore\n      swap2\n      0x20\n      add\n      swap2\n      jump(tag_111)\n    tag_112:\n      dup3\n      add\n      swap2\n      swap1\n      0x00\n      mstore\n      keccak256(0x00, 0x20)\n      swap1\n    tag_113:\n      dup2\n      sload\n      dup2\n      mstore\n      swap1\n      0x01\n      add\n      swap1\n      0x20\n      add\n      dup1\n      dup4\n      gt\n      tag_113\n      jumpi\n      dup3\n      swap1\n      sub\n      0x1f\n      and\n      dup3\n      add\n      swap2\n    tag_111:\n      pop\n      pop\n      pop\n      pop\n      pop\n      swap1\n      dup1\n      0x01\n      add\n      0x00\n      swap1\n      sload\n      swap1\n      0x0100\n      exp\n      swap1\n      div\n      0xffffffffffffffffffffffffffffffffffffffff\n      and\n      swap1\n      dup1\n      0x02\n      add\n      sload\n      swap1\n      dup1\n      0x03\n      add\n      0x00\n      swap1\n      sload\n      swap1\n      0x0100\n      exp\n      swap1\n      div\n      0xff\n      and\n      swap1\n      dup1\n      0x04\n      add\n      sload\n      swap1\n      pop\n      dup6\n      jump\t// out\n        /* \"contracts/crowdrefund.sol\":708:734  uint256 public numRequests */\n    tag_72:\n      sload(0x09)\n      dup2\n      jump\t// out\n        /* \"contracts/crowdrefund.sol\":274:304  uint256 public minContribution */\n    tag_75:\n      sload(0x02)\n      dup2\n      jump\t// out\n        /* \"contracts/crowdrefund.sol\":395:422  uint256 public raisedAmount */\n    tag_78:\n      sload(0x06)\n      dup2\n      jump\t// out\n        /* \"contracts/crowdrefund.sol\":429:449  address public admin */\n    tag_82:\n      0x07\n      0x00\n      swap1\n      sload\n      swap1\n      0x0100\n      exp\n      swap1\n      div\n      0xffffffffffffffffffffffffffffffffffffffff\n      and\n      dup2\n      jump\t// out\n    tag_91:\n      dup3\n      dup1\n      sload\n      0x01\n      dup2\n      0x01\n      and\n      iszero\n      0x0100\n      mul\n      sub\n      and\n      0x02\n      swap1\n      div\n      swap1\n      0x00\n      mstore\n      keccak256(0x00, 0x20)\n      swap1\n      0x1f\n      add\n      0x20\n      swap1\n      div\n      dup2\n      add\n      swap3\n      dup3\n      tag_115\n      jumpi\n      0x00\n      dup6\n      sstore\n      jump(tag_114)\n    tag_115:\n      dup3\n      0x1f\n      lt\n      tag_116\n      jumpi\n      dup1\n      mload\n      not(0xff)\n      and\n      dup4\n      dup1\n      add\n      or\n      dup6\n      sstore\n      jump(tag_114)\n    tag_116:\n      dup3\n      dup1\n      add\n      0x01\n      add\n      dup6\n      sstore\n      dup3\n      iszero\n      tag_114\n      jumpi\n      swap2\n      dup3\n      add\n    tag_117:\n      dup3\n      dup2\n      gt\n      iszero\n      tag_118\n      jumpi\n      dup3\n      mload\n      dup3\n      sstore\n      swap2\n      0x20\n      add\n      swap2\n      swap1\n      0x01\n      add\n      swap1\n      jump(tag_117)\n    tag_118:\n    tag_114:\n      pop\n      swap1\n      pop\n      tag_119\n      swap2\n      swap1\n      tag_120\n      jump\t// in\n    tag_119:\n      pop\n      swap1\n      jump\t// out\n    tag_120:\n    tag_121:\n      dup1\n      dup3\n      gt\n      iszero\n      tag_122\n      jumpi\n      0x00\n      dup2\n      0x00\n      swap1\n      sstore\n      pop\n      0x01\n      add\n      jump(tag_121)\n    tag_122:\n      pop\n      swap1\n      jump\t// out\n\n    auxdata: 0xa2646970667358221220b727db3fdc76fba839cdf0c6f232b45b376be8badb5574c9260431ef5e5a77bd64736f6c63430007060033\n}\n",
				"bytecode": {
					"linkReferences": {},
					"object": "608060405234801561001057600080fd5b50604051610f4f380380610f4f8339818101604052604081101561003357600080fd5b8101908080519060200190929190805190602001909291905050508160058190555042600381905550806003540160048190555033600760006101000a81548173ffffffffffffffffffffffffffffffffffffffff021916908373ffffffffffffffffffffffffffffffffffffffff16021790555060646002819055505050610e8e806100c16000396000f3fe6080604052600436106100f75760003560e01c8063590e1ae31161008a578063aaffadf311610059578063aaffadf3146104cc578063c59ee1dc146104f7578063d7bb99ba14610522578063f851a4401461052c57610106565b8063590e1ae31461038457806378e979251461038e57806381d12c58146103b95780639fb42b1f146104a157610106565b806340193883116100c657806340193883146102b85780634cb6f4a5146102e35780634e260f6f1461031e5780635114cb521461034957610106565b806312065fe01461010b5780631b16bb5c146101365780631f6d4942146102285780633197cbb61461028d57610106565b366101065761010461056d565b005b600080fd5b34801561011757600080fd5b506101206106a5565b6040518082815260200191505060405180910390f35b34801561014257600080fd5b506102266004803603606081101561015957600080fd5b810190808035906020019064010000000081111561017657600080fd5b82018360208201111561018857600080fd5b803590602001918460018302840111640100000000831117156101aa57600080fd5b91908080601f016020809104026020016040519081016040528093929190818152602001838380828437600081840152601f19601f820116905080830192505050505050509192919290803573ffffffffffffffffffffffffffffffffffffffff169060200190929190803590602001909291905050506106ad565b005b34801561023457600080fd5b506102776004803603602081101561024b57600080fd5b81019080803573ffffffffffffffffffffffffffffffffffffffff16906020019092919050505061082c565b6040518082815260200191505060405180910390f35b34801561029957600080fd5b506102a2610844565b6040518082815260200191505060405180910390f35b3480156102c457600080fd5b506102cd61084a565b6040518082815260200191505060405180910390f35b3480156102ef57600080fd5b5061031c6004803603602081101561030657600080fd5b8101908080359060200190929190505050610850565b005b34801561032a57600080fd5b50610333610983565b6040518082815260200191505060405180910390f35b34801561035557600080fd5b506103826004803603602081101561036c57600080fd5b8101908080359060200190929190505050610989565b005b61038c610ac8565b005b34801561039a57600080fd5b506103a3610c74565b6040518082815260200191505060405180910390f35b3480156103c557600080fd5b506103f2600480360360208110156103dc57600080fd5b8101908080359060200190929190505050610c7a565b60405180806020018673ffffffffffffffffffffffffffffffffffffffff1681526020018581526020018415158152602001838152602001828103825287818151815260200191508051906020019080838360005b83811015610462578082015181840152602081019050610447565b50505050905090810190601f16801561048f5780820380516001836020036101000a031916815260200191505b50965050505050505060405180910390f35b3480156104ad57600080fd5b506104b6610d75565b6040518082815260200191505060405180910390f35b3480156104d857600080fd5b506104e1610d7b565b6040518082815260200191505060405180910390f35b34801561050357600080fd5b5061050c610d81565b6040518082815260200191505060405180910390f35b61052a61056d565b005b34801561053857600080fd5b50610541610d87565b604051808273ffffffffffffffffffffffffffffffffffffffff16815260200191505060405180910390f35b6003544210158015610580575060045442105b61058957600080fd5b60025434101561059857600080fd5b60008060003373ffffffffffffffffffffffffffffffffffffffff1673ffffffffffffffffffffffffffffffffffffffff1681526020019081526020016000205414156105f2576001600081548092919060010191905055505b34600660008282540192505081905550346000803373ffffffffffffffffffffffffffffffffffffffff1673ffffffffffffffffffffffffffffffffffffffff168152602001908152602001600020600082825401925050819055507f7e41554d2c4bf119ba03643260ffd3fc44d1bd799845194ccae707d2742c7a793334604051808373ffffffffffffffffffffffffffffffffffffffff1681526020018281526020019250505060405180910390a1565b600047905090565b60006008600060095481526020019081526020016000209050600960008154809291906001019190505550838160000190805190602001906106f0929190610dad565b50828160010160006101000a81548173ffffffffffffffffffffffffffffffffffffffff021916908373ffffffffffffffffffffffffffffffffffffffff16021790555081816002018190555060008160030160006101000a81548160ff021916908315150217905550600081600401819055507fb61911820b0f2d45a16a949c10c8464cdd8b39ce576e5615556813fe846d2aea84848460405180806020018473ffffffffffffffffffffffffffffffffffffffff168152602001838152602001828103825285818151815260200191508051906020019080838360005b838110156107ea5780820151818401526020810190506107cf565b50505050905090810190601f1680156108175780820380516001836020036101000a031916815260200191505b5094505050505060405180910390a150505050565b60006020528060005260406000206000915090505481565b60045481565b60055481565b60008060003373ffffffffffffffffffffffffffffffffffffffff1673ffffffffffffffffffffffffffffffffffffffff168152602001908152602001600020541161089b57600080fd5b6000600860008381526020019081526020016000209050600015158160050160003373ffffffffffffffffffffffffffffffffffffffff1673ffffffffffffffffffffffffffffffffffffffff16815260200190815260200160002060009054906101000a900460ff1615151461091157600080fd5b60018160050160003373ffffffffffffffffffffffffffffffffffffffff1673ffffffffffffffffffffffffffffffffffffffff16815260200190815260200160002060006101000a81548160ff02191690831515021790555080600401600081548092919060010191905055505050565b60015481565b3373ffffffffffffffffffffffffffffffffffffffff16600760009054906101000a900473ffffffffffffffffffffffffffffffffffffffff1673ffffffffffffffffffffffffffffffffffffffff16146109e357600080fd5b6000600860008381526020019081526020016000209050600015158160030160009054906101000a900460ff16151514610a1c57600080fd5b600260015481610a2857fe5b04816004015411610a3857600080fd5b8060010160009054906101000a900473ffffffffffffffffffffffffffffffffffffffff1673ffffffffffffffffffffffffffffffffffffffff166108fc82600201549081150290604051600060405180830381858888f19350505050158015610aa6573d6000803e3d6000fd5b5060018160030160006101000a81548160ff0219169083151502179055505050565b6005546006541115610ad957600080fd5b60008060003373ffffffffffffffffffffffffffffffffffffffff1673ffffffffffffffffffffffffffffffffffffffff1681526020019081526020016000205411610b8d576040517f08c379a00000000000000000000000000000000000000000000000000000000081526004018080602001828103825260098152602001807f686173206d6f6e6579000000000000000000000000000000000000000000000081525060200191505060405180910390fd5b60008060003373ffffffffffffffffffffffffffffffffffffffff1673ffffffffffffffffffffffffffffffffffffffff16815260200190815260200160002054905060008060003373ffffffffffffffffffffffffffffffffffffffff1673ffffffffffffffffffffffffffffffffffffffff168152602001908152602001600020819055508060066000828254039250508190555060003390508073ffffffffffffffffffffffffffffffffffffffff166108fc839081150290604051600060405180830381858888f19350505050158015610c6f573d6000803e3d6000fd5b505050565b60035481565b6008602052806000526040600020600091509050806000018054600181600116156101000203166002900480601f016020809104026020016040519081016040528092919081815260200182805460018160011615610100020316600290048015610d265780601f10610cfb57610100808354040283529160200191610d26565b820191906000526020600020905b815481529060010190602001808311610d0957829003601f168201915b5050505050908060010160009054906101000a900473ffffffffffffffffffffffffffffffffffffffff16908060020154908060030160009054906101000a900460ff16908060040154905085565b60095481565b60025481565b60065481565b600760009054906101000a900473ffffffffffffffffffffffffffffffffffffffff1681565b828054600181600116156101000203166002900490600052602060002090601f016020900481019282610de35760008555610e2a565b82601f10610dfc57805160ff1916838001178555610e2a565b82800160010185558215610e2a579182015b82811115610e29578251825591602001919060010190610e0e565b5b509050610e379190610e3b565b5090565b5b80821115610e54576000816000905550600101610e3c565b509056fea2646970667358221220b727db3fdc76fba839cdf0c6f232b45b376be8badb5574c9260431ef5e5a77bd64736f6c63430007060033",
					"opcodes": "PUSH1 0x80 PUSH1 0x40 MSTORE CALLVALUE DUP1 ISZERO PUSH2 0x10 JUMPI PUSH1 0x0 DUP1 REVERT JUMPDEST POP PUSH1 0x40 MLOAD PUSH2 0xF4F CODESIZE SUB DUP1 PUSH2 0xF4F DUP4 CODECOPY DUP2 DUP2 ADD PUSH1 0x40 MSTORE PUSH1 0x40 DUP2 LT ISZERO PUSH2 0x33 JUMPI PUSH1 0x0 DUP1 REVERT JUMPDEST DUP2 ADD SWAP1 DUP1 DUP1 MLOAD SWAP1 PUSH1 0x20 ADD SWAP1 SWAP3 SWAP2 SWAP1 DUP1 MLOAD SWAP1 PUSH1 0x20 ADD SWAP1 SWAP3 SWAP2 SWAP1 POP POP POP DUP2 PUSH1 0x5 DUP2 SWAP1 SSTORE POP TIMESTAMP PUSH1 0x3 DUP2 SWAP1 SSTORE POP DUP1 PUSH1 0x3 SLOAD ADD PUSH1 0x4 DUP2 SWAP1 SSTORE POP CALLER PUSH1 0x7 PUSH1 0x0 PUSH2 0x100 EXP DUP2 SLOAD DUP2 PUSH20 0xFFFFFFFFFFFFFFFFFFFFFFFFFFFFFFFFFFFFFFFF MUL NOT AND SWAP1 DUP4 PUSH20 0xFFFFFFFFFFFFFFFFFFFFFFFFFFFFFFFFFFFFFFFF AND MUL OR SWAP1 SSTORE POP PUSH1 0x64 PUSH1 0x2 DUP2 SWAP1 SSTORE POP POP POP PUSH2 0xE8E DUP1 PUSH2 0xC1 PUSH1 0x0 CODECOPY PUSH1 0x0 RETURN INVALID PUSH1 0x80 PUSH1 0x40 MSTORE PUSH1 0x4 CALLDATASIZE LT PUSH2 0xF7 JUMPI PUSH1 0x0 CALLDATALOAD PUSH1 0xE0 SHR DUP1 PUSH4 0x590E1AE3 GT PUSH2 0x8A JUMPI DUP1 PUSH4 0xAAFFADF3 GT PUSH2 0x59 JUMPI DUP1 PUSH4 0xAAFFADF3 EQ PUSH2 0x4CC JUMPI DUP1 PUSH4 0xC59EE1DC EQ PUSH2 0x4F7 JUMPI DUP1 PUSH4 0xD7BB99BA EQ PUSH2 0x522 JUMPI DUP1 PUSH4 0xF851A440 EQ PUSH2 0x52C JUMPI PUSH2 0x106 JUMP JUMPDEST DUP1 PUSH4 0x590E1AE3 EQ PUSH2 0x384 JUMPI DUP1 PUSH4 0x78E97925 EQ PUSH2 0x38E JUMPI DUP1 PUSH4 0x81D12C58 EQ PUSH2 0x3B9 JUMPI DUP1 PUSH4 0x9FB42B1F EQ PUSH2 0x4A1 JUMPI PUSH2 0x106 JUMP JUMPDEST DUP1 PUSH4 0x40193883 GT PUSH2 0xC6 JUMPI DUP1 PUSH4 0x40193883 EQ PUSH2 0x2B8 JUMPI DUP1 PUSH4 0x4CB6F4A5 EQ PUSH2 0x2E3 JUMPI DUP1 PUSH4 0x4E260F6F EQ PUSH2 0x31E JUMPI DUP1 PUSH4 0x5114CB52 EQ PUSH2 0x349 JUMPI PUSH2 0x106 JUMP JUMPDEST DUP1 PUSH4 0x12065FE0 EQ PUSH2 0x10B JUMPI DUP1 PUSH4 0x1B16BB5C EQ PUSH2 0x136 JUMPI DUP1 PUSH4 0x1F6D4942 EQ PUSH2 0x228 JUMPI DUP1 PUSH4 0x3197CBB6 EQ PUSH2 0x28D JUMPI PUSH2 0x106 JUMP JUMPDEST CALLDATASIZE PUSH2 0x106 JUMPI PUSH2 0x104 PUSH2 0x56D JUMP JUMPDEST STOP JUMPDEST PUSH1 0x0 DUP1 REVERT JUMPDEST CALLVALUE DUP1 ISZERO PUSH2 0x117 JUMPI PUSH1 0x0 DUP1 REVERT JUMPDEST POP PUSH2 0x120 PUSH2 0x6A5 JUMP JUMPDEST PUSH1 0x40 MLOAD DUP1 DUP3 DUP2 MSTORE PUSH1 0x20 ADD SWAP2 POP POP PUSH1 0x40 MLOAD DUP1 SWAP2 SUB SWAP1 RETURN JUMPDEST CALLVALUE DUP1 ISZERO PUSH2 0x142 JUMPI PUSH1 0x0 DUP1 REVERT JUMPDEST POP PUSH2 0x226 PUSH1 0x4 DUP1 CALLDATASIZE SUB PUSH1 0x60 DUP2 LT ISZERO PUSH2 0x159 JUMPI PUSH1 0x0 DUP1 REVERT JUMPDEST DUP2 ADD SWAP1 DUP1 DUP1 CALLDATALOAD SWAP1 PUSH1 0x20 ADD SWAP1 PUSH5 0x100000000 DUP2 GT ISZERO PUSH2 0x176 JUMPI PUSH1 0x0 DUP1 REVERT JUMPDEST DUP3 ADD DUP4 PUSH1 0x20 DUP3 ADD GT ISZERO PUSH2 0x188 JUMPI PUSH1 0x0 DUP1 REVERT JUMPDEST DUP1 CALLDATALOAD SWAP1 PUSH1 0x20 ADD SWAP2 DUP5 PUSH1 0x1 DUP4 MUL DUP5 ADD GT PUSH5 0x100000000 DUP4 GT OR ISZERO PUSH2 0x1AA JUMPI PUSH1 0x0 DUP1 REVERT JUMPDEST SWAP2 SWAP1 DUP1 DUP1 PUSH1 0x1F ADD PUSH1 0x20 DUP1 SWAP2 DIV MUL PUSH1 0x20 ADD PUSH1 0x40 MLOAD SWAP1 DUP2 ADD PUSH1 0x40 MSTORE DUP1 SWAP4 SWAP3 SWAP2 SWAP1 DUP2 DUP2 MSTORE PUSH1 0x20 ADD DUP4 DUP4 DUP1 DUP3 DUP5 CALLDATACOPY PUSH1 0x0 DUP2 DUP5 ADD MSTORE PUSH1 0x1F NOT PUSH1 0x1F DUP3 ADD AND SWAP1 POP DUP1 DUP4 ADD SWAP3 POP POP POP POP POP POP POP SWAP2 SWAP3 SWAP2 SWAP3 SWAP1 DUP1 CALLDATALOAD PUSH20 0xFFFFFFFFFFFFFFFFFFFFFFFFFFFFFFFFFFFFFFFF AND SWAP1 PUSH1 0x20 ADD SWAP1 SWAP3 SWAP2 SWAP1 DUP1 CALLDATALOAD SWAP1 PUSH1 0x20 ADD SWAP1 SWAP3 SWAP2 SWAP1 POP POP POP PUSH2 0x6AD JUMP JUMPDEST STOP JUMPDEST CALLVALUE DUP1 ISZERO PUSH2 0x234 JUMPI PUSH1 0x0 DUP1 REVERT JUMPDEST POP PUSH2 0x277 PUSH1 0x4 DUP1 CALLDATASIZE SUB PUSH1 0x20 DUP2 LT ISZERO PUSH2 0x24B JUMPI PUSH1 0x0 DUP1 REVERT JUMPDEST DUP2 ADD SWAP1 DUP1 DUP1 CALLDATALOAD PUSH20 0xFFFFFFFFFFFFFFFFFFFFFFFFFFFFFFFFFFFFFFFF AND SWAP1 PUSH1 0x20 ADD SWAP1 SWAP3 SWAP2 SWAP1 POP POP POP PUSH2 0x82C JUMP JUMPDEST PUSH1 0x40 MLOAD DUP1 DUP3 DUP2 MSTORE PUSH1 0x20 ADD SWAP2 POP POP PUSH1 0x40 MLOAD DUP1 SWAP2 SUB SWAP1 RETURN JUMPDEST CALLVALUE DUP1 ISZERO PUSH2 0x299 JUMPI PUSH1 0x0 DUP1 REVERT JUMPDEST POP PUSH2 0x2A2 PUSH2 0x844 JUMP JUMPDEST PUSH1 0x40 MLOAD DUP1 DUP3 DUP2 MSTORE PUSH1 0x20 ADD SWAP2 POP POP PUSH1 0x40 MLOAD DUP1 SWAP2 SUB SWAP1 RETURN JUMPDEST CALLVALUE DUP1 ISZERO PUSH2 0x2C4 JUMPI PUSH1 0x0 DUP1 REVERT JUMPDEST POP PUSH2 0x2CD PUSH2 0x84A JUMP JUMPDEST PUSH1 0x40 MLOAD DUP1 DUP3 DUP2 MSTORE PUSH1 0x20 ADD SWAP2 POP POP PUSH1 0x40 MLOAD DUP1 SWAP2 SUB SWAP1 RETURN JUMPDEST CALLVALUE DUP1 ISZERO PUSH2 0x2EF JUMPI PUSH1 0x0 DUP1 REVERT JUMPDEST POP PUSH2 0x31C PUSH1 0x4 DUP1 CALLDATASIZE SUB PUSH1 0x20 DUP2 LT ISZERO PUSH2 0x306 JUMPI PUSH1 0x0 DUP1 REVERT JUMPDEST DUP2 ADD SWAP1 DUP1 DUP1 CALLDATALOAD SWAP1 PUSH1 0x20 ADD SWAP1 SWAP3 SWAP2 SWAP1 POP POP POP PUSH2 0x850 JUMP JUMPDEST STOP JUMPDEST CALLVALUE DUP1 ISZERO PUSH2 0x32A JUMPI PUSH1 0x0 DUP1 REVERT JUMPDEST POP PUSH2 0x333 PUSH2 0x983 JUMP JUMPDEST PUSH1 0x40 MLOAD DUP1 DUP3 DUP2 MSTORE PUSH1 0x20 ADD SWAP2 POP POP PUSH1 0x40 MLOAD DUP1 SWAP2 SUB SWAP1 RETURN JUMPDEST CALLVALUE DUP1 ISZERO PUSH2 0x355 JUMPI PUSH1 0x0 DUP1 REVERT JUMPDEST POP PUSH2 0x382 PUSH1 0x4 DUP1 CALLDATASIZE SUB PUSH1 0x20 DUP2 LT ISZERO PUSH2 0x36C JUMPI PUSH1 0x0 DUP1 REVERT JUMPDEST DUP2 ADD SWAP1 DUP1 DUP1 CALLDATALOAD SWAP1 PUSH1 0x20 ADD SWAP1 SWAP3 SWAP2 SWAP1 POP POP POP PUSH2 0x989 JUMP JUMPDEST STOP JUMPDEST PUSH2 0x38C PUSH2 0xAC8 JUMP JUMPDEST STOP JUMPDEST CALLVALUE DUP1 ISZERO PUSH2 0x39A JUMPI PUSH1 0x0 DUP1 REVERT JUMPDEST POP PUSH2 0x3A3 PUSH2 0xC74 JUMP JUMPDEST PUSH1 0x40 MLOAD DUP1 DUP3 DUP2 MSTORE PUSH1 0x20 ADD SWAP2 POP POP PUSH1 0x40 MLOAD DUP1 SWAP2 SUB SWAP1 RETURN JUMPDEST CALLVALUE DUP1 ISZERO PUSH2 0x3C5 JUMPI PUSH1 0x0 DUP1 REVERT JUMPDEST POP PUSH2 0x3F2 PUSH1 0x4 DUP1 CALLDATASIZE SUB PUSH1 0x20 DUP2 LT ISZERO PUSH2 0x3DC JUMPI PUSH1 0x0 DUP1 REVERT JUMPDEST DUP2 ADD SWAP1 DUP1 DUP1 CALLDATALOAD SWAP1 PUSH1 0x20 ADD SWAP1 SWAP3 SWAP2 SWAP1 POP POP POP PUSH2 0xC7A JUMP JUMPDEST PUSH1 0x40 MLOAD DUP1 DUP1 PUSH1 0x20 ADD DUP7 PUSH20 0xFFFFFFFFFFFFFFFFFFFFFFFFFFFFFFFFFFFFFFFF AND DUP2 MSTORE PUSH1 0x20 ADD DUP6 DUP2 MSTORE PUSH1 0x20 ADD DUP5 ISZERO ISZERO DUP2 MSTORE PUSH1 0x20 ADD DUP4 DUP2 MSTORE PUSH1 0x20 ADD DUP3 DUP2 SUB DUP3 MSTORE DUP8 DUP2 DUP2 MLOAD DUP2 MSTORE PUSH1 0x20 ADD SWAP2 POP DUP1 MLOAD SWAP1 PUSH1 0x20 ADD SWAP1 DUP1 DUP4 DUP4 PUSH1 0x0 JUMPDEST DUP4 DUP2 LT ISZERO PUSH2 0x462 JUMPI DUP1 DUP3 ADD MLOAD DUP2 DUP5 ADD MSTORE PUSH1 0x20 DUP2 ADD SWAP1 POP PUSH2 0x447 JUMP JUMPDEST POP POP POP POP SWAP1 POP SWAP1 DUP2 ADD SWAP1 PUSH1 0x1F AND DUP1 ISZERO PUSH2 0x48F JUMPI DUP1 DUP3 SUB DUP1 MLOAD PUSH1 0x1 DUP4 PUSH1 0x20 SUB PUSH2 0x100 EXP SUB NOT AND DUP2 MSTORE PUSH1 0x20 ADD SWAP2 POP JUMPDEST POP SWAP7 POP POP POP POP POP POP POP PUSH1 0x40 MLOAD DUP1 SWAP2 SUB SWAP1 RETURN JUMPDEST CALLVALUE DUP1 ISZERO PUSH2 0x4AD JUMPI PUSH1 0x0 DUP1 REVERT JUMPDEST POP PUSH2 0x4B6 PUSH2 0xD75 JUMP JUMPDEST PUSH1 0x40 MLOAD DUP1 DUP3 DUP2 MSTORE PUSH1 0x20 ADD SWAP2 POP POP PUSH1 0x40 MLOAD DUP1 SWAP2 SUB SWAP1 RETURN JUMPDEST CALLVALUE DUP1 ISZERO PUSH2 0x4D8 JUMPI PUSH1 0x0 DUP1 REVERT JUMPDEST POP PUSH2 0x4E1 PUSH2 0xD7B JUMP JUMPDEST PUSH1 0x40 MLOAD DUP1 DUP3 DUP2 MSTORE PUSH1 0x20 ADD SWAP2 POP POP PUSH1 0x40 MLOAD DUP1 SWAP2 SUB SWAP1 RETURN JUMPDEST CALLVALUE DUP1 ISZERO PUSH2 0x503 JUMPI PUSH1 0x0 DUP1 REVERT JUMPDEST POP PUSH2 0x50C PUSH2 0xD81 JUMP JUMPDEST PUSH1 0x40 MLOAD DUP1 DUP3 DUP2 MSTORE PUSH1 0x20 ADD SWAP2 POP POP PUSH1 0x40 MLOAD DUP1 SWAP2 SUB SWAP1 RETURN JUMPDEST PUSH2 0x52A PUSH2 0x56D JUMP JUMPDEST STOP JUMPDEST CALLVALUE DUP1 ISZERO PUSH2 0x538 JUMPI PUSH1 0x0 DUP1 REVERT JUMPDEST POP PUSH2 0x541 PUSH2 0xD87 JUMP JUMPDEST PUSH1 0x40 MLOAD DUP1 DUP3 PUSH20 0xFFFFFFFFFFFFFFFFFFFFFFFFFFFFFFFFFFFFFFFF AND DUP2 MSTORE PUSH1 0x20 ADD SWAP2 POP POP PUSH1 0x40 MLOAD DUP1 SWAP2 SUB SWAP1 RETURN JUMPDEST PUSH1 0x3 SLOAD TIMESTAMP LT ISZERO DUP1 ISZERO PUSH2 0x580 JUMPI POP PUSH1 0x4 SLOAD TIMESTAMP LT JUMPDEST PUSH2 0x589 JUMPI PUSH1 0x0 DUP1 REVERT JUMPDEST PUSH1 0x2 SLOAD CALLVALUE LT ISZERO PUSH2 0x598 JUMPI PUSH1 0x0 DUP1 REVERT JUMPDEST PUSH1 0x0 DUP1 PUSH1 0x0 CALLER PUSH20 0xFFFFFFFFFFFFFFFFFFFFFFFFFFFFFFFFFFFFFFFF AND PUSH20 0xFFFFFFFFFFFFFFFFFFFFFFFFFFFFFFFFFFFFFFFF AND DUP2 MSTORE PUSH1 0x20 ADD SWAP1 DUP2 MSTORE PUSH1 0x20 ADD PUSH1 0x0 KECCAK256 SLOAD EQ ISZERO PUSH2 0x5F2 JUMPI PUSH1 0x1 PUSH1 0x0 DUP2 SLOAD DUP1 SWAP3 SWAP2 SWAP1 PUSH1 0x1 ADD SWAP2 SWAP1 POP SSTORE POP JUMPDEST CALLVALUE PUSH1 0x6 PUSH1 0x0 DUP3 DUP3 SLOAD ADD SWAP3 POP POP DUP2 SWAP1 SSTORE POP CALLVALUE PUSH1 0x0 DUP1 CALLER PUSH20 0xFFFFFFFFFFFFFFFFFFFFFFFFFFFFFFFFFFFFFFFF AND PUSH20 0xFFFFFFFFFFFFFFFFFFFFFFFFFFFFFFFFFFFFFFFF AND DUP2 MSTORE PUSH1 0x20 ADD SWAP1 DUP2 MSTORE PUSH1 0x20 ADD PUSH1 0x0 KECCAK256 PUSH1 0x0 DUP3 DUP3 SLOAD ADD SWAP3 POP POP DUP2 SWAP1 SSTORE POP PUSH32 0x7E41554D2C4BF119BA03643260FFD3FC44D1BD799845194CCAE707D2742C7A79 CALLER CALLVALUE PUSH1 0x40 MLOAD DUP1 DUP4 PUSH20 0xFFFFFFFFFFFFFFFFFFFFFFFFFFFFFFFFFFFFFFFF AND DUP2 MSTORE PUSH1 0x20 ADD DUP3 DUP2 MSTORE PUSH1 0x20 ADD SWAP3 POP POP POP PUSH1 0x40 MLOAD DUP1 SWAP2 SUB SWAP1 LOG1 JUMP JUMPDEST PUSH1 0x0 SELFBALANCE SWAP1 POP SWAP1 JUMP JUMPDEST PUSH1 0x0 PUSH1 0x8 PUSH1 0x0 PUSH1 0x9 SLOAD DUP2 MSTORE PUSH1 0x20 ADD SWAP1 DUP2 MSTORE PUSH1 0x20 ADD PUSH1 0x0 KECCAK256 SWAP1 POP PUSH1 0x9 PUSH1 0x0 DUP2 SLOAD DUP1 SWAP3 SWAP2 SWAP1 PUSH1 0x1 ADD SWAP2 SWAP1 POP SSTORE POP DUP4 DUP2 PUSH1 0x0 ADD SWAP1 DUP1 MLOAD SWAP1 PUSH1 0x20 ADD SWAP1 PUSH2 0x6F0 SWAP3 SWAP2 SWAP1 PUSH2 0xDAD JUMP JUMPDEST POP DUP3 DUP2 PUSH1 0x1 ADD PUSH1 0x0 PUSH2 0x100 EXP DUP2 SLOAD DUP2 PUSH20 0xFFFFFFFFFFFFFFFFFFFFFFFFFFFFFFFFFFFFFFFF MUL NOT AND SWAP1 DUP4 PUSH20 0xFFFFFFFFFFFFFFFFFFFFFFFFFFFFFFFFFFFFFFFF AND MUL OR SWAP1 SSTORE POP DUP2 DUP2 PUSH1 0x2 ADD DUP2 SWAP1 SSTORE POP PUSH1 0x0 DUP2 PUSH1 0x3 ADD PUSH1 0x0 PUSH2 0x100 EXP DUP2 SLOAD DUP2 PUSH1 0xFF MUL NOT AND SWAP1 DUP4 ISZERO ISZERO MUL OR SWAP1 SSTORE POP PUSH1 0x0 DUP2 PUSH1 0x4 ADD DUP2 SWAP1 SSTORE POP PUSH32 0xB61911820B0F2D45A16A949C10C8464CDD8B39CE576E5615556813FE846D2AEA DUP5 DUP5 DUP5 PUSH1 0x40 MLOAD DUP1 DUP1 PUSH1 0x20 ADD DUP5 PUSH20 0xFFFFFFFFFFFFFFFFFFFFFFFFFFFFFFFFFFFFFFFF AND DUP2 MSTORE PUSH1 0x20 ADD DUP4 DUP2 MSTORE PUSH1 0x20 ADD DUP3 DUP2 SUB DUP3 MSTORE DUP6 DUP2 DUP2 MLOAD DUP2 MSTORE PUSH1 0x20 ADD SWAP2 POP DUP1 MLOAD SWAP1 PUSH1 0x20 ADD SWAP1 DUP1 DUP4 DUP4 PUSH1 0x0 JUMPDEST DUP4 DUP2 LT ISZERO PUSH2 0x7EA JUMPI DUP1 DUP3 ADD MLOAD DUP2 DUP5 ADD MSTORE PUSH1 0x20 DUP2 ADD SWAP1 POP PUSH2 0x7CF JUMP JUMPDEST POP POP POP POP SWAP1 POP SWAP1 DUP2 ADD SWAP1 PUSH1 0x1F AND DUP1 ISZERO PUSH2 0x817 JUMPI DUP1 DUP3 SUB DUP1 MLOAD PUSH1 0x1 DUP4 PUSH1 0x20 SUB PUSH2 0x100 EXP SUB NOT AND DUP2 MSTORE PUSH1 0x20 ADD SWAP2 POP JUMPDEST POP SWAP5 POP POP POP POP POP PUSH1 0x40 MLOAD DUP1 SWAP2 SUB SWAP1 LOG1 POP POP POP POP JUMP JUMPDEST PUSH1 0x0 PUSH1 0x20 MSTORE DUP1 PUSH1 0x0 MSTORE PUSH1 0x40 PUSH1 0x0 KECCAK256 PUSH1 0x0 SWAP2 POP SWAP1 POP SLOAD DUP2 JUMP JUMPDEST PUSH1 0x4 SLOAD DUP2 JUMP JUMPDEST PUSH1 0x5 SLOAD DUP2 JUMP JUMPDEST PUSH1 0x0 DUP1 PUSH1 0x0 CALLER PUSH20 0xFFFFFFFFFFFFFFFFFFFFFFFFFFFFFFFFFFFFFFFF AND PUSH20 0xFFFFFFFFFFFFFFFFFFFFFFFFFFFFFFFFFFFFFFFF AND DUP2 MSTORE PUSH1 0x20 ADD SWAP1 DUP2 MSTORE PUSH1 0x20 ADD PUSH1 0x0 KECCAK256 SLOAD GT PUSH2 0x89B JUMPI PUSH1 0x0 DUP1 REVERT JUMPDEST PUSH1 0x0 PUSH1 0x8 PUSH1 0x0 DUP4 DUP2 MSTORE PUSH1 0x20 ADD SWAP1 DUP2 MSTORE PUSH1 0x20 ADD PUSH1 0x0 KECCAK256 SWAP1 POP PUSH1 0x0 ISZERO ISZERO DUP2 PUSH1 0x5 ADD PUSH1 0x0 CALLER PUSH20 0xFFFFFFFFFFFFFFFFFFFFFFFFFFFFFFFFFFFFFFFF AND PUSH20 0xFFFFFFFFFFFFFFFFFFFFFFFFFFFFFFFFFFFFFFFF AND DUP2 MSTORE PUSH1 0x20 ADD SWAP1 DUP2 MSTORE PUSH1 0x20 ADD PUSH1 0x0 KECCAK256 PUSH1 0x0 SWAP1 SLOAD SWAP1 PUSH2 0x100 EXP SWAP1 DIV PUSH1 0xFF AND ISZERO ISZERO EQ PUSH2 0x911 JUMPI PUSH1 0x0 DUP1 REVERT JUMPDEST PUSH1 0x1 DUP2 PUSH1 0x5 ADD PUSH1 0x0 CALLER PUSH20 0xFFFFFFFFFFFFFFFFFFFFFFFFFFFFFFFFFFFFFFFF AND PUSH20 0xFFFFFFFFFFFFFFFFFFFFFFFFFFFFFFFFFFFFFFFF AND DUP2 MSTORE PUSH1 0x20 ADD SWAP1 DUP2 MSTORE PUSH1 0x20 ADD PUSH1 0x0 KECCAK256 PUSH1 0x0 PUSH2 0x100 EXP DUP2 SLOAD DUP2 PUSH1 0xFF MUL NOT AND SWAP1 DUP4 ISZERO ISZERO MUL OR SWAP1 SSTORE POP DUP1 PUSH1 0x4 ADD PUSH1 0x0 DUP2 SLOAD DUP1 SWAP3 SWAP2 SWAP1 PUSH1 0x1 ADD SWAP2 SWAP1 POP SSTORE POP POP POP JUMP JUMPDEST PUSH1 0x1 SLOAD DUP2 JUMP JUMPDEST CALLER PUSH20 0xFFFFFFFFFFFFFFFFFFFFFFFFFFFFFFFFFFFFFFFF AND PUSH1 0x7 PUSH1 0x0 SWAP1 SLOAD SWAP1 PUSH2 0x100 EXP SWAP1 DIV PUSH20 0xFFFFFFFFFFFFFFFFFFFFFFFFFFFFFFFFFFFFFFFF AND PUSH20 0xFFFFFFFFFFFFFFFFFFFFFFFFFFFFFFFFFFFFFFFF AND EQ PUSH2 0x9E3 JUMPI PUSH1 0x0 DUP1 REVERT JUMPDEST PUSH1 0x0 PUSH1 0x8 PUSH1 0x0 DUP4 DUP2 MSTORE PUSH1 0x20 ADD SWAP1 DUP2 MSTORE PUSH1 0x20 ADD PUSH1 0x0 KECCAK256 SWAP1 POP PUSH1 0x0 ISZERO ISZERO DUP2 PUSH1 0x3 ADD PUSH1 0x0 SWAP1 SLOAD SWAP1 PUSH2 0x100 EXP SWAP1 DIV PUSH1 0xFF AND ISZERO ISZERO EQ PUSH2 0xA1C JUMPI PUSH1 0x0 DUP1 REVERT JUMPDEST PUSH1 0x2 PUSH1 0x1 SLOAD DUP2 PUSH2 0xA28 JUMPI INVALID JUMPDEST DIV DUP2 PUSH1 0x4 ADD SLOAD GT PUSH2 0xA38 JUMPI PUSH1 0x0 DUP1 REVERT JUMPDEST DUP1 PUSH1 0x1 ADD PUSH1 0x0 SWAP1 SLOAD SWAP1 PUSH2 0x100 EXP SWAP1 DIV PUSH20 0xFFFFFFFFFFFFFFFFFFFFFFFFFFFFFFFFFFFFFFFF AND PUSH20 0xFFFFFFFFFFFFFFFFFFFFFFFFFFFFFFFFFFFFFFFF AND PUSH2 0x8FC DUP3 PUSH1 0x2 ADD SLOAD SWAP1 DUP2 ISZERO MUL SWAP1 PUSH1 0x40 MLOAD PUSH1 0x0 PUSH1 0x40 MLOAD DUP1 DUP4 SUB DUP2 DUP6 DUP9 DUP9 CALL SWAP4 POP POP POP POP ISZERO DUP1 ISZERO PUSH2 0xAA6 JUMPI RETURNDATASIZE PUSH1 0x0 DUP1 RETURNDATACOPY RETURNDATASIZE PUSH1 0x0 REVERT JUMPDEST POP PUSH1 0x1 DUP2 PUSH1 0x3 ADD PUSH1 0x0 PUSH2 0x100 EXP DUP2 SLOAD DUP2 PUSH1 0xFF MUL NOT AND SWAP1 DUP4 ISZERO ISZERO MUL OR SWAP1 SSTORE POP POP POP JUMP JUMPDEST PUSH1 0x5 SLOAD PUSH1 0x6 SLOAD GT ISZERO PUSH2 0xAD9 JUMPI PUSH1 0x0 DUP1 REVERT JUMPDEST PUSH1 0x0 DUP1 PUSH1 0x0 CALLER PUSH20 0xFFFFFFFFFFFFFFFFFFFFFFFFFFFFFFFFFFFFFFFF AND PUSH20 0xFFFFFFFFFFFFFFFFFFFFFFFFFFFFFFFFFFFFFFFF AND DUP2 MSTORE PUSH1 0x20 ADD SWAP1 DUP2 MSTORE PUSH1 0x20 ADD PUSH1 0x0 KECCAK256 SLOAD GT PUSH2 0xB8D JUMPI PUSH1 0x40 MLOAD PUSH32 0x8C379A000000000000000000000000000000000000000000000000000000000 DUP2 MSTORE PUSH1 0x4 ADD DUP1 DUP1 PUSH1 0x20 ADD DUP3 DUP2 SUB DUP3 MSTORE PUSH1 0x9 DUP2 MSTORE PUSH1 0x20 ADD DUP1 PUSH32 0x686173206D6F6E65790000000000000000000000000000000000000000000000 DUP2 MSTORE POP PUSH1 0x20 ADD SWAP2 POP POP PUSH1 0x40 MLOAD DUP1 SWAP2 SUB SWAP1 REVERT JUMPDEST PUSH1 0x0 DUP1 PUSH1 0x0 CALLER PUSH20 0xFFFFFFFFFFFFFFFFFFFFFFFFFFFFFFFFFFFFFFFF AND PUSH20 0xFFFFFFFFFFFFFFFFFFFFFFFFFFFFFFFFFFFFFFFF AND DUP2 MSTORE PUSH1 0x20 ADD SWAP1 DUP2 MSTORE PUSH1 0x20 ADD PUSH1 0x0 KECCAK256 SLOAD SWAP1 POP PUSH1 0x0 DUP1 PUSH1 0x0 CALLER PUSH20 0xFFFFFFFFFFFFFFFFFFFFFFFFFFFFFFFFFFFFFFFF AND PUSH20 0xFFFFFFFFFFFFFFFFFFFFFFFFFFFFFFFFFFFFFFFF AND DUP2 MSTORE PUSH1 0x20 ADD SWAP1 DUP2 MSTORE PUSH1 0x20 ADD PUSH1 0x0 KECCAK256 DUP2 SWAP1 SSTORE POP DUP1 PUSH1 0x6 PUSH1 0x0 DUP3 DUP3 SLOAD SUB SWAP3 POP POP DUP2 SWAP1 SSTORE POP PUSH1 0x0 CALLER SWAP1 POP DUP1 PUSH20 0xFFFFFFFFFFFFFFFFFFFFFFFFFFFFFFFFFFFFFFFF AND PUSH2 0x8FC DUP4 SWAP1 DUP2 ISZERO MUL SWAP1 PUSH1 0x40 MLOAD PUSH1 0x0 PUSH1 0x40 MLOAD DUP1 DUP4 SUB DUP2 DUP6 DUP9 DUP9 CALL SWAP4 POP POP POP POP ISZERO DUP1 ISZERO PUSH2 0xC6F JUMPI RETURNDATASIZE PUSH1 0x0 DUP1 RETURNDATACOPY RETURNDATASIZE PUSH1 0x0 REVERT JUMPDEST POP POP POP JUMP JUMPDEST PUSH1 0x3 SLOAD DUP2 JUMP JUMPDEST PUSH1 0x8 PUSH1 0x20 MSTORE DUP1 PUSH1 0x0 MSTORE PUSH1 0x40 PUSH1 0x0 KECCAK256 PUSH1 0x0 SWAP2 POP SWAP1 POP DUP1 PUSH1 0x0 ADD DUP1 SLOAD PUSH1 0x1 DUP2 PUSH1 0x1 AND ISZERO PUSH2 0x100 MUL SUB AND PUSH1 0x2 SWAP1 DIV DUP1 PUSH1 0x1F ADD PUSH1 0x20 DUP1 SWAP2 DIV MUL PUSH1 0x20 ADD PUSH1 0x40 MLOAD SWAP1 DUP2 ADD PUSH1 0x40 MSTORE DUP1 SWAP3 SWAP2 SWAP1 DUP2 DUP2 MSTORE PUSH1 0x20 ADD DUP3 DUP1 SLOAD PUSH1 0x1 DUP2 PUSH1 0x1 AND ISZERO PUSH2 0x100 MUL SUB AND PUSH1 0x2 SWAP1 DIV DUP1 ISZERO PUSH2 0xD26 JUMPI DUP1 PUSH1 0x1F LT PUSH2 0xCFB JUMPI PUSH2 0x100 DUP1 DUP4 SLOAD DIV MUL DUP4 MSTORE SWAP2 PUSH1 0x20 ADD SWAP2 PUSH2 0xD26 JUMP JUMPDEST DUP3 ADD SWAP2 SWAP1 PUSH1 0x0 MSTORE PUSH1 0x20 PUSH1 0x0 KECCAK256 SWAP1 JUMPDEST DUP2 SLOAD DUP2 MSTORE SWAP1 PUSH1 0x1 ADD SWAP1 PUSH1 0x20 ADD DUP1 DUP4 GT PUSH2 0xD09 JUMPI DUP3 SWAP1 SUB PUSH1 0x1F AND DUP3 ADD SWAP2 JUMPDEST POP POP POP POP POP SWAP1 DUP1 PUSH1 0x1 ADD PUSH1 0x0 SWAP1 SLOAD SWAP1 PUSH2 0x100 EXP SWAP1 DIV PUSH20 0xFFFFFFFFFFFFFFFFFFFFFFFFFFFFFFFFFFFFFFFF AND SWAP1 DUP1 PUSH1 0x2 ADD SLOAD SWAP1 DUP1 PUSH1 0x3 ADD PUSH1 0x0 SWAP1 SLOAD SWAP1 PUSH2 0x100 EXP SWAP1 DIV PUSH1 0xFF AND SWAP1 DUP1 PUSH1 0x4 ADD SLOAD SWAP1 POP DUP6 JUMP JUMPDEST PUSH1 0x9 SLOAD DUP2 JUMP JUMPDEST PUSH1 0x2 SLOAD DUP2 JUMP JUMPDEST PUSH1 0x6 SLOAD DUP2 JUMP JUMPDEST PUSH1 0x7 PUSH1 0x0 SWAP1 SLOAD SWAP1 PUSH2 0x100 EXP SWAP1 DIV PUSH20 0xFFFFFFFFFFFFFFFFFFFFFFFFFFFFFFFFFFFFFFFF AND DUP2 JUMP JUMPDEST DUP3 DUP1 SLOAD PUSH1 0x1 DUP2 PUSH1 0x1 AND ISZERO PUSH2 0x100 MUL SUB AND PUSH1 0x2 SWAP1 DIV SWAP1 PUSH1 0x0 MSTORE PUSH1 0x20 PUSH1 0x0 KECCAK256 SWAP1 PUSH1 0x1F ADD PUSH1 0x20 SWAP1 DIV DUP2 ADD SWAP3 DUP3 PUSH2 0xDE3 JUMPI PUSH1 0x0 DUP6 SSTORE PUSH2 0xE2A JUMP JUMPDEST DUP3 PUSH1 0x1F LT PUSH2 0xDFC JUMPI DUP1 MLOAD PUSH1 0xFF NOT AND DUP4 DUP1 ADD OR DUP6 SSTORE PUSH2 0xE2A JUMP JUMPDEST DUP3 DUP1 ADD PUSH1 0x1 ADD DUP6 SSTORE DUP3 ISZERO PUSH2 0xE2A JUMPI SWAP2 DUP3 ADD JUMPDEST DUP3 DUP2 GT ISZERO PUSH2 0xE29 JUMPI DUP3 MLOAD DUP3 SSTORE SWAP2 PUSH1 0x20 ADD SWAP2 SWAP1 PUSH1 0x1 ADD SWAP1 PUSH2 0xE0E JUMP JUMPDEST JUMPDEST POP SWAP1 POP PUSH2 0xE37 SWAP2 SWAP1 PUSH2 0xE3B JUMP JUMPDEST POP SWAP1 JUMP JUMPDEST JUMPDEST DUP1 DUP3 GT ISZERO PUSH2 0xE54 JUMPI PUSH1 0x0 DUP2 PUSH1 0x0 SWAP1 SSTORE POP PUSH1 0x1 ADD PUSH2 0xE3C JUMP JUMPDEST POP SWAP1 JUMP INVALID LOG2 PUSH5 0x6970667358 0x22 SLT KECCAK256 0xB7 0x27 0xDB EXTCODEHASH 0xDC PUSH23 0xFBA839CDF0C6F232B45B376BE8BADB5574C9260431EF5E GAS PUSH24 0xBD64736F6C63430007060033000000000000000000000000 "
				},
				"gasEstimates": {
					"creation": {
						"codeDepositCost": "745200",
						"executionCost": "infinite",
						"totalCost": "infinite"
					},
					"external": {
						"admin()": "1135",
						"contribute()": "67521",
						"contributors(address)": "1237",
						"createRequest(string,address,uint256)": "infinite",
						"endTime()": "1095",
						"getBalance()": "239",
						"goal()": "1028",
						"makePayment(uint256)": "infinite",
						"minContribution()": "1027",
						"noOfContributors()": "1072",
						"numRequests()": "1094",
						"raisedAmount()": "1049",
						"refund()": "infinite",
						"requests(uint256)": "infinite",
						"startTime()": "1050",
						"voteRequest(uint256)": "44047"
					}
				},
				"methodIdentifiers": {
					"admin()": "f851a440",
					"contribute()": "d7bb99ba",
					"contributors(address)": "1f6d4942",
					"createRequest(string,address,uint256)": "1b16bb5c",
					"endTime()": "3197cbb6",
					"getBalance()": "12065fe0",
					"goal()": "40193883",
					"makePayment(uint256)": "5114cb52",
					"minContribution()": "aaffadf3",
					"noOfContributors()": "4e260f6f",
					"numRequests()": "9fb42b1f",
					"raisedAmount()": "c59ee1dc",
					"refund()": "590e1ae3",
					"requests(uint256)": "81d12c58",
					"startTime()": "78e97925",
					"voteRequest(uint256)": "4cb6f4a5"
				}
			},
			"storageLayout": {
				"storage": [
					{
						"astId": 6,
						"contract": "contracts/crowdrefund.sol:CrowdRefund",
						"label": "contributors",
						"offset": 0,
						"slot": "0",
						"type": "t_mapping(t_address,t_uint256)"
					},
					{
						"astId": 8,
						"contract": "contracts/crowdrefund.sol:CrowdRefund",
						"label": "noOfContributors",
						"offset": 0,
						"slot": "1",
						"type": "t_uint256"
					},
					{
						"astId": 10,
						"contract": "contracts/crowdrefund.sol:CrowdRefund",
						"label": "minContribution",
						"offset": 0,
						"slot": "2",
						"type": "t_uint256"
					},
					{
						"astId": 12,
						"contract": "contracts/crowdrefund.sol:CrowdRefund",
						"label": "startTime",
						"offset": 0,
						"slot": "3",
						"type": "t_uint256"
					},
					{
						"astId": 14,
						"contract": "contracts/crowdrefund.sol:CrowdRefund",
						"label": "endTime",
						"offset": 0,
						"slot": "4",
						"type": "t_uint256"
					},
					{
						"astId": 16,
						"contract": "contracts/crowdrefund.sol:CrowdRefund",
						"label": "goal",
						"offset": 0,
						"slot": "5",
						"type": "t_uint256"
					},
					{
						"astId": 18,
						"contract": "contracts/crowdrefund.sol:CrowdRefund",
						"label": "raisedAmount",
						"offset": 0,
						"slot": "6",
						"type": "t_uint256"
					},
					{
						"astId": 20,
						"contract": "contracts/crowdrefund.sol:CrowdRefund",
						"label": "admin",
						"offset": 0,
						"slot": "7",
						"type": "t_address"
					},
					{
						"astId": 39,
						"contract": "contracts/crowdrefund.sol:CrowdRefund",
						"label": "requests",
						"offset": 0,
						"slot": "8",
						"type": "t_mapping(t_uint256,t_struct(Request)35_storage)"
					},
					{
						"astId": 41,
						"contract": "contracts/crowdrefund.sol:CrowdRefund",
						"label": "numRequests",
						"offset": 0,
						"slot": "9",
						"type": "t_uint256"
					}
				],
				"types": {
					"t_address": {
						"encoding": "inplace",
						"label": "address",
						"numberOfBytes": "20"
					},
					"t_address_payable": {
						"encoding": "inplace",
						"label": "address payable",
						"numberOfBytes": "20"
					},
					"t_bool": {
						"encoding": "inplace",
						"label": "bool",
						"numberOfBytes": "1"
					},
					"t_mapping(t_address,t_bool)": {
						"encoding": "mapping",
						"key": "t_address",
						"label": "mapping(address => bool)",
						"numberOfBytes": "32",
						"value": "t_bool"
					},
					"t_mapping(t_address,t_uint256)": {
						"encoding": "mapping",
						"key": "t_address",
						"label": "mapping(address => uint256)",
						"numberOfBytes": "32",
						"value": "t_uint256"
					},
					"t_mapping(t_uint256,t_struct(Request)35_storage)": {
						"encoding": "mapping",
						"key": "t_uint256",
						"label": "mapping(uint256 => struct CrowdRefund.Request)",
						"numberOfBytes": "32",
						"value": "t_struct(Request)35_storage"
					},
					"t_string_storage": {
						"encoding": "bytes",
						"label": "string",
						"numberOfBytes": "32"
					},
					"t_struct(Request)35_storage": {
						"encoding": "inplace",
						"label": "struct CrowdRefund.Request",
						"members": [
							{
								"astId": 22,
								"contract": "contracts/crowdrefund.sol:CrowdRefund",
								"label": "description",
								"offset": 0,
								"slot": "0",
								"type": "t_string_storage"
							},
							{
								"astId": 24,
								"contract": "contracts/crowdrefund.sol:CrowdRefund",
								"label": "recipient",
								"offset": 0,
								"slot": "1",
								"type": "t_address_payable"
							},
							{
								"astId": 26,
								"contract": "contracts/crowdrefund.sol:CrowdRefund",
								"label": "value",
								"offset": 0,
								"slot": "2",
								"type": "t_uint256"
							},
							{
								"astId": 28,
								"contract": "contracts/crowdrefund.sol:CrowdRefund",
								"label": "completed",
								"offset": 0,
								"slot": "3",
								"type": "t_bool"
							},
							{
								"astId": 30,
								"contract": "contracts/crowdrefund.sol:CrowdRefund",
								"label": "noOfVotes",
								"offset": 0,
								"slot": "4",
								"type": "t_uint256"
							},
							{
								"astId": 34,
								"contract": "contracts/crowdrefund.sol:CrowdRefund",
								"label": "voters",
								"offset": 0,
								"slot": "5",
								"type": "t_mapping(t_address,t_bool)"
							}
						],
						"numberOfBytes": "192"
					},
					"t_uint256": {
						"encoding": "inplace",
						"label": "uint256",
						"numberOfBytes": "32"
					}
				}
			},
			"userdoc": {
				"kind": "user",
				"methods": {},
				"notice": "多人筹款 对款项花销投票，票数过半，管理员可以执行下单",
				"version": 1
			}
		}
	}
}