{
	"contracts/calldemo.sol": {
		"caller": {
			"abi": [
				{
					"inputs": [],
					"stateMutability": "nonpayable",
					"type": "constructor"
				},
				{
					"anonymous": false,
					"inputs": [
						{
							"indexed": false,
							"internalType": "bool",
							"name": "sucess",
							"type": "bool"
						},
						{
							"indexed": false,
							"internalType": "bytes",
							"name": "data",
							"type": "bytes"
						}
					],
					"name": "Responsed",
					"type": "event"
				},
				{
					"inputs": [],
					"name": "getAddress",
					"outputs": [
						{
							"internalType": "address",
							"name": "",
							"type": "address"
						}
					],
					"stateMutability": "view",
					"type": "function"
				},
				{
					"inputs": [],
					"name": "getBalance",
					"outputs": [
						{
							"internalType": "uint256",
							"name": "",
							"type": "uint256"
						}
					],
					"stateMutability": "view",
					"type": "function"
				},
				{
					"inputs": [
						{
							"internalType": "address payable",
							"name": "_to",
							"type": "address"
						},
						{
							"internalType": "uint256",
							"name": "_y",
							"type": "uint256"
						}
					],
					"name": "testCall",
					"outputs": [],
					"stateMutability": "payable",
					"type": "function"
				}
			],
			"devdoc": {
				"kind": "dev",
				"methods": {},
				"version": 1
			},
			"evm": {
				"assembly": "    /* \"contracts/calldemo.sol\":835:1669  contract caller {... */\n  mstore(0x40, 0x80)\n    /* \"contracts/calldemo.sol\":881:959  constructor() {... */\n  callvalue\n  dup1\n  iszero\n  tag_1\n  jumpi\n  0x00\n  dup1\n  revert\ntag_1:\n  pop\n    /* \"contracts/calldemo.sol\":916:930  new Receiver() */\n  mload(0x40)\n  tag_4\n  swap1\n  tag_5\n  jump\t// in\ntag_4:\n  mload(0x40)\n  dup1\n  swap2\n  sub\n  swap1\n  0x00\n  create\n  dup1\n  iszero\n  dup1\n  iszero\n  tag_6\n  jumpi\n  returndatasize\n  0x00\n  dup1\n  returndatacopy\n  revert(0x00, returndatasize)\ntag_6:\n  pop\n    /* \"contracts/calldemo.sol\":905:913  receiver */\n  0x00\n  dup1\n    /* \"contracts/calldemo.sol\":905:930  receiver = new Receiver() */\n  0x0100\n  exp\n  dup2\n  sload\n  dup2\n  0xffffffffffffffffffffffffffffffffffffffff\n  mul\n  not\n  and\n  swap1\n  dup4\n  0xffffffffffffffffffffffffffffffffffffffff\n  and\n  mul\n  or\n  swap1\n  sstore\n  pop\n    /* \"contracts/calldemo.sol\":835:1669  contract caller {... */\n  jump(tag_7)\ntag_5:\n  dataSize(sub_1)\n  dup1\n  dataOffset(sub_1)\n  dup4\n  codecopy\n  add\n  swap1\n  jump\t// out\ntag_7:\n  dataSize(sub_0)\n  dup1\n  dataOffset(sub_0)\n  0x00\n  codecopy\n  0x00\n  return\nstop\n\nsub_0: assembly {\n        /* \"contracts/calldemo.sol\":835:1669  contract caller {... */\n      mstore(0x40, 0x80)\n      jumpi(tag_1, lt(calldatasize, 0x04))\n      shr(0xe0, calldataload(0x00))\n      dup1\n      0x12065fe0\n      eq\n      tag_2\n      jumpi\n      dup1\n      0x38cc4831\n      eq\n      tag_3\n      jumpi\n      dup1\n      0x59c75ada\n      eq\n      tag_4\n      jumpi\n    tag_1:\n      0x00\n      dup1\n      revert\n        /* \"contracts/calldemo.sol\":1570:1667  function getBalance() public view returns (uint256) {... */\n    tag_2:\n      callvalue\n      dup1\n      iszero\n      tag_5\n      jumpi\n      0x00\n      dup1\n      revert\n    tag_5:\n      pop\n      tag_6\n      tag_7\n      jump\t// in\n    tag_6:\n      mload(0x40)\n      tag_8\n      swap2\n      swap1\n      tag_9\n      jump\t// in\n    tag_8:\n      mload(0x40)\n      dup1\n      swap2\n      sub\n      swap1\n      return\n        /* \"contracts/calldemo.sol\":1436:1533  function getAddress() public view returns (address) {... */\n    tag_3:\n      callvalue\n      dup1\n      iszero\n      tag_10\n      jumpi\n      0x00\n      dup1\n      revert\n    tag_10:\n      pop\n      tag_11\n      tag_12\n      jump\t// in\n    tag_11:\n      mload(0x40)\n      tag_13\n      swap2\n      swap1\n      tag_14\n      jump\t// in\n    tag_13:\n      mload(0x40)\n      dup1\n      swap2\n      sub\n      swap1\n      return\n        /* \"contracts/calldemo.sol\":1012:1399  function testCall(address payable _to,uint256 _y) public payable {... */\n    tag_4:\n      tag_15\n      0x04\n      dup1\n      calldatasize\n      sub\n      dup2\n      add\n      swap1\n      tag_16\n      swap2\n      swap1\n      tag_17\n      jump\t// in\n    tag_16:\n      tag_18\n      jump\t// in\n    tag_15:\n      stop\n        /* \"contracts/calldemo.sol\":1570:1667  function getBalance() public view returns (uint256) {... */\n    tag_7:\n        /* \"contracts/calldemo.sol\":1613:1620  uint256 */\n      0x00\n        /* \"contracts/calldemo.sol\":1639:1647  receiver */\n      dup1\n      0x00\n      swap1\n      sload\n      swap1\n      0x0100\n      exp\n      swap1\n      div\n      0xffffffffffffffffffffffffffffffffffffffff\n      and\n        /* \"contracts/calldemo.sol\":1639:1658  receiver.getBalance */\n      0xffffffffffffffffffffffffffffffffffffffff\n      and\n      0x12065fe0\n        /* \"contracts/calldemo.sol\":1639:1660  receiver.getBalance() */\n      mload(0x40)\n      dup2\n      0xffffffff\n      and\n      0xe0\n      shl\n      dup2\n      mstore\n      0x04\n      add\n      0x20\n      mload(0x40)\n      dup1\n      dup4\n      sub\n      dup2\n      dup7\n      dup1\n      extcodesize\n      iszero\n      dup1\n      iszero\n      tag_20\n      jumpi\n      0x00\n      dup1\n      revert\n    tag_20:\n      pop\n      gas\n      staticcall\n      iszero\n      dup1\n      iszero\n      tag_22\n      jumpi\n      returndatasize\n      0x00\n      dup1\n      returndatacopy\n      revert(0x00, returndatasize)\n    tag_22:\n      pop\n      pop\n      pop\n      pop\n      mload(0x40)\n      returndatasize\n      not(0x1f)\n      0x1f\n      dup3\n      add\n      and\n      dup3\n      add\n      dup1\n      0x40\n      mstore\n      pop\n      dup2\n      add\n      swap1\n      tag_23\n      swap2\n      swap1\n      tag_24\n      jump\t// in\n    tag_23:\n        /* \"contracts/calldemo.sol\":1632:1660  return receiver.getBalance() */\n      swap1\n      pop\n        /* \"contracts/calldemo.sol\":1570:1667  function getBalance() public view returns (uint256) {... */\n      swap1\n      jump\t// out\n        /* \"contracts/calldemo.sol\":1436:1533  function getAddress() public view returns (address) {... */\n    tag_12:\n        /* \"contracts/calldemo.sol\":1479:1486  address */\n      0x00\n        /* \"contracts/calldemo.sol\":1505:1513  receiver */\n      dup1\n      0x00\n      swap1\n      sload\n      swap1\n      0x0100\n      exp\n      swap1\n      div\n      0xffffffffffffffffffffffffffffffffffffffff\n      and\n        /* \"contracts/calldemo.sol\":1505:1524  receiver.getAddress */\n      0xffffffffffffffffffffffffffffffffffffffff\n      and\n      0x38cc4831\n        /* \"contracts/calldemo.sol\":1505:1526  receiver.getAddress() */\n      mload(0x40)\n      dup2\n      0xffffffff\n      and\n      0xe0\n      shl\n      dup2\n      mstore\n      0x04\n      add\n      0x20\n      mload(0x40)\n      dup1\n      dup4\n      sub\n      dup2\n      dup7\n      dup1\n      extcodesize\n      iszero\n      dup1\n      iszero\n      tag_26\n      jumpi\n      0x00\n      dup1\n      revert\n    tag_26:\n      pop\n      gas\n      staticcall\n      iszero\n      dup1\n      iszero\n      tag_28\n      jumpi\n      returndatasize\n      0x00\n      dup1\n      returndatacopy\n      revert(0x00, returndatasize)\n    tag_28:\n      pop\n      pop\n      pop\n      pop\n      mload(0x40)\n      returndatasize\n      not(0x1f)\n      0x1f\n      dup3\n      add\n      and\n      dup3\n      add\n      dup1\n      0x40\n      mstore\n      pop\n      dup2\n      add\n      swap1\n      tag_29\n      swap2\n      swap1\n      tag_30\n      jump\t// in\n    tag_29:\n        /* \"contracts/calldemo.sol\":1498:1526  return receiver.getAddress() */\n      swap1\n      pop\n        /* \"contracts/calldemo.sol\":1436:1533  function getAddress() public view returns (address) {... */\n      swap1\n      jump\t// out\n        /* \"contracts/calldemo.sol\":1012:1399  function testCall(address payable _to,uint256 _y) public payable {... */\n    tag_18:\n        /* \"contracts/calldemo.sol\":1230:1242  bool success */\n      0x00\n        /* \"contracts/calldemo.sol\":1244:1261  bytes memory data */\n      dup1\n        /* \"contracts/calldemo.sol\":1265:1268  _to */\n      dup4\n        /* \"contracts/calldemo.sol\":1265:1273  _to.call */\n      0xffffffffffffffffffffffffffffffffffffffff\n      and\n        /* \"contracts/calldemo.sol\":1281:1290  msg.value */\n      callvalue\n        /* \"contracts/calldemo.sol\":1349:1351  _y */\n      dup5\n        /* \"contracts/calldemo.sol\":1292:1352  abi.encodeWithSignature(\"foo(string,uint256)\",\"call foo\",_y) */\n      add(0x24, mload(0x40))\n      tag_32\n      swap2\n      swap1\n      tag_33\n      jump\t// in\n    tag_32:\n      mload(0x40)\n      0x20\n      dup2\n      dup4\n      sub\n      sub\n      dup2\n      mstore\n      swap1\n      0x40\n      mstore\n      and(not(0xffffffffffffffffffffffffffffffffffffffffffffffffffffffff), 0x24ccab8f00000000000000000000000000000000000000000000000000000000)\n      0x20\n      dup3\n      add\n      dup1\n      mload\n      0xffffffffffffffffffffffffffffffffffffffffffffffffffffffff\n      dup4\n      dup2\n      dup4\n      and\n      or\n      dup4\n      mstore\n      pop\n      pop\n      pop\n      pop\n        /* \"contracts/calldemo.sol\":1265:1353  _to.call{value: msg.value}(abi.encodeWithSignature(\"foo(string,uint256)\",\"call foo\",_y)) */\n      mload(0x40)\n      tag_34\n      swap2\n      swap1\n      tag_35\n      jump\t// in\n    tag_34:\n      0x00\n      mload(0x40)\n      dup1\n      dup4\n      sub\n      dup2\n      dup6\n      dup8\n      gas\n      call\n      swap3\n      pop\n      pop\n      pop\n      returndatasize\n      dup1\n      0x00\n      dup2\n      eq\n      tag_38\n      jumpi\n      mload(0x40)\n      swap2\n      pop\n      and(add(returndatasize, 0x3f), not(0x1f))\n      dup3\n      add\n      0x40\n      mstore\n      returndatasize\n      dup3\n      mstore\n      returndatasize\n      0x00\n      0x20\n      dup5\n      add\n      returndatacopy\n      jump(tag_37)\n    tag_38:\n      0x60\n      swap2\n      pop\n    tag_37:\n      pop\n        /* \"contracts/calldemo.sol\":1229:1353  (bool success, bytes memory data) = _to.call{value: msg.value}(abi.encodeWithSignature(\"foo(string,uint256)\",\"call foo\",_y)) */\n      swap2\n      pop\n      swap2\n      pop\n        /* \"contracts/calldemo.sol\":1368:1392  Responsed(success, data) */\n      0xae9f1c04d3efb4ea02fdb04897f173b02323936117490e18194e311c43e36133\n        /* \"contracts/calldemo.sol\":1378:1385  success */\n      dup3\n        /* \"contracts/calldemo.sol\":1387:1391  data */\n      dup3\n        /* \"contracts/calldemo.sol\":1368:1392  Responsed(success, data) */\n      mload(0x40)\n      tag_39\n      swap3\n      swap2\n      swap1\n      tag_40\n      jump\t// in\n    tag_39:\n      mload(0x40)\n      dup1\n      swap2\n      sub\n      swap1\n      log1\n        /* \"contracts/calldemo.sol\":1077:1399  {... */\n      pop\n      pop\n        /* \"contracts/calldemo.sol\":1012:1399  function testCall(address payable _to,uint256 _y) public payable {... */\n      pop\n      pop\n      jump\t// out\n        /* \"#utility.yul\":7:84   */\n    tag_41:\n        /* \"#utility.yul\":44:51   */\n      0x00\n        /* \"#utility.yul\":73:78   */\n      dup2\n        /* \"#utility.yul\":62:78   */\n      swap1\n      pop\n        /* \"#utility.yul\":7:84   */\n      swap2\n      swap1\n      pop\n      jump\t// out\n        /* \"#utility.yul\":90:208   */\n    tag_42:\n        /* \"#utility.yul\":177:201   */\n      tag_72\n        /* \"#utility.yul\":195:200   */\n      dup2\n        /* \"#utility.yul\":177:201   */\n      tag_41\n      jump\t// in\n    tag_72:\n        /* \"#utility.yul\":172:175   */\n      dup3\n        /* \"#utility.yul\":165:202   */\n      mstore\n        /* \"#utility.yul\":90:208   */\n      pop\n      pop\n      jump\t// out\n        /* \"#utility.yul\":214:436   */\n    tag_9:\n        /* \"#utility.yul\":307:311   */\n      0x00\n        /* \"#utility.yul\":345:347   */\n      0x20\n        /* \"#utility.yul\":334:343   */\n      dup3\n        /* \"#utility.yul\":330:348   */\n      add\n        /* \"#utility.yul\":322:348   */\n      swap1\n      pop\n        /* \"#utility.yul\":358:429   */\n      tag_74\n        /* \"#utility.yul\":426:427   */\n      0x00\n        /* \"#utility.yul\":415:424   */\n      dup4\n        /* \"#utility.yul\":411:428   */\n      add\n        /* \"#utility.yul\":402:408   */\n      dup5\n        /* \"#utility.yul\":358:429   */\n      tag_42\n      jump\t// in\n    tag_74:\n        /* \"#utility.yul\":214:436   */\n      swap3\n      swap2\n      pop\n      pop\n      jump\t// out\n        /* \"#utility.yul\":442:568   */\n    tag_43:\n        /* \"#utility.yul\":479:486   */\n      0x00\n        /* \"#utility.yul\":519:561   */\n      0xffffffffffffffffffffffffffffffffffffffff\n        /* \"#utility.yul\":512:517   */\n      dup3\n        /* \"#utility.yul\":508:562   */\n      and\n        /* \"#utility.yul\":497:562   */\n      swap1\n      pop\n        /* \"#utility.yul\":442:568   */\n      swap2\n      swap1\n      pop\n      jump\t// out\n        /* \"#utility.yul\":574:670   */\n    tag_44:\n        /* \"#utility.yul\":611:618   */\n      0x00\n        /* \"#utility.yul\":640:664   */\n      tag_77\n        /* \"#utility.yul\":658:663   */\n      dup3\n        /* \"#utility.yul\":640:664   */\n      tag_43\n      jump\t// in\n    tag_77:\n        /* \"#utility.yul\":629:664   */\n      swap1\n      pop\n        /* \"#utility.yul\":574:670   */\n      swap2\n      swap1\n      pop\n      jump\t// out\n        /* \"#utility.yul\":676:794   */\n    tag_45:\n        /* \"#utility.yul\":763:787   */\n      tag_79\n        /* \"#utility.yul\":781:786   */\n      dup2\n        /* \"#utility.yul\":763:787   */\n      tag_44\n      jump\t// in\n    tag_79:\n        /* \"#utility.yul\":758:761   */\n      dup3\n        /* \"#utility.yul\":751:788   */\n      mstore\n        /* \"#utility.yul\":676:794   */\n      pop\n      pop\n      jump\t// out\n        /* \"#utility.yul\":800:1022   */\n    tag_14:\n        /* \"#utility.yul\":893:897   */\n      0x00\n        /* \"#utility.yul\":931:933   */\n      0x20\n        /* \"#utility.yul\":920:929   */\n      dup3\n        /* \"#utility.yul\":916:934   */\n      add\n        /* \"#utility.yul\":908:934   */\n      swap1\n      pop\n        /* \"#utility.yul\":944:1015   */\n      tag_81\n        /* \"#utility.yul\":1012:1013   */\n      0x00\n        /* \"#utility.yul\":1001:1010   */\n      dup4\n        /* \"#utility.yul\":997:1014   */\n      add\n        /* \"#utility.yul\":988:994   */\n      dup5\n        /* \"#utility.yul\":944:1015   */\n      tag_45\n      jump\t// in\n    tag_81:\n        /* \"#utility.yul\":800:1022   */\n      swap3\n      swap2\n      pop\n      pop\n      jump\t// out\n        /* \"#utility.yul\":1109:1226   */\n    tag_47:\n        /* \"#utility.yul\":1218:1219   */\n      0x00\n        /* \"#utility.yul\":1215:1216   */\n      dup1\n        /* \"#utility.yul\":1208:1220   */\n      revert\n        /* \"#utility.yul\":1355:1459   */\n    tag_49:\n        /* \"#utility.yul\":1400:1407   */\n      0x00\n        /* \"#utility.yul\":1429:1453   */\n      tag_86\n        /* \"#utility.yul\":1447:1452   */\n      dup3\n        /* \"#utility.yul\":1429:1453   */\n      tag_43\n      jump\t// in\n    tag_86:\n        /* \"#utility.yul\":1418:1453   */\n      swap1\n      pop\n        /* \"#utility.yul\":1355:1459   */\n      swap2\n      swap1\n      pop\n      jump\t// out\n        /* \"#utility.yul\":1465:1603   */\n    tag_50:\n        /* \"#utility.yul\":1546:1578   */\n      tag_88\n        /* \"#utility.yul\":1572:1577   */\n      dup2\n        /* \"#utility.yul\":1546:1578   */\n      tag_49\n      jump\t// in\n    tag_88:\n        /* \"#utility.yul\":1539:1544   */\n      dup2\n        /* \"#utility.yul\":1536:1579   */\n      eq\n        /* \"#utility.yul\":1526:1597   */\n      tag_89\n      jumpi\n        /* \"#utility.yul\":1593:1594   */\n      0x00\n        /* \"#utility.yul\":1590:1591   */\n      dup1\n        /* \"#utility.yul\":1583:1595   */\n      revert\n        /* \"#utility.yul\":1526:1597   */\n    tag_89:\n        /* \"#utility.yul\":1465:1603   */\n      pop\n      jump\t// out\n        /* \"#utility.yul\":1609:1764   */\n    tag_51:\n        /* \"#utility.yul\":1663:1668   */\n      0x00\n        /* \"#utility.yul\":1701:1707   */\n      dup2\n        /* \"#utility.yul\":1688:1708   */\n      calldataload\n        /* \"#utility.yul\":1679:1708   */\n      swap1\n      pop\n        /* \"#utility.yul\":1717:1758   */\n      tag_91\n        /* \"#utility.yul\":1752:1757   */\n      dup2\n        /* \"#utility.yul\":1717:1758   */\n      tag_50\n      jump\t// in\n    tag_91:\n        /* \"#utility.yul\":1609:1764   */\n      swap3\n      swap2\n      pop\n      pop\n      jump\t// out\n        /* \"#utility.yul\":1770:1892   */\n    tag_52:\n        /* \"#utility.yul\":1843:1867   */\n      tag_93\n        /* \"#utility.yul\":1861:1866   */\n      dup2\n        /* \"#utility.yul\":1843:1867   */\n      tag_41\n      jump\t// in\n    tag_93:\n        /* \"#utility.yul\":1836:1841   */\n      dup2\n        /* \"#utility.yul\":1833:1868   */\n      eq\n        /* \"#utility.yul\":1823:1886   */\n      tag_94\n      jumpi\n        /* \"#utility.yul\":1882:1883   */\n      0x00\n        /* \"#utility.yul\":1879:1880   */\n      dup1\n        /* \"#utility.yul\":1872:1884   */\n      revert\n        /* \"#utility.yul\":1823:1886   */\n    tag_94:\n        /* \"#utility.yul\":1770:1892   */\n      pop\n      jump\t// out\n        /* \"#utility.yul\":1898:2037   */\n    tag_53:\n        /* \"#utility.yul\":1944:1949   */\n      0x00\n        /* \"#utility.yul\":1982:1988   */\n      dup2\n        /* \"#utility.yul\":1969:1989   */\n      calldataload\n        /* \"#utility.yul\":1960:1989   */\n      swap1\n      pop\n        /* \"#utility.yul\":1998:2031   */\n      tag_96\n        /* \"#utility.yul\":2025:2030   */\n      dup2\n        /* \"#utility.yul\":1998:2031   */\n      tag_52\n      jump\t// in\n    tag_96:\n        /* \"#utility.yul\":1898:2037   */\n      swap3\n      swap2\n      pop\n      pop\n      jump\t// out\n        /* \"#utility.yul\":2043:2533   */\n    tag_17:\n        /* \"#utility.yul\":2119:2125   */\n      0x00\n        /* \"#utility.yul\":2127:2133   */\n      dup1\n        /* \"#utility.yul\":2176:2178   */\n      0x40\n        /* \"#utility.yul\":2164:2173   */\n      dup4\n        /* \"#utility.yul\":2155:2162   */\n      dup6\n        /* \"#utility.yul\":2151:2174   */\n      sub\n        /* \"#utility.yul\":2147:2179   */\n      slt\n        /* \"#utility.yul\":2144:2263   */\n      iszero\n      tag_98\n      jumpi\n        /* \"#utility.yul\":2182:2261   */\n      tag_99\n      tag_47\n      jump\t// in\n    tag_99:\n        /* \"#utility.yul\":2144:2263   */\n    tag_98:\n        /* \"#utility.yul\":2302:2303   */\n      0x00\n        /* \"#utility.yul\":2327:2388   */\n      tag_100\n        /* \"#utility.yul\":2380:2387   */\n      dup6\n        /* \"#utility.yul\":2371:2377   */\n      dup3\n        /* \"#utility.yul\":2360:2369   */\n      dup7\n        /* \"#utility.yul\":2356:2378   */\n      add\n        /* \"#utility.yul\":2327:2388   */\n      tag_51\n      jump\t// in\n    tag_100:\n        /* \"#utility.yul\":2317:2388   */\n      swap3\n      pop\n        /* \"#utility.yul\":2273:2398   */\n      pop\n        /* \"#utility.yul\":2437:2439   */\n      0x20\n        /* \"#utility.yul\":2463:2516   */\n      tag_101\n        /* \"#utility.yul\":2508:2515   */\n      dup6\n        /* \"#utility.yul\":2499:2505   */\n      dup3\n        /* \"#utility.yul\":2488:2497   */\n      dup7\n        /* \"#utility.yul\":2484:2506   */\n      add\n        /* \"#utility.yul\":2463:2516   */\n      tag_53\n      jump\t// in\n    tag_101:\n        /* \"#utility.yul\":2453:2516   */\n      swap2\n      pop\n        /* \"#utility.yul\":2408:2526   */\n      pop\n        /* \"#utility.yul\":2043:2533   */\n      swap3\n      pop\n      swap3\n      swap1\n      pop\n      jump\t// out\n        /* \"#utility.yul\":2539:2682   */\n    tag_54:\n        /* \"#utility.yul\":2596:2601   */\n      0x00\n        /* \"#utility.yul\":2627:2633   */\n      dup2\n        /* \"#utility.yul\":2621:2634   */\n      mload\n        /* \"#utility.yul\":2612:2634   */\n      swap1\n      pop\n        /* \"#utility.yul\":2643:2676   */\n      tag_103\n        /* \"#utility.yul\":2670:2675   */\n      dup2\n        /* \"#utility.yul\":2643:2676   */\n      tag_52\n      jump\t// in\n    tag_103:\n        /* \"#utility.yul\":2539:2682   */\n      swap3\n      swap2\n      pop\n      pop\n      jump\t// out\n        /* \"#utility.yul\":2688:3039   */\n    tag_24:\n        /* \"#utility.yul\":2758:2764   */\n      0x00\n        /* \"#utility.yul\":2807:2809   */\n      0x20\n        /* \"#utility.yul\":2795:2804   */\n      dup3\n        /* \"#utility.yul\":2786:2793   */\n      dup5\n        /* \"#utility.yul\":2782:2805   */\n      sub\n        /* \"#utility.yul\":2778:2810   */\n      slt\n        /* \"#utility.yul\":2775:2894   */\n      iszero\n      tag_105\n      jumpi\n        /* \"#utility.yul\":2813:2892   */\n      tag_106\n      tag_47\n      jump\t// in\n    tag_106:\n        /* \"#utility.yul\":2775:2894   */\n    tag_105:\n        /* \"#utility.yul\":2933:2934   */\n      0x00\n        /* \"#utility.yul\":2958:3022   */\n      tag_107\n        /* \"#utility.yul\":3014:3021   */\n      dup5\n        /* \"#utility.yul\":3005:3011   */\n      dup3\n        /* \"#utility.yul\":2994:3003   */\n      dup6\n        /* \"#utility.yul\":2990:3012   */\n      add\n        /* \"#utility.yul\":2958:3022   */\n      tag_54\n      jump\t// in\n    tag_107:\n        /* \"#utility.yul\":2948:3022   */\n      swap2\n      pop\n        /* \"#utility.yul\":2904:3032   */\n      pop\n        /* \"#utility.yul\":2688:3039   */\n      swap3\n      swap2\n      pop\n      pop\n      jump\t// out\n        /* \"#utility.yul\":3045:3167   */\n    tag_55:\n        /* \"#utility.yul\":3118:3142   */\n      tag_109\n        /* \"#utility.yul\":3136:3141   */\n      dup2\n        /* \"#utility.yul\":3118:3142   */\n      tag_44\n      jump\t// in\n    tag_109:\n        /* \"#utility.yul\":3111:3116   */\n      dup2\n        /* \"#utility.yul\":3108:3143   */\n      eq\n        /* \"#utility.yul\":3098:3161   */\n      tag_110\n      jumpi\n        /* \"#utility.yul\":3157:3158   */\n      0x00\n        /* \"#utility.yul\":3154:3155   */\n      dup1\n        /* \"#utility.yul\":3147:3159   */\n      revert\n        /* \"#utility.yul\":3098:3161   */\n    tag_110:\n        /* \"#utility.yul\":3045:3167   */\n      pop\n      jump\t// out\n        /* \"#utility.yul\":3173:3316   */\n    tag_56:\n        /* \"#utility.yul\":3230:3235   */\n      0x00\n        /* \"#utility.yul\":3261:3267   */\n      dup2\n        /* \"#utility.yul\":3255:3268   */\n      mload\n        /* \"#utility.yul\":3246:3268   */\n      swap1\n      pop\n        /* \"#utility.yul\":3277:3310   */\n      tag_112\n        /* \"#utility.yul\":3304:3309   */\n      dup2\n        /* \"#utility.yul\":3277:3310   */\n      tag_55\n      jump\t// in\n    tag_112:\n        /* \"#utility.yul\":3173:3316   */\n      swap3\n      swap2\n      pop\n      pop\n      jump\t// out\n        /* \"#utility.yul\":3322:3673   */\n    tag_30:\n        /* \"#utility.yul\":3392:3398   */\n      0x00\n        /* \"#utility.yul\":3441:3443   */\n      0x20\n        /* \"#utility.yul\":3429:3438   */\n      dup3\n        /* \"#utility.yul\":3420:3427   */\n      dup5\n        /* \"#utility.yul\":3416:3439   */\n      sub\n        /* \"#utility.yul\":3412:3444   */\n      slt\n        /* \"#utility.yul\":3409:3528   */\n      iszero\n      tag_114\n      jumpi\n        /* \"#utility.yul\":3447:3526   */\n      tag_115\n      tag_47\n      jump\t// in\n    tag_115:\n        /* \"#utility.yul\":3409:3528   */\n    tag_114:\n        /* \"#utility.yul\":3567:3568   */\n      0x00\n        /* \"#utility.yul\":3592:3656   */\n      tag_116\n        /* \"#utility.yul\":3648:3655   */\n      dup5\n        /* \"#utility.yul\":3639:3645   */\n      dup3\n        /* \"#utility.yul\":3628:3637   */\n      dup6\n        /* \"#utility.yul\":3624:3646   */\n      add\n        /* \"#utility.yul\":3592:3656   */\n      tag_56\n      jump\t// in\n    tag_116:\n        /* \"#utility.yul\":3582:3656   */\n      swap2\n      pop\n        /* \"#utility.yul\":3538:3666   */\n      pop\n        /* \"#utility.yul\":3322:3673   */\n      swap3\n      swap2\n      pop\n      pop\n      jump\t// out\n        /* \"#utility.yul\":3679:3848   */\n    tag_57:\n        /* \"#utility.yul\":3763:3774   */\n      0x00\n        /* \"#utility.yul\":3797:3803   */\n      dup3\n        /* \"#utility.yul\":3792:3795   */\n      dup3\n        /* \"#utility.yul\":3785:3804   */\n      mstore\n        /* \"#utility.yul\":3837:3841   */\n      0x20\n        /* \"#utility.yul\":3832:3835   */\n      dup3\n        /* \"#utility.yul\":3828:3842   */\n      add\n        /* \"#utility.yul\":3813:3842   */\n      swap1\n      pop\n        /* \"#utility.yul\":3679:3848   */\n      swap3\n      swap2\n      pop\n      pop\n      jump\t// out\n        /* \"#utility.yul\":3854:4012   */\n    tag_58:\n        /* \"#utility.yul\":3994:4004   */\n      0x63616c6c20666f6f000000000000000000000000000000000000000000000000\n        /* \"#utility.yul\":3990:3991   */\n      0x00\n        /* \"#utility.yul\":3982:3988   */\n      dup3\n        /* \"#utility.yul\":3978:3992   */\n      add\n        /* \"#utility.yul\":3971:4005   */\n      mstore\n        /* \"#utility.yul\":3854:4012   */\n      pop\n      jump\t// out\n        /* \"#utility.yul\":4018:4383   */\n    tag_59:\n        /* \"#utility.yul\":4160:4163   */\n      0x00\n        /* \"#utility.yul\":4181:4247   */\n      tag_120\n        /* \"#utility.yul\":4245:4246   */\n      0x08\n        /* \"#utility.yul\":4240:4243   */\n      dup4\n        /* \"#utility.yul\":4181:4247   */\n      tag_57\n      jump\t// in\n    tag_120:\n        /* \"#utility.yul\":4174:4247   */\n      swap2\n      pop\n        /* \"#utility.yul\":4256:4349   */\n      tag_121\n        /* \"#utility.yul\":4345:4348   */\n      dup3\n        /* \"#utility.yul\":4256:4349   */\n      tag_58\n      jump\t// in\n    tag_121:\n        /* \"#utility.yul\":4374:4376   */\n      0x20\n        /* \"#utility.yul\":4369:4372   */\n      dup3\n        /* \"#utility.yul\":4365:4377   */\n      add\n        /* \"#utility.yul\":4358:4377   */\n      swap1\n      pop\n        /* \"#utility.yul\":4018:4383   */\n      swap2\n      swap1\n      pop\n      jump\t// out\n        /* \"#utility.yul\":4389:4918   */\n    tag_33:\n        /* \"#utility.yul\":4583:4587   */\n      0x00\n        /* \"#utility.yul\":4621:4623   */\n      0x40\n        /* \"#utility.yul\":4610:4619   */\n      dup3\n        /* \"#utility.yul\":4606:4624   */\n      add\n        /* \"#utility.yul\":4598:4624   */\n      swap1\n      pop\n        /* \"#utility.yul\":4670:4679   */\n      dup2\n        /* \"#utility.yul\":4664:4668   */\n      dup2\n        /* \"#utility.yul\":4660:4680   */\n      sub\n        /* \"#utility.yul\":4656:4657   */\n      0x00\n        /* \"#utility.yul\":4645:4654   */\n      dup4\n        /* \"#utility.yul\":4641:4658   */\n      add\n        /* \"#utility.yul\":4634:4681   */\n      mstore\n        /* \"#utility.yul\":4698:4829   */\n      tag_123\n        /* \"#utility.yul\":4824:4828   */\n      dup2\n        /* \"#utility.yul\":4698:4829   */\n      tag_59\n      jump\t// in\n    tag_123:\n        /* \"#utility.yul\":4690:4829   */\n      swap1\n      pop\n        /* \"#utility.yul\":4839:4911   */\n      tag_124\n        /* \"#utility.yul\":4907:4909   */\n      0x20\n        /* \"#utility.yul\":4896:4905   */\n      dup4\n        /* \"#utility.yul\":4892:4910   */\n      add\n        /* \"#utility.yul\":4883:4889   */\n      dup5\n        /* \"#utility.yul\":4839:4911   */\n      tag_42\n      jump\t// in\n    tag_124:\n        /* \"#utility.yul\":4389:4918   */\n      swap3\n      swap2\n      pop\n      pop\n      jump\t// out\n        /* \"#utility.yul\":4924:5022   */\n    tag_60:\n        /* \"#utility.yul\":4975:4981   */\n      0x00\n        /* \"#utility.yul\":5009:5014   */\n      dup2\n        /* \"#utility.yul\":5003:5015   */\n      mload\n        /* \"#utility.yul\":4993:5015   */\n      swap1\n      pop\n        /* \"#utility.yul\":4924:5022   */\n      swap2\n      swap1\n      pop\n      jump\t// out\n        /* \"#utility.yul\":5028:5175   */\n    tag_61:\n        /* \"#utility.yul\":5129:5140   */\n      0x00\n        /* \"#utility.yul\":5166:5169   */\n      dup2\n        /* \"#utility.yul\":5151:5169   */\n      swap1\n      pop\n        /* \"#utility.yul\":5028:5175   */\n      swap3\n      swap2\n      pop\n      pop\n      jump\t// out\n        /* \"#utility.yul\":5181:5488   */\n    tag_62:\n        /* \"#utility.yul\":5249:5250   */\n      0x00\n        /* \"#utility.yul\":5259:5372   */\n    tag_128:\n        /* \"#utility.yul\":5273:5279   */\n      dup4\n        /* \"#utility.yul\":5270:5271   */\n      dup2\n        /* \"#utility.yul\":5267:5280   */\n      lt\n        /* \"#utility.yul\":5259:5372   */\n      iszero\n      tag_130\n      jumpi\n        /* \"#utility.yul\":5358:5359   */\n      dup1\n        /* \"#utility.yul\":5353:5356   */\n      dup3\n        /* \"#utility.yul\":5349:5360   */\n      add\n        /* \"#utility.yul\":5343:5361   */\n      mload\n        /* \"#utility.yul\":5339:5340   */\n      dup2\n        /* \"#utility.yul\":5334:5337   */\n      dup5\n        /* \"#utility.yul\":5330:5341   */\n      add\n        /* \"#utility.yul\":5323:5362   */\n      mstore\n        /* \"#utility.yul\":5295:5297   */\n      0x20\n        /* \"#utility.yul\":5292:5293   */\n      dup2\n        /* \"#utility.yul\":5288:5298   */\n      add\n        /* \"#utility.yul\":5283:5298   */\n      swap1\n      pop\n        /* \"#utility.yul\":5259:5372   */\n      jump(tag_128)\n    tag_130:\n        /* \"#utility.yul\":5390:5396   */\n      dup4\n        /* \"#utility.yul\":5387:5388   */\n      dup2\n        /* \"#utility.yul\":5384:5397   */\n      gt\n        /* \"#utility.yul\":5381:5482   */\n      iszero\n      tag_131\n      jumpi\n        /* \"#utility.yul\":5470:5471   */\n      0x00\n        /* \"#utility.yul\":5461:5467   */\n      dup5\n        /* \"#utility.yul\":5456:5459   */\n      dup5\n        /* \"#utility.yul\":5452:5468   */\n      add\n        /* \"#utility.yul\":5445:5472   */\n      mstore\n        /* \"#utility.yul\":5381:5482   */\n    tag_131:\n        /* \"#utility.yul\":5230:5488   */\n      pop\n        /* \"#utility.yul\":5181:5488   */\n      pop\n      pop\n      pop\n      jump\t// out\n        /* \"#utility.yul\":5494:5867   */\n    tag_63:\n        /* \"#utility.yul\":5598:5601   */\n      0x00\n        /* \"#utility.yul\":5626:5664   */\n      tag_133\n        /* \"#utility.yul\":5658:5663   */\n      dup3\n        /* \"#utility.yul\":5626:5664   */\n      tag_60\n      jump\t// in\n    tag_133:\n        /* \"#utility.yul\":5680:5768   */\n      tag_134\n        /* \"#utility.yul\":5761:5767   */\n      dup2\n        /* \"#utility.yul\":5756:5759   */\n      dup6\n        /* \"#utility.yul\":5680:5768   */\n      tag_61\n      jump\t// in\n    tag_134:\n        /* \"#utility.yul\":5673:5768   */\n      swap4\n      pop\n        /* \"#utility.yul\":5777:5829   */\n      tag_135\n        /* \"#utility.yul\":5822:5828   */\n      dup2\n        /* \"#utility.yul\":5817:5820   */\n      dup6\n        /* \"#utility.yul\":5810:5814   */\n      0x20\n        /* \"#utility.yul\":5803:5808   */\n      dup7\n        /* \"#utility.yul\":5799:5815   */\n      add\n        /* \"#utility.yul\":5777:5829   */\n      tag_62\n      jump\t// in\n    tag_135:\n        /* \"#utility.yul\":5854:5860   */\n      dup1\n        /* \"#utility.yul\":5849:5852   */\n      dup5\n        /* \"#utility.yul\":5845:5861   */\n      add\n        /* \"#utility.yul\":5838:5861   */\n      swap2\n      pop\n        /* \"#utility.yul\":5602:5867   */\n      pop\n        /* \"#utility.yul\":5494:5867   */\n      swap3\n      swap2\n      pop\n      pop\n      jump\t// out\n        /* \"#utility.yul\":5873:6144   */\n    tag_35:\n        /* \"#utility.yul\":6003:6006   */\n      0x00\n        /* \"#utility.yul\":6025:6118   */\n      tag_137\n        /* \"#utility.yul\":6114:6117   */\n      dup3\n        /* \"#utility.yul\":6105:6111   */\n      dup5\n        /* \"#utility.yul\":6025:6118   */\n      tag_63\n      jump\t// in\n    tag_137:\n        /* \"#utility.yul\":6018:6118   */\n      swap2\n      pop\n        /* \"#utility.yul\":6135:6138   */\n      dup2\n        /* \"#utility.yul\":6128:6138   */\n      swap1\n      pop\n        /* \"#utility.yul\":5873:6144   */\n      swap3\n      swap2\n      pop\n      pop\n      jump\t// out\n        /* \"#utility.yul\":6150:6240   */\n    tag_64:\n        /* \"#utility.yul\":6184:6191   */\n      0x00\n        /* \"#utility.yul\":6227:6232   */\n      dup2\n        /* \"#utility.yul\":6220:6233   */\n      iszero\n        /* \"#utility.yul\":6213:6234   */\n      iszero\n        /* \"#utility.yul\":6202:6234   */\n      swap1\n      pop\n        /* \"#utility.yul\":6150:6240   */\n      swap2\n      swap1\n      pop\n      jump\t// out\n        /* \"#utility.yul\":6246:6355   */\n    tag_65:\n        /* \"#utility.yul\":6327:6348   */\n      tag_140\n        /* \"#utility.yul\":6342:6347   */\n      dup2\n        /* \"#utility.yul\":6327:6348   */\n      tag_64\n      jump\t// in\n    tag_140:\n        /* \"#utility.yul\":6322:6325   */\n      dup3\n        /* \"#utility.yul\":6315:6349   */\n      mstore\n        /* \"#utility.yul\":6246:6355   */\n      pop\n      pop\n      jump\t// out\n        /* \"#utility.yul\":6361:6529   */\n    tag_66:\n        /* \"#utility.yul\":6444:6455   */\n      0x00\n        /* \"#utility.yul\":6478:6484   */\n      dup3\n        /* \"#utility.yul\":6473:6476   */\n      dup3\n        /* \"#utility.yul\":6466:6485   */\n      mstore\n        /* \"#utility.yul\":6518:6522   */\n      0x20\n        /* \"#utility.yul\":6513:6516   */\n      dup3\n        /* \"#utility.yul\":6509:6523   */\n      add\n        /* \"#utility.yul\":6494:6523   */\n      swap1\n      pop\n        /* \"#utility.yul\":6361:6529   */\n      swap3\n      swap2\n      pop\n      pop\n      jump\t// out\n        /* \"#utility.yul\":6535:6637   */\n    tag_67:\n        /* \"#utility.yul\":6576:6582   */\n      0x00\n        /* \"#utility.yul\":6627:6629   */\n      0x1f\n        /* \"#utility.yul\":6623:6630   */\n      not\n        /* \"#utility.yul\":6618:6620   */\n      0x1f\n        /* \"#utility.yul\":6611:6616   */\n      dup4\n        /* \"#utility.yul\":6607:6621   */\n      add\n        /* \"#utility.yul\":6603:6631   */\n      and\n        /* \"#utility.yul\":6593:6631   */\n      swap1\n      pop\n        /* \"#utility.yul\":6535:6637   */\n      swap2\n      swap1\n      pop\n      jump\t// out\n        /* \"#utility.yul\":6643:7003   */\n    tag_68:\n        /* \"#utility.yul\":6729:6732   */\n      0x00\n        /* \"#utility.yul\":6757:6795   */\n      tag_144\n        /* \"#utility.yul\":6789:6794   */\n      dup3\n        /* \"#utility.yul\":6757:6795   */\n      tag_60\n      jump\t// in\n    tag_144:\n        /* \"#utility.yul\":6811:6881   */\n      tag_145\n        /* \"#utility.yul\":6874:6880   */\n      dup2\n        /* \"#utility.yul\":6869:6872   */\n      dup6\n        /* \"#utility.yul\":6811:6881   */\n      tag_66\n      jump\t// in\n    tag_145:\n        /* \"#utility.yul\":6804:6881   */\n      swap4\n      pop\n        /* \"#utility.yul\":6890:6942   */\n      tag_146\n        /* \"#utility.yul\":6935:6941   */\n      dup2\n        /* \"#utility.yul\":6930:6933   */\n      dup6\n        /* \"#utility.yul\":6923:6927   */\n      0x20\n        /* \"#utility.yul\":6916:6921   */\n      dup7\n        /* \"#utility.yul\":6912:6928   */\n      add\n        /* \"#utility.yul\":6890:6942   */\n      tag_62\n      jump\t// in\n    tag_146:\n        /* \"#utility.yul\":6967:6996   */\n      tag_147\n        /* \"#utility.yul\":6989:6995   */\n      dup2\n        /* \"#utility.yul\":6967:6996   */\n      tag_67\n      jump\t// in\n    tag_147:\n        /* \"#utility.yul\":6962:6965   */\n      dup5\n        /* \"#utility.yul\":6958:6997   */\n      add\n        /* \"#utility.yul\":6951:6997   */\n      swap2\n      pop\n        /* \"#utility.yul\":6733:7003   */\n      pop\n        /* \"#utility.yul\":6643:7003   */\n      swap3\n      swap2\n      pop\n      pop\n      jump\t// out\n        /* \"#utility.yul\":7009:7416   */\n    tag_40:\n        /* \"#utility.yul\":7142:7146   */\n      0x00\n        /* \"#utility.yul\":7180:7182   */\n      0x40\n        /* \"#utility.yul\":7169:7178   */\n      dup3\n        /* \"#utility.yul\":7165:7183   */\n      add\n        /* \"#utility.yul\":7157:7183   */\n      swap1\n      pop\n        /* \"#utility.yul\":7193:7258   */\n      tag_149\n        /* \"#utility.yul\":7255:7256   */\n      0x00\n        /* \"#utility.yul\":7244:7253   */\n      dup4\n        /* \"#utility.yul\":7240:7257   */\n      add\n        /* \"#utility.yul\":7231:7237   */\n      dup6\n        /* \"#utility.yul\":7193:7258   */\n      tag_65\n      jump\t// in\n    tag_149:\n        /* \"#utility.yul\":7305:7314   */\n      dup2\n        /* \"#utility.yul\":7299:7303   */\n      dup2\n        /* \"#utility.yul\":7295:7315   */\n      sub\n        /* \"#utility.yul\":7290:7292   */\n      0x20\n        /* \"#utility.yul\":7279:7288   */\n      dup4\n        /* \"#utility.yul\":7275:7293   */\n      add\n        /* \"#utility.yul\":7268:7316   */\n      mstore\n        /* \"#utility.yul\":7333:7409   */\n      tag_150\n        /* \"#utility.yul\":7404:7408   */\n      dup2\n        /* \"#utility.yul\":7395:7401   */\n      dup5\n        /* \"#utility.yul\":7333:7409   */\n      tag_68\n      jump\t// in\n    tag_150:\n        /* \"#utility.yul\":7325:7409   */\n      swap1\n      pop\n        /* \"#utility.yul\":7009:7416   */\n      swap4\n      swap3\n      pop\n      pop\n      pop\n      jump\t// out\n\n    auxdata: 0xa2646970667358221220dbcfafcbd9f5ab5322d72d1fef175e4893d71c79852d2cc92b29eea6215b89ce64736f6c63430008090033\n}\n\nsub_1: assembly {\n        /* \"contracts/calldemo.sol\":57:833  contract Receiver {... */\n      mstore(0x40, 0x80)\n      callvalue\n      dup1\n      iszero\n      tag_1\n      jumpi\n      0x00\n      dup1\n      revert\n    tag_1:\n      pop\n      dataSize(sub_0)\n      dup1\n      dataOffset(sub_0)\n      0x00\n      codecopy\n      0x00\n      return\n    stop\n\n    sub_0: assembly {\n            /* \"contracts/calldemo.sol\":57:833  contract Receiver {... */\n          mstore(0x40, 0x80)\n          jumpi(tag_1, lt(calldatasize, 0x04))\n          shr(0xe0, calldataload(0x00))\n          dup1\n          0x12065fe0\n          eq\n          tag_3\n          jumpi\n          dup1\n          0x24ccab8f\n          eq\n          tag_4\n          jumpi\n          dup1\n          0x38cc4831\n          eq\n          tag_5\n          jumpi\n          jump(tag_2)\n        tag_1:\n          jumpi(tag_2, calldatasize)\n            /* \"contracts/calldemo.sol\":224:277  Received(msg.sender, msg.value, \"receive was called\") */\n          0x59e04c3f0d44b7caf6e8ef854b61d9a51cf1960d7a88ff6356cc5e946b4b5832\n            /* \"contracts/calldemo.sol\":233:243  msg.sender */\n          caller\n            /* \"contracts/calldemo.sol\":245:254  msg.value */\n          callvalue\n            /* \"contracts/calldemo.sol\":224:277  Received(msg.sender, msg.value, \"receive was called\") */\n          mload(0x40)\n          tag_8\n          swap3\n          swap2\n          swap1\n          tag_9\n          jump\t// in\n        tag_8:\n          mload(0x40)\n          dup1\n          swap2\n          sub\n          swap1\n          log1\n            /* \"contracts/calldemo.sol\":57:833  contract Receiver {... */\n          stop\n        tag_2:\n            /* \"contracts/calldemo.sol\":367:421  Received(msg.sender, msg.value, \"fallback was called\") */\n          0x59e04c3f0d44b7caf6e8ef854b61d9a51cf1960d7a88ff6356cc5e946b4b5832\n            /* \"contracts/calldemo.sol\":376:386  msg.sender */\n          caller\n            /* \"contracts/calldemo.sol\":388:397  msg.value */\n          callvalue\n            /* \"contracts/calldemo.sol\":367:421  Received(msg.sender, msg.value, \"fallback was called\") */\n          mload(0x40)\n          tag_12\n          swap3\n          swap2\n          swap1\n          tag_13\n          jump\t// in\n        tag_12:\n          mload(0x40)\n          dup1\n          swap2\n          sub\n          swap1\n          log1\n            /* \"contracts/calldemo.sol\":57:833  contract Receiver {... */\n          stop\n            /* \"contracts/calldemo.sol\":734:831  function getBalance() public view returns (uint256) {... */\n        tag_3:\n          callvalue\n          dup1\n          iszero\n          tag_14\n          jumpi\n          0x00\n          dup1\n          revert\n        tag_14:\n          pop\n          tag_15\n          tag_16\n          jump\t// in\n        tag_15:\n          mload(0x40)\n          tag_17\n          swap2\n          swap1\n          tag_18\n          jump\t// in\n        tag_17:\n          mload(0x40)\n          dup1\n          swap2\n          sub\n          swap1\n          return\n            /* \"contracts/calldemo.sol\":480:633  function foo(string memory message, uint256 _y) public payable returns(uint){... */\n        tag_4:\n          tag_19\n          0x04\n          dup1\n          calldatasize\n          sub\n          dup2\n          add\n          swap1\n          tag_20\n          swap2\n          swap1\n          tag_21\n          jump\t// in\n        tag_20:\n          tag_22\n          jump\t// in\n        tag_19:\n          mload(0x40)\n          tag_23\n          swap2\n          swap1\n          tag_18\n          jump\t// in\n        tag_23:\n          mload(0x40)\n          dup1\n          swap2\n          sub\n          swap1\n          return\n            /* \"contracts/calldemo.sol\":639:728  function getAddress() public view returns (address) {... */\n        tag_5:\n          callvalue\n          dup1\n          iszero\n          tag_24\n          jumpi\n          0x00\n          dup1\n          revert\n        tag_24:\n          pop\n          tag_25\n          tag_26\n          jump\t// in\n        tag_25:\n          mload(0x40)\n          tag_27\n          swap2\n          swap1\n          tag_28\n          jump\t// in\n        tag_27:\n          mload(0x40)\n          dup1\n          swap2\n          sub\n          swap1\n          return\n            /* \"contracts/calldemo.sol\":734:831  function getBalance() public view returns (uint256) {... */\n        tag_16:\n            /* \"contracts/calldemo.sol\":777:784  uint256 */\n          0x00\n            /* \"contracts/calldemo.sol\":803:824  address(this).balance */\n          selfbalance\n            /* \"contracts/calldemo.sol\":796:824  return address(this).balance */\n          swap1\n          pop\n            /* \"contracts/calldemo.sol\":734:831  function getBalance() public view returns (uint256) {... */\n          swap1\n          jump\t// out\n            /* \"contracts/calldemo.sol\":480:633  function foo(string memory message, uint256 _y) public payable returns(uint){... */\n        tag_22:\n            /* \"contracts/calldemo.sol\":551:555  uint */\n          0x00\n            /* \"contracts/calldemo.sol\":569:609  Received(msg.sender, msg.value, message) */\n          0x59e04c3f0d44b7caf6e8ef854b61d9a51cf1960d7a88ff6356cc5e946b4b5832\n            /* \"contracts/calldemo.sol\":578:588  msg.sender */\n          caller\n            /* \"contracts/calldemo.sol\":590:599  msg.value */\n          callvalue\n            /* \"contracts/calldemo.sol\":601:608  message */\n          dup6\n            /* \"contracts/calldemo.sol\":569:609  Received(msg.sender, msg.value, message) */\n          mload(0x40)\n          tag_31\n          swap4\n          swap3\n          swap2\n          swap1\n          tag_32\n          jump\t// in\n        tag_31:\n          mload(0x40)\n          dup1\n          swap2\n          sub\n          swap1\n          log1\n            /* \"contracts/calldemo.sol\":624:626  _y */\n          dup2\n            /* \"contracts/calldemo.sol\":617:626  return _y */\n          swap1\n          pop\n            /* \"contracts/calldemo.sol\":480:633  function foo(string memory message, uint256 _y) public payable returns(uint){... */\n          swap3\n          swap2\n          pop\n          pop\n          jump\t// out\n            /* \"contracts/calldemo.sol\":639:728  function getAddress() public view returns (address) {... */\n        tag_26:\n            /* \"contracts/calldemo.sol\":682:689  address */\n          0x00\n            /* \"contracts/calldemo.sol\":716:720  this */\n          address\n            /* \"contracts/calldemo.sol\":701:721  return address(this) */\n          swap1\n          pop\n            /* \"contracts/calldemo.sol\":639:728  function getAddress() public view returns (address) {... */\n          swap1\n          jump\t// out\n            /* \"#utility.yul\":7:133   */\n        tag_34:\n            /* \"#utility.yul\":44:51   */\n          0x00\n            /* \"#utility.yul\":84:126   */\n          0xffffffffffffffffffffffffffffffffffffffff\n            /* \"#utility.yul\":77:82   */\n          dup3\n            /* \"#utility.yul\":73:127   */\n          and\n            /* \"#utility.yul\":62:127   */\n          swap1\n          pop\n            /* \"#utility.yul\":7:133   */\n          swap2\n          swap1\n          pop\n          jump\t// out\n            /* \"#utility.yul\":139:235   */\n        tag_35:\n            /* \"#utility.yul\":176:183   */\n          0x00\n            /* \"#utility.yul\":205:229   */\n          tag_65\n            /* \"#utility.yul\":223:228   */\n          dup3\n            /* \"#utility.yul\":205:229   */\n          tag_34\n          jump\t// in\n        tag_65:\n            /* \"#utility.yul\":194:229   */\n          swap1\n          pop\n            /* \"#utility.yul\":139:235   */\n          swap2\n          swap1\n          pop\n          jump\t// out\n            /* \"#utility.yul\":241:359   */\n        tag_36:\n            /* \"#utility.yul\":328:352   */\n          tag_67\n            /* \"#utility.yul\":346:351   */\n          dup2\n            /* \"#utility.yul\":328:352   */\n          tag_35\n          jump\t// in\n        tag_67:\n            /* \"#utility.yul\":323:326   */\n          dup3\n            /* \"#utility.yul\":316:353   */\n          mstore\n            /* \"#utility.yul\":241:359   */\n          pop\n          pop\n          jump\t// out\n            /* \"#utility.yul\":365:442   */\n        tag_37:\n            /* \"#utility.yul\":402:409   */\n          0x00\n            /* \"#utility.yul\":431:436   */\n          dup2\n            /* \"#utility.yul\":420:436   */\n          swap1\n          pop\n            /* \"#utility.yul\":365:442   */\n          swap2\n          swap1\n          pop\n          jump\t// out\n            /* \"#utility.yul\":448:566   */\n        tag_38:\n            /* \"#utility.yul\":535:559   */\n          tag_70\n            /* \"#utility.yul\":553:558   */\n          dup2\n            /* \"#utility.yul\":535:559   */\n          tag_37\n          jump\t// in\n        tag_70:\n            /* \"#utility.yul\":530:533   */\n          dup3\n            /* \"#utility.yul\":523:560   */\n          mstore\n            /* \"#utility.yul\":448:566   */\n          pop\n          pop\n          jump\t// out\n            /* \"#utility.yul\":572:741   */\n        tag_39:\n            /* \"#utility.yul\":656:667   */\n          0x00\n            /* \"#utility.yul\":690:696   */\n          dup3\n            /* \"#utility.yul\":685:688   */\n          dup3\n            /* \"#utility.yul\":678:697   */\n          mstore\n            /* \"#utility.yul\":730:734   */\n          0x20\n            /* \"#utility.yul\":725:728   */\n          dup3\n            /* \"#utility.yul\":721:735   */\n          add\n            /* \"#utility.yul\":706:735   */\n          swap1\n          pop\n            /* \"#utility.yul\":572:741   */\n          swap3\n          swap2\n          pop\n          pop\n          jump\t// out\n            /* \"#utility.yul\":747:915   */\n        tag_40:\n            /* \"#utility.yul\":887:907   */\n          0x72656365697665207761732063616c6c65640000000000000000000000000000\n            /* \"#utility.yul\":883:884   */\n          0x00\n            /* \"#utility.yul\":875:881   */\n          dup3\n            /* \"#utility.yul\":871:885   */\n          add\n            /* \"#utility.yul\":864:908   */\n          mstore\n            /* \"#utility.yul\":747:915   */\n          pop\n          jump\t// out\n            /* \"#utility.yul\":921:1287   */\n        tag_41:\n            /* \"#utility.yul\":1063:1066   */\n          0x00\n            /* \"#utility.yul\":1084:1151   */\n          tag_74\n            /* \"#utility.yul\":1148:1150   */\n          0x12\n            /* \"#utility.yul\":1143:1146   */\n          dup4\n            /* \"#utility.yul\":1084:1151   */\n          tag_39\n          jump\t// in\n        tag_74:\n            /* \"#utility.yul\":1077:1151   */\n          swap2\n          pop\n            /* \"#utility.yul\":1160:1253   */\n          tag_75\n            /* \"#utility.yul\":1249:1252   */\n          dup3\n            /* \"#utility.yul\":1160:1253   */\n          tag_40\n          jump\t// in\n        tag_75:\n            /* \"#utility.yul\":1278:1280   */\n          0x20\n            /* \"#utility.yul\":1273:1276   */\n          dup3\n            /* \"#utility.yul\":1269:1281   */\n          add\n            /* \"#utility.yul\":1262:1281   */\n          swap1\n          pop\n            /* \"#utility.yul\":921:1287   */\n          swap2\n          swap1\n          pop\n          jump\t// out\n            /* \"#utility.yul\":1293:1932   */\n        tag_9:\n            /* \"#utility.yul\":1515:1519   */\n          0x00\n            /* \"#utility.yul\":1553:1555   */\n          0x60\n            /* \"#utility.yul\":1542:1551   */\n          dup3\n            /* \"#utility.yul\":1538:1556   */\n          add\n            /* \"#utility.yul\":1530:1556   */\n          swap1\n          pop\n            /* \"#utility.yul\":1566:1637   */\n          tag_77\n            /* \"#utility.yul\":1634:1635   */\n          0x00\n            /* \"#utility.yul\":1623:1632   */\n          dup4\n            /* \"#utility.yul\":1619:1636   */\n          add\n            /* \"#utility.yul\":1610:1616   */\n          dup6\n            /* \"#utility.yul\":1566:1637   */\n          tag_36\n          jump\t// in\n        tag_77:\n            /* \"#utility.yul\":1647:1719   */\n          tag_78\n            /* \"#utility.yul\":1715:1717   */\n          0x20\n            /* \"#utility.yul\":1704:1713   */\n          dup4\n            /* \"#utility.yul\":1700:1718   */\n          add\n            /* \"#utility.yul\":1691:1697   */\n          dup5\n            /* \"#utility.yul\":1647:1719   */\n          tag_38\n          jump\t// in\n        tag_78:\n            /* \"#utility.yul\":1766:1775   */\n          dup2\n            /* \"#utility.yul\":1760:1764   */\n          dup2\n            /* \"#utility.yul\":1756:1776   */\n          sub\n            /* \"#utility.yul\":1751:1753   */\n          0x40\n            /* \"#utility.yul\":1740:1749   */\n          dup4\n            /* \"#utility.yul\":1736:1754   */\n          add\n            /* \"#utility.yul\":1729:1777   */\n          mstore\n            /* \"#utility.yul\":1794:1925   */\n          tag_79\n            /* \"#utility.yul\":1920:1924   */\n          dup2\n            /* \"#utility.yul\":1794:1925   */\n          tag_41\n          jump\t// in\n        tag_79:\n            /* \"#utility.yul\":1786:1925   */\n          swap1\n          pop\n            /* \"#utility.yul\":1293:1932   */\n          swap4\n          swap3\n          pop\n          pop\n          pop\n          jump\t// out\n            /* \"#utility.yul\":1938:2107   */\n        tag_42:\n            /* \"#utility.yul\":2078:2099   */\n          0x66616c6c6261636b207761732063616c6c656400000000000000000000000000\n            /* \"#utility.yul\":2074:2075   */\n          0x00\n            /* \"#utility.yul\":2066:2072   */\n          dup3\n            /* \"#utility.yul\":2062:2076   */\n          add\n            /* \"#utility.yul\":2055:2100   */\n          mstore\n            /* \"#utility.yul\":1938:2107   */\n          pop\n          jump\t// out\n            /* \"#utility.yul\":2113:2479   */\n        tag_43:\n            /* \"#utility.yul\":2255:2258   */\n          0x00\n            /* \"#utility.yul\":2276:2343   */\n          tag_82\n            /* \"#utility.yul\":2340:2342   */\n          0x13\n            /* \"#utility.yul\":2335:2338   */\n          dup4\n            /* \"#utility.yul\":2276:2343   */\n          tag_39\n          jump\t// in\n        tag_82:\n            /* \"#utility.yul\":2269:2343   */\n          swap2\n          pop\n            /* \"#utility.yul\":2352:2445   */\n          tag_83\n            /* \"#utility.yul\":2441:2444   */\n          dup3\n            /* \"#utility.yul\":2352:2445   */\n          tag_42\n          jump\t// in\n        tag_83:\n            /* \"#utility.yul\":2470:2472   */\n          0x20\n            /* \"#utility.yul\":2465:2468   */\n          dup3\n            /* \"#utility.yul\":2461:2473   */\n          add\n            /* \"#utility.yul\":2454:2473   */\n          swap1\n          pop\n            /* \"#utility.yul\":2113:2479   */\n          swap2\n          swap1\n          pop\n          jump\t// out\n            /* \"#utility.yul\":2485:3124   */\n        tag_13:\n            /* \"#utility.yul\":2707:2711   */\n          0x00\n            /* \"#utility.yul\":2745:2747   */\n          0x60\n            /* \"#utility.yul\":2734:2743   */\n          dup3\n            /* \"#utility.yul\":2730:2748   */\n          add\n            /* \"#utility.yul\":2722:2748   */\n          swap1\n          pop\n            /* \"#utility.yul\":2758:2829   */\n          tag_85\n            /* \"#utility.yul\":2826:2827   */\n          0x00\n            /* \"#utility.yul\":2815:2824   */\n          dup4\n            /* \"#utility.yul\":2811:2828   */\n          add\n            /* \"#utility.yul\":2802:2808   */\n          dup6\n            /* \"#utility.yul\":2758:2829   */\n          tag_36\n          jump\t// in\n        tag_85:\n            /* \"#utility.yul\":2839:2911   */\n          tag_86\n            /* \"#utility.yul\":2907:2909   */\n          0x20\n            /* \"#utility.yul\":2896:2905   */\n          dup4\n            /* \"#utility.yul\":2892:2910   */\n          add\n            /* \"#utility.yul\":2883:2889   */\n          dup5\n            /* \"#utility.yul\":2839:2911   */\n          tag_38\n          jump\t// in\n        tag_86:\n            /* \"#utility.yul\":2958:2967   */\n          dup2\n            /* \"#utility.yul\":2952:2956   */\n          dup2\n            /* \"#utility.yul\":2948:2968   */\n          sub\n            /* \"#utility.yul\":2943:2945   */\n          0x40\n            /* \"#utility.yul\":2932:2941   */\n          dup4\n            /* \"#utility.yul\":2928:2946   */\n          add\n            /* \"#utility.yul\":2921:2969   */\n          mstore\n            /* \"#utility.yul\":2986:3117   */\n          tag_87\n            /* \"#utility.yul\":3112:3116   */\n          dup2\n            /* \"#utility.yul\":2986:3117   */\n          tag_43\n          jump\t// in\n        tag_87:\n            /* \"#utility.yul\":2978:3117   */\n          swap1\n          pop\n            /* \"#utility.yul\":2485:3124   */\n          swap4\n          swap3\n          pop\n          pop\n          pop\n          jump\t// out\n            /* \"#utility.yul\":3130:3352   */\n        tag_18:\n            /* \"#utility.yul\":3223:3227   */\n          0x00\n            /* \"#utility.yul\":3261:3263   */\n          0x20\n            /* \"#utility.yul\":3250:3259   */\n          dup3\n            /* \"#utility.yul\":3246:3264   */\n          add\n            /* \"#utility.yul\":3238:3264   */\n          swap1\n          pop\n            /* \"#utility.yul\":3274:3345   */\n          tag_89\n            /* \"#utility.yul\":3342:3343   */\n          0x00\n            /* \"#utility.yul\":3331:3340   */\n          dup4\n            /* \"#utility.yul\":3327:3344   */\n          add\n            /* \"#utility.yul\":3318:3324   */\n          dup5\n            /* \"#utility.yul\":3274:3345   */\n          tag_38\n          jump\t// in\n        tag_89:\n            /* \"#utility.yul\":3130:3352   */\n          swap3\n          swap2\n          pop\n          pop\n          jump\t// out\n            /* \"#utility.yul\":3358:3433   */\n        tag_44:\n            /* \"#utility.yul\":3391:3397   */\n          0x00\n            /* \"#utility.yul\":3424:3426   */\n          0x40\n            /* \"#utility.yul\":3418:3427   */\n          mload\n            /* \"#utility.yul\":3408:3427   */\n          swap1\n          pop\n            /* \"#utility.yul\":3358:3433   */\n          swap1\n          jump\t// out\n            /* \"#utility.yul\":3439:3556   */\n        tag_45:\n            /* \"#utility.yul\":3548:3549   */\n          0x00\n            /* \"#utility.yul\":3545:3546   */\n          dup1\n            /* \"#utility.yul\":3538:3550   */\n          revert\n            /* \"#utility.yul\":3562:3679   */\n        tag_46:\n            /* \"#utility.yul\":3671:3672   */\n          0x00\n            /* \"#utility.yul\":3668:3669   */\n          dup1\n            /* \"#utility.yul\":3661:3673   */\n          revert\n            /* \"#utility.yul\":3685:3802   */\n        tag_47:\n            /* \"#utility.yul\":3794:3795   */\n          0x00\n            /* \"#utility.yul\":3791:3792   */\n          dup1\n            /* \"#utility.yul\":3784:3796   */\n          revert\n            /* \"#utility.yul\":3808:3925   */\n        tag_48:\n            /* \"#utility.yul\":3917:3918   */\n          0x00\n            /* \"#utility.yul\":3914:3915   */\n          dup1\n            /* \"#utility.yul\":3907:3919   */\n          revert\n            /* \"#utility.yul\":3931:4033   */\n        tag_49:\n            /* \"#utility.yul\":3972:3978   */\n          0x00\n            /* \"#utility.yul\":4023:4025   */\n          0x1f\n            /* \"#utility.yul\":4019:4026   */\n          not\n            /* \"#utility.yul\":4014:4016   */\n          0x1f\n            /* \"#utility.yul\":4007:4012   */\n          dup4\n            /* \"#utility.yul\":4003:4017   */\n          add\n            /* \"#utility.yul\":3999:4027   */\n          and\n            /* \"#utility.yul\":3989:4027   */\n          swap1\n          pop\n            /* \"#utility.yul\":3931:4033   */\n          swap2\n          swap1\n          pop\n          jump\t// out\n            /* \"#utility.yul\":4039:4219   */\n        tag_50:\n            /* \"#utility.yul\":4087:4164   */\n          0x4e487b7100000000000000000000000000000000000000000000000000000000\n            /* \"#utility.yul\":4084:4085   */\n          0x00\n            /* \"#utility.yul\":4077:4165   */\n          mstore\n            /* \"#utility.yul\":4184:4188   */\n          0x41\n            /* \"#utility.yul\":4181:4182   */\n          0x04\n            /* \"#utility.yul\":4174:4189   */\n          mstore\n            /* \"#utility.yul\":4208:4212   */\n          0x24\n            /* \"#utility.yul\":4205:4206   */\n          0x00\n            /* \"#utility.yul\":4198:4213   */\n          revert\n            /* \"#utility.yul\":4225:4506   */\n        tag_51:\n            /* \"#utility.yul\":4308:4335   */\n          tag_98\n            /* \"#utility.yul\":4330:4334   */\n          dup3\n            /* \"#utility.yul\":4308:4335   */\n          tag_49\n          jump\t// in\n        tag_98:\n            /* \"#utility.yul\":4300:4306   */\n          dup2\n            /* \"#utility.yul\":4296:4336   */\n          add\n            /* \"#utility.yul\":4438:4444   */\n          dup2\n            /* \"#utility.yul\":4426:4436   */\n          dup2\n            /* \"#utility.yul\":4423:4445   */\n          lt\n            /* \"#utility.yul\":4402:4420   */\n          0xffffffffffffffff\n            /* \"#utility.yul\":4390:4400   */\n          dup3\n            /* \"#utility.yul\":4387:4421   */\n          gt\n            /* \"#utility.yul\":4384:4446   */\n          or\n            /* \"#utility.yul\":4381:4469   */\n          iszero\n          tag_99\n          jumpi\n            /* \"#utility.yul\":4449:4467   */\n          tag_100\n          tag_50\n          jump\t// in\n        tag_100:\n            /* \"#utility.yul\":4381:4469   */\n        tag_99:\n            /* \"#utility.yul\":4489:4499   */\n          dup1\n            /* \"#utility.yul\":4485:4487   */\n          0x40\n            /* \"#utility.yul\":4478:4500   */\n          mstore\n            /* \"#utility.yul\":4268:4506   */\n          pop\n            /* \"#utility.yul\":4225:4506   */\n          pop\n          pop\n          jump\t// out\n            /* \"#utility.yul\":4512:4641   */\n        tag_52:\n            /* \"#utility.yul\":4546:4552   */\n          0x00\n            /* \"#utility.yul\":4573:4593   */\n          tag_102\n          tag_44\n          jump\t// in\n        tag_102:\n            /* \"#utility.yul\":4563:4593   */\n          swap1\n          pop\n            /* \"#utility.yul\":4602:4635   */\n          tag_103\n            /* \"#utility.yul\":4630:4634   */\n          dup3\n            /* \"#utility.yul\":4622:4628   */\n          dup3\n            /* \"#utility.yul\":4602:4635   */\n          tag_51\n          jump\t// in\n        tag_103:\n            /* \"#utility.yul\":4512:4641   */\n          swap2\n          swap1\n          pop\n          jump\t// out\n            /* \"#utility.yul\":4647:4955   */\n        tag_53:\n            /* \"#utility.yul\":4709:4713   */\n          0x00\n            /* \"#utility.yul\":4799:4817   */\n          0xffffffffffffffff\n            /* \"#utility.yul\":4791:4797   */\n          dup3\n            /* \"#utility.yul\":4788:4818   */\n          gt\n            /* \"#utility.yul\":4785:4841   */\n          iszero\n          tag_105\n          jumpi\n            /* \"#utility.yul\":4821:4839   */\n          tag_106\n          tag_50\n          jump\t// in\n        tag_106:\n            /* \"#utility.yul\":4785:4841   */\n        tag_105:\n            /* \"#utility.yul\":4859:4888   */\n          tag_107\n            /* \"#utility.yul\":4881:4887   */\n          dup3\n            /* \"#utility.yul\":4859:4888   */\n          tag_49\n          jump\t// in\n        tag_107:\n            /* \"#utility.yul\":4851:4888   */\n          swap1\n          pop\n            /* \"#utility.yul\":4943:4947   */\n          0x20\n            /* \"#utility.yul\":4937:4941   */\n          dup2\n            /* \"#utility.yul\":4933:4948   */\n          add\n            /* \"#utility.yul\":4925:4948   */\n          swap1\n          pop\n            /* \"#utility.yul\":4647:4955   */\n          swap2\n          swap1\n          pop\n          jump\t// out\n            /* \"#utility.yul\":4961:5115   */\n        tag_54:\n            /* \"#utility.yul\":5045:5051   */\n          dup3\n            /* \"#utility.yul\":5040:5043   */\n          dup2\n            /* \"#utility.yul\":5035:5038   */\n          dup4\n            /* \"#utility.yul\":5022:5052   */\n          calldatacopy\n            /* \"#utility.yul\":5107:5108   */\n          0x00\n            /* \"#utility.yul\":5098:5104   */\n          dup4\n            /* \"#utility.yul\":5093:5096   */\n          dup4\n            /* \"#utility.yul\":5089:5105   */\n          add\n            /* \"#utility.yul\":5082:5109   */\n          mstore\n            /* \"#utility.yul\":4961:5115   */\n          pop\n          pop\n          pop\n          jump\t// out\n            /* \"#utility.yul\":5121:5533   */\n        tag_55:\n            /* \"#utility.yul\":5199:5204   */\n          0x00\n            /* \"#utility.yul\":5224:5290   */\n          tag_110\n            /* \"#utility.yul\":5240:5289   */\n          tag_111\n            /* \"#utility.yul\":5282:5288   */\n          dup5\n            /* \"#utility.yul\":5240:5289   */\n          tag_53\n          jump\t// in\n        tag_111:\n            /* \"#utility.yul\":5224:5290   */\n          tag_52\n          jump\t// in\n        tag_110:\n            /* \"#utility.yul\":5215:5290   */\n          swap1\n          pop\n            /* \"#utility.yul\":5313:5319   */\n          dup3\n            /* \"#utility.yul\":5306:5311   */\n          dup2\n            /* \"#utility.yul\":5299:5320   */\n          mstore\n            /* \"#utility.yul\":5351:5355   */\n          0x20\n            /* \"#utility.yul\":5344:5349   */\n          dup2\n            /* \"#utility.yul\":5340:5356   */\n          add\n            /* \"#utility.yul\":5389:5392   */\n          dup5\n            /* \"#utility.yul\":5380:5386   */\n          dup5\n            /* \"#utility.yul\":5375:5378   */\n          dup5\n            /* \"#utility.yul\":5371:5387   */\n          add\n            /* \"#utility.yul\":5368:5393   */\n          gt\n            /* \"#utility.yul\":5365:5477   */\n          iszero\n          tag_112\n          jumpi\n            /* \"#utility.yul\":5396:5475   */\n          tag_113\n          tag_48\n          jump\t// in\n        tag_113:\n            /* \"#utility.yul\":5365:5477   */\n        tag_112:\n            /* \"#utility.yul\":5486:5527   */\n          tag_114\n            /* \"#utility.yul\":5520:5526   */\n          dup5\n            /* \"#utility.yul\":5515:5518   */\n          dup3\n            /* \"#utility.yul\":5510:5513   */\n          dup6\n            /* \"#utility.yul\":5486:5527   */\n          tag_54\n          jump\t// in\n        tag_114:\n            /* \"#utility.yul\":5205:5533   */\n          pop\n            /* \"#utility.yul\":5121:5533   */\n          swap4\n          swap3\n          pop\n          pop\n          pop\n          jump\t// out\n            /* \"#utility.yul\":5553:5893   */\n        tag_56:\n            /* \"#utility.yul\":5609:5614   */\n          0x00\n            /* \"#utility.yul\":5658:5661   */\n          dup3\n            /* \"#utility.yul\":5651:5655   */\n          0x1f\n            /* \"#utility.yul\":5643:5649   */\n          dup4\n            /* \"#utility.yul\":5639:5656   */\n          add\n            /* \"#utility.yul\":5635:5662   */\n          slt\n            /* \"#utility.yul\":5625:5747   */\n          tag_116\n          jumpi\n            /* \"#utility.yul\":5666:5745   */\n          tag_117\n          tag_47\n          jump\t// in\n        tag_117:\n            /* \"#utility.yul\":5625:5747   */\n        tag_116:\n            /* \"#utility.yul\":5783:5789   */\n          dup2\n            /* \"#utility.yul\":5770:5790   */\n          calldataload\n            /* \"#utility.yul\":5808:5887   */\n          tag_118\n            /* \"#utility.yul\":5883:5886   */\n          dup5\n            /* \"#utility.yul\":5875:5881   */\n          dup3\n            /* \"#utility.yul\":5868:5872   */\n          0x20\n            /* \"#utility.yul\":5860:5866   */\n          dup7\n            /* \"#utility.yul\":5856:5873   */\n          add\n            /* \"#utility.yul\":5808:5887   */\n          tag_55\n          jump\t// in\n        tag_118:\n            /* \"#utility.yul\":5799:5887   */\n          swap2\n          pop\n            /* \"#utility.yul\":5615:5893   */\n          pop\n            /* \"#utility.yul\":5553:5893   */\n          swap3\n          swap2\n          pop\n          pop\n          jump\t// out\n            /* \"#utility.yul\":5899:6021   */\n        tag_57:\n            /* \"#utility.yul\":5972:5996   */\n          tag_120\n            /* \"#utility.yul\":5990:5995   */\n          dup2\n            /* \"#utility.yul\":5972:5996   */\n          tag_37\n          jump\t// in\n        tag_120:\n            /* \"#utility.yul\":5965:5970   */\n          dup2\n            /* \"#utility.yul\":5962:5997   */\n          eq\n            /* \"#utility.yul\":5952:6015   */\n          tag_121\n          jumpi\n            /* \"#utility.yul\":6011:6012   */\n          0x00\n            /* \"#utility.yul\":6008:6009   */\n          dup1\n            /* \"#utility.yul\":6001:6013   */\n          revert\n            /* \"#utility.yul\":5952:6015   */\n        tag_121:\n            /* \"#utility.yul\":5899:6021   */\n          pop\n          jump\t// out\n            /* \"#utility.yul\":6027:6166   */\n        tag_58:\n            /* \"#utility.yul\":6073:6078   */\n          0x00\n            /* \"#utility.yul\":6111:6117   */\n          dup2\n            /* \"#utility.yul\":6098:6118   */\n          calldataload\n            /* \"#utility.yul\":6089:6118   */\n          swap1\n          pop\n            /* \"#utility.yul\":6127:6160   */\n          tag_123\n            /* \"#utility.yul\":6154:6159   */\n          dup2\n            /* \"#utility.yul\":6127:6160   */\n          tag_57\n          jump\t// in\n        tag_123:\n            /* \"#utility.yul\":6027:6166   */\n          swap3\n          swap2\n          pop\n          pop\n          jump\t// out\n            /* \"#utility.yul\":6172:6826   */\n        tag_21:\n            /* \"#utility.yul\":6250:6256   */\n          0x00\n            /* \"#utility.yul\":6258:6264   */\n          dup1\n            /* \"#utility.yul\":6307:6309   */\n          0x40\n            /* \"#utility.yul\":6295:6304   */\n          dup4\n            /* \"#utility.yul\":6286:6293   */\n          dup6\n            /* \"#utility.yul\":6282:6305   */\n          sub\n            /* \"#utility.yul\":6278:6310   */\n          slt\n            /* \"#utility.yul\":6275:6394   */\n          iszero\n          tag_125\n          jumpi\n            /* \"#utility.yul\":6313:6392   */\n          tag_126\n          tag_45\n          jump\t// in\n        tag_126:\n            /* \"#utility.yul\":6275:6394   */\n        tag_125:\n            /* \"#utility.yul\":6461:6462   */\n          0x00\n            /* \"#utility.yul\":6450:6459   */\n          dup4\n            /* \"#utility.yul\":6446:6463   */\n          add\n            /* \"#utility.yul\":6433:6464   */\n          calldataload\n            /* \"#utility.yul\":6491:6509   */\n          0xffffffffffffffff\n            /* \"#utility.yul\":6483:6489   */\n          dup2\n            /* \"#utility.yul\":6480:6510   */\n          gt\n            /* \"#utility.yul\":6477:6594   */\n          iszero\n          tag_127\n          jumpi\n            /* \"#utility.yul\":6513:6592   */\n          tag_128\n          tag_46\n          jump\t// in\n        tag_128:\n            /* \"#utility.yul\":6477:6594   */\n        tag_127:\n            /* \"#utility.yul\":6618:6681   */\n          tag_129\n            /* \"#utility.yul\":6673:6680   */\n          dup6\n            /* \"#utility.yul\":6664:6670   */\n          dup3\n            /* \"#utility.yul\":6653:6662   */\n          dup7\n            /* \"#utility.yul\":6649:6671   */\n          add\n            /* \"#utility.yul\":6618:6681   */\n          tag_56\n          jump\t// in\n        tag_129:\n            /* \"#utility.yul\":6608:6681   */\n          swap3\n          pop\n            /* \"#utility.yul\":6404:6691   */\n          pop\n            /* \"#utility.yul\":6730:6732   */\n          0x20\n            /* \"#utility.yul\":6756:6809   */\n          tag_130\n            /* \"#utility.yul\":6801:6808   */\n          dup6\n            /* \"#utility.yul\":6792:6798   */\n          dup3\n            /* \"#utility.yul\":6781:6790   */\n          dup7\n            /* \"#utility.yul\":6777:6799   */\n          add\n            /* \"#utility.yul\":6756:6809   */\n          tag_58\n          jump\t// in\n        tag_130:\n            /* \"#utility.yul\":6746:6809   */\n          swap2\n          pop\n            /* \"#utility.yul\":6701:6819   */\n          pop\n            /* \"#utility.yul\":6172:6826   */\n          swap3\n          pop\n          swap3\n          swap1\n          pop\n          jump\t// out\n            /* \"#utility.yul\":6832:7054   */\n        tag_28:\n            /* \"#utility.yul\":6925:6929   */\n          0x00\n            /* \"#utility.yul\":6963:6965   */\n          0x20\n            /* \"#utility.yul\":6952:6961   */\n          dup3\n            /* \"#utility.yul\":6948:6966   */\n          add\n            /* \"#utility.yul\":6940:6966   */\n          swap1\n          pop\n            /* \"#utility.yul\":6976:7047   */\n          tag_132\n            /* \"#utility.yul\":7044:7045   */\n          0x00\n            /* \"#utility.yul\":7033:7042   */\n          dup4\n            /* \"#utility.yul\":7029:7046   */\n          add\n            /* \"#utility.yul\":7020:7026   */\n          dup5\n            /* \"#utility.yul\":6976:7047   */\n          tag_36\n          jump\t// in\n        tag_132:\n            /* \"#utility.yul\":6832:7054   */\n          swap3\n          swap2\n          pop\n          pop\n          jump\t// out\n            /* \"#utility.yul\":7060:7159   */\n        tag_59:\n            /* \"#utility.yul\":7112:7118   */\n          0x00\n            /* \"#utility.yul\":7146:7151   */\n          dup2\n            /* \"#utility.yul\":7140:7152   */\n          mload\n            /* \"#utility.yul\":7130:7152   */\n          swap1\n          pop\n            /* \"#utility.yul\":7060:7159   */\n          swap2\n          swap1\n          pop\n          jump\t// out\n            /* \"#utility.yul\":7165:7472   */\n        tag_60:\n            /* \"#utility.yul\":7233:7234   */\n          0x00\n            /* \"#utility.yul\":7243:7356   */\n        tag_135:\n            /* \"#utility.yul\":7257:7263   */\n          dup4\n            /* \"#utility.yul\":7254:7255   */\n          dup2\n            /* \"#utility.yul\":7251:7264   */\n          lt\n            /* \"#utility.yul\":7243:7356   */\n          iszero\n          tag_137\n          jumpi\n            /* \"#utility.yul\":7342:7343   */\n          dup1\n            /* \"#utility.yul\":7337:7340   */\n          dup3\n            /* \"#utility.yul\":7333:7344   */\n          add\n            /* \"#utility.yul\":7327:7345   */\n          mload\n            /* \"#utility.yul\":7323:7324   */\n          dup2\n            /* \"#utility.yul\":7318:7321   */\n          dup5\n            /* \"#utility.yul\":7314:7325   */\n          add\n            /* \"#utility.yul\":7307:7346   */\n          mstore\n            /* \"#utility.yul\":7279:7281   */\n          0x20\n            /* \"#utility.yul\":7276:7277   */\n          dup2\n            /* \"#utility.yul\":7272:7282   */\n          add\n            /* \"#utility.yul\":7267:7282   */\n          swap1\n          pop\n            /* \"#utility.yul\":7243:7356   */\n          jump(tag_135)\n        tag_137:\n            /* \"#utility.yul\":7374:7380   */\n          dup4\n            /* \"#utility.yul\":7371:7372   */\n          dup2\n            /* \"#utility.yul\":7368:7381   */\n          gt\n            /* \"#utility.yul\":7365:7466   */\n          iszero\n          tag_138\n          jumpi\n            /* \"#utility.yul\":7454:7455   */\n          0x00\n            /* \"#utility.yul\":7445:7451   */\n          dup5\n            /* \"#utility.yul\":7440:7443   */\n          dup5\n            /* \"#utility.yul\":7436:7452   */\n          add\n            /* \"#utility.yul\":7429:7456   */\n          mstore\n            /* \"#utility.yul\":7365:7466   */\n        tag_138:\n            /* \"#utility.yul\":7214:7472   */\n          pop\n            /* \"#utility.yul\":7165:7472   */\n          pop\n          pop\n          pop\n          jump\t// out\n            /* \"#utility.yul\":7478:7842   */\n        tag_61:\n            /* \"#utility.yul\":7566:7569   */\n          0x00\n            /* \"#utility.yul\":7594:7633   */\n          tag_140\n            /* \"#utility.yul\":7627:7632   */\n          dup3\n            /* \"#utility.yul\":7594:7633   */\n          tag_59\n          jump\t// in\n        tag_140:\n            /* \"#utility.yul\":7649:7720   */\n          tag_141\n            /* \"#utility.yul\":7713:7719   */\n          dup2\n            /* \"#utility.yul\":7708:7711   */\n          dup6\n            /* \"#utility.yul\":7649:7720   */\n          tag_39\n          jump\t// in\n        tag_141:\n            /* \"#utility.yul\":7642:7720   */\n          swap4\n          pop\n            /* \"#utility.yul\":7729:7781   */\n          tag_142\n            /* \"#utility.yul\":7774:7780   */\n          dup2\n            /* \"#utility.yul\":7769:7772   */\n          dup6\n            /* \"#utility.yul\":7762:7766   */\n          0x20\n            /* \"#utility.yul\":7755:7760   */\n          dup7\n            /* \"#utility.yul\":7751:7767   */\n          add\n            /* \"#utility.yul\":7729:7781   */\n          tag_60\n          jump\t// in\n        tag_142:\n            /* \"#utility.yul\":7806:7835   */\n          tag_143\n            /* \"#utility.yul\":7828:7834   */\n          dup2\n            /* \"#utility.yul\":7806:7835   */\n          tag_49\n          jump\t// in\n        tag_143:\n            /* \"#utility.yul\":7801:7804   */\n          dup5\n            /* \"#utility.yul\":7797:7836   */\n          add\n            /* \"#utility.yul\":7790:7836   */\n          swap2\n          pop\n            /* \"#utility.yul\":7570:7842   */\n          pop\n            /* \"#utility.yul\":7478:7842   */\n          swap3\n          swap2\n          pop\n          pop\n          jump\t// out\n            /* \"#utility.yul\":7848:8381   */\n        tag_32:\n            /* \"#utility.yul\":8017:8021   */\n          0x00\n            /* \"#utility.yul\":8055:8057   */\n          0x60\n            /* \"#utility.yul\":8044:8053   */\n          dup3\n            /* \"#utility.yul\":8040:8058   */\n          add\n            /* \"#utility.yul\":8032:8058   */\n          swap1\n          pop\n            /* \"#utility.yul\":8068:8139   */\n          tag_145\n            /* \"#utility.yul\":8136:8137   */\n          0x00\n            /* \"#utility.yul\":8125:8134   */\n          dup4\n            /* \"#utility.yul\":8121:8138   */\n          add\n            /* \"#utility.yul\":8112:8118   */\n          dup7\n            /* \"#utility.yul\":8068:8139   */\n          tag_36\n          jump\t// in\n        tag_145:\n            /* \"#utility.yul\":8149:8221   */\n          tag_146\n            /* \"#utility.yul\":8217:8219   */\n          0x20\n            /* \"#utility.yul\":8206:8215   */\n          dup4\n            /* \"#utility.yul\":8202:8220   */\n          add\n            /* \"#utility.yul\":8193:8199   */\n          dup6\n            /* \"#utility.yul\":8149:8221   */\n          tag_38\n          jump\t// in\n        tag_146:\n            /* \"#utility.yul\":8268:8277   */\n          dup2\n            /* \"#utility.yul\":8262:8266   */\n          dup2\n            /* \"#utility.yul\":8258:8278   */\n          sub\n            /* \"#utility.yul\":8253:8255   */\n          0x40\n            /* \"#utility.yul\":8242:8251   */\n          dup4\n            /* \"#utility.yul\":8238:8256   */\n          add\n            /* \"#utility.yul\":8231:8279   */\n          mstore\n            /* \"#utility.yul\":8296:8374   */\n          tag_147\n            /* \"#utility.yul\":8369:8373   */\n          dup2\n            /* \"#utility.yul\":8360:8366   */\n          dup5\n            /* \"#utility.yul\":8296:8374   */\n          tag_61\n          jump\t// in\n        tag_147:\n            /* \"#utility.yul\":8288:8374   */\n          swap1\n          pop\n            /* \"#utility.yul\":7848:8381   */\n          swap5\n          swap4\n          pop\n          pop\n          pop\n          pop\n          jump\t// out\n\n        auxdata: 0xa2646970667358221220f90e6a0bbcb237413a8622d7b66ee7efe3cba8353a6df7aa19718a25ca5d41ac64736f6c63430008090033\n    }\n}\n",
				"bytecode": {
					"linkReferences": {},
					"object": "608060405234801561001057600080fd5b5060405161001d9061007e565b604051809103906000f080158015610039573d6000803e3d6000fd5b506000806101000a81548173ffffffffffffffffffffffffffffffffffffffff021916908373ffffffffffffffffffffffffffffffffffffffff16021790555061008b565b61062d8061079f83390190565b6107058061009a6000396000f3fe6080604052600436106100345760003560e01c806312065fe01461003957806338cc48311461006457806359c75ada1461008f575b600080fd5b34801561004557600080fd5b5061004e6100ab565b60405161005b919061034c565b60405180910390f35b34801561007057600080fd5b50610079610151565b60405161008691906103a8565b60405180910390f35b6100a960048036038101906100a49190610432565b6101f7565b005b60008060009054906101000a900473ffffffffffffffffffffffffffffffffffffffff1673ffffffffffffffffffffffffffffffffffffffff166312065fe06040518163ffffffff1660e01b815260040160206040518083038186803b15801561011457600080fd5b505afa158015610128573d6000803e3d6000fd5b505050506040513d601f19601f8201168201806040525081019061014c9190610487565b905090565b60008060009054906101000a900473ffffffffffffffffffffffffffffffffffffffff1673ffffffffffffffffffffffffffffffffffffffff166338cc48316040518163ffffffff1660e01b815260040160206040518083038186803b1580156101ba57600080fd5b505afa1580156101ce573d6000803e3d6000fd5b505050506040513d601f19601f820116820180604052508101906101f291906104e0565b905090565b6000808373ffffffffffffffffffffffffffffffffffffffff163484604051602401610223919061056a565b6040516020818303038152906040527f24ccab8f000000000000000000000000000000000000000000000000000000007bffffffffffffffffffffffffffffffffffffffffffffffffffffffff19166020820180517bffffffffffffffffffffffffffffffffffffffffffffffffffffffff83818316178352505050506040516102ad9190610612565b60006040518083038185875af1925050503d80600081146102ea576040519150601f19603f3d011682016040523d82523d6000602084013e6102ef565b606091505b50915091507fae9f1c04d3efb4ea02fdb04897f173b02323936117490e18194e311c43e36133828260405161032592919061069f565b60405180910390a150505050565b6000819050919050565b61034681610333565b82525050565b6000602082019050610361600083018461033d565b92915050565b600073ffffffffffffffffffffffffffffffffffffffff82169050919050565b600061039282610367565b9050919050565b6103a281610387565b82525050565b60006020820190506103bd6000830184610399565b92915050565b600080fd5b60006103d382610367565b9050919050565b6103e3816103c8565b81146103ee57600080fd5b50565b600081359050610400816103da565b92915050565b61040f81610333565b811461041a57600080fd5b50565b60008135905061042c81610406565b92915050565b60008060408385031215610449576104486103c3565b5b6000610457858286016103f1565b92505060206104688582860161041d565b9150509250929050565b60008151905061048181610406565b92915050565b60006020828403121561049d5761049c6103c3565b5b60006104ab84828501610472565b91505092915050565b6104bd81610387565b81146104c857600080fd5b50565b6000815190506104da816104b4565b92915050565b6000602082840312156104f6576104f56103c3565b5b6000610504848285016104cb565b91505092915050565b600082825260208201905092915050565b7f63616c6c20666f6f000000000000000000000000000000000000000000000000600082015250565b600061055460088361050d565b915061055f8261051e565b602082019050919050565b6000604082019050818103600083015261058381610547565b9050610592602083018461033d565b92915050565b600081519050919050565b600081905092915050565b60005b838110156105cc5780820151818401526020810190506105b1565b838111156105db576000848401525b50505050565b60006105ec82610598565b6105f681856105a3565b93506106068185602086016105ae565b80840191505092915050565b600061061e82846105e1565b915081905092915050565b60008115159050919050565b61063e81610629565b82525050565b600082825260208201905092915050565b6000601f19601f8301169050919050565b600061067182610598565b61067b8185610644565b935061068b8185602086016105ae565b61069481610655565b840191505092915050565b60006040820190506106b46000830185610635565b81810360208301526106c68184610666565b9050939250505056fea2646970667358221220dbcfafcbd9f5ab5322d72d1fef175e4893d71c79852d2cc92b29eea6215b89ce64736f6c63430008090033608060405234801561001057600080fd5b5061060d806100206000396000f3fe6080604052600436106100385760003560e01c806312065fe0146100b357806324ccab8f146100de57806338cc48311461010e57610078565b36610078577f59e04c3f0d44b7caf6e8ef854b61d9a51cf1960d7a88ff6356cc5e946b4b5832333460405161006e929190610246565b60405180910390a1005b7f59e04c3f0d44b7caf6e8ef854b61d9a51cf1960d7a88ff6356cc5e946b4b583233346040516100a99291906102ce565b60405180910390a1005b3480156100bf57600080fd5b506100c8610139565b6040516100d5919061030a565b60405180910390f35b6100f860048036038101906100f391906104ab565b610141565b604051610105919061030a565b60405180910390f35b34801561011a57600080fd5b50610123610187565b6040516101309190610507565b60405180910390f35b600047905090565b60007f59e04c3f0d44b7caf6e8ef854b61d9a51cf1960d7a88ff6356cc5e946b4b583233348560405161017693929190610599565b60405180910390a181905092915050565b600030905090565b600073ffffffffffffffffffffffffffffffffffffffff82169050919050565b60006101ba8261018f565b9050919050565b6101ca816101af565b82525050565b6000819050919050565b6101e3816101d0565b82525050565b600082825260208201905092915050565b7f72656365697665207761732063616c6c65640000000000000000000000000000600082015250565b60006102306012836101e9565b915061023b826101fa565b602082019050919050565b600060608201905061025b60008301856101c1565b61026860208301846101da565b818103604083015261027981610223565b90509392505050565b7f66616c6c6261636b207761732063616c6c656400000000000000000000000000600082015250565b60006102b86013836101e9565b91506102c382610282565b602082019050919050565b60006060820190506102e360008301856101c1565b6102f060208301846101da565b8181036040830152610301816102ab565b90509392505050565b600060208201905061031f60008301846101da565b92915050565b6000604051905090565b600080fd5b600080fd5b600080fd5b600080fd5b6000601f19601f8301169050919050565b7f4e487b7100000000000000000000000000000000000000000000000000000000600052604160045260246000fd5b61038c82610343565b810181811067ffffffffffffffff821117156103ab576103aa610354565b5b80604052505050565b60006103be610325565b90506103ca8282610383565b919050565b600067ffffffffffffffff8211156103ea576103e9610354565b5b6103f382610343565b9050602081019050919050565b82818337600083830152505050565b600061042261041d846103cf565b6103b4565b90508281526020810184848401111561043e5761043d61033e565b5b610449848285610400565b509392505050565b600082601f83011261046657610465610339565b5b813561047684826020860161040f565b91505092915050565b610488816101d0565b811461049357600080fd5b50565b6000813590506104a58161047f565b92915050565b600080604083850312156104c2576104c161032f565b5b600083013567ffffffffffffffff8111156104e0576104df610334565b5b6104ec85828601610451565b92505060206104fd85828601610496565b9150509250929050565b600060208201905061051c60008301846101c1565b92915050565b600081519050919050565b60005b8381101561054b578082015181840152602081019050610530565b8381111561055a576000848401525b50505050565b600061056b82610522565b61057581856101e9565b935061058581856020860161052d565b61058e81610343565b840191505092915050565b60006060820190506105ae60008301866101c1565b6105bb60208301856101da565b81810360408301526105cd8184610560565b905094935050505056fea2646970667358221220f90e6a0bbcb237413a8622d7b66ee7efe3cba8353a6df7aa19718a25ca5d41ac64736f6c63430008090033",
					"opcodes": "PUSH1 0x80 PUSH1 0x40 MSTORE CALLVALUE DUP1 ISZERO PUSH2 0x10 JUMPI PUSH1 0x0 DUP1 REVERT JUMPDEST POP PUSH1 0x40 MLOAD PUSH2 0x1D SWAP1 PUSH2 0x7E JUMP JUMPDEST PUSH1 0x40 MLOAD DUP1 SWAP2 SUB SWAP1 PUSH1 0x0 CREATE DUP1 ISZERO DUP1 ISZERO PUSH2 0x39 JUMPI RETURNDATASIZE PUSH1 0x0 DUP1 RETURNDATACOPY RETURNDATASIZE PUSH1 0x0 REVERT JUMPDEST POP PUSH1 0x0 DUP1 PUSH2 0x100 EXP DUP2 SLOAD DUP2 PUSH20 0xFFFFFFFFFFFFFFFFFFFFFFFFFFFFFFFFFFFFFFFF MUL NOT AND SWAP1 DUP4 PUSH20 0xFFFFFFFFFFFFFFFFFFFFFFFFFFFFFFFFFFFFFFFF AND MUL OR SWAP1 SSTORE POP PUSH2 0x8B JUMP JUMPDEST PUSH2 0x62D DUP1 PUSH2 0x79F DUP4 CODECOPY ADD SWAP1 JUMP JUMPDEST PUSH2 0x705 DUP1 PUSH2 0x9A PUSH1 0x0 CODECOPY PUSH1 0x0 RETURN INVALID PUSH1 0x80 PUSH1 0x40 MSTORE PUSH1 0x4 CALLDATASIZE LT PUSH2 0x34 JUMPI PUSH1 0x0 CALLDATALOAD PUSH1 0xE0 SHR DUP1 PUSH4 0x12065FE0 EQ PUSH2 0x39 JUMPI DUP1 PUSH4 0x38CC4831 EQ PUSH2 0x64 JUMPI DUP1 PUSH4 0x59C75ADA EQ PUSH2 0x8F JUMPI JUMPDEST PUSH1 0x0 DUP1 REVERT JUMPDEST CALLVALUE DUP1 ISZERO PUSH2 0x45 JUMPI PUSH1 0x0 DUP1 REVERT JUMPDEST POP PUSH2 0x4E PUSH2 0xAB JUMP JUMPDEST PUSH1 0x40 MLOAD PUSH2 0x5B SWAP2 SWAP1 PUSH2 0x34C JUMP JUMPDEST PUSH1 0x40 MLOAD DUP1 SWAP2 SUB SWAP1 RETURN JUMPDEST CALLVALUE DUP1 ISZERO PUSH2 0x70 JUMPI PUSH1 0x0 DUP1 REVERT JUMPDEST POP PUSH2 0x79 PUSH2 0x151 JUMP JUMPDEST PUSH1 0x40 MLOAD PUSH2 0x86 SWAP2 SWAP1 PUSH2 0x3A8 JUMP JUMPDEST PUSH1 0x40 MLOAD DUP1 SWAP2 SUB SWAP1 RETURN JUMPDEST PUSH2 0xA9 PUSH1 0x4 DUP1 CALLDATASIZE SUB DUP2 ADD SWAP1 PUSH2 0xA4 SWAP2 SWAP1 PUSH2 0x432 JUMP JUMPDEST PUSH2 0x1F7 JUMP JUMPDEST STOP JUMPDEST PUSH1 0x0 DUP1 PUSH1 0x0 SWAP1 SLOAD SWAP1 PUSH2 0x100 EXP SWAP1 DIV PUSH20 0xFFFFFFFFFFFFFFFFFFFFFFFFFFFFFFFFFFFFFFFF AND PUSH20 0xFFFFFFFFFFFFFFFFFFFFFFFFFFFFFFFFFFFFFFFF AND PUSH4 0x12065FE0 PUSH1 0x40 MLOAD DUP2 PUSH4 0xFFFFFFFF AND PUSH1 0xE0 SHL DUP2 MSTORE PUSH1 0x4 ADD PUSH1 0x20 PUSH1 0x40 MLOAD DUP1 DUP4 SUB DUP2 DUP7 DUP1 EXTCODESIZE ISZERO DUP1 ISZERO PUSH2 0x114 JUMPI PUSH1 0x0 DUP1 REVERT JUMPDEST POP GAS STATICCALL ISZERO DUP1 ISZERO PUSH2 0x128 JUMPI RETURNDATASIZE PUSH1 0x0 DUP1 RETURNDATACOPY RETURNDATASIZE PUSH1 0x0 REVERT JUMPDEST POP POP POP POP PUSH1 0x40 MLOAD RETURNDATASIZE PUSH1 0x1F NOT PUSH1 0x1F DUP3 ADD AND DUP3 ADD DUP1 PUSH1 0x40 MSTORE POP DUP2 ADD SWAP1 PUSH2 0x14C SWAP2 SWAP1 PUSH2 0x487 JUMP JUMPDEST SWAP1 POP SWAP1 JUMP JUMPDEST PUSH1 0x0 DUP1 PUSH1 0x0 SWAP1 SLOAD SWAP1 PUSH2 0x100 EXP SWAP1 DIV PUSH20 0xFFFFFFFFFFFFFFFFFFFFFFFFFFFFFFFFFFFFFFFF AND PUSH20 0xFFFFFFFFFFFFFFFFFFFFFFFFFFFFFFFFFFFFFFFF AND PUSH4 0x38CC4831 PUSH1 0x40 MLOAD DUP2 PUSH4 0xFFFFFFFF AND PUSH1 0xE0 SHL DUP2 MSTORE PUSH1 0x4 ADD PUSH1 0x20 PUSH1 0x40 MLOAD DUP1 DUP4 SUB DUP2 DUP7 DUP1 EXTCODESIZE ISZERO DUP1 ISZERO PUSH2 0x1BA JUMPI PUSH1 0x0 DUP1 REVERT JUMPDEST POP GAS STATICCALL ISZERO DUP1 ISZERO PUSH2 0x1CE JUMPI RETURNDATASIZE PUSH1 0x0 DUP1 RETURNDATACOPY RETURNDATASIZE PUSH1 0x0 REVERT JUMPDEST POP POP POP POP PUSH1 0x40 MLOAD RETURNDATASIZE PUSH1 0x1F NOT PUSH1 0x1F DUP3 ADD AND DUP3 ADD DUP1 PUSH1 0x40 MSTORE POP DUP2 ADD SWAP1 PUSH2 0x1F2 SWAP2 SWAP1 PUSH2 0x4E0 JUMP JUMPDEST SWAP1 POP SWAP1 JUMP JUMPDEST PUSH1 0x0 DUP1 DUP4 PUSH20 0xFFFFFFFFFFFFFFFFFFFFFFFFFFFFFFFFFFFFFFFF AND CALLVALUE DUP5 PUSH1 0x40 MLOAD PUSH1 0x24 ADD PUSH2 0x223 SWAP2 SWAP1 PUSH2 0x56A JUMP JUMPDEST PUSH1 0x40 MLOAD PUSH1 0x20 DUP2 DUP4 SUB SUB DUP2 MSTORE SWAP1 PUSH1 0x40 MSTORE PUSH32 0x24CCAB8F00000000000000000000000000000000000000000000000000000000 PUSH28 0xFFFFFFFFFFFFFFFFFFFFFFFFFFFFFFFFFFFFFFFFFFFFFFFFFFFFFFFF NOT AND PUSH1 0x20 DUP3 ADD DUP1 MLOAD PUSH28 0xFFFFFFFFFFFFFFFFFFFFFFFFFFFFFFFFFFFFFFFFFFFFFFFFFFFFFFFF DUP4 DUP2 DUP4 AND OR DUP4 MSTORE POP POP POP POP PUSH1 0x40 MLOAD PUSH2 0x2AD SWAP2 SWAP1 PUSH2 0x612 JUMP JUMPDEST PUSH1 0x0 PUSH1 0x40 MLOAD DUP1 DUP4 SUB DUP2 DUP6 DUP8 GAS CALL SWAP3 POP POP POP RETURNDATASIZE DUP1 PUSH1 0x0 DUP2 EQ PUSH2 0x2EA JUMPI PUSH1 0x40 MLOAD SWAP2 POP PUSH1 0x1F NOT PUSH1 0x3F RETURNDATASIZE ADD AND DUP3 ADD PUSH1 0x40 MSTORE RETURNDATASIZE DUP3 MSTORE RETURNDATASIZE PUSH1 0x0 PUSH1 0x20 DUP5 ADD RETURNDATACOPY PUSH2 0x2EF JUMP JUMPDEST PUSH1 0x60 SWAP2 POP JUMPDEST POP SWAP2 POP SWAP2 POP PUSH32 0xAE9F1C04D3EFB4EA02FDB04897F173B02323936117490E18194E311C43E36133 DUP3 DUP3 PUSH1 0x40 MLOAD PUSH2 0x325 SWAP3 SWAP2 SWAP1 PUSH2 0x69F JUMP JUMPDEST PUSH1 0x40 MLOAD DUP1 SWAP2 SUB SWAP1 LOG1 POP POP POP POP JUMP JUMPDEST PUSH1 0x0 DUP2 SWAP1 POP SWAP2 SWAP1 POP JUMP JUMPDEST PUSH2 0x346 DUP2 PUSH2 0x333 JUMP JUMPDEST DUP3 MSTORE POP POP JUMP JUMPDEST PUSH1 0x0 PUSH1 0x20 DUP3 ADD SWAP1 POP PUSH2 0x361 PUSH1 0x0 DUP4 ADD DUP5 PUSH2 0x33D JUMP JUMPDEST SWAP3 SWAP2 POP POP JUMP JUMPDEST PUSH1 0x0 PUSH20 0xFFFFFFFFFFFFFFFFFFFFFFFFFFFFFFFFFFFFFFFF DUP3 AND SWAP1 POP SWAP2 SWAP1 POP JUMP JUMPDEST PUSH1 0x0 PUSH2 0x392 DUP3 PUSH2 0x367 JUMP JUMPDEST SWAP1 POP SWAP2 SWAP1 POP JUMP JUMPDEST PUSH2 0x3A2 DUP2 PUSH2 0x387 JUMP JUMPDEST DUP3 MSTORE POP POP JUMP JUMPDEST PUSH1 0x0 PUSH1 0x20 DUP3 ADD SWAP1 POP PUSH2 0x3BD PUSH1 0x0 DUP4 ADD DUP5 PUSH2 0x399 JUMP JUMPDEST SWAP3 SWAP2 POP POP JUMP JUMPDEST PUSH1 0x0 DUP1 REVERT JUMPDEST PUSH1 0x0 PUSH2 0x3D3 DUP3 PUSH2 0x367 JUMP JUMPDEST SWAP1 POP SWAP2 SWAP1 POP JUMP JUMPDEST PUSH2 0x3E3 DUP2 PUSH2 0x3C8 JUMP JUMPDEST DUP2 EQ PUSH2 0x3EE JUMPI PUSH1 0x0 DUP1 REVERT JUMPDEST POP JUMP JUMPDEST PUSH1 0x0 DUP2 CALLDATALOAD SWAP1 POP PUSH2 0x400 DUP2 PUSH2 0x3DA JUMP JUMPDEST SWAP3 SWAP2 POP POP JUMP JUMPDEST PUSH2 0x40F DUP2 PUSH2 0x333 JUMP JUMPDEST DUP2 EQ PUSH2 0x41A JUMPI PUSH1 0x0 DUP1 REVERT JUMPDEST POP JUMP JUMPDEST PUSH1 0x0 DUP2 CALLDATALOAD SWAP1 POP PUSH2 0x42C DUP2 PUSH2 0x406 JUMP JUMPDEST SWAP3 SWAP2 POP POP JUMP JUMPDEST PUSH1 0x0 DUP1 PUSH1 0x40 DUP4 DUP6 SUB SLT ISZERO PUSH2 0x449 JUMPI PUSH2 0x448 PUSH2 0x3C3 JUMP JUMPDEST JUMPDEST PUSH1 0x0 PUSH2 0x457 DUP6 DUP3 DUP7 ADD PUSH2 0x3F1 JUMP JUMPDEST SWAP3 POP POP PUSH1 0x20 PUSH2 0x468 DUP6 DUP3 DUP7 ADD PUSH2 0x41D JUMP JUMPDEST SWAP2 POP POP SWAP3 POP SWAP3 SWAP1 POP JUMP JUMPDEST PUSH1 0x0 DUP2 MLOAD SWAP1 POP PUSH2 0x481 DUP2 PUSH2 0x406 JUMP JUMPDEST SWAP3 SWAP2 POP POP JUMP JUMPDEST PUSH1 0x0 PUSH1 0x20 DUP3 DUP5 SUB SLT ISZERO PUSH2 0x49D JUMPI PUSH2 0x49C PUSH2 0x3C3 JUMP JUMPDEST JUMPDEST PUSH1 0x0 PUSH2 0x4AB DUP5 DUP3 DUP6 ADD PUSH2 0x472 JUMP JUMPDEST SWAP2 POP POP SWAP3 SWAP2 POP POP JUMP JUMPDEST PUSH2 0x4BD DUP2 PUSH2 0x387 JUMP JUMPDEST DUP2 EQ PUSH2 0x4C8 JUMPI PUSH1 0x0 DUP1 REVERT JUMPDEST POP JUMP JUMPDEST PUSH1 0x0 DUP2 MLOAD SWAP1 POP PUSH2 0x4DA DUP2 PUSH2 0x4B4 JUMP JUMPDEST SWAP3 SWAP2 POP POP JUMP JUMPDEST PUSH1 0x0 PUSH1 0x20 DUP3 DUP5 SUB SLT ISZERO PUSH2 0x4F6 JUMPI PUSH2 0x4F5 PUSH2 0x3C3 JUMP JUMPDEST JUMPDEST PUSH1 0x0 PUSH2 0x504 DUP5 DUP3 DUP6 ADD PUSH2 0x4CB JUMP JUMPDEST SWAP2 POP POP SWAP3 SWAP2 POP POP JUMP JUMPDEST PUSH1 0x0 DUP3 DUP3 MSTORE PUSH1 0x20 DUP3 ADD SWAP1 POP SWAP3 SWAP2 POP POP JUMP JUMPDEST PUSH32 0x63616C6C20666F6F000000000000000000000000000000000000000000000000 PUSH1 0x0 DUP3 ADD MSTORE POP JUMP JUMPDEST PUSH1 0x0 PUSH2 0x554 PUSH1 0x8 DUP4 PUSH2 0x50D JUMP JUMPDEST SWAP2 POP PUSH2 0x55F DUP3 PUSH2 0x51E JUMP JUMPDEST PUSH1 0x20 DUP3 ADD SWAP1 POP SWAP2 SWAP1 POP JUMP JUMPDEST PUSH1 0x0 PUSH1 0x40 DUP3 ADD SWAP1 POP DUP2 DUP2 SUB PUSH1 0x0 DUP4 ADD MSTORE PUSH2 0x583 DUP2 PUSH2 0x547 JUMP JUMPDEST SWAP1 POP PUSH2 0x592 PUSH1 0x20 DUP4 ADD DUP5 PUSH2 0x33D JUMP JUMPDEST SWAP3 SWAP2 POP POP JUMP JUMPDEST PUSH1 0x0 DUP2 MLOAD SWAP1 POP SWAP2 SWAP1 POP JUMP JUMPDEST PUSH1 0x0 DUP2 SWAP1 POP SWAP3 SWAP2 POP POP JUMP JUMPDEST PUSH1 0x0 JUMPDEST DUP4 DUP2 LT ISZERO PUSH2 0x5CC JUMPI DUP1 DUP3 ADD MLOAD DUP2 DUP5 ADD MSTORE PUSH1 0x20 DUP2 ADD SWAP1 POP PUSH2 0x5B1 JUMP JUMPDEST DUP4 DUP2 GT ISZERO PUSH2 0x5DB JUMPI PUSH1 0x0 DUP5 DUP5 ADD MSTORE JUMPDEST POP POP POP POP JUMP JUMPDEST PUSH1 0x0 PUSH2 0x5EC DUP3 PUSH2 0x598 JUMP JUMPDEST PUSH2 0x5F6 DUP2 DUP6 PUSH2 0x5A3 JUMP JUMPDEST SWAP4 POP PUSH2 0x606 DUP2 DUP6 PUSH1 0x20 DUP7 ADD PUSH2 0x5AE JUMP JUMPDEST DUP1 DUP5 ADD SWAP2 POP POP SWAP3 SWAP2 POP POP JUMP JUMPDEST PUSH1 0x0 PUSH2 0x61E DUP3 DUP5 PUSH2 0x5E1 JUMP JUMPDEST SWAP2 POP DUP2 SWAP1 POP SWAP3 SWAP2 POP POP JUMP JUMPDEST PUSH1 0x0 DUP2 ISZERO ISZERO SWAP1 POP SWAP2 SWAP1 POP JUMP JUMPDEST PUSH2 0x63E DUP2 PUSH2 0x629 JUMP JUMPDEST DUP3 MSTORE POP POP JUMP JUMPDEST PUSH1 0x0 DUP3 DUP3 MSTORE PUSH1 0x20 DUP3 ADD SWAP1 POP SWAP3 SWAP2 POP POP JUMP JUMPDEST PUSH1 0x0 PUSH1 0x1F NOT PUSH1 0x1F DUP4 ADD AND SWAP1 POP SWAP2 SWAP1 POP JUMP JUMPDEST PUSH1 0x0 PUSH2 0x671 DUP3 PUSH2 0x598 JUMP JUMPDEST PUSH2 0x67B DUP2 DUP6 PUSH2 0x644 JUMP JUMPDEST SWAP4 POP PUSH2 0x68B DUP2 DUP6 PUSH1 0x20 DUP7 ADD PUSH2 0x5AE JUMP JUMPDEST PUSH2 0x694 DUP2 PUSH2 0x655 JUMP JUMPDEST DUP5 ADD SWAP2 POP POP SWAP3 SWAP2 POP POP JUMP JUMPDEST PUSH1 0x0 PUSH1 0x40 DUP3 ADD SWAP1 POP PUSH2 0x6B4 PUSH1 0x0 DUP4 ADD DUP6 PUSH2 0x635 JUMP JUMPDEST DUP2 DUP2 SUB PUSH1 0x20 DUP4 ADD MSTORE PUSH2 0x6C6 DUP2 DUP5 PUSH2 0x666 JUMP JUMPDEST SWAP1 POP SWAP4 SWAP3 POP POP POP JUMP INVALID LOG2 PUSH5 0x6970667358 0x22 SLT KECCAK256 0xDB 0xCF 0xAF 0xCB 0xD9 CREATE2 0xAB MSTORE8 0x22 0xD7 0x2D 0x1F 0xEF OR 0x5E BASEFEE SWAP4 0xD7 SHR PUSH26 0x852D2CC92B29EEA6215B89CE64736F6C63430008090033608060 BLOCKHASH MSTORE CALLVALUE DUP1 ISZERO PUSH2 0x10 JUMPI PUSH1 0x0 DUP1 REVERT JUMPDEST POP PUSH2 0x60D DUP1 PUSH2 0x20 PUSH1 0x0 CODECOPY PUSH1 0x0 RETURN INVALID PUSH1 0x80 PUSH1 0x40 MSTORE PUSH1 0x4 CALLDATASIZE LT PUSH2 0x38 JUMPI PUSH1 0x0 CALLDATALOAD PUSH1 0xE0 SHR DUP1 PUSH4 0x12065FE0 EQ PUSH2 0xB3 JUMPI DUP1 PUSH4 0x24CCAB8F EQ PUSH2 0xDE JUMPI DUP1 PUSH4 0x38CC4831 EQ PUSH2 0x10E JUMPI PUSH2 0x78 JUMP JUMPDEST CALLDATASIZE PUSH2 0x78 JUMPI PUSH32 0x59E04C3F0D44B7CAF6E8EF854B61D9A51CF1960D7A88FF6356CC5E946B4B5832 CALLER CALLVALUE PUSH1 0x40 MLOAD PUSH2 0x6E SWAP3 SWAP2 SWAP1 PUSH2 0x246 JUMP JUMPDEST PUSH1 0x40 MLOAD DUP1 SWAP2 SUB SWAP1 LOG1 STOP JUMPDEST PUSH32 0x59E04C3F0D44B7CAF6E8EF854B61D9A51CF1960D7A88FF6356CC5E946B4B5832 CALLER CALLVALUE PUSH1 0x40 MLOAD PUSH2 0xA9 SWAP3 SWAP2 SWAP1 PUSH2 0x2CE JUMP JUMPDEST PUSH1 0x40 MLOAD DUP1 SWAP2 SUB SWAP1 LOG1 STOP JUMPDEST CALLVALUE DUP1 ISZERO PUSH2 0xBF JUMPI PUSH1 0x0 DUP1 REVERT JUMPDEST POP PUSH2 0xC8 PUSH2 0x139 JUMP JUMPDEST PUSH1 0x40 MLOAD PUSH2 0xD5 SWAP2 SWAP1 PUSH2 0x30A JUMP JUMPDEST PUSH1 0x40 MLOAD DUP1 SWAP2 SUB SWAP1 RETURN JUMPDEST PUSH2 0xF8 PUSH1 0x4 DUP1 CALLDATASIZE SUB DUP2 ADD SWAP1 PUSH2 0xF3 SWAP2 SWAP1 PUSH2 0x4AB JUMP JUMPDEST PUSH2 0x141 JUMP JUMPDEST PUSH1 0x40 MLOAD PUSH2 0x105 SWAP2 SWAP1 PUSH2 0x30A JUMP JUMPDEST PUSH1 0x40 MLOAD DUP1 SWAP2 SUB SWAP1 RETURN JUMPDEST CALLVALUE DUP1 ISZERO PUSH2 0x11A JUMPI PUSH1 0x0 DUP1 REVERT JUMPDEST POP PUSH2 0x123 PUSH2 0x187 JUMP JUMPDEST PUSH1 0x40 MLOAD PUSH2 0x130 SWAP2 SWAP1 PUSH2 0x507 JUMP JUMPDEST PUSH1 0x40 MLOAD DUP1 SWAP2 SUB SWAP1 RETURN JUMPDEST PUSH1 0x0 SELFBALANCE SWAP1 POP SWAP1 JUMP JUMPDEST PUSH1 0x0 PUSH32 0x59E04C3F0D44B7CAF6E8EF854B61D9A51CF1960D7A88FF6356CC5E946B4B5832 CALLER CALLVALUE DUP6 PUSH1 0x40 MLOAD PUSH2 0x176 SWAP4 SWAP3 SWAP2 SWAP1 PUSH2 0x599 JUMP JUMPDEST PUSH1 0x40 MLOAD DUP1 SWAP2 SUB SWAP1 LOG1 DUP2 SWAP1 POP SWAP3 SWAP2 POP POP JUMP JUMPDEST PUSH1 0x0 ADDRESS SWAP1 POP SWAP1 JUMP JUMPDEST PUSH1 0x0 PUSH20 0xFFFFFFFFFFFFFFFFFFFFFFFFFFFFFFFFFFFFFFFF DUP3 AND SWAP1 POP SWAP2 SWAP1 POP JUMP JUMPDEST PUSH1 0x0 PUSH2 0x1BA DUP3 PUSH2 0x18F JUMP JUMPDEST SWAP1 POP SWAP2 SWAP1 POP JUMP JUMPDEST PUSH2 0x1CA DUP2 PUSH2 0x1AF JUMP JUMPDEST DUP3 MSTORE POP POP JUMP JUMPDEST PUSH1 0x0 DUP2 SWAP1 POP SWAP2 SWAP1 POP JUMP JUMPDEST PUSH2 0x1E3 DUP2 PUSH2 0x1D0 JUMP JUMPDEST DUP3 MSTORE POP POP JUMP JUMPDEST PUSH1 0x0 DUP3 DUP3 MSTORE PUSH1 0x20 DUP3 ADD SWAP1 POP SWAP3 SWAP2 POP POP JUMP JUMPDEST PUSH32 0x72656365697665207761732063616C6C65640000000000000000000000000000 PUSH1 0x0 DUP3 ADD MSTORE POP JUMP JUMPDEST PUSH1 0x0 PUSH2 0x230 PUSH1 0x12 DUP4 PUSH2 0x1E9 JUMP JUMPDEST SWAP2 POP PUSH2 0x23B DUP3 PUSH2 0x1FA JUMP JUMPDEST PUSH1 0x20 DUP3 ADD SWAP1 POP SWAP2 SWAP1 POP JUMP JUMPDEST PUSH1 0x0 PUSH1 0x60 DUP3 ADD SWAP1 POP PUSH2 0x25B PUSH1 0x0 DUP4 ADD DUP6 PUSH2 0x1C1 JUMP JUMPDEST PUSH2 0x268 PUSH1 0x20 DUP4 ADD DUP5 PUSH2 0x1DA JUMP JUMPDEST DUP2 DUP2 SUB PUSH1 0x40 DUP4 ADD MSTORE PUSH2 0x279 DUP2 PUSH2 0x223 JUMP JUMPDEST SWAP1 POP SWAP4 SWAP3 POP POP POP JUMP JUMPDEST PUSH32 0x66616C6C6261636B207761732063616C6C656400000000000000000000000000 PUSH1 0x0 DUP3 ADD MSTORE POP JUMP JUMPDEST PUSH1 0x0 PUSH2 0x2B8 PUSH1 0x13 DUP4 PUSH2 0x1E9 JUMP JUMPDEST SWAP2 POP PUSH2 0x2C3 DUP3 PUSH2 0x282 JUMP JUMPDEST PUSH1 0x20 DUP3 ADD SWAP1 POP SWAP2 SWAP1 POP JUMP JUMPDEST PUSH1 0x0 PUSH1 0x60 DUP3 ADD SWAP1 POP PUSH2 0x2E3 PUSH1 0x0 DUP4 ADD DUP6 PUSH2 0x1C1 JUMP JUMPDEST PUSH2 0x2F0 PUSH1 0x20 DUP4 ADD DUP5 PUSH2 0x1DA JUMP JUMPDEST DUP2 DUP2 SUB PUSH1 0x40 DUP4 ADD MSTORE PUSH2 0x301 DUP2 PUSH2 0x2AB JUMP JUMPDEST SWAP1 POP SWAP4 SWAP3 POP POP POP JUMP JUMPDEST PUSH1 0x0 PUSH1 0x20 DUP3 ADD SWAP1 POP PUSH2 0x31F PUSH1 0x0 DUP4 ADD DUP5 PUSH2 0x1DA JUMP JUMPDEST SWAP3 SWAP2 POP POP JUMP JUMPDEST PUSH1 0x0 PUSH1 0x40 MLOAD SWAP1 POP SWAP1 JUMP JUMPDEST PUSH1 0x0 DUP1 REVERT JUMPDEST PUSH1 0x0 DUP1 REVERT JUMPDEST PUSH1 0x0 DUP1 REVERT JUMPDEST PUSH1 0x0 DUP1 REVERT JUMPDEST PUSH1 0x0 PUSH1 0x1F NOT PUSH1 0x1F DUP4 ADD AND SWAP1 POP SWAP2 SWAP1 POP JUMP JUMPDEST PUSH32 0x4E487B7100000000000000000000000000000000000000000000000000000000 PUSH1 0x0 MSTORE PUSH1 0x41 PUSH1 0x4 MSTORE PUSH1 0x24 PUSH1 0x0 REVERT JUMPDEST PUSH2 0x38C DUP3 PUSH2 0x343 JUMP JUMPDEST DUP2 ADD DUP2 DUP2 LT PUSH8 0xFFFFFFFFFFFFFFFF DUP3 GT OR ISZERO PUSH2 0x3AB JUMPI PUSH2 0x3AA PUSH2 0x354 JUMP JUMPDEST JUMPDEST DUP1 PUSH1 0x40 MSTORE POP POP POP JUMP JUMPDEST PUSH1 0x0 PUSH2 0x3BE PUSH2 0x325 JUMP JUMPDEST SWAP1 POP PUSH2 0x3CA DUP3 DUP3 PUSH2 0x383 JUMP JUMPDEST SWAP2 SWAP1 POP JUMP JUMPDEST PUSH1 0x0 PUSH8 0xFFFFFFFFFFFFFFFF DUP3 GT ISZERO PUSH2 0x3EA JUMPI PUSH2 0x3E9 PUSH2 0x354 JUMP JUMPDEST JUMPDEST PUSH2 0x3F3 DUP3 PUSH2 0x343 JUMP JUMPDEST SWAP1 POP PUSH1 0x20 DUP2 ADD SWAP1 POP SWAP2 SWAP1 POP JUMP JUMPDEST DUP3 DUP2 DUP4 CALLDATACOPY PUSH1 0x0 DUP4 DUP4 ADD MSTORE POP POP POP JUMP JUMPDEST PUSH1 0x0 PUSH2 0x422 PUSH2 0x41D DUP5 PUSH2 0x3CF JUMP JUMPDEST PUSH2 0x3B4 JUMP JUMPDEST SWAP1 POP DUP3 DUP2 MSTORE PUSH1 0x20 DUP2 ADD DUP5 DUP5 DUP5 ADD GT ISZERO PUSH2 0x43E JUMPI PUSH2 0x43D PUSH2 0x33E JUMP JUMPDEST JUMPDEST PUSH2 0x449 DUP5 DUP3 DUP6 PUSH2 0x400 JUMP JUMPDEST POP SWAP4 SWAP3 POP POP POP JUMP JUMPDEST PUSH1 0x0 DUP3 PUSH1 0x1F DUP4 ADD SLT PUSH2 0x466 JUMPI PUSH2 0x465 PUSH2 0x339 JUMP JUMPDEST JUMPDEST DUP2 CALLDATALOAD PUSH2 0x476 DUP5 DUP3 PUSH1 0x20 DUP7 ADD PUSH2 0x40F JUMP JUMPDEST SWAP2 POP POP SWAP3 SWAP2 POP POP JUMP JUMPDEST PUSH2 0x488 DUP2 PUSH2 0x1D0 JUMP JUMPDEST DUP2 EQ PUSH2 0x493 JUMPI PUSH1 0x0 DUP1 REVERT JUMPDEST POP JUMP JUMPDEST PUSH1 0x0 DUP2 CALLDATALOAD SWAP1 POP PUSH2 0x4A5 DUP2 PUSH2 0x47F JUMP JUMPDEST SWAP3 SWAP2 POP POP JUMP JUMPDEST PUSH1 0x0 DUP1 PUSH1 0x40 DUP4 DUP6 SUB SLT ISZERO PUSH2 0x4C2 JUMPI PUSH2 0x4C1 PUSH2 0x32F JUMP JUMPDEST JUMPDEST PUSH1 0x0 DUP4 ADD CALLDATALOAD PUSH8 0xFFFFFFFFFFFFFFFF DUP2 GT ISZERO PUSH2 0x4E0 JUMPI PUSH2 0x4DF PUSH2 0x334 JUMP JUMPDEST JUMPDEST PUSH2 0x4EC DUP6 DUP3 DUP7 ADD PUSH2 0x451 JUMP JUMPDEST SWAP3 POP POP PUSH1 0x20 PUSH2 0x4FD DUP6 DUP3 DUP7 ADD PUSH2 0x496 JUMP JUMPDEST SWAP2 POP POP SWAP3 POP SWAP3 SWAP1 POP JUMP JUMPDEST PUSH1 0x0 PUSH1 0x20 DUP3 ADD SWAP1 POP PUSH2 0x51C PUSH1 0x0 DUP4 ADD DUP5 PUSH2 0x1C1 JUMP JUMPDEST SWAP3 SWAP2 POP POP JUMP JUMPDEST PUSH1 0x0 DUP2 MLOAD SWAP1 POP SWAP2 SWAP1 POP JUMP JUMPDEST PUSH1 0x0 JUMPDEST DUP4 DUP2 LT ISZERO PUSH2 0x54B JUMPI DUP1 DUP3 ADD MLOAD DUP2 DUP5 ADD MSTORE PUSH1 0x20 DUP2 ADD SWAP1 POP PUSH2 0x530 JUMP JUMPDEST DUP4 DUP2 GT ISZERO PUSH2 0x55A JUMPI PUSH1 0x0 DUP5 DUP5 ADD MSTORE JUMPDEST POP POP POP POP JUMP JUMPDEST PUSH1 0x0 PUSH2 0x56B DUP3 PUSH2 0x522 JUMP JUMPDEST PUSH2 0x575 DUP2 DUP6 PUSH2 0x1E9 JUMP JUMPDEST SWAP4 POP PUSH2 0x585 DUP2 DUP6 PUSH1 0x20 DUP7 ADD PUSH2 0x52D JUMP JUMPDEST PUSH2 0x58E DUP2 PUSH2 0x343 JUMP JUMPDEST DUP5 ADD SWAP2 POP POP SWAP3 SWAP2 POP POP JUMP JUMPDEST PUSH1 0x0 PUSH1 0x60 DUP3 ADD SWAP1 POP PUSH2 0x5AE PUSH1 0x0 DUP4 ADD DUP7 PUSH2 0x1C1 JUMP JUMPDEST PUSH2 0x5BB PUSH1 0x20 DUP4 ADD DUP6 PUSH2 0x1DA JUMP JUMPDEST DUP2 DUP2 SUB PUSH1 0x40 DUP4 ADD MSTORE PUSH2 0x5CD DUP2 DUP5 PUSH2 0x560 JUMP JUMPDEST SWAP1 POP SWAP5 SWAP4 POP POP POP POP JUMP INVALID LOG2 PUSH5 0x6970667358 0x22 SLT KECCAK256 0xF9 0xE PUSH11 0xBBCB237413A8622D7B66E 0xE7 0xEF 0xE3 0xCB 0xA8 CALLDATALOAD GASPRICE PUSH14 0xF7AA19718A25CA5D41AC64736F6C PUSH4 0x43000809 STOP CALLER "
				},
				"gasEstimates": {
					"creation": {
						"codeDepositCost": "359400",
						"executionCost": "infinite",
						"totalCost": "infinite"
					},
					"external": {
						"getAddress()": "infinite",
						"getBalance()": "infinite",
						"testCall(address,uint256)": "infinite"
					}
				},
				"methodIdentifiers": {
					"getAddress()": "38cc4831",
					"getBalance()": "12065fe0",
					"testCall(address,uint256)": "59c75ada"
				}
			},
			"storageLayout": {
				"storage": [
					{
						"astId": 80,
						"contract": "contracts/calldemo.sol:caller",
						"label": "receiver",
						"offset": 0,
						"slot": "0",
						"type": "t_contract(Receiver)77"
					}
				],
				"types": {
					"t_contract(Receiver)77": {
						"encoding": "inplace",
						"label": "contract Receiver",
						"numberOfBytes": "20"
					}
				}
			},
			"userdoc": {
				"kind": "user",
				"methods": {},
				"version": 1
			}
		}
	}
}