{
	"data": {
		"bytecode": {
			"linkReferences": {},
			"object": "60806040526729a2241af62c000060005534801561001c57600080fd5b506106138061002c6000396000f3fe60806040526004361061004a5760003560e01c806325caa2621461004f578063953b8fb81461007a578063b88a802f146100a5578063d0e30db0146100bc578063dfbf53ae146100c6575b600080fd5b34801561005b57600080fd5b506100646100f1565b604051610071919061035f565b60405180910390f35b34801561008657600080fd5b5061008f6100f9565b60405161009c919061035f565b60405180910390f35b3480156100b157600080fd5b506100ba6100ff565b005b6100c461023e565b005b3480156100d257600080fd5b506100db610320565b6040516100e891906103bb565b60405180910390f35b600047905090565b60005481565b600160009054906101000a900473ffffffffffffffffffffffffffffffffffffffff1673ffffffffffffffffffffffffffffffffffffffff163373ffffffffffffffffffffffffffffffffffffffff161461018f576040517f08c379a000000000000000000000000000000000000000000000000000000000815260040161018690610433565b60405180910390fd5b60003373ffffffffffffffffffffffffffffffffffffffff16476040516101b590610484565b60006040518083038185875af1925050503d80600081146101f2576040519150601f19603f3d011682016040523d82523d6000602084013e6101f7565b606091505b505090508061023b576040517f08c379a0000000000000000000000000000000000000000000000000000000008152600401610232906104e5565b60405180910390fd5b50565b670de0b6b3a76400003414610288576040517f08c379a000000000000000000000000000000000000000000000000000000000815260040161027f90610551565b60405180910390fd5b60004790506000548111156102d2576040517f08c379a00000000000000000000000000000000000000000000000000000000081526004016102c9906105bd565b60405180910390fd5b600054810361031d5733600160006101000a81548173ffffffffffffffffffffffffffffffffffffffff021916908373ffffffffffffffffffffffffffffffffffffffff1602179055505b50565b600160009054906101000a900473ffffffffffffffffffffffffffffffffffffffff1681565b6000819050919050565b61035981610346565b82525050565b60006020820190506103746000830184610350565b92915050565b600073ffffffffffffffffffffffffffffffffffffffff82169050919050565b60006103a58261037a565b9050919050565b6103b58161039a565b82525050565b60006020820190506103d060008301846103ac565b92915050565b600082825260208201905092915050565b7f4e6f742077696e6e657200000000000000000000000000000000000000000000600082015250565b600061041d600a836103d6565b9150610428826103e7565b602082019050919050565b6000602082019050818103600083015261044c81610410565b9050919050565b600081905092915050565b50565b600061046e600083610453565b91506104798261045e565b600082019050919050565b600061048f82610461565b9150819050919050565b7f4661696c656420746f2073656e64204574686572000000000000000000000000600082015250565b60006104cf6014836103d6565b91506104da82610499565b602082019050919050565b600060208201905081810360008301526104fe816104c2565b9050919050565b7f596f752063616e206f6e6c792073656e64203120457468657200000000000000600082015250565b600061053b6019836103d6565b915061054682610505565b602082019050919050565b6000602082019050818103600083015261056a8161052e565b9050919050565b7f47616d65206973206f7665720000000000000000000000000000000000000000600082015250565b60006105a7600c836103d6565b91506105b282610571565b602082019050919050565b600060208201905081810360008301526105d68161059a565b905091905056fea2646970667358221220a8a4a647d114962e4360d81fe2aafcac884ae75a5fbd361523fa2a77afc55ad264736f6c63430008110033",
			"opcodes": "PUSH1 0x80 PUSH1 0x40 MSTORE PUSH8 0x29A2241AF62C0000 PUSH1 0x0 SSTORE CALLVALUE DUP1 ISZERO PUSH2 0x1C JUMPI PUSH1 0x0 DUP1 REVERT JUMPDEST POP PUSH2 0x613 DUP1 PUSH2 0x2C PUSH1 0x0 CODECOPY PUSH1 0x0 RETURN INVALID PUSH1 0x80 PUSH1 0x40 MSTORE PUSH1 0x4 CALLDATASIZE LT PUSH2 0x4A JUMPI PUSH1 0x0 CALLDATALOAD PUSH1 0xE0 SHR DUP1 PUSH4 0x25CAA262 EQ PUSH2 0x4F JUMPI DUP1 PUSH4 0x953B8FB8 EQ PUSH2 0x7A JUMPI DUP1 PUSH4 0xB88A802F EQ PUSH2 0xA5 JUMPI DUP1 PUSH4 0xD0E30DB0 EQ PUSH2 0xBC JUMPI DUP1 PUSH4 0xDFBF53AE EQ PUSH2 0xC6 JUMPI JUMPDEST PUSH1 0x0 DUP1 REVERT JUMPDEST CALLVALUE DUP1 ISZERO PUSH2 0x5B JUMPI PUSH1 0x0 DUP1 REVERT JUMPDEST POP PUSH2 0x64 PUSH2 0xF1 JUMP JUMPDEST PUSH1 0x40 MLOAD PUSH2 0x71 SWAP2 SWAP1 PUSH2 0x35F JUMP JUMPDEST PUSH1 0x40 MLOAD DUP1 SWAP2 SUB SWAP1 RETURN JUMPDEST CALLVALUE DUP1 ISZERO PUSH2 0x86 JUMPI PUSH1 0x0 DUP1 REVERT JUMPDEST POP PUSH2 0x8F PUSH2 0xF9 JUMP JUMPDEST PUSH1 0x40 MLOAD PUSH2 0x9C SWAP2 SWAP1 PUSH2 0x35F JUMP JUMPDEST PUSH1 0x40 MLOAD DUP1 SWAP2 SUB SWAP1 RETURN JUMPDEST CALLVALUE DUP1 ISZERO PUSH2 0xB1 JUMPI PUSH1 0x0 DUP1 REVERT JUMPDEST POP PUSH2 0xBA PUSH2 0xFF JUMP JUMPDEST STOP JUMPDEST PUSH2 0xC4 PUSH2 0x23E JUMP JUMPDEST STOP JUMPDEST CALLVALUE DUP1 ISZERO PUSH2 0xD2 JUMPI PUSH1 0x0 DUP1 REVERT JUMPDEST POP PUSH2 0xDB PUSH2 0x320 JUMP JUMPDEST PUSH1 0x40 MLOAD PUSH2 0xE8 SWAP2 SWAP1 PUSH2 0x3BB JUMP JUMPDEST PUSH1 0x40 MLOAD DUP1 SWAP2 SUB SWAP1 RETURN JUMPDEST PUSH1 0x0 SELFBALANCE SWAP1 POP SWAP1 JUMP JUMPDEST PUSH1 0x0 SLOAD DUP2 JUMP JUMPDEST PUSH1 0x1 PUSH1 0x0 SWAP1 SLOAD SWAP1 PUSH2 0x100 EXP SWAP1 DIV PUSH20 0xFFFFFFFFFFFFFFFFFFFFFFFFFFFFFFFFFFFFFFFF AND PUSH20 0xFFFFFFFFFFFFFFFFFFFFFFFFFFFFFFFFFFFFFFFF AND CALLER PUSH20 0xFFFFFFFFFFFFFFFFFFFFFFFFFFFFFFFFFFFFFFFF AND EQ PUSH2 0x18F JUMPI PUSH1 0x40 MLOAD PUSH32 0x8C379A000000000000000000000000000000000000000000000000000000000 DUP2 MSTORE PUSH1 0x4 ADD PUSH2 0x186 SWAP1 PUSH2 0x433 JUMP JUMPDEST PUSH1 0x40 MLOAD DUP1 SWAP2 SUB SWAP1 REVERT JUMPDEST PUSH1 0x0 CALLER PUSH20 0xFFFFFFFFFFFFFFFFFFFFFFFFFFFFFFFFFFFFFFFF AND SELFBALANCE PUSH1 0x40 MLOAD PUSH2 0x1B5 SWAP1 PUSH2 0x484 JUMP JUMPDEST PUSH1 0x0 PUSH1 0x40 MLOAD DUP1 DUP4 SUB DUP2 DUP6 DUP8 GAS CALL SWAP3 POP POP POP RETURNDATASIZE DUP1 PUSH1 0x0 DUP2 EQ PUSH2 0x1F2 JUMPI PUSH1 0x40 MLOAD SWAP2 POP PUSH1 0x1F NOT PUSH1 0x3F RETURNDATASIZE ADD AND DUP3 ADD PUSH1 0x40 MSTORE RETURNDATASIZE DUP3 MSTORE RETURNDATASIZE PUSH1 0x0 PUSH1 0x20 DUP5 ADD RETURNDATACOPY PUSH2 0x1F7 JUMP JUMPDEST PUSH1 0x60 SWAP2 POP JUMPDEST POP POP SWAP1 POP DUP1 PUSH2 0x23B JUMPI PUSH1 0x40 MLOAD PUSH32 0x8C379A000000000000000000000000000000000000000000000000000000000 DUP2 MSTORE PUSH1 0x4 ADD PUSH2 0x232 SWAP1 PUSH2 0x4E5 JUMP JUMPDEST PUSH1 0x40 MLOAD DUP1 SWAP2 SUB SWAP1 REVERT JUMPDEST POP JUMP JUMPDEST PUSH8 0xDE0B6B3A7640000 CALLVALUE EQ PUSH2 0x288 JUMPI PUSH1 0x40 MLOAD PUSH32 0x8C379A000000000000000000000000000000000000000000000000000000000 DUP2 MSTORE PUSH1 0x4 ADD PUSH2 0x27F SWAP1 PUSH2 0x551 JUMP JUMPDEST PUSH1 0x40 MLOAD DUP1 SWAP2 SUB SWAP1 REVERT JUMPDEST PUSH1 0x0 SELFBALANCE SWAP1 POP PUSH1 0x0 SLOAD DUP2 GT ISZERO PUSH2 0x2D2 JUMPI PUSH1 0x40 MLOAD PUSH32 0x8C379A000000000000000000000000000000000000000000000000000000000 DUP2 MSTORE PUSH1 0x4 ADD PUSH2 0x2C9 SWAP1 PUSH2 0x5BD JUMP JUMPDEST PUSH1 0x40 MLOAD DUP1 SWAP2 SUB SWAP1 REVERT JUMPDEST PUSH1 0x0 SLOAD DUP2 SUB PUSH2 0x31D JUMPI CALLER PUSH1 0x1 PUSH1 0x0 PUSH2 0x100 EXP DUP2 SLOAD DUP2 PUSH20 0xFFFFFFFFFFFFFFFFFFFFFFFFFFFFFFFFFFFFFFFF MUL NOT AND SWAP1 DUP4 PUSH20 0xFFFFFFFFFFFFFFFFFFFFFFFFFFFFFFFFFFFFFFFF AND MUL OR SWAP1 SSTORE POP JUMPDEST POP JUMP JUMPDEST PUSH1 0x1 PUSH1 0x0 SWAP1 SLOAD SWAP1 PUSH2 0x100 EXP SWAP1 DIV PUSH20 0xFFFFFFFFFFFFFFFFFFFFFFFFFFFFFFFFFFFFFFFF AND DUP2 JUMP JUMPDEST PUSH1 0x0 DUP2 SWAP1 POP SWAP2 SWAP1 POP JUMP JUMPDEST PUSH2 0x359 DUP2 PUSH2 0x346 JUMP JUMPDEST DUP3 MSTORE POP POP JUMP JUMPDEST PUSH1 0x0 PUSH1 0x20 DUP3 ADD SWAP1 POP PUSH2 0x374 PUSH1 0x0 DUP4 ADD DUP5 PUSH2 0x350 JUMP JUMPDEST SWAP3 SWAP2 POP POP JUMP JUMPDEST PUSH1 0x0 PUSH20 0xFFFFFFFFFFFFFFFFFFFFFFFFFFFFFFFFFFFFFFFF DUP3 AND SWAP1 POP SWAP2 SWAP1 POP JUMP JUMPDEST PUSH1 0x0 PUSH2 0x3A5 DUP3 PUSH2 0x37A JUMP JUMPDEST SWAP1 POP SWAP2 SWAP1 POP JUMP JUMPDEST PUSH2 0x3B5 DUP2 PUSH2 0x39A JUMP JUMPDEST DUP3 MSTORE POP POP JUMP JUMPDEST PUSH1 0x0 PUSH1 0x20 DUP3 ADD SWAP1 POP PUSH2 0x3D0 PUSH1 0x0 DUP4 ADD DUP5 PUSH2 0x3AC JUMP JUMPDEST SWAP3 SWAP2 POP POP JUMP JUMPDEST PUSH1 0x0 DUP3 DUP3 MSTORE PUSH1 0x20 DUP3 ADD SWAP1 POP SWAP3 SWAP2 POP POP JUMP JUMPDEST PUSH32 0x4E6F742077696E6E657200000000000000000000000000000000000000000000 PUSH1 0x0 DUP3 ADD MSTORE POP JUMP JUMPDEST PUSH1 0x0 PUSH2 0x41D PUSH1 0xA DUP4 PUSH2 0x3D6 JUMP JUMPDEST SWAP2 POP PUSH2 0x428 DUP3 PUSH2 0x3E7 JUMP JUMPDEST PUSH1 0x20 DUP3 ADD SWAP1 POP SWAP2 SWAP1 POP JUMP JUMPDEST PUSH1 0x0 PUSH1 0x20 DUP3 ADD SWAP1 POP DUP2 DUP2 SUB PUSH1 0x0 DUP4 ADD MSTORE PUSH2 0x44C DUP2 PUSH2 0x410 JUMP JUMPDEST SWAP1 POP SWAP2 SWAP1 POP JUMP JUMPDEST PUSH1 0x0 DUP2 SWAP1 POP SWAP3 SWAP2 POP POP JUMP JUMPDEST POP JUMP JUMPDEST PUSH1 0x0 PUSH2 0x46E PUSH1 0x0 DUP4 PUSH2 0x453 JUMP JUMPDEST SWAP2 POP PUSH2 0x479 DUP3 PUSH2 0x45E JUMP JUMPDEST PUSH1 0x0 DUP3 ADD SWAP1 POP SWAP2 SWAP1 POP JUMP JUMPDEST PUSH1 0x0 PUSH2 0x48F DUP3 PUSH2 0x461 JUMP JUMPDEST SWAP2 POP DUP2 SWAP1 POP SWAP2 SWAP1 POP JUMP JUMPDEST PUSH32 0x4661696C656420746F2073656E64204574686572000000000000000000000000 PUSH1 0x0 DUP3 ADD MSTORE POP JUMP JUMPDEST PUSH1 0x0 PUSH2 0x4CF PUSH1 0x14 DUP4 PUSH2 0x3D6 JUMP JUMPDEST SWAP2 POP PUSH2 0x4DA DUP3 PUSH2 0x499 JUMP JUMPDEST PUSH1 0x20 DUP3 ADD SWAP1 POP SWAP2 SWAP1 POP JUMP JUMPDEST PUSH1 0x0 PUSH1 0x20 DUP3 ADD SWAP1 POP DUP2 DUP2 SUB PUSH1 0x0 DUP4 ADD MSTORE PUSH2 0x4FE DUP2 PUSH2 0x4C2 JUMP JUMPDEST SWAP1 POP SWAP2 SWAP1 POP JUMP JUMPDEST PUSH32 0x596F752063616E206F6E6C792073656E64203120457468657200000000000000 PUSH1 0x0 DUP3 ADD MSTORE POP JUMP JUMPDEST PUSH1 0x0 PUSH2 0x53B PUSH1 0x19 DUP4 PUSH2 0x3D6 JUMP JUMPDEST SWAP2 POP PUSH2 0x546 DUP3 PUSH2 0x505 JUMP JUMPDEST PUSH1 0x20 DUP3 ADD SWAP1 POP SWAP2 SWAP1 POP JUMP JUMPDEST PUSH1 0x0 PUSH1 0x20 DUP3 ADD SWAP1 POP DUP2 DUP2 SUB PUSH1 0x0 DUP4 ADD MSTORE PUSH2 0x56A DUP2 PUSH2 0x52E JUMP JUMPDEST SWAP1 POP SWAP2 SWAP1 POP JUMP JUMPDEST PUSH32 0x47616D65206973206F7665720000000000000000000000000000000000000000 PUSH1 0x0 DUP3 ADD MSTORE POP JUMP JUMPDEST PUSH1 0x0 PUSH2 0x5A7 PUSH1 0xC DUP4 PUSH2 0x3D6 JUMP JUMPDEST SWAP2 POP PUSH2 0x5B2 DUP3 PUSH2 0x571 JUMP JUMPDEST PUSH1 0x20 DUP3 ADD SWAP1 POP SWAP2 SWAP1 POP JUMP JUMPDEST PUSH1 0x0 PUSH1 0x20 DUP3 ADD SWAP1 POP DUP2 DUP2 SUB PUSH1 0x0 DUP4 ADD MSTORE PUSH2 0x5D6 DUP2 PUSH2 0x59A JUMP JUMPDEST SWAP1 POP SWAP2 SWAP1 POP JUMP INVALID LOG2 PUSH5 0x6970667358 0x22 SLT KECCAK256 0xA8 LOG4 0xA6 SELFBALANCE 0xD1 EQ SWAP7 0x2E NUMBER PUSH1 0xD8 0x1F 0xE2 0xAA 0xFC 0xAC DUP9 0x4A 0xE7 GAS 0x5F 0xBD CALLDATASIZE ISZERO 0x23 STATICCALL 0x2A PUSH24 0xAFC55AD264736F6C63430008110033000000000000000000 "
		},
		"gasEstimates": {
			"creation": {
				"codeDepositCost": "311000",
				"executionCost": "22455",
				"totalCost": "333455"
			},
			"external": {
				"claimReward()": "infinite",
				"deposit()": "28716",
				"getBal()": "317",
				"targetAmount()": "2429",
				"winner()": "2580"
			}
		},
		"methodIdentifiers": {
			"claimReward()": "b88a802f",
			"deposit()": "d0e30db0",
			"getBal()": "25caa262",
			"targetAmount()": "953b8fb8",
			"winner()": "dfbf53ae"
		}
	},
	"abi": [
		{
			"inputs": [],
			"name": "claimReward",
			"outputs": [],
			"stateMutability": "nonpayable",
			"type": "function"
		},
		{
			"inputs": [],
			"name": "deposit",
			"outputs": [],
			"stateMutability": "payable",
			"type": "function"
		},
		{
			"inputs": [],
			"name": "getBal",
			"outputs": [
				{
					"internalType": "uint256",
					"name": "",
					"type": "uint256"
				}
			],
			"stateMutability": "view",
			"type": "function"
		},
		{
			"inputs": [],
			"name": "targetAmount",
			"outputs": [
				{
					"internalType": "uint256",
					"name": "",
					"type": "uint256"
				}
			],
			"stateMutability": "view",
			"type": "function"
		},
		{
			"inputs": [],
			"name": "winner",
			"outputs": [
				{
					"internalType": "address",
					"name": "",
					"type": "address"
				}
			],
			"stateMutability": "view",
			"type": "function"
		}
	]
}