{
	"data": {
		"bytecode": {
			"linkReferences": {},
			"object": "608060405234801561001057600080fd5b50610288806100206000396000f3fe6080604052600436106100345760003560e01c806310c1fb9b146100395780632fa7808514610062578063aec677111461009f575b600080fd5b34801561004557600080fd5b50610060600480360381019061005b91906101f1565b6100bb565b005b34801561006e57600080fd5b50610089600480360381019061008491906101f1565b610100565b6040516100969190610237565b60405180910390f35b6100b960048036038101906100b491906101f1565b610148565b005b6000808273ffffffffffffffffffffffffffffffffffffffff1673ffffffffffffffffffffffffffffffffffffffff1681526020019081526020016000206000905550565b60008060008373ffffffffffffffffffffffffffffffffffffffff1673ffffffffffffffffffffffffffffffffffffffff168152602001908152602001600020549050919050565b346000808373ffffffffffffffffffffffffffffffffffffffff1673ffffffffffffffffffffffffffffffffffffffff1681526020019081526020016000208190555050565b600080fd5b600073ffffffffffffffffffffffffffffffffffffffff82169050919050565b60006101be82610193565b9050919050565b6101ce816101b3565b81146101d957600080fd5b50565b6000813590506101eb816101c5565b92915050565b6000602082840312156102075761020661018e565b5b6000610215848285016101dc565b91505092915050565b6000819050919050565b6102318161021e565b82525050565b600060208201905061024c6000830184610228565b9291505056fea2646970667358221220734938924da72e5ad047a34d01d9c94aa868cc20babc6d209723a15cd1314a3864736f6c63430008090033",
			"opcodes": "PUSH1 0x80 PUSH1 0x40 MSTORE CALLVALUE DUP1 ISZERO PUSH2 0x10 JUMPI PUSH1 0x0 DUP1 REVERT JUMPDEST POP PUSH2 0x288 DUP1 PUSH2 0x20 PUSH1 0x0 CODECOPY PUSH1 0x0 RETURN INVALID PUSH1 0x80 PUSH1 0x40 MSTORE PUSH1 0x4 CALLDATASIZE LT PUSH2 0x34 JUMPI PUSH1 0x0 CALLDATALOAD PUSH1 0xE0 SHR DUP1 PUSH4 0x10C1FB9B EQ PUSH2 0x39 JUMPI DUP1 PUSH4 0x2FA78085 EQ PUSH2 0x62 JUMPI DUP1 PUSH4 0xAEC67711 EQ PUSH2 0x9F JUMPI JUMPDEST PUSH1 0x0 DUP1 REVERT JUMPDEST CALLVALUE DUP1 ISZERO PUSH2 0x45 JUMPI PUSH1 0x0 DUP1 REVERT JUMPDEST POP PUSH2 0x60 PUSH1 0x4 DUP1 CALLDATASIZE SUB DUP2 ADD SWAP1 PUSH2 0x5B SWAP2 SWAP1 PUSH2 0x1F1 JUMP JUMPDEST PUSH2 0xBB JUMP JUMPDEST STOP JUMPDEST CALLVALUE DUP1 ISZERO PUSH2 0x6E JUMPI PUSH1 0x0 DUP1 REVERT JUMPDEST POP PUSH2 0x89 PUSH1 0x4 DUP1 CALLDATASIZE SUB DUP2 ADD SWAP1 PUSH2 0x84 SWAP2 SWAP1 PUSH2 0x1F1 JUMP JUMPDEST PUSH2 0x100 JUMP JUMPDEST PUSH1 0x40 MLOAD PUSH2 0x96 SWAP2 SWAP1 PUSH2 0x237 JUMP JUMPDEST PUSH1 0x40 MLOAD DUP1 SWAP2 SUB SWAP1 RETURN JUMPDEST PUSH2 0xB9 PUSH1 0x4 DUP1 CALLDATASIZE SUB DUP2 ADD SWAP1 PUSH2 0xB4 SWAP2 SWAP1 PUSH2 0x1F1 JUMP JUMPDEST PUSH2 0x148 JUMP JUMPDEST STOP JUMPDEST PUSH1 0x0 DUP1 DUP3 PUSH20 0xFFFFFFFFFFFFFFFFFFFFFFFFFFFFFFFFFFFFFFFF AND PUSH20 0xFFFFFFFFFFFFFFFFFFFFFFFFFFFFFFFFFFFFFFFF AND DUP2 MSTORE PUSH1 0x20 ADD SWAP1 DUP2 MSTORE PUSH1 0x20 ADD PUSH1 0x0 KECCAK256 PUSH1 0x0 SWAP1 SSTORE POP JUMP JUMPDEST PUSH1 0x0 DUP1 PUSH1 0x0 DUP4 PUSH20 0xFFFFFFFFFFFFFFFFFFFFFFFFFFFFFFFFFFFFFFFF AND PUSH20 0xFFFFFFFFFFFFFFFFFFFFFFFFFFFFFFFFFFFFFFFF AND DUP2 MSTORE PUSH1 0x20 ADD SWAP1 DUP2 MSTORE PUSH1 0x20 ADD PUSH1 0x0 KECCAK256 SLOAD SWAP1 POP SWAP2 SWAP1 POP JUMP JUMPDEST CALLVALUE PUSH1 0x0 DUP1 DUP4 PUSH20 0xFFFFFFFFFFFFFFFFFFFFFFFFFFFFFFFFFFFFFFFF AND PUSH20 0xFFFFFFFFFFFFFFFFFFFFFFFFFFFFFFFFFFFFFFFF AND DUP2 MSTORE PUSH1 0x20 ADD SWAP1 DUP2 MSTORE PUSH1 0x20 ADD PUSH1 0x0 KECCAK256 DUP2 SWAP1 SSTORE POP POP JUMP JUMPDEST PUSH1 0x0 DUP1 REVERT JUMPDEST PUSH1 0x0 PUSH20 0xFFFFFFFFFFFFFFFFFFFFFFFFFFFFFFFFFFFFFFFF DUP3 AND SWAP1 POP SWAP2 SWAP1 POP JUMP JUMPDEST PUSH1 0x0 PUSH2 0x1BE DUP3 PUSH2 0x193 JUMP JUMPDEST SWAP1 POP SWAP2 SWAP1 POP JUMP JUMPDEST PUSH2 0x1CE DUP2 PUSH2 0x1B3 JUMP JUMPDEST DUP2 EQ PUSH2 0x1D9 JUMPI PUSH1 0x0 DUP1 REVERT JUMPDEST POP JUMP JUMPDEST PUSH1 0x0 DUP2 CALLDATALOAD SWAP1 POP PUSH2 0x1EB DUP2 PUSH2 0x1C5 JUMP JUMPDEST SWAP3 SWAP2 POP POP JUMP JUMPDEST PUSH1 0x0 PUSH1 0x20 DUP3 DUP5 SUB SLT ISZERO PUSH2 0x207 JUMPI PUSH2 0x206 PUSH2 0x18E JUMP JUMPDEST JUMPDEST PUSH1 0x0 PUSH2 0x215 DUP5 DUP3 DUP6 ADD PUSH2 0x1DC JUMP JUMPDEST SWAP2 POP POP SWAP3 SWAP2 POP POP JUMP JUMPDEST PUSH1 0x0 DUP2 SWAP1 POP SWAP2 SWAP1 POP JUMP JUMPDEST PUSH2 0x231 DUP2 PUSH2 0x21E JUMP JUMPDEST DUP3 MSTORE POP POP JUMP JUMPDEST PUSH1 0x0 PUSH1 0x20 DUP3 ADD SWAP1 POP PUSH2 0x24C PUSH1 0x0 DUP4 ADD DUP5 PUSH2 0x228 JUMP JUMPDEST SWAP3 SWAP2 POP POP JUMP INVALID LOG2 PUSH5 0x6970667358 0x22 SLT KECCAK256 PUSH20 0x4938924DA72E5AD047A34D01D9C94AA868CC20BA 0xBC PUSH14 0x209723A15CD1314A3864736F6C63 NUMBER STOP ADDMOD MULMOD STOP CALLER "
		},
		"gasEstimates": {
			"creation": {
				"codeDepositCost": "129600",
				"executionCost": "177",
				"totalCost": "129777"
			},
			"external": {
				"getBal(address)": "2841",
				"rem(address)": "5532",
				"setBal(address)": "22656"
			}
		},
		"methodIdentifiers": {
			"getBal(address)": "2fa78085",
			"rem(address)": "10c1fb9b",
			"setBal(address)": "aec67711"
		}
	},
	"abi": [
		{
			"inputs": [
				{
					"internalType": "address",
					"name": "addr",
					"type": "address"
				}
			],
			"name": "getBal",
			"outputs": [
				{
					"internalType": "uint256",
					"name": "",
					"type": "uint256"
				}
			],
			"stateMutability": "view",
			"type": "function"
		},
		{
			"inputs": [
				{
					"internalType": "address",
					"name": "addr",
					"type": "address"
				}
			],
			"name": "rem",
			"outputs": [],
			"stateMutability": "nonpayable",
			"type": "function"
		},
		{
			"inputs": [
				{
					"internalType": "address",
					"name": "addr",
					"type": "address"
				}
			],
			"name": "setBal",
			"outputs": [],
			"stateMutability": "payable",
			"type": "function"
		}
	]
}