{
	"data": {
		"bytecode": {
			"linkReferences": {},
			"object": "608060405234801561001057600080fd5b5061031f806100206000396000f3fe608060405234801561001057600080fd5b50600436106100415760003560e01c8063516f279e14610046578063a035b1fe14610064578063c27fc30514610082575b600080fd5b61004e6100a0565b60405161005b919061019a565b60405180910390f35b61006c6100d9565b604051610079919061017f565b60405180910390f35b61008a6100df565b604051610097919061017f565b60405180910390f35b6040518060400160405280600781526020017f4265694a696e670000000000000000000000000000000000000000000000000081525081565b60005481565b600080600590506002816100f391906101d8565b905060006040518060400160405280600381526020017f61626300000000000000000000000000000000000000000000000000000000008152509050819250505090565b6101408161026c565b82525050565b6000610151826101bc565b61015b81856101c7565b935061016b818560208601610276565b610174816102d8565b840191505092915050565b60006020820190506101946000830184610137565b92915050565b600060208201905081810360008301526101b48184610146565b905092915050565b600081519050919050565b600082825260208201905092915050565b60006101e38261026c565b91506101ee8361026c565b9250817f7fffffffffffffffffffffffffffffffffffffffffffffffffffffffffffffff03831360008312151615610229576102286102a9565b5b817f8000000000000000000000000000000000000000000000000000000000000000038312600083121615610261576102606102a9565b5b828201905092915050565b6000819050919050565b60005b83811015610294578082015181840152602081019050610279565b838111156102a3576000848401525b50505050565b7f4e487b7100000000000000000000000000000000000000000000000000000000600052601160045260246000fd5b6000601f19601f830116905091905056fea2646970667358221220e212e43bcc53fd2eccd29a567f89911210c51ff47297098a4c46c5583fcda7cc64736f6c63430008000033",
			"opcodes": "PUSH1 0x80 PUSH1 0x40 MSTORE CALLVALUE DUP1 ISZERO PUSH2 0x10 JUMPI PUSH1 0x0 DUP1 REVERT JUMPDEST POP PUSH2 0x31F DUP1 PUSH2 0x20 PUSH1 0x0 CODECOPY PUSH1 0x0 RETURN INVALID PUSH1 0x80 PUSH1 0x40 MSTORE CALLVALUE DUP1 ISZERO PUSH2 0x10 JUMPI PUSH1 0x0 DUP1 REVERT JUMPDEST POP PUSH1 0x4 CALLDATASIZE LT PUSH2 0x41 JUMPI PUSH1 0x0 CALLDATALOAD PUSH1 0xE0 SHR DUP1 PUSH4 0x516F279E EQ PUSH2 0x46 JUMPI DUP1 PUSH4 0xA035B1FE EQ PUSH2 0x64 JUMPI DUP1 PUSH4 0xC27FC305 EQ PUSH2 0x82 JUMPI JUMPDEST PUSH1 0x0 DUP1 REVERT JUMPDEST PUSH2 0x4E PUSH2 0xA0 JUMP JUMPDEST PUSH1 0x40 MLOAD PUSH2 0x5B SWAP2 SWAP1 PUSH2 0x19A JUMP JUMPDEST PUSH1 0x40 MLOAD DUP1 SWAP2 SUB SWAP1 RETURN JUMPDEST PUSH2 0x6C PUSH2 0xD9 JUMP JUMPDEST PUSH1 0x40 MLOAD PUSH2 0x79 SWAP2 SWAP1 PUSH2 0x17F JUMP JUMPDEST PUSH1 0x40 MLOAD DUP1 SWAP2 SUB SWAP1 RETURN JUMPDEST PUSH2 0x8A PUSH2 0xDF JUMP JUMPDEST PUSH1 0x40 MLOAD PUSH2 0x97 SWAP2 SWAP1 PUSH2 0x17F JUMP JUMPDEST PUSH1 0x40 MLOAD DUP1 SWAP2 SUB SWAP1 RETURN JUMPDEST PUSH1 0x40 MLOAD DUP1 PUSH1 0x40 ADD PUSH1 0x40 MSTORE DUP1 PUSH1 0x7 DUP2 MSTORE PUSH1 0x20 ADD PUSH32 0x4265694A696E6700000000000000000000000000000000000000000000000000 DUP2 MSTORE POP DUP2 JUMP JUMPDEST PUSH1 0x0 SLOAD DUP2 JUMP JUMPDEST PUSH1 0x0 DUP1 PUSH1 0x5 SWAP1 POP PUSH1 0x2 DUP2 PUSH2 0xF3 SWAP2 SWAP1 PUSH2 0x1D8 JUMP JUMPDEST SWAP1 POP PUSH1 0x0 PUSH1 0x40 MLOAD DUP1 PUSH1 0x40 ADD PUSH1 0x40 MSTORE DUP1 PUSH1 0x3 DUP2 MSTORE PUSH1 0x20 ADD PUSH32 0x6162630000000000000000000000000000000000000000000000000000000000 DUP2 MSTORE POP SWAP1 POP DUP2 SWAP3 POP POP POP SWAP1 JUMP JUMPDEST PUSH2 0x140 DUP2 PUSH2 0x26C JUMP JUMPDEST DUP3 MSTORE POP POP JUMP JUMPDEST PUSH1 0x0 PUSH2 0x151 DUP3 PUSH2 0x1BC JUMP JUMPDEST PUSH2 0x15B DUP2 DUP6 PUSH2 0x1C7 JUMP JUMPDEST SWAP4 POP PUSH2 0x16B DUP2 DUP6 PUSH1 0x20 DUP7 ADD PUSH2 0x276 JUMP JUMPDEST PUSH2 0x174 DUP2 PUSH2 0x2D8 JUMP JUMPDEST DUP5 ADD SWAP2 POP POP SWAP3 SWAP2 POP POP JUMP JUMPDEST PUSH1 0x0 PUSH1 0x20 DUP3 ADD SWAP1 POP PUSH2 0x194 PUSH1 0x0 DUP4 ADD DUP5 PUSH2 0x137 JUMP JUMPDEST SWAP3 SWAP2 POP POP JUMP JUMPDEST PUSH1 0x0 PUSH1 0x20 DUP3 ADD SWAP1 POP DUP2 DUP2 SUB PUSH1 0x0 DUP4 ADD MSTORE PUSH2 0x1B4 DUP2 DUP5 PUSH2 0x146 JUMP JUMPDEST SWAP1 POP SWAP3 SWAP2 POP POP JUMP JUMPDEST PUSH1 0x0 DUP2 MLOAD SWAP1 POP SWAP2 SWAP1 POP JUMP JUMPDEST PUSH1 0x0 DUP3 DUP3 MSTORE PUSH1 0x20 DUP3 ADD SWAP1 POP SWAP3 SWAP2 POP POP JUMP JUMPDEST PUSH1 0x0 PUSH2 0x1E3 DUP3 PUSH2 0x26C JUMP JUMPDEST SWAP2 POP PUSH2 0x1EE DUP4 PUSH2 0x26C JUMP JUMPDEST SWAP3 POP DUP2 PUSH32 0x7FFFFFFFFFFFFFFFFFFFFFFFFFFFFFFFFFFFFFFFFFFFFFFFFFFFFFFFFFFFFFFF SUB DUP4 SGT PUSH1 0x0 DUP4 SLT ISZERO AND ISZERO PUSH2 0x229 JUMPI PUSH2 0x228 PUSH2 0x2A9 JUMP JUMPDEST JUMPDEST DUP2 PUSH32 0x8000000000000000000000000000000000000000000000000000000000000000 SUB DUP4 SLT PUSH1 0x0 DUP4 SLT AND ISZERO PUSH2 0x261 JUMPI PUSH2 0x260 PUSH2 0x2A9 JUMP JUMPDEST JUMPDEST DUP3 DUP3 ADD SWAP1 POP SWAP3 SWAP2 POP POP JUMP JUMPDEST PUSH1 0x0 DUP2 SWAP1 POP SWAP2 SWAP1 POP JUMP JUMPDEST PUSH1 0x0 JUMPDEST DUP4 DUP2 LT ISZERO PUSH2 0x294 JUMPI DUP1 DUP3 ADD MLOAD DUP2 DUP5 ADD MSTORE PUSH1 0x20 DUP2 ADD SWAP1 POP PUSH2 0x279 JUMP JUMPDEST DUP4 DUP2 GT ISZERO PUSH2 0x2A3 JUMPI PUSH1 0x0 DUP5 DUP5 ADD MSTORE JUMPDEST POP POP POP POP JUMP JUMPDEST PUSH32 0x4E487B7100000000000000000000000000000000000000000000000000000000 PUSH1 0x0 MSTORE PUSH1 0x11 PUSH1 0x4 MSTORE PUSH1 0x24 PUSH1 0x0 REVERT JUMPDEST PUSH1 0x0 PUSH1 0x1F NOT PUSH1 0x1F DUP4 ADD AND SWAP1 POP SWAP2 SWAP1 POP JUMP INVALID LOG2 PUSH5 0x6970667358 0x22 SLT KECCAK256 0xE2 SLT 0xE4 EXTCODESIZE 0xCC MSTORE8 REVERT 0x2E 0xCC 0xD2 SWAP11 JUMP PUSH32 0x89911210C51FF47297098A4C46C5583FCDA7CC64736F6C634300080000330000 "
		},
		"gasEstimates": {
			"creation": {
				"codeDepositCost": "159800",
				"executionCost": "202",
				"totalCost": "160002"
			},
			"external": {
				"f1()": "infinite",
				"location()": "infinite",
				"price()": "1129"
			}
		},
		"methodIdentifiers": {
			"f1()": "c27fc305",
			"location()": "516f279e",
			"price()": "a035b1fe"
		}
	},
	"abi": [
		{
			"inputs": [],
			"name": "f1",
			"outputs": [
				{
					"internalType": "int256",
					"name": "",
					"type": "int256"
				}
			],
			"stateMutability": "pure",
			"type": "function"
		},
		{
			"inputs": [],
			"name": "location",
			"outputs": [
				{
					"internalType": "string",
					"name": "",
					"type": "string"
				}
			],
			"stateMutability": "view",
			"type": "function"
		},
		{
			"inputs": [],
			"name": "price",
			"outputs": [
				{
					"internalType": "int256",
					"name": "",
					"type": "int256"
				}
			],
			"stateMutability": "view",
			"type": "function"
		}
	]
}