{
	"data": {
		"bytecode": {
			"linkReferences": {},
			"object": "6080604052600a6000556014600155601e60025561002161003660201b60201c565b60035534801561003057600080fd5b5061003f565b60008054905090565b6101988061004e6000396000f3fe608060405234801561001057600080fd5b50600436106100625760003560e01c80630b7f1665146100675780630c55699c146100855780633c9d377d146100a35780639942ec6f146100c1578063c3f90202146100df578063ece57b04146100fd575b600080fd5b61006f61011b565b6040518082815260200191505060405180910390f35b61008d610125565b6040518082815260200191505060405180910390f35b6100ab61012b565b6040518082815260200191505060405180910390f35b6100c9610135565b6040518082815260200191505060405180910390f35b6100e7610149565b6040518082815260200191505060405180910390f35b610105610152565b6040518082815260200191505060405180910390f35b6000600154905090565b60005481565b6000808091505090565b600080610140610158565b90508091505090565b60008054905090565b60035481565b600060025490509056fea26469706673582212202e7578bfe623eed7fe5c0550b8ef37ecc78fc2ddfb1d52f2ec82dcc2df7c16a864736f6c63430007060033",
			"opcodes": "PUSH1 0x80 PUSH1 0x40 MSTORE PUSH1 0xA PUSH1 0x0 SSTORE PUSH1 0x14 PUSH1 0x1 SSTORE PUSH1 0x1E PUSH1 0x2 SSTORE PUSH2 0x21 PUSH2 0x36 PUSH1 0x20 SHL PUSH1 0x20 SHR JUMP JUMPDEST PUSH1 0x3 SSTORE CALLVALUE DUP1 ISZERO PUSH2 0x30 JUMPI PUSH1 0x0 DUP1 REVERT JUMPDEST POP PUSH2 0x3F JUMP JUMPDEST PUSH1 0x0 DUP1 SLOAD SWAP1 POP SWAP1 JUMP JUMPDEST PUSH2 0x198 DUP1 PUSH2 0x4E PUSH1 0x0 CODECOPY PUSH1 0x0 RETURN INVALID PUSH1 0x80 PUSH1 0x40 MSTORE CALLVALUE DUP1 ISZERO PUSH2 0x10 JUMPI PUSH1 0x0 DUP1 REVERT JUMPDEST POP PUSH1 0x4 CALLDATASIZE LT PUSH2 0x62 JUMPI PUSH1 0x0 CALLDATALOAD PUSH1 0xE0 SHR DUP1 PUSH4 0xB7F1665 EQ PUSH2 0x67 JUMPI DUP1 PUSH4 0xC55699C EQ PUSH2 0x85 JUMPI DUP1 PUSH4 0x3C9D377D EQ PUSH2 0xA3 JUMPI DUP1 PUSH4 0x9942EC6F EQ PUSH2 0xC1 JUMPI DUP1 PUSH4 0xC3F90202 EQ PUSH2 0xDF JUMPI DUP1 PUSH4 0xECE57B04 EQ PUSH2 0xFD JUMPI JUMPDEST PUSH1 0x0 DUP1 REVERT JUMPDEST PUSH2 0x6F PUSH2 0x11B JUMP JUMPDEST PUSH1 0x40 MLOAD DUP1 DUP3 DUP2 MSTORE PUSH1 0x20 ADD SWAP2 POP POP PUSH1 0x40 MLOAD DUP1 SWAP2 SUB SWAP1 RETURN JUMPDEST PUSH2 0x8D PUSH2 0x125 JUMP JUMPDEST PUSH1 0x40 MLOAD DUP1 DUP3 DUP2 MSTORE PUSH1 0x20 ADD SWAP2 POP POP PUSH1 0x40 MLOAD DUP1 SWAP2 SUB SWAP1 RETURN JUMPDEST PUSH2 0xAB PUSH2 0x12B JUMP JUMPDEST PUSH1 0x40 MLOAD DUP1 DUP3 DUP2 MSTORE PUSH1 0x20 ADD SWAP2 POP POP PUSH1 0x40 MLOAD DUP1 SWAP2 SUB SWAP1 RETURN JUMPDEST PUSH2 0xC9 PUSH2 0x135 JUMP JUMPDEST PUSH1 0x40 MLOAD DUP1 DUP3 DUP2 MSTORE PUSH1 0x20 ADD SWAP2 POP POP PUSH1 0x40 MLOAD DUP1 SWAP2 SUB SWAP1 RETURN JUMPDEST PUSH2 0xE7 PUSH2 0x149 JUMP JUMPDEST PUSH1 0x40 MLOAD DUP1 DUP3 DUP2 MSTORE PUSH1 0x20 ADD SWAP2 POP POP PUSH1 0x40 MLOAD DUP1 SWAP2 SUB SWAP1 RETURN JUMPDEST PUSH2 0x105 PUSH2 0x152 JUMP JUMPDEST PUSH1 0x40 MLOAD DUP1 DUP3 DUP2 MSTORE PUSH1 0x20 ADD SWAP2 POP POP PUSH1 0x40 MLOAD DUP1 SWAP2 SUB SWAP1 RETURN JUMPDEST PUSH1 0x0 PUSH1 0x1 SLOAD SWAP1 POP SWAP1 JUMP JUMPDEST PUSH1 0x0 SLOAD DUP2 JUMP JUMPDEST PUSH1 0x0 DUP1 DUP1 SWAP2 POP POP SWAP1 JUMP JUMPDEST PUSH1 0x0 DUP1 PUSH2 0x140 PUSH2 0x158 JUMP JUMPDEST SWAP1 POP DUP1 SWAP2 POP POP SWAP1 JUMP JUMPDEST PUSH1 0x0 DUP1 SLOAD SWAP1 POP SWAP1 JUMP JUMPDEST PUSH1 0x3 SLOAD DUP2 JUMP JUMPDEST PUSH1 0x0 PUSH1 0x2 SLOAD SWAP1 POP SWAP1 JUMP INVALID LOG2 PUSH5 0x6970667358 0x22 SLT KECCAK256 0x2E PUSH22 0x78BFE623EED7FE5C0550B8EF37ECC78FC2DDFB1D52F2 0xEC DUP3 0xDC 0xC2 0xDF PUSH29 0x16A864736F6C6343000706003300000000000000000000000000000000 "
		},
		"gasEstimates": {
			"creation": {
				"codeDepositCost": "81600",
				"executionCost": "infinite",
				"totalCost": "infinite"
			},
			"external": {
				"f2()": "1105",
				"f4()": "1079",
				"f5()": "240",
				"getY()": "991",
				"x()": "1005",
				"xx()": "1093"
			}
		},
		"methodIdentifiers": {
			"f2()": "9942ec6f",
			"f4()": "c3f90202",
			"f5()": "3c9d377d",
			"getY()": "0b7f1665",
			"x()": "0c55699c",
			"xx()": "ece57b04"
		}
	},
	"abi": [
		{
			"inputs": [],
			"name": "f2",
			"outputs": [
				{
					"internalType": "int256",
					"name": "",
					"type": "int256"
				}
			],
			"stateMutability": "view",
			"type": "function"
		},
		{
			"inputs": [],
			"name": "f4",
			"outputs": [
				{
					"internalType": "int256",
					"name": "",
					"type": "int256"
				}
			],
			"stateMutability": "view",
			"type": "function"
		},
		{
			"inputs": [],
			"name": "f5",
			"outputs": [
				{
					"internalType": "int256",
					"name": "",
					"type": "int256"
				}
			],
			"stateMutability": "pure",
			"type": "function"
		},
		{
			"inputs": [],
			"name": "getY",
			"outputs": [
				{
					"internalType": "int256",
					"name": "",
					"type": "int256"
				}
			],
			"stateMutability": "view",
			"type": "function"
		},
		{
			"inputs": [],
			"name": "x",
			"outputs": [
				{
					"internalType": "int256",
					"name": "",
					"type": "int256"
				}
			],
			"stateMutability": "view",
			"type": "function"
		},
		{
			"inputs": [],
			"name": "xx",
			"outputs": [
				{
					"internalType": "int256",
					"name": "",
					"type": "int256"
				}
			],
			"stateMutability": "view",
			"type": "function"
		}
	]
}